{
  "contractName": "AuctionableTrust",
  "abi": [
    {
      "constant": true,
      "inputs": [],
      "name": "auctionEndDate",
      "outputs": [
        {
          "name": "",
          "type": "uint256"
        }
      ],
      "payable": false,
      "stateMutability": "view",
      "type": "function"
    },
    {
      "constant": true,
      "inputs": [],
      "name": "bids",
      "outputs": [
        {
          "name": "",
          "type": "address[]"
        }
      ],
      "payable": false,
      "stateMutability": "view",
      "type": "function"
    },
    {
      "constant": false,
      "inputs": [],
      "name": "makeAuctionEnd",
      "outputs": [],
      "payable": false,
      "stateMutability": "nonpayable",
      "type": "function"
    },
    {
      "constant": true,
      "inputs": [],
      "name": "auctionRunning",
      "outputs": [
        {
          "name": "",
          "type": "bool"
        }
      ],
      "payable": false,
      "stateMutability": "view",
      "type": "function"
    },
    {
      "constant": true,
      "inputs": [],
      "name": "highestBid",
      "outputs": [
        {
          "name": "",
          "type": "address"
        }
      ],
      "payable": false,
      "stateMutability": "view",
      "type": "function"
    },
    {
      "inputs": [],
      "payable": false,
      "stateMutability": "nonpayable",
      "type": "constructor"
    }
  ],
  "bytecode": "0x6060604052341561000f57600080fd5b61002464010000000061022361002982021704565b610049565b60018054600160a060020a0319169055600080556003805460ff19169055565b61027c806100586000396000f300606060405263ffffffff7c01000000000000000000000000000000000000000000000000000000006000350416633d827e058114610068578063cc996d1b1461008d578063cdf48ba0146100f3578063d51b817a14610108578063d57bde791461012f57600080fd5b341561007357600080fd5b61007b61016b565b60405190815260200160405180910390f35b341561009857600080fd5b6100a0610171565b60405160208082528190810183818151815260200191508051906020019060200280838360005b838110156100df5780820151838201526020016100c7565b505050509050019250505060405180910390f35b34156100fe57600080fd5b6101066101e6565b005b341561011357600080fd5b61011b6101ec565b604051901515815260200160405180910390f35b341561013a57600080fd5b6101426101f5565b60405173ffffffffffffffffffffffffffffffffffffffff909116815260200160405180910390f35b60005481565b610179610211565b60028054806020026020016040519081016040528092919081815260200182805480156101dc57602002820191906000526020600020905b815473ffffffffffffffffffffffffffffffffffffffff1681526001909101906020018083116101b1575b5050505050905090565b60008055565b60035460ff1681565b60015473ffffffffffffffffffffffffffffffffffffffff1681565b60206040519081016040526000815290565b6001805473ffffffffffffffffffffffffffffffffffffffff19169055600080556003805460ff191690555600a165627a7a723058203ae9283c13edc0d060393ac63af5815d9c985b54a2379d276e7c460847747bab0029",
  "source": "pragma solidity ^0.4.4;\nimport { Bid } from './Bid.sol';\n\ncontract AuctionableTrust {\n\n    uint public auctionEndDate;\n    address public highestBid;\n    address[] bidsList;\n    bool public auctionRunning;\n\n    modifier onAuction()\n    {\n        require(auctionRunning);\n        _;\n    }\n\n    function AuctionableTrust()\n        public\n    {\n        resetAuctionFields();\n    }\n\n    function runAuction()\n        internal\n    {\n        require(!auctionRunning);\n        auctionEndDate = now + 14 days;\n        auctionRunning = true;\n    }\n\n    function stopAuction()\n        internal\n    {\n        require(auctionRunning);\n        resetAuctionFields();\n    }\n\n    function resetAuctionFields()\n        private\n    {\n        highestBid = 0x0;\n        auctionEndDate = 0;\n        auctionRunning = false;\n    }\n\n    function bids()\n        public\n        view returns(address[])\n    {\n        return bidsList;\n    }\n\n    /**\n     * should be removed for the purpose of testing\n     */\n    function makeAuctionEnd()\n        public\n    {\n        auctionEndDate = 0;\n    }\n\n}\n",
  "sourcePath": "/Users/chanopalis/Documents/ethereum-contracts/smart-law-contracts/DexRE-Contract/contracts/AuctionableTrust.sol",
  "schemaVersion": "1.0.0",
  "updatedAt": "2018-02-28T18:05:46.239Z"
}