{
  "contractName": "BancorPriceFloor",
  "abi": [
    {
      "constant": true,
      "inputs": [],
      "name": "TOKEN_PRICE_D",
      "outputs": [
        {
          "name": "",
          "type": "uint256"
        }
      ],
      "payable": false,
      "stateMutability": "view",
      "type": "function"
    },
    {
      "constant": false,
      "inputs": [
        {
          "name": "_amount",
          "type": "uint256"
        }
      ],
      "name": "withdraw",
      "outputs": [],
      "payable": false,
      "stateMutability": "nonpayable",
      "type": "function"
    },
    {
      "constant": false,
      "inputs": [],
      "name": "sell",
      "outputs": [
        {
          "name": "amount",
          "type": "uint256"
        }
      ],
      "payable": false,
      "stateMutability": "nonpayable",
      "type": "function"
    },
    {
      "constant": true,
      "inputs": [],
      "name": "TOKEN_PRICE_N",
      "outputs": [
        {
          "name": "",
          "type": "uint256"
        }
      ],
      "payable": false,
      "stateMutability": "view",
      "type": "function"
    },
    {
      "constant": true,
      "inputs": [],
      "name": "version",
      "outputs": [
        {
          "name": "",
          "type": "string"
        }
      ],
      "payable": false,
      "stateMutability": "view",
      "type": "function"
    },
    {
      "constant": false,
      "inputs": [
        {
          "name": "_token",
          "type": "address"
        },
        {
          "name": "_to",
          "type": "address"
        },
        {
          "name": "_amount",
          "type": "uint256"
        }
      ],
      "name": "withdrawTokens",
      "outputs": [],
      "payable": false,
      "stateMutability": "nonpayable",
      "type": "function"
    },
    {
      "constant": false,
      "inputs": [],
      "name": "acceptOwnership",
      "outputs": [],
      "payable": false,
      "stateMutability": "nonpayable",
      "type": "function"
    },
    {
      "constant": true,
      "inputs": [],
      "name": "owner",
      "outputs": [
        {
          "name": "",
          "type": "address"
        }
      ],
      "payable": false,
      "stateMutability": "view",
      "type": "function"
    },
    {
      "constant": true,
      "inputs": [],
      "name": "newOwner",
      "outputs": [
        {
          "name": "",
          "type": "address"
        }
      ],
      "payable": false,
      "stateMutability": "view",
      "type": "function"
    },
    {
      "constant": false,
      "inputs": [
        {
          "name": "_newOwner",
          "type": "address"
        }
      ],
      "name": "transferOwnership",
      "outputs": [],
      "payable": false,
      "stateMutability": "nonpayable",
      "type": "function"
    },
    {
      "constant": true,
      "inputs": [],
      "name": "token",
      "outputs": [
        {
          "name": "",
          "type": "address"
        }
      ],
      "payable": false,
      "stateMutability": "view",
      "type": "function"
    },
    {
      "inputs": [
        {
          "name": "_token",
          "type": "address"
        }
      ],
      "payable": false,
      "stateMutability": "nonpayable",
      "type": "constructor"
    },
    {
      "payable": true,
      "stateMutability": "payable",
      "type": "fallback"
    },
    {
      "anonymous": false,
      "inputs": [
        {
          "indexed": false,
          "name": "_prevOwner",
          "type": "address"
        },
        {
          "indexed": false,
          "name": "_newOwner",
          "type": "address"
        }
      ],
      "name": "OwnerUpdate",
      "type": "event"
    }
  ],
  "bytecode": "0x606060405260408051908101604052600381527f302e3100000000000000000000000000000000000000000000000000000000006020820152600290805161004b9291602001906100c4565b50341561005757600080fd5b6040516020806108708339810160405280805160008054600160a060020a03191633600160a060020a03908116919091179091559092508291508116151561009e57600080fd5b5060038054600160a060020a031916600160a060020a039290921691909117905561015f565b828054600181600116156101000203166002900490600052602060002090601f016020900481019282601f1061010557805160ff1916838001178555610132565b82800160010185558215610132579182015b82811115610132578251825591602001919060010190610117565b5061013e929150610142565b5090565b61015c91905b8082111561013e5760008155600101610148565b90565b6107028061016e6000396000f300606060405236156100935763ffffffff60e060020a6000350416630d2806ad81146100955780632e1a7d4d146100ba57806345710074146100d057806345cfad3e146100e357806354fd4d50146100f65780635e35359e1461018057806379ba5097146101a85780638da5cb5b146101bb578063d4ee1d90146101ea578063f2fde38b146101fd578063fc0c546a1461021c575b005b34156100a057600080fd5b6100a861022f565b60405190815260200160405180910390f35b34156100c557600080fd5b610093600435610234565b34156100db57600080fd5b6100a8610280565b34156100ee57600080fd5b6100a86103e4565b341561010157600080fd5b6101096103e9565b60405160208082528190810183818151815260200191508051906020019080838360005b8381101561014557808201518382015260200161012d565b50505050905090810190601f1680156101725780820380516001836020036101000a031916815260200191505b509250505060405180910390f35b341561018b57600080fd5b610093600160a060020a0360043581169060243516604435610487565b34156101b357600080fd5b610093610575565b34156101c657600080fd5b6101ce61061c565b604051600160a060020a03909116815260200160405180910390f35b34156101f557600080fd5b6101ce61062b565b341561020857600080fd5b610093600160a060020a036004351661063a565b341561022757600080fd5b6101ce61069c565b606481565b60005433600160a060020a0390811691161461024c57fe5b600160a060020a03331681156108fc0282604051600060405180830381858888f19350505050151561027d57600080fd5b50565b60035460009081908190600160a060020a031663dd62ed3e3330846040516020015260405160e060020a63ffffffff8516028152600160a060020a03928316600482015291166024820152604401602060405180830381600087803b15156102e757600080fd5b6102c65a03f115156102f857600080fd5b5050506040518051600354909350600160a060020a031690506323b872dd33308560006040516020015260405160e060020a63ffffffff8616028152600160a060020a0393841660048201529190921660248201526044810191909152606401602060405180830381600087803b151561037157600080fd5b6102c65a03f1151561038257600080fd5b50505060405180519050151561039457fe5b60646103a18360016106ab565b8115156103aa57fe5b049050600160a060020a03331681156108fc0282604051600060405180830381858888f1935050505015156103de57600080fd5b92915050565b600181565b60028054600181600116156101000203166002900480601f01602080910402602001604051908101604052809291908181526020018280546001816001161561010002031660029004801561047f5780601f106104545761010080835404028352916020019161047f565b820191906000526020600020905b81548152906001019060200180831161046257829003601f168201915b505050505081565b60005433600160a060020a0390811691161461049f57fe5b82600160a060020a03811615156104b557600080fd5b82600160a060020a03811615156104cb57600080fd5b8330600160a060020a031681600160a060020a0316141515156104ed57600080fd5b85600160a060020a031663a9059cbb868660006040516020015260405160e060020a63ffffffff8516028152600160a060020a0390921660048301526024820152604401602060405180830381600087803b151561054a57600080fd5b6102c65a03f1151561055b57600080fd5b50505060405180519050151561056d57fe5b505050505050565b60015433600160a060020a0390811691161461059057600080fd5b6000546001547f343765429aea5a34b3ff6a3785a98a5abb2597aca87bfbb58632c173d585373a91600160a060020a039081169116604051600160a060020a039283168152911660208201526040908101905180910390a1600180546000805473ffffffffffffffffffffffffffffffffffffffff19908116600160a060020a03841617909155169055565b600054600160a060020a031681565b600154600160a060020a031681565b60005433600160a060020a0390811691161461065257fe5b600054600160a060020a038281169116141561066d57600080fd5b6001805473ffffffffffffffffffffffffffffffffffffffff1916600160a060020a0392909216919091179055565b600354600160a060020a031681565b60008282028315806106c757508284828115156106c457fe5b04145b15156106cf57fe5b93925050505600a165627a7a72305820b09119fbf6ae937c9fac6f27b6c57f73ef20a2b2800dd036bb3cfb94dfee46240029",
  "source": "pragma solidity ^0.4.11;\nimport './TokenHolder.sol';\nimport './Owned.sol';\nimport './Utils.sol';\nimport './interfaces/ISmartToken.sol';\n\n/*\n    BancorPriceFloor v0.1\n\n    The bancor price floor contract is a simple contract that allows selling smart tokens for a constant ETH price\n\n    'Owned' is specified here for readability reasons\n*/\ncontract BancorPriceFloor is Owned, TokenHolder {\n    uint256 public constant TOKEN_PRICE_N = 1;      // crowdsale price in wei (numerator)\n    uint256 public constant TOKEN_PRICE_D = 100;    // crowdsale price in wei (denominator)\n\n    string public version = '0.1';\n    ISmartToken public token; // smart token the contract allows selling\n\n    /**\n        @dev constructor\n\n        @param _token   smart token the contract allows selling\n    */\n    function BancorPriceFloor(ISmartToken _token)\n        validAddress(_token)\n        public\n    {\n        token = _token;\n    }\n\n    /**\n        @dev sells the smart token for ETH\n        note that the function will sell the full allowance amount\n\n        @return ETH sent in return\n    */\n    function sell() public returns (uint256 amount) {\n        uint256 allowance = token.allowance(msg.sender, this); // get the full allowance amount\n        assert(token.transferFrom(msg.sender, this, allowance)); // transfer all tokens from the sender to the contract\n        uint256 etherValue = safeMul(allowance, TOKEN_PRICE_N) / TOKEN_PRICE_D; // calculate ETH value of the tokens\n        msg.sender.transfer(etherValue); // send the ETH amount to the seller\n        return etherValue;\n    }\n\n    /**\n        @dev withdraws ETH from the contract\n\n        @param _amount  amount of ETH to withdraw\n    */\n    function withdraw(uint256 _amount) public ownerOnly {\n        msg.sender.transfer(_amount); // send the amount\n    }\n\n    /**\n        @dev deposits ETH in the contract\n    */\n    function() public payable {\n    }\n}\n",
  "sourcePath": "/Users/chanopalis/Documents/ethereum-contracts/smart-law-contracts/DexRE-Contract/contracts/LiquidRE/bancor/BancorPriceFloor.sol",
  "schemaVersion": "1.0.0",
  "updatedAt": "2018-02-28T18:05:46.267Z"
}