{
  "contractName": "BancorGasPriceLimit",
  "abi": [
    {
      "constant": false,
      "inputs": [],
      "name": "acceptOwnership",
      "outputs": [],
      "payable": false,
      "stateMutability": "nonpayable",
      "type": "function"
    },
    {
      "constant": true,
      "inputs": [],
      "name": "owner",
      "outputs": [
        {
          "name": "",
          "type": "address"
        }
      ],
      "payable": false,
      "stateMutability": "view",
      "type": "function"
    },
    {
      "constant": false,
      "inputs": [
        {
          "name": "_gasPrice",
          "type": "uint256"
        }
      ],
      "name": "setGasPrice",
      "outputs": [],
      "payable": false,
      "stateMutability": "nonpayable",
      "type": "function"
    },
    {
      "constant": true,
      "inputs": [],
      "name": "newOwner",
      "outputs": [
        {
          "name": "",
          "type": "address"
        }
      ],
      "payable": false,
      "stateMutability": "view",
      "type": "function"
    },
    {
      "constant": false,
      "inputs": [
        {
          "name": "_newOwner",
          "type": "address"
        }
      ],
      "name": "transferOwnership",
      "outputs": [],
      "payable": false,
      "stateMutability": "nonpayable",
      "type": "function"
    },
    {
      "constant": true,
      "inputs": [],
      "name": "gasPrice",
      "outputs": [
        {
          "name": "",
          "type": "uint256"
        }
      ],
      "payable": false,
      "stateMutability": "view",
      "type": "function"
    },
    {
      "inputs": [
        {
          "name": "_gasPrice",
          "type": "uint256"
        }
      ],
      "payable": false,
      "stateMutability": "nonpayable",
      "type": "constructor"
    },
    {
      "anonymous": false,
      "inputs": [
        {
          "indexed": false,
          "name": "_prevOwner",
          "type": "address"
        },
        {
          "indexed": false,
          "name": "_newOwner",
          "type": "address"
        }
      ],
      "name": "OwnerUpdate",
      "type": "event"
    }
  ],
  "bytecode": "0x60606040526000600255341561001457600080fd5b6040516020806103b28339810160405280805160008054600160a060020a03191633600160a060020a0316178155909250829150811161005357600080fd5b5060025561034c806100666000396000f300606060405236156100755763ffffffff7c010000000000000000000000000000000000000000000000000000000060003504166379ba5097811461007a5780638da5cb5b1461008f578063bf1fe420146100cb578063d4ee1d90146100e1578063f2fde38b146100f4578063fe173b9714610120575b600080fd5b341561008557600080fd5b61008d610145565b005b341561009a57600080fd5b6100a2610220565b60405173ffffffffffffffffffffffffffffffffffffffff909116815260200160405180910390f35b34156100d657600080fd5b61008d60043561023c565b34156100ec57600080fd5b6100a2610275565b34156100ff57600080fd5b61008d73ffffffffffffffffffffffffffffffffffffffff60043516610291565b341561012b57600080fd5b61013361031a565b60405190815260200160405180910390f35b6001543373ffffffffffffffffffffffffffffffffffffffff90811691161461016d57600080fd5b6000546001547f343765429aea5a34b3ff6a3785a98a5abb2597aca87bfbb58632c173d585373a9173ffffffffffffffffffffffffffffffffffffffff908116911660405173ffffffffffffffffffffffffffffffffffffffff9283168152911660208201526040908101905180910390a1600180546000805473ffffffffffffffffffffffffffffffffffffffff1990811673ffffffffffffffffffffffffffffffffffffffff841617909155169055565b60005473ffffffffffffffffffffffffffffffffffffffff1681565b6000543373ffffffffffffffffffffffffffffffffffffffff90811691161461026157fe5b806000811161026f57600080fd5b50600255565b60015473ffffffffffffffffffffffffffffffffffffffff1681565b6000543373ffffffffffffffffffffffffffffffffffffffff9081169116146102b657fe5b60005473ffffffffffffffffffffffffffffffffffffffff828116911614156102de57600080fd5b6001805473ffffffffffffffffffffffffffffffffffffffff191673ffffffffffffffffffffffffffffffffffffffff92909216919091179055565b600254815600a165627a7a723058208eada2e60f0f7b40499ff6894650d9d896fa9e430a169a872a9e1ff7796621520029",
  "source": "pragma solidity ^0.4.11;\nimport './Owned.sol';\nimport './Utils.sol';\nimport './interfaces/IBancorGasPriceLimit.sol';\n\n/*\n    The BancorGasPriceLimit contract serves as an extra front-running attack mitigation mechanism.\n    It sets a maximum gas price on all bancor conversions, which prevents users from \"cutting in line\"\n    in order to front-run other transactions.\n    The gas price limit is universal to all converters and it can be updated by the owner to be in line\n    with the network's current gas price.\n*/\ncontract BancorGasPriceLimit is IBancorGasPriceLimit, Owned, Utils {\n    uint256 public gasPrice = 0 wei;    // maximum gas price for bancor transactions\n\n    /**\n        @dev constructor\n\n        @param _gasPrice    gas price limit\n    */\n    function BancorGasPriceLimit(uint256 _gasPrice)\n        greaterThanZero(_gasPrice)\n        public\n    {\n        gasPrice = _gasPrice;\n    }\n\n    /*\n        @dev allows the owner to update the gas price limit\n\n        @param _gasPrice    new gas price limit\n    */\n    function setGasPrice(uint256 _gasPrice)\n        public\n        ownerOnly\n        greaterThanZero(_gasPrice)\n    {\n        gasPrice = _gasPrice;\n    }\n}\n",
  "sourcePath": "/Users/chanopalis/Documents/ethereum-contracts/smart-law-contracts/DexRE-Contract/contracts/LiquidRE/bancor/BancorGasPriceLimit.sol",
  "schemaVersion": "1.0.0",
  "updatedAt": "2018-03-02T16:04:52.239Z"
}