{
  "contractName": "BancorConverterExtensions",
  "abi": [
    {
      "constant": true,
      "inputs": [],
      "name": "formula",
      "outputs": [
        {
          "name": "",
          "type": "address"
        }
      ],
      "payable": false,
      "stateMutability": "view",
      "type": "function"
    },
    {
      "constant": false,
      "inputs": [
        {
          "name": "_token",
          "type": "address"
        },
        {
          "name": "_to",
          "type": "address"
        },
        {
          "name": "_amount",
          "type": "uint256"
        }
      ],
      "name": "withdrawTokens",
      "outputs": [],
      "payable": false,
      "stateMutability": "nonpayable",
      "type": "function"
    },
    {
      "constant": false,
      "inputs": [],
      "name": "acceptOwnership",
      "outputs": [],
      "payable": false,
      "stateMutability": "nonpayable",
      "type": "function"
    },
    {
      "constant": true,
      "inputs": [],
      "name": "owner",
      "outputs": [
        {
          "name": "",
          "type": "address"
        }
      ],
      "payable": false,
      "stateMutability": "view",
      "type": "function"
    },
    {
      "constant": true,
      "inputs": [],
      "name": "gasPriceLimit",
      "outputs": [
        {
          "name": "",
          "type": "address"
        }
      ],
      "payable": false,
      "stateMutability": "view",
      "type": "function"
    },
    {
      "constant": false,
      "inputs": [
        {
          "name": "_quickConverter",
          "type": "address"
        }
      ],
      "name": "setQuickConverter",
      "outputs": [],
      "payable": false,
      "stateMutability": "nonpayable",
      "type": "function"
    },
    {
      "constant": true,
      "inputs": [],
      "name": "quickConverter",
      "outputs": [
        {
          "name": "",
          "type": "address"
        }
      ],
      "payable": false,
      "stateMutability": "view",
      "type": "function"
    },
    {
      "constant": true,
      "inputs": [],
      "name": "newOwner",
      "outputs": [
        {
          "name": "",
          "type": "address"
        }
      ],
      "payable": false,
      "stateMutability": "view",
      "type": "function"
    },
    {
      "constant": false,
      "inputs": [
        {
          "name": "_gasPriceLimit",
          "type": "address"
        }
      ],
      "name": "setGasPriceLimit",
      "outputs": [],
      "payable": false,
      "stateMutability": "nonpayable",
      "type": "function"
    },
    {
      "constant": false,
      "inputs": [
        {
          "name": "_formula",
          "type": "address"
        }
      ],
      "name": "setFormula",
      "outputs": [],
      "payable": false,
      "stateMutability": "nonpayable",
      "type": "function"
    },
    {
      "constant": false,
      "inputs": [
        {
          "name": "_newOwner",
          "type": "address"
        }
      ],
      "name": "transferOwnership",
      "outputs": [],
      "payable": false,
      "stateMutability": "nonpayable",
      "type": "function"
    },
    {
      "inputs": [
        {
          "name": "_formula",
          "type": "address"
        },
        {
          "name": "_gasPriceLimit",
          "type": "address"
        },
        {
          "name": "_quickConverter",
          "type": "address"
        }
      ],
      "payable": false,
      "stateMutability": "nonpayable",
      "type": "constructor"
    },
    {
      "anonymous": false,
      "inputs": [
        {
          "indexed": false,
          "name": "_prevOwner",
          "type": "address"
        },
        {
          "indexed": false,
          "name": "_newOwner",
          "type": "address"
        }
      ],
      "name": "OwnerUpdate",
      "type": "event"
    }
  ],
  "bytecode": "0x6060604052341561000f57600080fd5b6040516060806106ce83398101604052808051919060200180519190602001805160008054600160a060020a03191633600160a060020a03908116919091179091559092508491508116151561006457600080fd5b82600160a060020a038116151561007a57600080fd5b82600160a060020a038116151561009057600080fd5b505060028054600160a060020a03958616600160a060020a031991821617909155600380549486169482169490941790935550600480549190931691161790556105ef806100df6000396000f300606060405236156100ac5763ffffffff7c01000000000000000000000000000000000000000000000000000000006000350416634b75f54f81146100b15780635e35359e146100e057806379ba50971461010a5780638da5cb5b1461011d578063961a929c14610130578063bbc5d3d914610143578063c31e054714610162578063d4ee1d9014610175578063e33051dd14610188578063ecc06c76146101a7578063f2fde38b146101c6575b600080fd5b34156100bc57600080fd5b6100c46101e5565b604051600160a060020a03909116815260200160405180910390f35b34156100eb57600080fd5b610108600160a060020a03600435811690602435166044356101f4565b005b341561011557600080fd5b6101086102fb565b341561012857600080fd5b6100c46103a2565b341561013b57600080fd5b6100c46103b1565b341561014e57600080fd5b610108600160a060020a03600435166103c0565b341561016d57600080fd5b6100c4610441565b341561018057600080fd5b6100c4610450565b341561019357600080fd5b610108600160a060020a036004351661045f565b34156101b257600080fd5b610108600160a060020a03600435166104e0565b34156101d157600080fd5b610108600160a060020a0360043516610561565b600254600160a060020a031681565b60005433600160a060020a0390811691161461020c57fe5b82600160a060020a038116151561022257600080fd5b82600160a060020a038116151561023857600080fd5b8330600160a060020a031681600160a060020a03161415151561025a57600080fd5b85600160a060020a031663a9059cbb86866000604051602001526040517c010000000000000000000000000000000000000000000000000000000063ffffffff8516028152600160a060020a0390921660048301526024820152604401602060405180830381600087803b15156102d057600080fd5b6102c65a03f115156102e157600080fd5b5050506040518051905015156102f357fe5b505050505050565b60015433600160a060020a0390811691161461031657600080fd5b6000546001547f343765429aea5a34b3ff6a3785a98a5abb2597aca87bfbb58632c173d585373a91600160a060020a039081169116604051600160a060020a039283168152911660208201526040908101905180910390a1600180546000805473ffffffffffffffffffffffffffffffffffffffff19908116600160a060020a03841617909155169055565b600054600160a060020a031681565b600354600160a060020a031681565b60005433600160a060020a039081169116146103d857fe5b80600160a060020a03811615156103ee57600080fd5b8130600160a060020a031681600160a060020a03161415151561041057600080fd5b50506004805473ffffffffffffffffffffffffffffffffffffffff1916600160a060020a0392909216919091179055565b600454600160a060020a031681565b600154600160a060020a031681565b60005433600160a060020a0390811691161461047757fe5b80600160a060020a038116151561048d57600080fd5b8130600160a060020a031681600160a060020a0316141515156104af57600080fd5b50506003805473ffffffffffffffffffffffffffffffffffffffff1916600160a060020a0392909216919091179055565b60005433600160a060020a039081169116146104f857fe5b80600160a060020a038116151561050e57600080fd5b8130600160a060020a031681600160a060020a03161415151561053057600080fd5b50506002805473ffffffffffffffffffffffffffffffffffffffff1916600160a060020a0392909216919091179055565b60005433600160a060020a0390811691161461057957fe5b600054600160a060020a038281169116141561059457600080fd5b6001805473ffffffffffffffffffffffffffffffffffffffff1916600160a060020a03929092169190911790555600a165627a7a7230582070637be7747ffd4ef832def7e4424c6ab278d966f8c353ac7cb7e1fe81c2da1c0029",
  "source": "pragma solidity ^0.4.11;\nimport './TokenHolder.sol';\nimport './interfaces/IBancorConverterExtensions.sol';\n\n/**\n    @dev the BancorConverterExtensions contract is an owned contract that serves as a single point of access\n    to the BancorFormula, BancorGasPriceLimit and BancorQuickConverter contracts from all BancorConverter contract instances.\n    it allows upgrading these contracts without the need to update each and every\n    BancorConverter contract instance individually.\n*/\ncontract BancorConverterExtensions is IBancorConverterExtensions, TokenHolder {\n    IBancorFormula public formula;  // bancor calculation formula contract\n    IBancorGasPriceLimit public gasPriceLimit; // bancor universal gas price limit contract\n    IBancorQuickConverter public quickConverter; // bancor quick converter contract\n\n    /**\n        @dev constructor\n\n        @param _formula         address of a bancor formula contract\n        @param _gasPriceLimit   address of a bancor gas price limit contract\n        @param _quickConverter  address of a bancor quick converter contract\n    */\n    function BancorConverterExtensions(IBancorFormula _formula, IBancorGasPriceLimit _gasPriceLimit, IBancorQuickConverter _quickConverter)\n        validAddress(_formula)\n        validAddress(_gasPriceLimit)\n        validAddress(_quickConverter)\n        public \n    {\n        formula = _formula;\n        gasPriceLimit = _gasPriceLimit;\n        quickConverter = _quickConverter;\n    }\n\n    /*\n        @dev allows the owner to update the formula contract address\n\n        @param _formula    address of a bancor formula contract\n    */\n    function setFormula(IBancorFormula _formula)\n        public\n        ownerOnly\n        validAddress(_formula)\n        notThis(_formula)\n    {\n        formula = _formula;\n    }\n\n    /*\n        @dev allows the owner to update the gas price limit contract address\n\n        @param _gasPriceLimit   address of a bancor gas price limit contract\n    */\n    function setGasPriceLimit(IBancorGasPriceLimit _gasPriceLimit)\n        public\n        ownerOnly\n        validAddress(_gasPriceLimit)\n        notThis(_gasPriceLimit)\n    {\n        gasPriceLimit = _gasPriceLimit;\n    }\n\n    /*\n        @dev allows the owner to update the quick converter contract address\n\n        @param _quickConverter  address of a bancor quick converter contract\n    */\n    function setQuickConverter(IBancorQuickConverter _quickConverter)\n        public\n        ownerOnly\n        validAddress(_quickConverter)\n        notThis(_quickConverter)\n    {\n        quickConverter = _quickConverter;\n    }\n}\n",
  "sourcePath": "/Users/chanopalis/Documents/ethereum-contracts/smart-law-contracts/DexRE-Contract/contracts/LiquidRE/bancor/BancorConverterExtensions.sol",
  "schemaVersion": "1.0.0",
  "updatedAt": "2018-03-02T16:04:52.229Z"
}