{
  "contractName": "BancorConverter",
  "abi": [
    {
      "constant": false,
      "inputs": [
        {
          "name": "_connectorToken",
          "type": "address"
        },
        {
          "name": "_weight",
          "type": "uint32"
        },
        {
          "name": "_enableVirtualBalance",
          "type": "bool"
        },
        {
          "name": "_virtualBalance",
          "type": "uint256"
        }
      ],
      "name": "updateConnector",
      "outputs": [],
      "payable": false,
      "stateMutability": "nonpayable",
      "type": "function"
    },
    {
      "constant": true,
      "inputs": [
        {
          "name": "",
          "type": "address"
        }
      ],
      "name": "connectors",
      "outputs": [
        {
          "name": "virtualBalance",
          "type": "uint256"
        },
        {
          "name": "weight",
          "type": "uint32"
        },
        {
          "name": "isVirtualBalanceEnabled",
          "type": "bool"
        },
        {
          "name": "isPurchaseEnabled",
          "type": "bool"
        },
        {
          "name": "isSet",
          "type": "bool"
        }
      ],
      "payable": false,
      "stateMutability": "view",
      "type": "function"
    },
    {
      "constant": true,
      "inputs": [
        {
          "name": "",
          "type": "uint256"
        }
      ],
      "name": "connectorTokens",
      "outputs": [
        {
          "name": "",
          "type": "address"
        }
      ],
      "payable": false,
      "stateMutability": "view",
      "type": "function"
    },
    {
      "constant": true,
      "inputs": [
        {
          "name": "_fromToken",
          "type": "address"
        },
        {
          "name": "_toToken",
          "type": "address"
        },
        {
          "name": "_amount",
          "type": "uint256"
        }
      ],
      "name": "getReturn",
      "outputs": [
        {
          "name": "",
          "type": "uint256"
        }
      ],
      "payable": false,
      "stateMutability": "view",
      "type": "function"
    },
    {
      "constant": false,
      "inputs": [
        {
          "name": "_newOwner",
          "type": "address"
        }
      ],
      "name": "transferTokenOwnership",
      "outputs": [],
      "payable": false,
      "stateMutability": "nonpayable",
      "type": "function"
    },
    {
      "constant": false,
      "inputs": [
        {
          "name": "_disable",
          "type": "bool"
        }
      ],
      "name": "disableConversions",
      "outputs": [],
      "payable": false,
      "stateMutability": "nonpayable",
      "type": "function"
    },
    {
      "constant": false,
      "inputs": [
        {
          "name": "_extensions",
          "type": "address"
        }
      ],
      "name": "setExtensions",
      "outputs": [],
      "payable": false,
      "stateMutability": "nonpayable",
      "type": "function"
    },
    {
      "constant": true,
      "inputs": [],
      "name": "extensions",
      "outputs": [
        {
          "name": "",
          "type": "address"
        }
      ],
      "payable": false,
      "stateMutability": "view",
      "type": "function"
    },
    {
      "constant": true,
      "inputs": [
        {
          "name": "_amount",
          "type": "uint256"
        }
      ],
      "name": "getConversionFeeAmount",
      "outputs": [
        {
          "name": "",
          "type": "uint256"
        }
      ],
      "payable": false,
      "stateMutability": "view",
      "type": "function"
    },
    {
      "constant": false,
      "inputs": [],
      "name": "acceptTokenOwnership",
      "outputs": [],
      "payable": false,
      "stateMutability": "nonpayable",
      "type": "function"
    },
    {
      "constant": true,
      "inputs": [],
      "name": "converterType",
      "outputs": [
        {
          "name": "",
          "type": "string"
        }
      ],
      "payable": false,
      "stateMutability": "view",
      "type": "function"
    },
    {
      "constant": false,
      "inputs": [
        {
          "name": "_token",
          "type": "address"
        },
        {
          "name": "_weight",
          "type": "uint32"
        },
        {
          "name": "_enableVirtualBalance",
          "type": "bool"
        }
      ],
      "name": "addConnector",
      "outputs": [],
      "payable": false,
      "stateMutability": "nonpayable",
      "type": "function"
    },
    {
      "constant": false,
      "inputs": [
        {
          "name": "_token",
          "type": "address"
        },
        {
          "name": "_to",
          "type": "address"
        },
        {
          "name": "_amount",
          "type": "uint256"
        }
      ],
      "name": "withdrawFromToken",
      "outputs": [],
      "payable": false,
      "stateMutability": "nonpayable",
      "type": "function"
    },
    {
      "constant": true,
      "inputs": [],
      "name": "newManager",
      "outputs": [
        {
          "name": "",
          "type": "address"
        }
      ],
      "payable": false,
      "stateMutability": "view",
      "type": "function"
    },
    {
      "constant": true,
      "inputs": [],
      "name": "manager",
      "outputs": [
        {
          "name": "",
          "type": "address"
        }
      ],
      "payable": false,
      "stateMutability": "view",
      "type": "function"
    },
    {
      "constant": false,
      "inputs": [],
      "name": "clearQuickBuyPath",
      "outputs": [],
      "payable": false,
      "stateMutability": "nonpayable",
      "type": "function"
    },
    {
      "constant": false,
      "inputs": [
        {
          "name": "_connectorToken",
          "type": "address"
        },
        {
          "name": "_disable",
          "type": "bool"
        }
      ],
      "name": "disableConnectorPurchases",
      "outputs": [],
      "payable": false,
      "stateMutability": "nonpayable",
      "type": "function"
    },
    {
      "constant": true,
      "inputs": [],
      "name": "version",
      "outputs": [
        {
          "name": "",
          "type": "string"
        }
      ],
      "payable": false,
      "stateMutability": "view",
      "type": "function"
    },
    {
      "constant": true,
      "inputs": [],
      "name": "conversionFee",
      "outputs": [
        {
          "name": "",
          "type": "uint32"
        }
      ],
      "payable": false,
      "stateMutability": "view",
      "type": "function"
    },
    {
      "constant": false,
      "inputs": [
        {
          "name": "_token",
          "type": "address"
        },
        {
          "name": "_to",
          "type": "address"
        },
        {
          "name": "_amount",
          "type": "uint256"
        }
      ],
      "name": "withdrawTokens",
      "outputs": [],
      "payable": false,
      "stateMutability": "nonpayable",
      "type": "function"
    },
    {
      "constant": false,
      "inputs": [
        {
          "name": "_fromToken",
          "type": "address"
        },
        {
          "name": "_toToken",
          "type": "address"
        },
        {
          "name": "_amount",
          "type": "uint256"
        },
        {
          "name": "_minReturn",
          "type": "uint256"
        }
      ],
      "name": "change",
      "outputs": [
        {
          "name": "",
          "type": "uint256"
        }
      ],
      "payable": false,
      "stateMutability": "nonpayable",
      "type": "function"
    },
    {
      "constant": false,
      "inputs": [
        {
          "name": "_connectorToken",
          "type": "address"
        },
        {
          "name": "_sellAmount",
          "type": "uint256"
        },
        {
          "name": "_minReturn",
          "type": "uint256"
        }
      ],
      "name": "sell",
      "outputs": [
        {
          "name": "",
          "type": "uint256"
        }
      ],
      "payable": false,
      "stateMutability": "nonpayable",
      "type": "function"
    },
    {
      "constant": true,
      "inputs": [],
      "name": "connectorTokenCount",
      "outputs": [
        {
          "name": "",
          "type": "uint16"
        }
      ],
      "payable": false,
      "stateMutability": "view",
      "type": "function"
    },
    {
      "constant": true,
      "inputs": [
        {
          "name": "_connectorToken",
          "type": "address"
        },
        {
          "name": "_sellAmount",
          "type": "uint256"
        }
      ],
      "name": "getSaleReturn",
      "outputs": [
        {
          "name": "",
          "type": "uint256"
        }
      ],
      "payable": false,
      "stateMutability": "view",
      "type": "function"
    },
    {
      "constant": false,
      "inputs": [
        {
          "name": "_fromToken",
          "type": "address"
        },
        {
          "name": "_toToken",
          "type": "address"
        },
        {
          "name": "_amount",
          "type": "uint256"
        },
        {
          "name": "_minReturn",
          "type": "uint256"
        }
      ],
      "name": "convert",
      "outputs": [
        {
          "name": "",
          "type": "uint256"
        }
      ],
      "payable": false,
      "stateMutability": "nonpayable",
      "type": "function"
    },
    {
      "constant": false,
      "inputs": [],
      "name": "acceptOwnership",
      "outputs": [],
      "payable": false,
      "stateMutability": "nonpayable",
      "type": "function"
    },
    {
      "constant": false,
      "inputs": [
        {
          "name": "_disable",
          "type": "bool"
        }
      ],
      "name": "disableTokenTransfers",
      "outputs": [],
      "payable": false,
      "stateMutability": "nonpayable",
      "type": "function"
    },
    {
      "constant": true,
      "inputs": [],
      "name": "owner",
      "outputs": [
        {
          "name": "",
          "type": "address"
        }
      ],
      "payable": false,
      "stateMutability": "view",
      "type": "function"
    },
    {
      "constant": true,
      "inputs": [],
      "name": "getQuickBuyPathLength",
      "outputs": [
        {
          "name": "",
          "type": "uint256"
        }
      ],
      "payable": false,
      "stateMutability": "view",
      "type": "function"
    },
    {
      "constant": true,
      "inputs": [],
      "name": "maxConversionFee",
      "outputs": [
        {
          "name": "",
          "type": "uint32"
        }
      ],
      "payable": false,
      "stateMutability": "view",
      "type": "function"
    },
    {
      "constant": true,
      "inputs": [
        {
          "name": "_connectorToken",
          "type": "address"
        },
        {
          "name": "_depositAmount",
          "type": "uint256"
        }
      ],
      "name": "getPurchaseReturn",
      "outputs": [
        {
          "name": "",
          "type": "uint256"
        }
      ],
      "payable": false,
      "stateMutability": "view",
      "type": "function"
    },
    {
      "constant": false,
      "inputs": [
        {
          "name": "_connectorToken",
          "type": "address"
        },
        {
          "name": "_depositAmount",
          "type": "uint256"
        },
        {
          "name": "_minReturn",
          "type": "uint256"
        }
      ],
      "name": "buy",
      "outputs": [
        {
          "name": "",
          "type": "uint256"
        }
      ],
      "payable": false,
      "stateMutability": "nonpayable",
      "type": "function"
    },
    {
      "constant": true,
      "inputs": [],
      "name": "convertibleTokenCount",
      "outputs": [
        {
          "name": "",
          "type": "uint16"
        }
      ],
      "payable": false,
      "stateMutability": "view",
      "type": "function"
    },
    {
      "constant": true,
      "inputs": [],
      "name": "conversionsEnabled",
      "outputs": [
        {
          "name": "",
          "type": "bool"
        }
      ],
      "payable": false,
      "stateMutability": "view",
      "type": "function"
    },
    {
      "constant": false,
      "inputs": [],
      "name": "acceptManagement",
      "outputs": [],
      "payable": false,
      "stateMutability": "nonpayable",
      "type": "function"
    },
    {
      "constant": false,
      "inputs": [
        {
          "name": "_path",
          "type": "address[]"
        }
      ],
      "name": "setQuickBuyPath",
      "outputs": [],
      "payable": false,
      "stateMutability": "nonpayable",
      "type": "function"
    },
    {
      "constant": true,
      "inputs": [],
      "name": "newOwner",
      "outputs": [
        {
          "name": "",
          "type": "address"
        }
      ],
      "payable": false,
      "stateMutability": "view",
      "type": "function"
    },
    {
      "constant": true,
      "inputs": [
        {
          "name": "_connectorToken",
          "type": "address"
        }
      ],
      "name": "getConnectorBalance",
      "outputs": [
        {
          "name": "",
          "type": "uint256"
        }
      ],
      "payable": false,
      "stateMutability": "view",
      "type": "function"
    },
    {
      "constant": false,
      "inputs": [
        {
          "name": "_newManager",
          "type": "address"
        }
      ],
      "name": "transferManagement",
      "outputs": [],
      "payable": false,
      "stateMutability": "nonpayable",
      "type": "function"
    },
    {
      "constant": true,
      "inputs": [
        {
          "name": "",
          "type": "uint256"
        }
      ],
      "name": "quickBuyPath",
      "outputs": [
        {
          "name": "",
          "type": "address"
        }
      ],
      "payable": false,
      "stateMutability": "view",
      "type": "function"
    },
    {
      "constant": false,
      "inputs": [
        {
          "name": "_conversionFee",
          "type": "uint32"
        }
      ],
      "name": "setConversionFee",
      "outputs": [],
      "payable": false,
      "stateMutability": "nonpayable",
      "type": "function"
    },
    {
      "constant": false,
      "inputs": [
        {
          "name": "_path",
          "type": "address[]"
        },
        {
          "name": "_amount",
          "type": "uint256"
        },
        {
          "name": "_minReturn",
          "type": "uint256"
        }
      ],
      "name": "quickConvert",
      "outputs": [
        {
          "name": "",
          "type": "uint256"
        }
      ],
      "payable": true,
      "stateMutability": "payable",
      "type": "function"
    },
    {
      "constant": true,
      "inputs": [
        {
          "name": "_tokenIndex",
          "type": "uint16"
        }
      ],
      "name": "convertibleToken",
      "outputs": [
        {
          "name": "",
          "type": "address"
        }
      ],
      "payable": false,
      "stateMutability": "view",
      "type": "function"
    },
    {
      "constant": false,
      "inputs": [
        {
          "name": "_newOwner",
          "type": "address"
        }
      ],
      "name": "transferOwnership",
      "outputs": [],
      "payable": false,
      "stateMutability": "nonpayable",
      "type": "function"
    },
    {
      "constant": true,
      "inputs": [],
      "name": "token",
      "outputs": [
        {
          "name": "",
          "type": "address"
        }
      ],
      "payable": false,
      "stateMutability": "view",
      "type": "function"
    },
    {
      "inputs": [
        {
          "name": "_token",
          "type": "address"
        },
        {
          "name": "_extensions",
          "type": "address"
        },
        {
          "name": "_maxConversionFee",
          "type": "uint32"
        },
        {
          "name": "_connectorToken",
          "type": "address"
        },
        {
          "name": "_connectorWeight",
          "type": "uint32"
        }
      ],
      "payable": false,
      "stateMutability": "nonpayable",
      "type": "constructor"
    },
    {
      "payable": true,
      "stateMutability": "payable",
      "type": "fallback"
    },
    {
      "anonymous": false,
      "inputs": [
        {
          "indexed": true,
          "name": "_fromToken",
          "type": "address"
        },
        {
          "indexed": true,
          "name": "_toToken",
          "type": "address"
        },
        {
          "indexed": true,
          "name": "_trader",
          "type": "address"
        },
        {
          "indexed": false,
          "name": "_amount",
          "type": "uint256"
        },
        {
          "indexed": false,
          "name": "_return",
          "type": "uint256"
        },
        {
          "indexed": false,
          "name": "_currentPriceN",
          "type": "uint256"
        },
        {
          "indexed": false,
          "name": "_currentPriceD",
          "type": "uint256"
        }
      ],
      "name": "Conversion",
      "type": "event"
    },
    {
      "anonymous": false,
      "inputs": [
        {
          "indexed": false,
          "name": "_prevFee",
          "type": "uint32"
        },
        {
          "indexed": false,
          "name": "_newFee",
          "type": "uint32"
        }
      ],
      "name": "ConversionFeeUpdate",
      "type": "event"
    },
    {
      "anonymous": false,
      "inputs": [
        {
          "indexed": false,
          "name": "_prevManager",
          "type": "address"
        },
        {
          "indexed": false,
          "name": "_newManager",
          "type": "address"
        }
      ],
      "name": "ManagerUpdate",
      "type": "event"
    },
    {
      "anonymous": false,
      "inputs": [
        {
          "indexed": false,
          "name": "_prevOwner",
          "type": "address"
        },
        {
          "indexed": false,
          "name": "_newOwner",
          "type": "address"
        }
      ],
      "name": "OwnerUpdate",
      "type": "event"
    }
  ],
  "bytecode": "0x606060405260408051908101604052600381527f302e360000000000000000000000000000000000000000000000000000000000602082015260059080516200004d9291602001906200045f565b506040805190810160405260068082527f62616e636f7200000000000000000000000000000000000000000000000000006020830152908051620000969291602001906200045f565b50600b80546001606860020a0319166c010000000000000000000000001790553415620000c257600080fd5b60405160a0806200302b833981016040528080519190602001805191906020018051919060200180519190602001805160008054600160a060020a03191633600160a060020a03908116919091179091559092508691508190811615156200012957600080fd5b5060028054600160a060020a0319908116600160a060020a0393841617909155600380549091163383161790558490811615156200016657600080fd5b8360008163ffffffff1610158015620001885750620f424063ffffffff821611155b15156200019457600080fd5b60078054600160a060020a031916600160a060020a0388811691909117909155600b805467ffffffff00000000191664010000000063ffffffff891602179055841615620001f857620001f884846000640100000000620010f66200020582021704565b5050505050505062000530565b60005433600160a060020a039081169116146200021e57fe5b600254600160a060020a033081169116638da5cb5b6000604051602001526040518163ffffffff167c0100000000000000000000000000000000000000000000000000000000028152600401602060405180830381600087803b15156200028457600080fd5b6102c65a03f115156200029657600080fd5b50505060405180519050600160a060020a031614151515620002b457fe5b82600160a060020a0381161515620002cb57600080fd5b8330600160a060020a031681600160a060020a031614151515620002ee57600080fd5b8360008163ffffffff161180156200030f5750620f424063ffffffff821611155b15156200031b57600080fd5b600254600160a060020a03878116911614801590620003605750600160a060020a0386166000908152600a60205260409020600101546601000000000000900460ff16155b80156200037f5750600b54620f424063ffffffff918216870190911611155b15156200038b57600080fd5b600160a060020a0386166000908152600a602052604081209081556001908101805466010000000000006501000000000063ffffffff1990921663ffffffff8a161764ff000000001916640100000000891515021765ff000000000019169190911766ff000000000000191617905560088054909181016200040e8382620004e4565b5060009182526020909120018054600160a060020a031916600160a060020a0397909716969096179095555050600b805463ffffffff19811663ffffffff9182169490940116929092179091555050565b828054600181600116156101000203166002900490600052602060002090601f016020900481019282601f10620004a257805160ff1916838001178555620004d2565b82800160010185558215620004d2579182015b82811115620004d2578251825591602001919060010190620004b5565b50620004e092915062000510565b5090565b8154818355818115116200050b576000838152602090206200050b91810190830162000510565b505050565b6200052d91905b80821115620004e0576000815560010162000517565b90565b612aeb80620005406000396000f300606060405236156102095763ffffffff60e060020a6000350416630ca7892381146102725780630e53aae9146102a457806319b64015146102ff5780631e1401f81461033157806321e6b53d1461036b578063228d28201461038a5780632314aad6146103a257806324f159c2146103c15780632a3c2c56146103d457806338a5e016146103ea5780633e8ff43f146103fd5780633f4d2fc21461048757806341a5b33d146104b457806342906029146104dc578063481c6a75146104ef5780634e2280c414610502578063514385be1461051557806354fd4d5014610539578063579cd3ca1461054c5780635e35359e146105785780635e5144eb146105a05780636a272462146105cb57806371f52bf3146105f057806372b44b2c1461061a57806375892cf11461063c57806379ba50971461066757806385d5e6311461067a5780638da5cb5b146106925780639396a7f0146106a557806394c275ad146106b8578063a2c4c336146106cb578063a59ac6dd146106ed578063ba9a8b3714610712578063bf75455814610725578063c8c2fe6c1461074c578063d395ee0f1461075f578063d4ee1d90146107ae578063d8959512146107c1578063e4edf852146107e0578063e7ee85a5146107ff578063ecbca55d14610815578063f0843ba914610831578063f2c8d2471461087c578063f2fde38b14610896578063fc0c546a146108b5575b61026f600980548060200260200160405190810160405280929190818152602001828054801561026257602002820191906000526020600020905b8154600160a060020a03168152600190910190602001808311610244575b50505050503460016108c8565b50005b341561027d57600080fd5b6102a2600160a060020a036004351663ffffffff602435166044351515606435610be6565b005b34156102af57600080fd5b6102c3600160a060020a0360043516610cfa565b60405194855263ffffffff90931660208501529015156040808501919091529015156060840152901515608083015260a0909101905180910390f35b341561030a57600080fd5b610315600435610d40565b604051600160a060020a03909116815260200160405180910390f35b341561033c57600080fd5b610359600160a060020a0360043581169060243516604435610d68565b60405190815260200160405180910390f35b341561037657600080fd5b6102a2600160a060020a0360043516610e5d565b341561039557600080fd5b6102a26004351515610edc565b34156103ad57600080fd5b6102a2600160a060020a0360043516610f21565b34156103cc57600080fd5b610315610fa2565b34156103df57600080fd5b610359600435610fb1565b34156103f557600080fd5b6102a2610feb565b341561040857600080fd5b610410611058565b60405160208082528190810183818151815260200191508051906020019080838360005b8381101561044c578082015183820152602001610434565b50505050905090810190601f1680156104795780820380516001836020036101000a031916815260200191505b509250505060405180910390f35b341561049257600080fd5b6102a2600160a060020a036004351663ffffffff6024351660443515156110f6565b34156104bf57600080fd5b6102a2600160a060020a0360043581169060243516604435611337565b34156104e757600080fd5b6103156113cb565b34156104fa57600080fd5b6103156113da565b341561050d57600080fd5b6102a26113e9565b341561052057600080fd5b6102a2600160a060020a03600435166024351515611411565b341561054457600080fd5b61041061149a565b341561055757600080fd5b61055f611505565b60405163ffffffff909116815260200160405180910390f35b341561058357600080fd5b6102a2600160a060020a036004358116906024351660443561151d565b34156105ab57600080fd5b610359600160a060020a0360043581169060243516604435606435611603565b34156105d657600080fd5b610359600160a060020a036004351660243560443561161a565b34156105fb57600080fd5b610603611989565b60405161ffff909116815260200160405180910390f35b341561062557600080fd5b610359600160a060020a0360043516602435611990565b341561064757600080fd5b610359600160a060020a0360043581169060243516604435606435611a09565b341561067257600080fd5b6102a2611a93565b341561068557600080fd5b6102a26004351515611b3a565b341561069d57600080fd5b610315611b9a565b34156106b057600080fd5b610359611ba9565b34156106c357600080fd5b61055f611baf565b34156106d657600080fd5b610359600160a060020a0360043516602435611bc3565b34156106f857600080fd5b610359600160a060020a0360043516602435604435611e4b565b341561071d57600080fd5b6106036120b3565b341561073057600080fd5b6107386120c5565b604051901515815260200160405180910390f35b341561075757600080fd5b6102a26120de565b341561076a57600080fd5b6102a2600460248135818101908301358060208181020160405190810160405280939291908181526020018383602002808284375094965061218595505050505050565b34156107b957600080fd5b6103156121e8565b34156107cc57600080fd5b610359600160a060020a03600435166121f7565b34156107eb57600080fd5b6102a2600160a060020a03600435166122e0565b341561080a57600080fd5b610315600435612342565b341561082057600080fd5b6102a263ffffffff60043516612350565b6103596004602481358181019083013580602081810201604051908101604052809392919081815260200183836020028082843750949650508435946020013593506108c892505050565b341561088757600080fd5b61031561ffff60043516612428565b34156108a157600080fd5b6102a2600160a060020a0360043516612478565b34156108c057600080fd5b6103156124da565b600080600085600281511180156108e157506015815111155b80156108fa5750600281518115156108f557fe5b066001145b151561090557600080fd5b8660008151811061091257fe5b90602001906020020151600754909350600160a060020a031663c31e05476000604051602001526040518163ffffffff1660e060020a028152600401602060405180830381600087803b151561096757600080fd5b6102c65a03f1151561097857600080fd5b5050506040518051925050341515610b0757600254600160a060020a0384811691161415610a7a57600254600160a060020a031663a24835d1338860405160e060020a63ffffffff8516028152600160a060020a0390921660048301526024820152604401600060405180830381600087803b15156109f657600080fd5b6102c65a03f11515610a0757600080fd5b5050600254600160a060020a0316905063867904b4838860405160e060020a63ffffffff8516028152600160a060020a0390921660048301526024820152604401600060405180830381600087803b1515610a6157600080fd5b6102c65a03f11515610a7257600080fd5b505050610b07565b82600160a060020a03166323b872dd33848960006040516020015260405160e060020a63ffffffff8616028152600160a060020a0393841660048201529190921660248201526044810191909152606401602060405180830381600087803b1515610ae457600080fd5b6102c65a03f11515610af557600080fd5b505050604051805190501515610b0757fe5b81600160a060020a031663c98fefed34898989336000604051602001526040518663ffffffff1660e060020a028152600401808060200185815260200184815260200183600160a060020a0316600160a060020a03168152602001828103825286818151815260200191508051906020019060200280838360005b83811015610b9a578082015183820152602001610b82565b50505050905001955050505050506020604051808303818588803b1515610bc057600080fd5b6125ee5a03f11515610bd157600080fd5b50505050604051805198975050505050505050565b6000805433600160a060020a03908116911614610bff57fe5b600160a060020a0385166000908152600a602052604090206001015485906601000000000000900460ff161515610c3557600080fd5b8460008163ffffffff16118015610c555750620f424063ffffffff821611155b1515610c6057600080fd5b600160a060020a0387166000908152600a602052604090206001810154600b54919450620f424063ffffffff918216928216929092038801161115610ca457600080fd5b5050600181018054600b805463ffffffff928316818416038801831663ffffffff199182161790915582549515156401000000000264ff0000000019929097169516949094179390931693909317909155905550565b600a602052600090815260409020805460019091015463ffffffff81169060ff640100000000820481169165010000000000810482169166010000000000009091041685565b6008805482908110610d4e57fe5b600091825260209091200154600160a060020a0316905081565b600080600160a060020a038581169085161415610d8457600080fd5b600254600160a060020a0385811691161415610dab57610da48584611bc3565b9150610e55565b600254600160a060020a0386811691161415610dcb57610da48484611990565b610dd58584611bc3565b600254909150610e529085908390610e4d90600160a060020a03166318160ddd6000604051602001526040518163ffffffff1660e060020a028152600401602060405180830381600087803b1515610e2c57600080fd5b6102c65a03f11515610e3d57600080fd5b50505060405180519050856124e9565b6124f8565b91505b509392505050565b60005433600160a060020a03908116911614610e7557fe5b600254600160a060020a031663f2fde38b8260405160e060020a63ffffffff8416028152600160a060020a039091166004820152602401600060405180830381600087803b1515610ec557600080fd5b6102c65a03f11515610ed657600080fd5b50505050565b60035433600160a060020a03908116911614610ef457fe5b600b80546cff000000000000000000000000191691156c0100000000000000000000000002919091179055565b60005433600160a060020a03908116911614610f3957fe5b80600160a060020a0381161515610f4f57600080fd5b8130600160a060020a031681600160a060020a031614151515610f7157600080fd5b50506007805473ffffffffffffffffffffffffffffffffffffffff1916600160a060020a0392909216919091179055565b600754600160a060020a031681565b600b54600090620f424090610fd990849068010000000000000000900463ffffffff1661270b565b811515610fe257fe5b0490505b919050565b60005433600160a060020a0390811691161461100357fe5b600254600160a060020a03166379ba50976040518163ffffffff1660e060020a028152600401600060405180830381600087803b151561104257600080fd5b6102c65a03f1151561105357600080fd5b505050565b60068054600181600116156101000203166002900480601f0160208091040260200160405190810160405280929190818152602001828054600181600116156101000203166002900480156110ee5780601f106110c3576101008083540402835291602001916110ee565b820191906000526020600020905b8154815290600101906020018083116110d157829003601f168201915b505050505081565b60005433600160a060020a0390811691161461110e57fe5b600254600160a060020a033081169116638da5cb5b6000604051602001526040518163ffffffff1660e060020a028152600401602060405180830381600087803b151561115a57600080fd5b6102c65a03f1151561116b57600080fd5b50505060405180519050600160a060020a03161415151561118857fe5b82600160a060020a038116151561119e57600080fd5b8330600160a060020a031681600160a060020a0316141515156111c057600080fd5b8360008163ffffffff161180156111e05750620f424063ffffffff821611155b15156111eb57600080fd5b600254600160a060020a0387811691161480159061122f5750600160a060020a0386166000908152600a60205260409020600101546601000000000000900460ff16155b801561124d5750600b54620f424063ffffffff918216870190911611155b151561125857600080fd5b600160a060020a0386166000908152600a602052604081209081556001908101805466010000000000006501000000000063ffffffff1990921663ffffffff8a161764ff000000001916640100000000891515021765ff000000000019169190911766ff000000000000191617905560088054909181016112d983826129dc565b506000918252602090912001805473ffffffffffffffffffffffffffffffffffffffff1916600160a060020a0397909716969096179095555050600b805463ffffffff19811663ffffffff9182169490940116929092179091555050565b60005433600160a060020a0390811691161461134f57fe5b600254600160a060020a0316635e35359e84848460405160e060020a63ffffffff8616028152600160a060020a0393841660048201529190921660248201526044810191909152606401600060405180830381600087803b15156113b257600080fd5b6102c65a03f115156113c357600080fd5b505050505050565b600454600160a060020a031681565b600354600160a060020a031681565b60005433600160a060020a0390811691161461140157fe5b600061140e6009826129dc565b50565b60005433600160a060020a0390811691161461142957fe5b600160a060020a0382166000908152600a602052604090206001015482906601000000000000900460ff16151561145f57600080fd5b50600160a060020a03919091166000908152600a60205260409020600101805465ff0000000000191691156501000000000002919091179055565b60058054600181600116156101000203166002900480601f0160208091040260200160405190810160405280929190818152602001828054600181600116156101000203166002900480156110ee5780601f106110c3576101008083540402835291602001916110ee565b600b5468010000000000000000900463ffffffff1681565b60005433600160a060020a0390811691161461153557fe5b82600160a060020a038116151561154b57600080fd5b82600160a060020a038116151561156157600080fd5b8330600160a060020a031681600160a060020a03161415151561158357600080fd5b85600160a060020a031663a9059cbb868660006040516020015260405160e060020a63ffffffff8516028152600160a060020a0390921660048301526024820152604401602060405180830381600087803b15156115e057600080fd5b6102c65a03f115156115f157600080fd5b5050506040518051905015156113c357fe5b600061161185858585611a09565b95945050505050565b6000806000806000600b600c9054906101000a900460ff16151561163a57fe5b600754600160a060020a031663961a929c6000604051602001526040518163ffffffff1660e060020a028152600401602060405180830381600087803b151561168257600080fd5b6102c65a03f1151561169357600080fd5b50505060405180519050600160a060020a031663fe173b976000604051602001526040518163ffffffff1660e060020a028152600401602060405180830381600087803b15156116e257600080fd5b6102c65a03f115156116f357600080fd5b50505060405180513a1115905061170657fe5b856000811161171457600080fd5b600254600160a060020a03166370a082313360006040516020015260405160e060020a63ffffffff8416028152600160a060020a039091166004820152602401602060405180830381600087803b151561176d57600080fd5b6102c65a03f1151561177e57600080fd5b5050506040518051891115905061179457600080fd5b61179e8989611990565b945084158015906117af5750868510155b15156117b757fe5b600254600160a060020a03166318160ddd6000604051602001526040518163ffffffff1660e060020a028152600401602060405180830381600087803b15156117ff57600080fd5b6102c65a03f1151561181057600080fd5b505050604051805190509350611825896121f7565b92508285108061183e5750828514801561183e57508388145b151561184657fe5b600160a060020a0389166000908152600a602052604090206001810154909250640100000000900460ff1615611885578154611882908661272f565b82555b600254600160a060020a031663a24835d1338a60405160e060020a63ffffffff8516028152600160a060020a0390921660048301526024820152604401600060405180830381600087803b15156118db57600080fd5b6102c65a03f115156118ec57600080fd5b50505088600160a060020a031663a9059cbb338760006040516020015260405160e060020a63ffffffff8516028152600160a060020a0390921660048301526024820152604401602060405180830381600087803b151561194c57600080fd5b6102c65a03f1151561195d57600080fd5b50505060405180519050151561196f57fe5b61197c8989876000612741565b5092979650505050505050565b6008545b90565b600254600090611a029084908490600160a060020a03166318160ddd85604051602001526040518163ffffffff1660e060020a028152600401602060405180830381600087803b15156119e257600080fd5b6102c65a03f115156119f357600080fd5b505050604051805190506124f8565b9392505050565b600080600160a060020a038681169086161415611a2557600080fd5b600254600160a060020a0386811691161415611a4d57611a46868585611e4b565b9150611a8a565b600254600160a060020a0387811691161415611a6e57611a4685858561161a565b611a7a86856001611e4b565b9050611a8785828561161a565b91505b50949350505050565b60015433600160a060020a03908116911614611aae57600080fd5b6000546001547f343765429aea5a34b3ff6a3785a98a5abb2597aca87bfbb58632c173d585373a91600160a060020a039081169116604051600160a060020a039283168152911660208201526040908101905180910390a1600180546000805473ffffffffffffffffffffffffffffffffffffffff19908116600160a060020a03841617909155169055565b60005433600160a060020a03908116911614611b5257fe5b600254600160a060020a0316631608f18f8260405160e060020a63ffffffff84160281529015156004820152602401600060405180830381600087803b1515610ec557600080fd5b600054600160a060020a031681565b60095490565b600b54640100000000900463ffffffff1681565b60025460009081908190819081908190600160a060020a033081169116638da5cb5b83604051602001526040518163ffffffff1660e060020a028152600401602060405180830381600087803b1515611c1b57600080fd5b6102c65a03f11515611c2c57600080fd5b50505060405180519050600160a060020a0316141515611c4857fe5b600160a060020a0388166000908152600a602052604090206001015488906601000000000000900460ff161515611c7e57600080fd5b600160a060020a0389166000908152600a60205260409020600181015490965065010000000000900460ff161515611cb557600080fd5b600254600160a060020a03166318160ddd6000604051602001526040518163ffffffff1660e060020a028152600401602060405180830381600087803b1515611cfd57600080fd5b6102c65a03f11515611d0e57600080fd5b505050604051805190509450611d23896121f7565b600754909450600160a060020a0316634b75f54f6000604051602001526040518163ffffffff1660e060020a028152600401602060405180830381600087803b1515611d6e57600080fd5b6102c65a03f11515611d7f57600080fd5b50505060405180516001880154600160a060020a0390911691506329a00e7c908790879063ffffffff168c6000604051602001526040518563ffffffff1660e060020a028152600401808581526020018481526020018363ffffffff1663ffffffff168152602001828152602001945050505050602060405180830381600087803b1515611e0c57600080fd5b6102c65a03f11515611e1d57600080fd5b505050604051805190509250611e3283610fb1565b9150611e3e838361272f565b9998505050505050505050565b6000806000600b600c9054906101000a900460ff161515611e6857fe5b600754600160a060020a031663961a929c6000604051602001526040518163ffffffff1660e060020a028152600401602060405180830381600087803b1515611eb057600080fd5b6102c65a03f11515611ec157600080fd5b50505060405180519050600160a060020a031663fe173b976000604051602001526040518163ffffffff1660e060020a028152600401602060405180830381600087803b1515611f1057600080fd5b6102c65a03f11515611f2157600080fd5b50505060405180513a11159050611f3457fe5b8360008111611f4257600080fd5b611f4c8787611bc3565b92508215801590611f5d5750848310155b1515611f6557fe5b600160a060020a0387166000908152600a602052604090206001810154909250640100000000900460ff1615611fa4578154611fa190876124e9565b82555b86600160a060020a03166323b872dd33308960006040516020015260405160e060020a63ffffffff8616028152600160a060020a0393841660048201529190921660248201526044810191909152606401602060405180830381600087803b151561200e57600080fd5b6102c65a03f1151561201f57600080fd5b50505060405180519050151561203157fe5b600254600160a060020a031663867904b4338560405160e060020a63ffffffff8516028152600160a060020a0390921660048301526024820152604401600060405180830381600087803b151561208757600080fd5b6102c65a03f1151561209857600080fd5b5050506120a88787856001612741565b509095945050505050565b60006120bd611989565b600101905090565b600b546c01000000000000000000000000900460ff1681565b60045433600160a060020a039081169116146120f957600080fd5b6003546004547fbe4cc281795971a471c980e842627a7f1ea3892ddfce8c5b6357cd2611c1973291600160a060020a039081169116604051600160a060020a039283168152911660208201526040908101905180910390a1600480546003805473ffffffffffffffffffffffffffffffffffffffff19908116600160a060020a03841617909155169055565b60005433600160a060020a0390811691161461219d57fe5b80600281511180156121b157506015815111155b80156121ca5750600281518115156121c557fe5b066001145b15156121d557600080fd5b6009828051611053929160200190612a00565b600154600160a060020a031681565b600160a060020a0381166000908152600a6020526040812060010154819083906601000000000000900460ff16151561222f57600080fd5b600160a060020a0384166000908152600a602052604090206001810154909250640100000000900460ff166122d55783600160a060020a03166370a082313060006040516020015260405160e060020a63ffffffff8416028152600160a060020a039091166004820152602401602060405180830381600087803b15156122b557600080fd5b6102c65a03f115156122c657600080fd5b505050604051805190506122d8565b81545b949350505050565b60035433600160a060020a039081169116146122f857fe5b600354600160a060020a038281169116141561231357600080fd5b6004805473ffffffffffffffffffffffffffffffffffffffff1916600160a060020a0392909216919091179055565b6009805482908110610d4e57fe5b60035433600160a060020a0390811691161461236857fe5b8060008163ffffffff16101580156123945750600b5463ffffffff640100000000909104811690821611155b151561239f57600080fd5b600b547f81cd2ffb37dd237c0e4e2a3de5265fcf9deb43d3e7801e80db9f1ccfba7ee6009068010000000000000000900463ffffffff168360405163ffffffff9283168152911660208201526040908101905180910390a150600b805463ffffffff90921668010000000000000000026bffffffff000000000000000019909216919091179055565b600061ffff821615156124475750600254600160a060020a0316610fe6565b6008805461ffff60001985011690811061245d57fe5b600091825260209091200154600160a060020a031692915050565b60005433600160a060020a0390811691161461249057fe5b600054600160a060020a03828116911614156124ab57600080fd5b6001805473ffffffffffffffffffffffffffffffffffffffff1916600160a060020a0392909216919091179055565b600254600160a060020a031681565b600082820183811015611a0257fe5b6002546000908190819081908190600160a060020a033081169116638da5cb5b83604051602001526040518163ffffffff1660e060020a028152600401602060405180830381600087803b151561254e57600080fd5b6102c65a03f1151561255f57600080fd5b50505060405180519050600160a060020a031614151561257b57fe5b600160a060020a0388166000908152600a602052604090206001015488906601000000000000900460ff1615156125b157600080fd5b86600081116125bf57600080fd5b600160a060020a038a166000908152600a6020526040902095506125e28a6121f7565b600754909550600160a060020a0316634b75f54f6000604051602001526040518163ffffffff1660e060020a028152600401602060405180830381600087803b151561262d57600080fd5b6102c65a03f1151561263e57600080fd5b50505060405180516001880154600160a060020a0390911691506349f9b0f7908a90889063ffffffff168d6000604051602001526040518563ffffffff1660e060020a028152600401808581526020018481526020018363ffffffff1663ffffffff168152602001828152602001945050505050602060405180830381600087803b15156126cb57600080fd5b6102c65a03f115156126dc57600080fd5b5050506040518051905093506126f184610fb1565b92506126fd848461272f565b9a9950505050505050505050565b6000828202831580612727575082848281151561272457fe5b04145b1515611a0257fe5b60008183101561273b57fe5b50900390565b600160a060020a0384166000908152600a60205260408120908080806127726127698a6121f7565b620f424061270b565b6002549094506127ed90600160a060020a03166318160ddd6000604051602001526040518163ffffffff1660e060020a028152600401602060405180830381600087803b15156127c157600080fd5b6102c65a03f115156127d257600080fd5b5050506040518051600188015490915063ffffffff1661270b565b600254909350600160a060020a031663313ce5676000604051602001526040518163ffffffff1660e060020a028152600401602060405180830381600087803b151561283857600080fd5b6102c65a03f1151561284957600080fd5b5050506040518051925050600160a060020a03891663313ce5676000604051602001526040518163ffffffff1660e060020a028152600401602060405180830381600087803b151561289a57600080fd5b6102c65a03f115156128ab57600080fd5b505050604051805191505060ff828116908216146128ff578060ff168260ff1611156128ea576128e38482840360ff16600a0a61270b565b93506128ff565b6128fc8383830360ff16600a0a61270b565b92505b851561296d57600254600160a060020a03338116918116908b167f431d62569d69247969ee24b65452f881ddcc12e42b7b71c324403449f870c0d38b8b89896040518085815260200184815260200183815260200182815260200194505050505060405180910390a46129d1565b600254600160a060020a03338116918b821691167f431d62569d69247969ee24b65452f881ddcc12e42b7b71c324403449f870c0d38b8b888a6040518085815260200184815260200183815260200182815260200194505050505060405180910390a45b505050505050505050565b81548183558181151161105357600083815260209020611053918101908301612a74565b828054828255906000526020600020908101928215612a64579160200282015b82811115612a64578251825473ffffffffffffffffffffffffffffffffffffffff1916600160a060020a039190911617825560209290920191600190910190612a20565b50612a70929150612a8e565b5090565b61198d91905b80821115612a705760008155600101612a7a565b61198d91905b80821115612a7057805473ffffffffffffffffffffffffffffffffffffffff19168155600101612a945600a165627a7a723058200fa9e21559e549fbd2b52edfeb92ab5dd80e18c2eec7c9785247bc4515559b760029",
  "source": "pragma solidity ^0.4.11;\nimport './SmartTokenController.sol';\nimport './Managed.sol';\nimport './Utils.sol';\nimport './interfaces/ITokenConverter.sol';\nimport './interfaces/ISmartToken.sol';\nimport './interfaces/IBancorConverterExtensions.sol';\nimport './interfaces/IEtherToken.sol';\n\n/*\n    Bancor Converter v0.6\n\n    The Bancor version of the token converter, allows conversion between a smart token and other ERC20 tokens and between different ERC20 tokens and themselves.\n\n    ERC20 connector balance can be virtual, meaning that the calculations are based on the virtual balance instead of relying on\n    the actual connector balance. This is a security mechanism that prevents the need to keep a very large (and valuable) balance in a single contract.\n\n    The converter is upgradable (just like any SmartTokenController).\n\n    WARNING: It is NOT RECOMMENDED to use the converter with Smart Tokens that have less than 8 decimal digits\n             or with very small numbers because of precision loss\n\n\n    Open issues:\n    - Front-running attacks are currently mitigated by the following mechanisms:\n        - minimum return argument for each conversion provides a way to define a minimum/maximum price for the transaction\n        - gas price limit prevents users from having control over the order of execution\n      Other potential solutions might include a commit/reveal based schemes\n    - Possibly add getters for the connector fields so that the client won't need to rely on the order in the struct\n*/\ncontract BancorConverter is ITokenConverter, SmartTokenController, Managed {\n    uint32 private constant MAX_WEIGHT = 1000000;\n    uint32 private constant MAX_CONVERSION_FEE = 1000000;\n\n    struct Connector {\n        uint256 virtualBalance;         // connector virtual balance\n        uint32 weight;                  // connector weight, represented in ppm, 1-1000000\n        bool isVirtualBalanceEnabled;   // true if virtual balance is enabled, false if not\n        bool isPurchaseEnabled;         // is purchase of the smart token enabled with the connector, can be set by the owner\n        bool isSet;                     // used to tell if the mapping element is defined\n    }\n\n    string public version = '0.6';\n    string public converterType = 'bancor';\n\n    IBancorConverterExtensions public extensions;       // bancor converter extensions contract\n    IERC20Token[] public connectorTokens;               // ERC20 standard token addresses\n    IERC20Token[] public quickBuyPath;                  // conversion path that's used in order to buy the token with ETH\n    mapping (address => Connector) public connectors;   // connector token addresses -> connector data\n    uint32 private totalConnectorWeight = 0;            // used to efficiently prevent increasing the total connector weight above 100%\n    uint32 public maxConversionFee = 0;                 // maximum conversion fee for the lifetime of the contract, represented in ppm, 0...1000000 (0 = no fee, 100 = 0.01%, 1000000 = 100%)\n    uint32 public conversionFee = 0;                    // current conversion fee, represented in ppm, 0...maxConversionFee\n    bool public conversionsEnabled = true;              // true if token conversions is enabled, false if not\n\n    // triggered when a conversion between two tokens occurs (TokenConverter event)\n    event Conversion(address indexed _fromToken, address indexed _toToken, address indexed _trader, uint256 _amount, uint256 _return,\n                     uint256 _currentPriceN, uint256 _currentPriceD);\n    // triggered when the conversion fee is updated\n    event ConversionFeeUpdate(uint32 _prevFee, uint32 _newFee);\n\n    /**\n        @dev constructor\n\n        @param  _token              smart token governed by the converter\n        @param  _extensions         address of a bancor converter extensions contract\n        @param  _maxConversionFee   maximum conversion fee, represented in ppm\n        @param  _connectorToken     optional, initial connector, allows defining the first connector at deployment time\n        @param  _connectorWeight    optional, weight for the initial connector\n    */\n    function BancorConverter(ISmartToken _token, IBancorConverterExtensions _extensions, uint32 _maxConversionFee, IERC20Token _connectorToken, uint32 _connectorWeight)\n        SmartTokenController(_token)\n        validAddress(_extensions)\n        validMaxConversionFee(_maxConversionFee)\n        public\n    {\n        extensions = _extensions;\n        maxConversionFee = _maxConversionFee;\n\n        if (address(_connectorToken) != 0x0)\n            addConnector(_connectorToken, _connectorWeight, false);\n    }\n\n    // validates a connector token address - verifies that the address belongs to one of the connector tokens\n    modifier validConnector(IERC20Token _address) {\n        require(connectors[_address].isSet);\n        _;\n    }\n\n    // validates a token address - verifies that the address belongs to one of the convertible tokens\n    modifier validToken(IERC20Token _address) {\n        require(_address == token || connectors[_address].isSet);\n        _;\n    }\n\n    // verifies that the gas price is lower than the universal limit\n    modifier validGasPrice() {\n        assert(tx.gasprice <= extensions.gasPriceLimit().gasPrice());\n        _;\n    }\n\n    // validates maximum conversion fee\n    modifier validMaxConversionFee(uint32 _conversionFee) {\n        require(_conversionFee >= 0 && _conversionFee <= MAX_CONVERSION_FEE);\n        _;\n    }\n\n    // validates conversion fee\n    modifier validConversionFee(uint32 _conversionFee) {\n        require(_conversionFee >= 0 && _conversionFee <= maxConversionFee);\n        _;\n    }\n\n    // validates connector weight range\n    modifier validConnectorWeight(uint32 _weight) {\n        require(_weight > 0 && _weight <= MAX_WEIGHT);\n        _;\n    }\n\n    // validates a conversion path - verifies that the number of elements is odd and that maximum number of 'hops' is 10\n    modifier validConversionPath(IERC20Token[] _path) {\n        require(_path.length > 2 && _path.length <= (1 + 2 * 10) && _path.length % 2 == 1);\n        _;\n    }\n\n    // allows execution only when conversions aren't disabled\n    modifier conversionsAllowed {\n        assert(conversionsEnabled);\n        _;\n    }\n\n    /**\n        @dev returns the number of connector tokens defined\n\n        @return number of connector tokens\n    */\n    function connectorTokenCount() public constant returns (uint16) {\n        return uint16(connectorTokens.length);\n    }\n\n    /**\n        @dev returns the number of convertible tokens supported by the contract\n        note that the number of convertible tokens is the number of connector token, plus 1 (that represents the smart token)\n\n        @return number of convertible tokens\n    */\n    function convertibleTokenCount() public constant returns (uint16) {\n        return connectorTokenCount() + 1;\n    }\n\n    /**\n        @dev given a convertible token index, returns its contract address\n\n        @param _tokenIndex  convertible token index\n\n        @return convertible token address\n    */\n    function convertibleToken(uint16 _tokenIndex) public constant returns (address) {\n        if (_tokenIndex == 0)\n            return token;\n        return connectorTokens[_tokenIndex - 1];\n    }\n\n    /*\n        @dev allows the owner to update the extensions contract address\n\n        @param _extensions    address of a bancor converter extensions contract\n    */\n    function setExtensions(IBancorConverterExtensions _extensions)\n        public\n        ownerOnly\n        validAddress(_extensions)\n        notThis(_extensions)\n    {\n        extensions = _extensions;\n    }\n\n    /*\n        @dev allows the manager to update the quick buy path\n\n        @param _path    new quick buy path, see conversion path format in the BancorQuickConverter contract\n    */\n    function setQuickBuyPath(IERC20Token[] _path)\n        public\n        ownerOnly\n        validConversionPath(_path)\n    {\n        quickBuyPath = _path;\n    }\n\n    /*\n        @dev allows the manager to clear the quick buy path\n    */\n    function clearQuickBuyPath() public ownerOnly {\n        quickBuyPath.length = 0;\n    }\n\n    /**\n        @dev returns the length of the quick buy path array\n\n        @return quick buy path length\n    */\n    function getQuickBuyPathLength() public constant returns (uint256) {\n        return quickBuyPath.length;\n    }\n\n    /**\n        @dev disables the entire conversion functionality\n        this is a safety mechanism in case of a emergency\n        can only be called by the manager\n\n        @param _disable true to disable conversions, false to re-enable them\n    */\n    function disableConversions(bool _disable) public managerOnly {\n        conversionsEnabled = !_disable;\n    }\n\n    /**\n        @dev updates the current conversion fee\n        can only be called by the manager\n\n        @param _conversionFee new conversion fee, represented in ppm\n    */\n    function setConversionFee(uint32 _conversionFee)\n        public\n        managerOnly\n        validConversionFee(_conversionFee)\n    {\n        ConversionFeeUpdate(conversionFee, _conversionFee);\n        conversionFee = _conversionFee;\n    }\n\n    /*\n        @dev returns the conversion fee amount for a given return amount\n\n        @return conversion fee amount\n    */\n    function getConversionFeeAmount(uint256 _amount) public constant returns (uint256) {\n        return safeMul(_amount, conversionFee) / MAX_CONVERSION_FEE;\n    }\n\n    /**\n        @dev defines a new connector for the token\n        can only be called by the owner while the converter is inactive\n\n        @param _token                  address of the connector token\n        @param _weight                 constant connector weight, represented in ppm, 1-1000000\n        @param _enableVirtualBalance   true to enable virtual balance for the connector, false to disable it\n    */\n    function addConnector(IERC20Token _token, uint32 _weight, bool _enableVirtualBalance)\n        public\n        ownerOnly\n        inactive\n        validAddress(_token)\n        notThis(_token)\n        validConnectorWeight(_weight)\n    {\n        require(_token != token && !connectors[_token].isSet && totalConnectorWeight + _weight <= MAX_WEIGHT); // validate input\n\n        connectors[_token].virtualBalance = 0;\n        connectors[_token].weight = _weight;\n        connectors[_token].isVirtualBalanceEnabled = _enableVirtualBalance;\n        connectors[_token].isPurchaseEnabled = true;\n        connectors[_token].isSet = true;\n        connectorTokens.push(_token);\n        totalConnectorWeight += _weight;\n    }\n\n    /**\n        @dev updates one of the token connectors\n        can only be called by the owner\n\n        @param _connectorToken         address of the connector token\n        @param _weight                 constant connector weight, represented in ppm, 1-1000000\n        @param _enableVirtualBalance   true to enable virtual balance for the connector, false to disable it\n        @param _virtualBalance         new connector's virtual balance\n    */\n    function updateConnector(IERC20Token _connectorToken, uint32 _weight, bool _enableVirtualBalance, uint256 _virtualBalance)\n        public\n        ownerOnly\n        validConnector(_connectorToken)\n        validConnectorWeight(_weight)\n    {\n        Connector storage connector = connectors[_connectorToken];\n        require(totalConnectorWeight - connector.weight + _weight <= MAX_WEIGHT); // validate input\n\n        totalConnectorWeight = totalConnectorWeight - connector.weight + _weight;\n        connector.weight = _weight;\n        connector.isVirtualBalanceEnabled = _enableVirtualBalance;\n        connector.virtualBalance = _virtualBalance;\n    }\n\n    /**\n        @dev disables purchasing with the given connector token in case the connector token got compromised\n        can only be called by the owner\n        note that selling is still enabled regardless of this flag and it cannot be disabled by the owner\n\n        @param _connectorToken  connector token contract address\n        @param _disable         true to disable the token, false to re-enable it\n    */\n    function disableConnectorPurchases(IERC20Token _connectorToken, bool _disable)\n        public\n        ownerOnly\n        validConnector(_connectorToken)\n    {\n        connectors[_connectorToken].isPurchaseEnabled = !_disable;\n    }\n\n    /**\n        @dev returns the connector's virtual balance if one is defined, otherwise returns the actual balance\n\n        @param _connectorToken  connector token contract address\n\n        @return connector balance\n    */\n    function getConnectorBalance(IERC20Token _connectorToken)\n        public\n        constant\n        validConnector(_connectorToken)\n        returns (uint256)\n    {\n        Connector storage connector = connectors[_connectorToken];\n        return connector.isVirtualBalanceEnabled ? connector.virtualBalance : _connectorToken.balanceOf(this);\n    }\n\n    /**\n        @dev returns the expected return for converting a specific amount of _fromToken to _toToken\n\n        @param _fromToken  ERC20 token to convert from\n        @param _toToken    ERC20 token to convert to\n        @param _amount     amount to convert, in fromToken\n\n        @return expected conversion return amount\n    */\n    function getReturn(IERC20Token _fromToken, IERC20Token _toToken, uint256 _amount) public constant returns (uint256) {\n        require(_fromToken != _toToken); // validate input\n\n        // conversion between the token and one of its connectors\n        if (_toToken == token)\n            return getPurchaseReturn(_fromToken, _amount);\n        else if (_fromToken == token)\n            return getSaleReturn(_toToken, _amount);\n\n        // conversion between 2 connectors\n        uint256 purchaseReturnAmount = getPurchaseReturn(_fromToken, _amount);\n        return getSaleReturn(_toToken, purchaseReturnAmount, safeAdd(token.totalSupply(), purchaseReturnAmount));\n    }\n\n    /**\n        @dev returns the expected return for buying the token for a connector token\n\n        @param _connectorToken  connector token contract address\n        @param _depositAmount   amount to deposit (in the connector token)\n\n        @return expected purchase return amount\n    */\n    function getPurchaseReturn(IERC20Token _connectorToken, uint256 _depositAmount)\n        public\n        constant\n        active\n        validConnector(_connectorToken)\n        returns (uint256)\n    {\n        Connector storage connector = connectors[_connectorToken];\n        require(connector.isPurchaseEnabled); // validate input\n\n        uint256 tokenSupply = token.totalSupply();\n        uint256 connectorBalance = getConnectorBalance(_connectorToken);\n        uint256 amount = extensions.formula().calculatePurchaseReturn(tokenSupply, connectorBalance, connector.weight, _depositAmount);\n\n        // deduct the fee from the return amount\n        uint256 feeAmount = getConversionFeeAmount(amount);\n        return safeSub(amount, feeAmount);\n    }\n\n    /**\n        @dev returns the expected return for selling the token for one of its connector tokens\n\n        @param _connectorToken  connector token contract address\n        @param _sellAmount      amount to sell (in the smart token)\n\n        @return expected sale return amount\n    */\n    function getSaleReturn(IERC20Token _connectorToken, uint256 _sellAmount) public constant returns (uint256) {\n        return getSaleReturn(_connectorToken, _sellAmount, token.totalSupply());\n    }\n\n    /**\n        @dev converts a specific amount of _fromToken to _toToken\n\n        @param _fromToken  ERC20 token to convert from\n        @param _toToken    ERC20 token to convert to\n        @param _amount     amount to convert, in fromToken\n        @param _minReturn  if the conversion results in an amount smaller than the minimum return - it is cancelled, must be nonzero\n\n        @return conversion return amount\n    */\n    function convert(IERC20Token _fromToken, IERC20Token _toToken, uint256 _amount, uint256 _minReturn) public returns (uint256) {\n        require(_fromToken != _toToken); // validate input\n\n        // conversion between the token and one of its connectors\n        if (_toToken == token)\n            return buy(_fromToken, _amount, _minReturn);\n        else if (_fromToken == token)\n            return sell(_toToken, _amount, _minReturn);\n\n        // conversion between 2 connectors\n        uint256 purchaseAmount = buy(_fromToken, _amount, 1);\n        return sell(_toToken, purchaseAmount, _minReturn);\n    }\n\n    /**\n        @dev buys the token by depositing one of its connector tokens\n\n        @param _connectorToken  connector token contract address\n        @param _depositAmount   amount to deposit (in the connector token)\n        @param _minReturn       if the conversion results in an amount smaller than the minimum return - it is cancelled, must be nonzero\n\n        @return buy return amount\n    */\n    function buy(IERC20Token _connectorToken, uint256 _depositAmount, uint256 _minReturn)\n        public\n        conversionsAllowed\n        validGasPrice\n        greaterThanZero(_minReturn)\n        returns (uint256)\n    {\n        uint256 amount = getPurchaseReturn(_connectorToken, _depositAmount);\n        assert(amount != 0 && amount >= _minReturn); // ensure the trade gives something in return and meets the minimum requested amount\n\n        // update virtual balance if relevant\n        Connector storage connector = connectors[_connectorToken];\n        if (connector.isVirtualBalanceEnabled)\n            connector.virtualBalance = safeAdd(connector.virtualBalance, _depositAmount);\n\n        // transfer _depositAmount funds from the caller in the connector token\n        assert(_connectorToken.transferFrom(msg.sender, this, _depositAmount));\n        // issue new funds to the caller in the smart token\n        token.issue(msg.sender, amount);\n\n        dispatchConversionEvent(_connectorToken, _depositAmount, amount, true);\n        return amount;\n    }\n\n    /**\n        @dev sells the token by withdrawing from one of its connector tokens\n\n        @param _connectorToken  connector token contract address\n        @param _sellAmount      amount to sell (in the smart token)\n        @param _minReturn       if the conversion results in an amount smaller the minimum return - it is cancelled, must be nonzero\n\n        @return sell return amount\n    */\n    function sell(IERC20Token _connectorToken, uint256 _sellAmount, uint256 _minReturn)\n        public\n        conversionsAllowed\n        validGasPrice\n        greaterThanZero(_minReturn)\n        returns (uint256)\n    {\n        require(_sellAmount <= token.balanceOf(msg.sender)); // validate input\n\n        uint256 amount = getSaleReturn(_connectorToken, _sellAmount);\n        assert(amount != 0 && amount >= _minReturn); // ensure the trade gives something in return and meets the minimum requested amount\n\n        uint256 tokenSupply = token.totalSupply();\n        uint256 connectorBalance = getConnectorBalance(_connectorToken);\n        // ensure that the trade will only deplete the connector if the total supply is depleted as well\n        assert(amount < connectorBalance || (amount == connectorBalance && _sellAmount == tokenSupply));\n\n        // update virtual balance if relevant\n        Connector storage connector = connectors[_connectorToken];\n        if (connector.isVirtualBalanceEnabled)\n            connector.virtualBalance = safeSub(connector.virtualBalance, amount);\n\n        // destroy _sellAmount from the caller's balance in the smart token\n        token.destroy(msg.sender, _sellAmount);\n        // transfer funds to the caller in the connector token\n        // the transfer might fail if the actual connector balance is smaller than the virtual balance\n        assert(_connectorToken.transfer(msg.sender, amount));\n\n        dispatchConversionEvent(_connectorToken, _sellAmount, amount, false);\n        return amount;\n    }\n\n    /**\n        @dev converts the token to any other token in the bancor network by following a predefined conversion path\n        note that when converting from an ERC20 token (as opposed to a smart token), allowance must be set beforehand\n\n        @param _path        conversion path, see conversion path format in the BancorQuickConverter contract\n        @param _amount      amount to convert from (in the initial source token)\n        @param _minReturn   if the conversion results in an amount smaller than the minimum return - it is cancelled, must be nonzero\n\n        @return tokens issued in return\n    */\n    function quickConvert(IERC20Token[] _path, uint256 _amount, uint256 _minReturn)\n        public\n        payable\n        validConversionPath(_path)\n        returns (uint256)\n    {\n        IERC20Token fromToken = _path[0];\n        IBancorQuickConverter quickConverter = extensions.quickConverter();\n\n        // we need to transfer the source tokens from the caller to the quick converter,\n        // so it can execute the conversion on behalf of the caller\n        if (msg.value == 0) {\n            // not ETH, send the source tokens to the quick converter\n            // if the token is the smart token, no allowance is required - destroy the tokens from the caller and issue them to the quick converter\n            if (fromToken == token) {\n                token.destroy(msg.sender, _amount); // destroy _amount tokens from the caller's balance in the smart token\n                token.issue(quickConverter, _amount); // issue _amount new tokens to the quick converter\n            }\n            else {\n                // otherwise, we assume we already have allowance, transfer the tokens directly to the quick converter\n                assert(fromToken.transferFrom(msg.sender, quickConverter, _amount));\n            }\n        }\n\n        // execute the conversion and pass on the ETH with the call\n        return quickConverter.convertFor.value(msg.value)(_path, _amount, _minReturn, msg.sender);\n    }\n\n    // deprecated, backward compatibility\n    function change(IERC20Token _fromToken, IERC20Token _toToken, uint256 _amount, uint256 _minReturn) public returns (uint256) {\n        return convert(_fromToken, _toToken, _amount, _minReturn);\n    }\n\n    /**\n        @dev utility, returns the expected return for selling the token for one of its connector tokens, given a total supply override\n\n        @param _connectorToken  connector token contract address\n        @param _sellAmount      amount to sell (in the smart token)\n        @param _totalSupply     total token supply, overrides the actual token total supply when calculating the return\n\n        @return sale return amount\n    */\n    function getSaleReturn(IERC20Token _connectorToken, uint256 _sellAmount, uint256 _totalSupply)\n        private\n        constant\n        active\n        validConnector(_connectorToken)\n        greaterThanZero(_totalSupply)\n        returns (uint256)\n    {\n        Connector storage connector = connectors[_connectorToken];\n        uint256 connectorBalance = getConnectorBalance(_connectorToken);\n        uint256 amount = extensions.formula().calculateSaleReturn(_totalSupply, connectorBalance, connector.weight, _sellAmount);\n\n        // deduct the fee from the return amount\n        uint256 feeAmount = getConversionFeeAmount(amount);\n        return safeSub(amount, feeAmount);\n    }\n\n    /**\n        @dev helper, dispatches the Conversion event\n        The function also takes the tokens' decimals into account when calculating the current price\n\n        @param _connectorToken  connector token contract address\n        @param _amount          amount purchased/sold (in the source token)\n        @param _returnAmount    amount returned (in the target token)\n        @param isPurchase       true if it's a purchase, false if it's a sale\n    */\n    function dispatchConversionEvent(IERC20Token _connectorToken, uint256 _amount, uint256 _returnAmount, bool isPurchase) private {\n        Connector storage connector = connectors[_connectorToken];\n\n        // calculate the new price using the simple price formula\n        // price = connector balance / (supply * weight)\n        // weight is represented in ppm, so multiplying by 1000000\n        uint256 connectorAmount = safeMul(getConnectorBalance(_connectorToken), MAX_WEIGHT);\n        uint256 tokenAmount = safeMul(token.totalSupply(), connector.weight);\n\n        // normalize values\n        uint8 tokenDecimals = token.decimals();\n        uint8 connectorTokenDecimals = _connectorToken.decimals();\n        if (tokenDecimals != connectorTokenDecimals) {\n            if (tokenDecimals > connectorTokenDecimals)\n                connectorAmount = safeMul(connectorAmount, 10 ** uint256(tokenDecimals - connectorTokenDecimals));\n            else\n                tokenAmount = safeMul(tokenAmount, 10 ** uint256(connectorTokenDecimals - tokenDecimals));\n        }\n\n        if (isPurchase)\n            Conversion(_connectorToken, token, msg.sender, _amount, _returnAmount, connectorAmount, tokenAmount);\n        else\n            Conversion(token, _connectorToken, msg.sender, _amount, _returnAmount, tokenAmount, connectorAmount);\n    }\n\n    /**\n        @dev fallback, buys the smart token with ETH\n        note that the purchase will use the price at the time of the purchase\n    */\n    function() payable public {\n        quickConvert(quickBuyPath, msg.value, 1);\n    }\n}\n",
  "sourcePath": "/Users/chanopalis/Documents/ethereum-contracts/smart-law-contracts/DexRE-Contract/contracts/LiquidRE/bancor/BancorConverter.sol",
  "schemaVersion": "1.0.0",
  "updatedAt": "2018-03-02T16:04:52.218Z"
}