{
  "contractName": "BancorGasPriceLimit",
  "abi": [
    {
      "constant": false,
      "inputs": [],
      "name": "acceptOwnership",
      "outputs": [],
      "payable": false,
      "stateMutability": "nonpayable",
      "type": "function"
    },
    {
      "constant": true,
      "inputs": [],
      "name": "owner",
      "outputs": [
        {
          "name": "",
          "type": "address"
        }
      ],
      "payable": false,
      "stateMutability": "view",
      "type": "function"
    },
    {
      "constant": false,
      "inputs": [
        {
          "name": "_gasPrice",
          "type": "uint256"
        }
      ],
      "name": "setGasPrice",
      "outputs": [],
      "payable": false,
      "stateMutability": "nonpayable",
      "type": "function"
    },
    {
      "constant": true,
      "inputs": [],
      "name": "newOwner",
      "outputs": [
        {
          "name": "",
          "type": "address"
        }
      ],
      "payable": false,
      "stateMutability": "view",
      "type": "function"
    },
    {
      "constant": false,
      "inputs": [
        {
          "name": "_newOwner",
          "type": "address"
        }
      ],
      "name": "transferOwnership",
      "outputs": [],
      "payable": false,
      "stateMutability": "nonpayable",
      "type": "function"
    },
    {
      "constant": true,
      "inputs": [],
      "name": "gasPrice",
      "outputs": [
        {
          "name": "",
          "type": "uint256"
        }
      ],
      "payable": false,
      "stateMutability": "view",
      "type": "function"
    },
    {
      "inputs": [
        {
          "name": "_gasPrice",
          "type": "uint256"
        }
      ],
      "payable": false,
      "stateMutability": "nonpayable",
      "type": "constructor"
    },
    {
      "anonymous": false,
      "inputs": [
        {
          "indexed": false,
          "name": "_prevOwner",
          "type": "address"
        },
        {
          "indexed": false,
          "name": "_newOwner",
          "type": "address"
        }
      ],
      "name": "OwnerUpdate",
      "type": "event"
    }
  ],
  "bytecode": "0x60606040526000600255341561001457600080fd5b6040516020806103168339810160405280805160008054600160a060020a03191633600160a060020a0316178155909250829150811161005357600080fd5b506002556102b0806100666000396000f300606060405236156100755763ffffffff7c010000000000000000000000000000000000000000000000000000000060003504166379ba5097811461007a5780638da5cb5b1461008f578063bf1fe420146100be578063d4ee1d90146100d4578063f2fde38b146100e7578063fe173b9714610106575b600080fd5b341561008557600080fd5b61008d61012b565b005b341561009a57600080fd5b6100a26101d2565b604051600160a060020a03909116815260200160405180910390f35b34156100c957600080fd5b61008d6004356101e1565b34156100df57600080fd5b6100a261020d565b34156100f257600080fd5b61008d600160a060020a036004351661021c565b341561011157600080fd5b61011961027e565b60405190815260200160405180910390f35b60015433600160a060020a0390811691161461014657600080fd5b6000546001547f343765429aea5a34b3ff6a3785a98a5abb2597aca87bfbb58632c173d585373a91600160a060020a039081169116604051600160a060020a039283168152911660208201526040908101905180910390a1600180546000805473ffffffffffffffffffffffffffffffffffffffff19908116600160a060020a03841617909155169055565b600054600160a060020a031681565b60005433600160a060020a039081169116146101f957fe5b806000811161020757600080fd5b50600255565b600154600160a060020a031681565b60005433600160a060020a0390811691161461023457fe5b600054600160a060020a038281169116141561024f57600080fd5b6001805473ffffffffffffffffffffffffffffffffffffffff1916600160a060020a0392909216919091179055565b600254815600a165627a7a723058207ee00bac19f94bd47b9af21f5a5a83c290806d2ee52b2985d61dd9e99f56439e0029",
  "source": "pragma solidity ^0.4.11;\nimport './Owned.sol';\nimport './Utils.sol';\nimport './interfaces/IBancorGasPriceLimit.sol';\n\n/*\n    The BancorGasPriceLimit contract serves as an extra front-running attack mitigation mechanism.\n    It sets a maximum gas price on all bancor conversions, which prevents users from \"cutting in line\"\n    in order to front-run other transactions.\n    The gas price limit is universal to all converters and it can be updated by the owner to be in line\n    with the network's current gas price.\n*/\ncontract BancorGasPriceLimit is IBancorGasPriceLimit, Owned, Utils {\n    uint256 public gasPrice = 0 wei;    // maximum gas price for bancor transactions\n\n    /**\n        @dev constructor\n\n        @param _gasPrice    gas price limit\n    */\n    function BancorGasPriceLimit(uint256 _gasPrice)\n        greaterThanZero(_gasPrice)\n        public\n    {\n        gasPrice = _gasPrice;\n    }\n\n    /*\n        @dev allows the owner to update the gas price limit\n\n        @param _gasPrice    new gas price limit\n    */\n    function setGasPrice(uint256 _gasPrice)\n        public\n        ownerOnly\n        greaterThanZero(_gasPrice)\n    {\n        gasPrice = _gasPrice;\n    }\n}\n",
  "sourcePath": "/Users/chanopalis/Documents/ethereum-contracts/smart-law-contracts/DexRE-Contract/contracts/LiquidRE/bancor/BancorGasPriceLimit.sol",
  "schemaVersion": "1.0.0",
  "updatedAt": "2018-02-28T18:05:46.266Z"
}