{
  "contractName": "BancorQuickConverter",
  "abi": [
    {
      "constant": false,
      "inputs": [
        {
          "name": "_token",
          "type": "address"
        },
        {
          "name": "_register",
          "type": "bool"
        }
      ],
      "name": "registerEtherToken",
      "outputs": [],
      "payable": false,
      "stateMutability": "nonpayable",
      "type": "function"
    },
    {
      "constant": false,
      "inputs": [
        {
          "name": "_token",
          "type": "address"
        },
        {
          "name": "_to",
          "type": "address"
        },
        {
          "name": "_amount",
          "type": "uint256"
        }
      ],
      "name": "withdrawTokens",
      "outputs": [],
      "payable": false,
      "stateMutability": "nonpayable",
      "type": "function"
    },
    {
      "constant": false,
      "inputs": [],
      "name": "acceptOwnership",
      "outputs": [],
      "payable": false,
      "stateMutability": "nonpayable",
      "type": "function"
    },
    {
      "constant": true,
      "inputs": [
        {
          "name": "",
          "type": "address"
        }
      ],
      "name": "etherTokens",
      "outputs": [
        {
          "name": "",
          "type": "bool"
        }
      ],
      "payable": false,
      "stateMutability": "view",
      "type": "function"
    },
    {
      "constant": true,
      "inputs": [],
      "name": "owner",
      "outputs": [
        {
          "name": "",
          "type": "address"
        }
      ],
      "payable": false,
      "stateMutability": "view",
      "type": "function"
    },
    {
      "constant": false,
      "inputs": [
        {
          "name": "_path",
          "type": "address[]"
        },
        {
          "name": "_amount",
          "type": "uint256"
        },
        {
          "name": "_minReturn",
          "type": "uint256"
        },
        {
          "name": "_for",
          "type": "address"
        }
      ],
      "name": "claimAndConvertFor",
      "outputs": [
        {
          "name": "",
          "type": "uint256"
        }
      ],
      "payable": false,
      "stateMutability": "nonpayable",
      "type": "function"
    },
    {
      "constant": false,
      "inputs": [
        {
          "name": "_path",
          "type": "address[]"
        },
        {
          "name": "_amount",
          "type": "uint256"
        },
        {
          "name": "_minReturn",
          "type": "uint256"
        }
      ],
      "name": "claimAndConvert",
      "outputs": [
        {
          "name": "",
          "type": "uint256"
        }
      ],
      "payable": false,
      "stateMutability": "nonpayable",
      "type": "function"
    },
    {
      "constant": false,
      "inputs": [
        {
          "name": "_path",
          "type": "address[]"
        },
        {
          "name": "_amount",
          "type": "uint256"
        },
        {
          "name": "_minReturn",
          "type": "uint256"
        },
        {
          "name": "_for",
          "type": "address"
        }
      ],
      "name": "convertFor",
      "outputs": [
        {
          "name": "",
          "type": "uint256"
        }
      ],
      "payable": true,
      "stateMutability": "payable",
      "type": "function"
    },
    {
      "constant": true,
      "inputs": [],
      "name": "newOwner",
      "outputs": [
        {
          "name": "",
          "type": "address"
        }
      ],
      "payable": false,
      "stateMutability": "view",
      "type": "function"
    },
    {
      "constant": false,
      "inputs": [
        {
          "name": "_newOwner",
          "type": "address"
        }
      ],
      "name": "transferOwnership",
      "outputs": [],
      "payable": false,
      "stateMutability": "nonpayable",
      "type": "function"
    },
    {
      "constant": false,
      "inputs": [
        {
          "name": "_path",
          "type": "address[]"
        },
        {
          "name": "_amount",
          "type": "uint256"
        },
        {
          "name": "_minReturn",
          "type": "uint256"
        }
      ],
      "name": "convert",
      "outputs": [
        {
          "name": "",
          "type": "uint256"
        }
      ],
      "payable": true,
      "stateMutability": "payable",
      "type": "function"
    },
    {
      "inputs": [],
      "payable": false,
      "stateMutability": "nonpayable",
      "type": "constructor"
    },
    {
      "anonymous": false,
      "inputs": [
        {
          "indexed": false,
          "name": "_prevOwner",
          "type": "address"
        },
        {
          "indexed": false,
          "name": "_newOwner",
          "type": "address"
        }
      ],
      "name": "OwnerUpdate",
      "type": "event"
    }
  ],
  "bytecode": "0x6060604052341561000f57600080fd5b60008054600160a060020a033316600160a060020a0319909116179055610c418061003b6000396000f300606060405236156100935763ffffffff60e060020a60003504166302ef521e81146100985780635e35359e146100be57806379ba5097146100e65780638077ccf7146100f95780638da5cb5b1461012c578063b1e9932b1461015b578063c7ba24bc146101d2578063c98fefed14610228578063d4ee1d9014610282578063f2fde38b14610295578063f3898a97146102b4575b600080fd5b34156100a357600080fd5b6100bc600160a060020a036004351660243515156102ff565b005b34156100c957600080fd5b6100bc600160a060020a036004358116906024351660443561037c565b34156100f157600080fd5b6100bc61046a565b341561010457600080fd5b610118600160a060020a0360043516610511565b604051901515815260200160405180910390f35b341561013757600080fd5b61013f610526565b604051600160a060020a03909116815260200160405180910390f35b341561016657600080fd5b6101c06004602481358181019083013580602081810201604051908101604052809392919081815260200183836020028082843750949650508435946020810135945060400135600160a060020a03169250610535915050565b60405190815260200160405180910390f35b34156101dd57600080fd5b6101c06004602481358181019083013580602081810201604051908101604052809392919081815260200183836020028082843750949650508435946020013593506105f492505050565b6101c06004602481358181019083013580602081810201604051908101604052809392919081815260200183836020028082843750949650508435946020810135945060400135600160a060020a0316925061060a915050565b341561028d57600080fd5b61013f61098b565b34156102a057600080fd5b6100bc600160a060020a036004351661099a565b6101c06004602481358181019083013580602081810201604051908101604052809392919081815260200183836020028082843750949650508435946020013593506109fc92505050565b60005433600160a060020a0390811691161461031757fe5b81600160a060020a038116151561032d57600080fd5b8230600160a060020a031681600160a060020a03161415151561034f57600080fd5b5050600160a060020a03919091166000908152600260205260409020805460ff1916911515919091179055565b60005433600160a060020a0390811691161461039457fe5b82600160a060020a03811615156103aa57600080fd5b82600160a060020a03811615156103c057600080fd5b8330600160a060020a031681600160a060020a0316141515156103e257600080fd5b85600160a060020a031663a9059cbb868660006040516020015260405160e060020a63ffffffff8516028152600160a060020a0390921660048301526024820152604401602060405180830381600087803b151561043f57600080fd5b6102c65a03f1151561045057600080fd5b50505060405180519050151561046257fe5b505050505050565b60015433600160a060020a0390811691161461048557600080fd5b6000546001547f343765429aea5a34b3ff6a3785a98a5abb2597aca87bfbb58632c173d585373a91600160a060020a039081169116604051600160a060020a039283168152911660208201526040908101905180910390a1600180546000805473ffffffffffffffffffffffffffffffffffffffff19908116600160a060020a03841617909155169055565b60026020526000908152604090205460ff1681565b600054600160a060020a031681565b6000808560008151811061054557fe5b90602001906020020151905080600160a060020a03166323b872dd33308860006040516020015260405160e060020a63ffffffff8616028152600160a060020a0393841660048201529190921660248201526044810191909152606401602060405180830381600087803b15156105bb57600080fd5b6102c65a03f115156105cc57600080fd5b5050506040518051905015156105de57fe5b6105ea8686868661060a565b9695505050505050565b600061060284848433610535565b949350505050565b60008060008060008060008a6002815111801561062957506015815111155b801561064257506002815181151561063d57fe5b066001145b151561064d57600080fd5b8b60008151811061065a57fe5b9060200190602002015196503415806106955750348b1480156106955750600160a060020a03871660009081526002602052604090205460ff165b15156106a057600080fd5b8b51925060003411156107005786600160a060020a031663d0e30db0346040518263ffffffff1660e060020a0281526004016000604051808303818588803b15156106ea57600080fd5b6125ee5a03f115156106fb57600080fd5b505050505b600191505b8282101561086d578b828151811061071957fe5b9060200190602002015195508b826001018151811061073457fe5b90602001906020020151945085600160a060020a0316638da5cb5b6000604051602001526040518163ffffffff1660e060020a028152600401602060405180830381600087803b151561078657600080fd5b6102c65a03f1151561079757600080fd5b5050506040518051945050600160a060020a03868116908816146107c0576107c087858d610a0a565b83600160a060020a0316635e5144eb88878e6002880387146107e35760016107e5565b8e5b60006040516020015260405160e060020a63ffffffff8716028152600160a060020a03948516600482015292909316602483015260448201526064810191909152608401602060405180830381600087803b151561084257600080fd5b6102c65a03f1151561085357600080fd5b505050604051805190509a50849650600282019150610705565b600160a060020a03851660009081526002602052604090205460ff16156108fb5784600160a060020a031663205c28788a8d60405160e060020a63ffffffff8516028152600160a060020a0390921660048301526024820152604401600060405180830381600087803b15156108e257600080fd5b6102c65a03f115156108f357600080fd5b50505061097b565b84600160a060020a031663a9059cbb8a8d60006040516020015260405160e060020a63ffffffff8516028152600160a060020a0390921660048301526024820152604401602060405180830381600087803b151561095857600080fd5b6102c65a03f1151561096957600080fd5b50505060405180519050151561097b57fe5b50989a9950505050505050505050565b600154600160a060020a031681565b60005433600160a060020a039081169116146109b257fe5b600054600160a060020a03828116911614156109cd57600080fd5b6001805473ffffffffffffffffffffffffffffffffffffffff1916600160a060020a0392909216919091179055565b60006106028484843361060a565b8083600160a060020a031663dd62ed3e308560006040516020015260405160e060020a63ffffffff8516028152600160a060020a03928316600482015291166024820152604401602060405180830381600087803b1515610a6a57600080fd5b6102c65a03f11515610a7b57600080fd5b50505060405180519050101515610a9157610c10565b82600160a060020a031663dd62ed3e308460006040516020015260405160e060020a63ffffffff8516028152600160a060020a03928316600482015291166024820152604401602060405180830381600087803b1515610af057600080fd5b6102c65a03f11515610b0157600080fd5b5050506040518051159050610b905782600160a060020a031663095ea7b3836000806040516020015260405160e060020a63ffffffff8516028152600160a060020a0390921660048301526024820152604401602060405180830381600087803b1515610b6d57600080fd5b6102c65a03f11515610b7e57600080fd5b505050604051805190501515610b9057fe5b82600160a060020a031663095ea7b3838360006040516020015260405160e060020a63ffffffff8516028152600160a060020a0390921660048301526024820152604401602060405180830381600087803b1515610bed57600080fd5b6102c65a03f11515610bfe57600080fd5b505050604051805190501515610c1057fe5b5050505600a165627a7a72305820139b0a1d6b370af9b5eeb05fc8aa7fd5780c0f3aea8cd036061a3bd3b5d3c5a70029",
  "source": "pragma solidity ^0.4.11;\nimport './TokenHolder.sol';\nimport './interfaces/IBancorQuickConverter.sol';\nimport './interfaces/IEtherToken.sol';\nimport './interfaces/ISmartToken.sol';\nimport './interfaces/ITokenConverter.sol';\n\n/*\n    The BancorQuickConverter contract provides allows converting between any token in the\n    bancor network in a single transaction.\n\n    A note on conversion paths -\n    Conversion path is a data structure that's used when converting a token to another token in the bancor network\n    when the conversion cannot necessarily be done by single converter and might require multiple 'hops'.\n    The path defines which converters should be used and what kind of conversion should be done in each step.\n\n    The path format doesn't include complex structure and instead, it is represented by a single array\n    in which each 'hop' is represented by a 2-tuple - smart token & to token.\n    In addition, the first element is always the source token.\n    The smart token is only used as a pointer to a converter (since converter addresses are more likely to change).\n\n    Format:\n    [source token, smart token, to token, smart token, to token...]\n*/\ncontract BancorQuickConverter is IBancorQuickConverter, TokenHolder {\n    mapping (address => bool) public etherTokens;   // list of all supported ether tokens\n\n    /**\n        @dev constructor\n    */\n    function BancorQuickConverter() public {\n    }\n\n    // validates a conversion path - verifies that the number of elements is odd and that maximum number of 'hops' is 10\n    modifier validConversionPath(IERC20Token[] _path) {\n        require(_path.length > 2 && _path.length <= (1 + 2 * 10) && _path.length % 2 == 1);\n        _;\n    }\n\n    /**\n        @dev allows the owner to register/unregister ether tokens\n\n        @param _token       ether token contract address\n        @param _register    true to register, false to unregister\n    */\n    function registerEtherToken(IEtherToken _token, bool _register)\n        public\n        ownerOnly\n        validAddress(_token)\n        notThis(_token)\n    {\n        etherTokens[_token] = _register;\n    }\n\n    /**\n        @dev converts the token to any other token in the bancor network by following\n        a predefined conversion path and transfers the result tokens to a target account\n        note that the converter should already own the source tokens\n\n        @param _path        conversion path, see conversion path format above\n        @param _amount      amount to convert from (in the initial source token)\n        @param _minReturn   if the conversion results in an amount smaller than the minimum return - it is cancelled, must be nonzero\n        @param _for         account that will receive the conversion result\n\n        @return tokens issued in return\n    */\n    function convertFor(IERC20Token[] _path, uint256 _amount, uint256 _minReturn, address _for)\n        public\n        payable\n        validConversionPath(_path)\n        returns (uint256)\n    {\n        // if ETH is provided, ensure that the amount is identical to _amount and verify that the source token is an ether token\n        IERC20Token fromToken = _path[0];\n        require(msg.value == 0 || (_amount == msg.value && etherTokens[fromToken]));\n\n        ISmartToken smartToken;\n        IERC20Token toToken;\n        ITokenConverter converter;\n        uint256 pathLength = _path.length;\n\n        // if ETH was sent with the call, the source is an ether token - deposit the ETH in it\n        // otherwise, we assume we already have the tokens\n        if (msg.value > 0)\n            IEtherToken(fromToken).deposit.value(msg.value)();\n\n        // iterate over the conversion path\n        for (uint256 i = 1; i < pathLength; i += 2) {\n            smartToken = ISmartToken(_path[i]);\n            toToken = _path[i + 1];\n            converter = ITokenConverter(smartToken.owner());\n\n            // if the smart token isn't the source (from token), the converter doesn't have control over it and thus we need to approve the request\n            if (smartToken != fromToken)\n                ensureAllowance(fromToken, converter, _amount);\n\n            // make the conversion - if it's the last one, also provide the minimum return value\n            _amount = converter.change(fromToken, toToken, _amount, i == pathLength - 2 ? _minReturn : 1);\n            fromToken = toToken;\n        }\n\n        // finished the conversion, transfer the funds to the target account\n        // if the target token is an ether token, withdraw the tokens and send them as ETH\n        // otherwise, transfer the tokens as is\n        if (etherTokens[toToken])\n            IEtherToken(toToken).withdrawTo(_for, _amount);\n        else\n            assert(toToken.transfer(_for, _amount));\n\n        return _amount;\n    }\n\n    /**\n        @dev claims the caller's tokens, converts them to any other token in the bancor network\n        by following a predefined conversion path and transfers the result tokens to a target account\n        note that allowance must be set beforehand\n\n        @param _path        conversion path, see conversion path format above\n        @param _amount      amount to convert from (in the initial source token)\n        @param _minReturn   if the conversion results in an amount smaller than the minimum return - it is cancelled, must be nonzero\n        @param _for         account that will receive the conversion result\n\n        @return tokens issued in return\n    */\n    function claimAndConvertFor(IERC20Token[] _path, uint256 _amount, uint256 _minReturn, address _for) public returns (uint256) {\n        // we need to transfer the tokens from the caller to the converter before we follow\n        // the conversion path, to allow it to execute the conversion on behalf of the caller\n        // note: we assume we already have allowance\n        IERC20Token fromToken = _path[0];\n        assert(fromToken.transferFrom(msg.sender, this, _amount));\n        return convertFor(_path, _amount, _minReturn, _for);\n    }\n\n    /**\n        @dev converts the token to any other token in the bancor network by following\n        a predefined conversion path and transfers the result tokens back to the sender\n        note that the converter should already own the source tokens\n\n        @param _path        conversion path, see conversion path format above\n        @param _amount      amount to convert from (in the initial source token)\n        @param _minReturn   if the conversion results in an amount smaller than the minimum return - it is cancelled, must be nonzero\n\n        @return tokens issued in return\n    */\n    function convert(IERC20Token[] _path, uint256 _amount, uint256 _minReturn) public payable returns (uint256) {\n        return convertFor(_path, _amount, _minReturn, msg.sender);\n    }\n\n    /**\n        @dev claims the caller's tokens, converts them to any other token in the bancor network\n        by following a predefined conversion path and transfers the result tokens back to the sender\n        note that allowance must be set beforehand\n\n        @param _path        conversion path, see conversion path format above\n        @param _amount      amount to convert from (in the initial source token)\n        @param _minReturn   if the conversion results in an amount smaller than the minimum return - it is cancelled, must be nonzero\n\n        @return tokens issued in return\n    */\n    function claimAndConvert(IERC20Token[] _path, uint256 _amount, uint256 _minReturn) public returns (uint256) {\n        return claimAndConvertFor(_path, _amount, _minReturn, msg.sender);\n    }\n\n    /**\n        @dev utility, checks whether allowance for the given spender exists and approves one if it doesn't\n\n        @param _token   token to check the allowance in\n        @param _spender approved address\n        @param _value   allowance amount\n    */\n    function ensureAllowance(IERC20Token _token, address _spender, uint256 _value) private {\n        // check if allowance for the given amount already exists\n        if (_token.allowance(this, _spender) >= _value)\n            return;\n\n        // if the allowance is nonzero, must reset it to 0 first\n        if (_token.allowance(this, _spender) != 0)\n            assert(_token.approve(_spender, 0));\n\n        // approve the new allowance\n        assert(_token.approve(_spender, _value));\n    }\n}\n",
  "sourcePath": "/Users/chanopalis/Documents/ethereum-contracts/smart-law-contracts/DexRE-Contract/contracts/LiquidRE/bancor/BancorQuickConverter.sol",
  "schemaVersion": "1.0.0",
  "updatedAt": "2018-02-28T18:05:46.267Z"
}