{
  "contractName": "BancorPriceFloor",
  "abi": [
    {
      "constant": true,
      "inputs": [],
      "name": "TOKEN_PRICE_D",
      "outputs": [
        {
          "name": "",
          "type": "uint256"
        }
      ],
      "payable": false,
      "stateMutability": "view",
      "type": "function"
    },
    {
      "constant": false,
      "inputs": [
        {
          "name": "_amount",
          "type": "uint256"
        }
      ],
      "name": "withdraw",
      "outputs": [],
      "payable": false,
      "stateMutability": "nonpayable",
      "type": "function"
    },
    {
      "constant": false,
      "inputs": [],
      "name": "sell",
      "outputs": [
        {
          "name": "amount",
          "type": "uint256"
        }
      ],
      "payable": false,
      "stateMutability": "nonpayable",
      "type": "function"
    },
    {
      "constant": true,
      "inputs": [],
      "name": "TOKEN_PRICE_N",
      "outputs": [
        {
          "name": "",
          "type": "uint256"
        }
      ],
      "payable": false,
      "stateMutability": "view",
      "type": "function"
    },
    {
      "constant": true,
      "inputs": [],
      "name": "version",
      "outputs": [
        {
          "name": "",
          "type": "string"
        }
      ],
      "payable": false,
      "stateMutability": "view",
      "type": "function"
    },
    {
      "constant": false,
      "inputs": [
        {
          "name": "_token",
          "type": "address"
        },
        {
          "name": "_to",
          "type": "address"
        },
        {
          "name": "_amount",
          "type": "uint256"
        }
      ],
      "name": "withdrawTokens",
      "outputs": [],
      "payable": false,
      "stateMutability": "nonpayable",
      "type": "function"
    },
    {
      "constant": false,
      "inputs": [],
      "name": "acceptOwnership",
      "outputs": [],
      "payable": false,
      "stateMutability": "nonpayable",
      "type": "function"
    },
    {
      "constant": true,
      "inputs": [],
      "name": "owner",
      "outputs": [
        {
          "name": "",
          "type": "address"
        }
      ],
      "payable": false,
      "stateMutability": "view",
      "type": "function"
    },
    {
      "constant": true,
      "inputs": [],
      "name": "newOwner",
      "outputs": [
        {
          "name": "",
          "type": "address"
        }
      ],
      "payable": false,
      "stateMutability": "view",
      "type": "function"
    },
    {
      "constant": false,
      "inputs": [
        {
          "name": "_newOwner",
          "type": "address"
        }
      ],
      "name": "transferOwnership",
      "outputs": [],
      "payable": false,
      "stateMutability": "nonpayable",
      "type": "function"
    },
    {
      "constant": true,
      "inputs": [],
      "name": "token",
      "outputs": [
        {
          "name": "",
          "type": "address"
        }
      ],
      "payable": false,
      "stateMutability": "view",
      "type": "function"
    },
    {
      "inputs": [
        {
          "name": "_token",
          "type": "address"
        }
      ],
      "payable": false,
      "stateMutability": "nonpayable",
      "type": "constructor"
    },
    {
      "payable": true,
      "stateMutability": "payable",
      "type": "fallback"
    },
    {
      "anonymous": false,
      "inputs": [
        {
          "indexed": false,
          "name": "_prevOwner",
          "type": "address"
        },
        {
          "indexed": false,
          "name": "_newOwner",
          "type": "address"
        }
      ],
      "name": "OwnerUpdate",
      "type": "event"
    }
  ],
  "bytecode": "0x606060405260408051908101604052600381527f302e3100000000000000000000000000000000000000000000000000000000006020820152600290805161004b9291602001906100c4565b50341561005757600080fd5b6040516020806108d48339810160405280805160008054600160a060020a03191633600160a060020a03908116919091179091559092508291508116151561009e57600080fd5b5060038054600160a060020a031916600160a060020a039290921691909117905561015f565b828054600181600116156101000203166002900490600052602060002090601f016020900481019282601f1061010557805160ff1916838001178555610132565b82800160010185558215610132579182015b82811115610132578251825591602001919060010190610117565b5061013e929150610142565b5090565b61015c91905b8082111561013e5760008155600101610148565b90565b6107668061016e6000396000f300606060405236156100ac5763ffffffff7c01000000000000000000000000000000000000000000000000000000006000350416630d2806ad81146100ae5780632e1a7d4d146100d357806345710074146100e957806345cfad3e146100fc57806354fd4d501461010f5780635e35359e1461019957806379ba5097146101c15780638da5cb5b146101d4578063d4ee1d9014610203578063f2fde38b14610216578063fc0c546a14610235575b005b34156100b957600080fd5b6100c1610248565b60405190815260200160405180910390f35b34156100de57600080fd5b6100ac60043561024d565b34156100f457600080fd5b6100c1610299565b341561010757600080fd5b6100c161042f565b341561011a57600080fd5b610122610434565b60405160208082528190810183818151815260200191508051906020019080838360005b8381101561015e578082015183820152602001610146565b50505050905090810190601f16801561018b5780820380516001836020036101000a031916815260200191505b509250505060405180910390f35b34156101a457600080fd5b6100ac600160a060020a03600435811690602435166044356104d2565b34156101cc57600080fd5b6100ac6105d9565b34156101df57600080fd5b6101e7610680565b604051600160a060020a03909116815260200160405180910390f35b341561020e57600080fd5b6101e761068f565b341561022157600080fd5b6100ac600160a060020a036004351661069e565b341561024057600080fd5b6101e7610700565b606481565b60005433600160a060020a0390811691161461026557fe5b600160a060020a03331681156108fc0282604051600060405180830381858888f19350505050151561029657600080fd5b50565b60035460009081908190600160a060020a031663dd62ed3e333084604051602001526040517c010000000000000000000000000000000000000000000000000000000063ffffffff8516028152600160a060020a03928316600482015291166024820152604401602060405180830381600087803b151561031957600080fd5b6102c65a03f1151561032a57600080fd5b5050506040518051600354909350600160a060020a031690506323b872dd3330856000604051602001526040517c010000000000000000000000000000000000000000000000000000000063ffffffff8616028152600160a060020a0393841660048201529190921660248201526044810191909152606401602060405180830381600087803b15156103bc57600080fd5b6102c65a03f115156103cd57600080fd5b5050506040518051905015156103df57fe5b60646103ec83600161070f565b8115156103f557fe5b049050600160a060020a03331681156108fc0282604051600060405180830381858888f19350505050151561042957600080fd5b92915050565b600181565b60028054600181600116156101000203166002900480601f0160208091040260200160405190810160405280929190818152602001828054600181600116156101000203166002900480156104ca5780601f1061049f576101008083540402835291602001916104ca565b820191906000526020600020905b8154815290600101906020018083116104ad57829003601f168201915b505050505081565b60005433600160a060020a039081169116146104ea57fe5b82600160a060020a038116151561050057600080fd5b82600160a060020a038116151561051657600080fd5b8330600160a060020a031681600160a060020a03161415151561053857600080fd5b85600160a060020a031663a9059cbb86866000604051602001526040517c010000000000000000000000000000000000000000000000000000000063ffffffff8516028152600160a060020a0390921660048301526024820152604401602060405180830381600087803b15156105ae57600080fd5b6102c65a03f115156105bf57600080fd5b5050506040518051905015156105d157fe5b505050505050565b60015433600160a060020a039081169116146105f457600080fd5b6000546001547f343765429aea5a34b3ff6a3785a98a5abb2597aca87bfbb58632c173d585373a91600160a060020a039081169116604051600160a060020a039283168152911660208201526040908101905180910390a1600180546000805473ffffffffffffffffffffffffffffffffffffffff19908116600160a060020a03841617909155169055565b600054600160a060020a031681565b600154600160a060020a031681565b60005433600160a060020a039081169116146106b657fe5b600054600160a060020a03828116911614156106d157600080fd5b6001805473ffffffffffffffffffffffffffffffffffffffff1916600160a060020a0392909216919091179055565b600354600160a060020a031681565b600082820283158061072b575082848281151561072857fe5b04145b151561073357fe5b93925050505600a165627a7a723058202218858ae0b935a6a438faf6c710e898b8dc49552d11798054b8b4b21af3e7d30029",
  "source": "pragma solidity ^0.4.11;\nimport './TokenHolder.sol';\nimport './Owned.sol';\nimport './Utils.sol';\nimport './interfaces/ISmartToken.sol';\n\n/*\n    BancorPriceFloor v0.1\n\n    The bancor price floor contract is a simple contract that allows selling smart tokens for a constant ETH price\n\n    'Owned' is specified here for readability reasons\n*/\ncontract BancorPriceFloor is Owned, TokenHolder {\n    uint256 public constant TOKEN_PRICE_N = 1;      // crowdsale price in wei (numerator)\n    uint256 public constant TOKEN_PRICE_D = 100;    // crowdsale price in wei (denominator)\n\n    string public version = '0.1';\n    ISmartToken public token; // smart token the contract allows selling\n\n    /**\n        @dev constructor\n\n        @param _token   smart token the contract allows selling\n    */\n    function BancorPriceFloor(ISmartToken _token)\n        validAddress(_token)\n        public\n    {\n        token = _token;\n    }\n\n    /**\n        @dev sells the smart token for ETH\n        note that the function will sell the full allowance amount\n\n        @return ETH sent in return\n    */\n    function sell() public returns (uint256 amount) {\n        uint256 allowance = token.allowance(msg.sender, this); // get the full allowance amount\n        assert(token.transferFrom(msg.sender, this, allowance)); // transfer all tokens from the sender to the contract\n        uint256 etherValue = safeMul(allowance, TOKEN_PRICE_N) / TOKEN_PRICE_D; // calculate ETH value of the tokens\n        msg.sender.transfer(etherValue); // send the ETH amount to the seller\n        return etherValue;\n    }\n\n    /**\n        @dev withdraws ETH from the contract\n\n        @param _amount  amount of ETH to withdraw\n    */\n    function withdraw(uint256 _amount) public ownerOnly {\n        msg.sender.transfer(_amount); // send the amount\n    }\n\n    /**\n        @dev deposits ETH in the contract\n    */\n    function() public payable {\n    }\n}\n",
  "sourcePath": "/Users/chanopalis/Documents/ethereum-contracts/smart-law-contracts/DexRE-Contract/contracts/LiquidRE/bancor/BancorPriceFloor.sol",
  "schemaVersion": "1.0.0",
  "updatedAt": "2018-03-02T16:04:52.239Z"
}