{
  "contractName": "Beneficiary",
  "abi": [
    {
      "constant": false,
      "inputs": [],
      "name": "deactivate",
      "outputs": [],
      "payable": false,
      "stateMutability": "nonpayable",
      "type": "function"
    },
    {
      "constant": true,
      "inputs": [],
      "name": "entity",
      "outputs": [
        {
          "name": "",
          "type": "address"
        }
      ],
      "payable": false,
      "stateMutability": "view",
      "type": "function"
    },
    {
      "constant": true,
      "inputs": [],
      "name": "trust",
      "outputs": [
        {
          "name": "",
          "type": "address"
        }
      ],
      "payable": false,
      "stateMutability": "view",
      "type": "function"
    },
    {
      "constant": true,
      "inputs": [],
      "name": "getSignatures",
      "outputs": [
        {
          "name": "",
          "type": "address[]"
        }
      ],
      "payable": false,
      "stateMutability": "view",
      "type": "function"
    },
    {
      "constant": true,
      "inputs": [],
      "name": "countSignatures",
      "outputs": [
        {
          "name": "",
          "type": "uint256"
        }
      ],
      "payable": false,
      "stateMutability": "view",
      "type": "function"
    },
    {
      "constant": true,
      "inputs": [],
      "name": "disabled",
      "outputs": [
        {
          "name": "",
          "type": "bool"
        }
      ],
      "payable": false,
      "stateMutability": "view",
      "type": "function"
    },
    {
      "constant": false,
      "inputs": [
        {
          "name": "_signature",
          "type": "address"
        }
      ],
      "name": "sign",
      "outputs": [],
      "payable": false,
      "stateMutability": "nonpayable",
      "type": "function"
    },
    {
      "inputs": [
        {
          "name": "_trust",
          "type": "address"
        },
        {
          "name": "_entity",
          "type": "address"
        },
        {
          "name": "_signature",
          "type": "address"
        }
      ],
      "payable": false,
      "stateMutability": "nonpayable",
      "type": "constructor"
    }
  ],
  "bytecode": "0x6060604052341561000f57600080fd5b60405160608061065483398101604052808051919060200180519190602001805160008054600160a060020a0319908116600160a060020a038881169190911760a060020a60ff0219169092556002805490911691861691909117905560018054919350915080820161008283826100b4565b5060009182526020909120018054600160a060020a031916600160a060020a0392909216919091179055506100fe9050565b8154818355818115116100d8576000838152602090206100d89181019083016100dd565b505050565b6100fb91905b808211156100f757600081556001016100e3565b5090565b90565b6105478061010d6000396000f300606060405236156100805763ffffffff7c010000000000000000000000000000000000000000000000000000000060003504166351b42b0081146100855780636cdbbc661461009a5780636f9fdd66146100d6578063ad6f80ff146100e9578063bc5ffcc61461014f578063ee07080514610174578063f71be8371461019b575b600080fd5b341561009057600080fd5b6100986101c7565b005b34156100a557600080fd5b6100ad610226565b60405173ffffffffffffffffffffffffffffffffffffffff909116815260200160405180910390f35b34156100e157600080fd5b6100ad610242565b34156100f457600080fd5b6100fc61025e565b60405160208082528190810183818151815260200191508051906020019060200280838360005b8381101561013b578082015183820152602001610123565b505050509050019250505060405180910390f35b341561015a57600080fd5b6101626102d4565b60405190815260200160405180910390f35b341561017f57600080fd5b6101876102da565b604051901515815260200160405180910390f35b34156101a657600080fd5b61009873ffffffffffffffffffffffffffffffffffffffff600435166102fb565b6000543373ffffffffffffffffffffffffffffffffffffffff9081169116146101ef57600080fd5b6000805474ff0000000000000000000000000000000000000000191674010000000000000000000000000000000000000000179055565b60025473ffffffffffffffffffffffffffffffffffffffff1681565b60005473ffffffffffffffffffffffffffffffffffffffff1681565b6102666104c2565b60018054806020026020016040519081016040528092919081815260200182805480156102c957602002820191906000526020600020905b815473ffffffffffffffffffffffffffffffffffffffff16815260019091019060200180831161029e575b505050505090505b90565b60015490565b60005474010000000000000000000000000000000000000000900460ff1681565b6000543373ffffffffffffffffffffffffffffffffffffffff90811691161461032357600080fd5b60005474010000000000000000000000000000000000000000900460ff161561034b57600080fd5b73__UtilsLib______________________________638782be356001836000604051602001526040518363ffffffff167c010000000000000000000000000000000000000000000000000000000002815260040180806020018373ffffffffffffffffffffffffffffffffffffffff1673ffffffffffffffffffffffffffffffffffffffff168152602001828103825284818154815260200191508054801561042a57602002820191906000526020600020905b815473ffffffffffffffffffffffffffffffffffffffff1681526001909101906020018083116103ff575b5050935050505060206040518083038186803b151561044857600080fd5b6102c65a03f4151561045957600080fd5b505050604051805190501561046d57600080fd5b6001805480820161047e83826104d4565b506000918252602090912001805473ffffffffffffffffffffffffffffffffffffffff831673ffffffffffffffffffffffffffffffffffffffff1990911617905550565b60206040519081016040526000815290565b8154818355818115116104f8576000838152602090206104f89181019083016104fd565b505050565b6102d191905b808211156105175760008155600101610503565b50905600a165627a7a7230582087c29dcb77db5a30fe15065f573e897790e0757748411b0c7942f2d3bdeb37c30029",
  "source": "pragma solidity ^0.4.4;\nimport './Signable.sol';\n\ncontract Beneficiary is Signable {\n\n    address public entity;\n\n    function Beneficiary(address _trust, address _entity, address _signature)\n        public\n        Signable(_trust)\n    {\n        entity = _entity;\n        signatures.push(_signature);\n    }\n}\n",
  "sourcePath": "/Users/chanopalis/Documents/ethereum-contracts/smart-law-contracts/DexRE-Contract/contracts/Beneficiary.sol",
  "schemaVersion": "1.0.0",
  "updatedAt": "2018-03-02T16:04:52.210Z"
}