{
  "contractName": "Beneficiary",
  "abi": [
    {
      "constant": false,
      "inputs": [],
      "name": "deactivate",
      "outputs": [],
      "payable": false,
      "stateMutability": "nonpayable",
      "type": "function"
    },
    {
      "constant": true,
      "inputs": [],
      "name": "entity",
      "outputs": [
        {
          "name": "",
          "type": "address"
        }
      ],
      "payable": false,
      "stateMutability": "view",
      "type": "function"
    },
    {
      "constant": true,
      "inputs": [],
      "name": "trust",
      "outputs": [
        {
          "name": "",
          "type": "address"
        }
      ],
      "payable": false,
      "stateMutability": "view",
      "type": "function"
    },
    {
      "constant": true,
      "inputs": [],
      "name": "getSignatures",
      "outputs": [
        {
          "name": "",
          "type": "address[]"
        }
      ],
      "payable": false,
      "stateMutability": "view",
      "type": "function"
    },
    {
      "constant": true,
      "inputs": [],
      "name": "countSignatures",
      "outputs": [
        {
          "name": "",
          "type": "uint256"
        }
      ],
      "payable": false,
      "stateMutability": "view",
      "type": "function"
    },
    {
      "constant": true,
      "inputs": [],
      "name": "disabled",
      "outputs": [
        {
          "name": "",
          "type": "bool"
        }
      ],
      "payable": false,
      "stateMutability": "view",
      "type": "function"
    },
    {
      "constant": false,
      "inputs": [
        {
          "name": "_signature",
          "type": "address"
        }
      ],
      "name": "sign",
      "outputs": [],
      "payable": false,
      "stateMutability": "nonpayable",
      "type": "function"
    },
    {
      "inputs": [
        {
          "name": "_trust",
          "type": "address"
        },
        {
          "name": "_entity",
          "type": "address"
        },
        {
          "name": "_signature",
          "type": "address"
        }
      ],
      "payable": false,
      "stateMutability": "nonpayable",
      "type": "constructor"
    }
  ],
  "bytecode": "0x6060604052341561000f57600080fd5b6040516060806105c583398101604052808051919060200180519190602001805160008054600160a060020a0319908116600160a060020a038881169190911760a060020a60ff0219169092556002805490911691861691909117905560018054919350915080820161008283826100b4565b5060009182526020909120018054600160a060020a031916600160a060020a0392909216919091179055506100fe9050565b8154818355818115116100d8576000838152602090206100d89181019083016100dd565b505050565b6100fb91905b808211156100f757600081556001016100e3565b5090565b90565b6104b88061010d6000396000f300606060405236156100805763ffffffff7c010000000000000000000000000000000000000000000000000000000060003504166351b42b0081146100855780636cdbbc661461009a5780636f9fdd66146100c9578063ad6f80ff146100dc578063bc5ffcc614610142578063ee07080514610167578063f71be8371461018e575b600080fd5b341561009057600080fd5b6100986101ad565b005b34156100a557600080fd5b6100ad6101ff565b604051600160a060020a03909116815260200160405180910390f35b34156100d457600080fd5b6100ad61020e565b34156100e757600080fd5b6100ef61021d565b60405160208082528190810183818151815260200191508051906020019060200280838360005b8381101561012e578082015183820152602001610116565b505050509050019250505060405180910390f35b341561014d57600080fd5b610155610286565b60405190815260200160405180910390f35b341561017257600080fd5b61017a61028c565b604051901515815260200160405180910390f35b341561019957600080fd5b610098600160a060020a03600435166102ad565b60005433600160a060020a039081169116146101c857600080fd5b6000805474ff0000000000000000000000000000000000000000191674010000000000000000000000000000000000000000179055565b600254600160a060020a031681565b600054600160a060020a031681565b610225610433565b600180548060200260200160405190810160405280929190818152602001828054801561027b57602002820191906000526020600020905b8154600160a060020a0316815260019091019060200180831161025d575b505050505090505b90565b60015490565b60005474010000000000000000000000000000000000000000900460ff1681565b60005433600160a060020a039081169116146102c857600080fd5b60005474010000000000000000000000000000000000000000900460ff16156102f057600080fd5b73__UtilsLib______________________________638782be356001836000604051602001526040518363ffffffff167c0100000000000000000000000000000000000000000000000000000000028152600401808060200183600160a060020a0316600160a060020a0316815260200182810382528481815481526020019150805480156103a857602002820191906000526020600020905b8154600160a060020a0316815260019091019060200180831161038a575b5050935050505060206040518083038186803b15156103c657600080fd5b6102c65a03f415156103d757600080fd5b50505060405180519050156103eb57600080fd5b600180548082016103fc8382610445565b5060009182526020909120018054600160a060020a03831673ffffffffffffffffffffffffffffffffffffffff1990911617905550565b60206040519081016040526000815290565b8154818355818115116104695760008381526020902061046991810190830161046e565b505050565b61028391905b808211156104885760008155600101610474565b50905600a165627a7a72305820b3fde77025f7ada71536c4c39fb3a1b4c7f5ea12dc25eb93bf5ffb661e4dd14d0029",
  "source": "pragma solidity ^0.4.4;\nimport './Signable.sol';\n\ncontract Beneficiary is Signable {\n\n    address public entity;\n\n    function Beneficiary(address _trust, address _entity, address _signature)\n        public\n        Signable(_trust)\n    {\n        entity = _entity;\n        signatures.push(_signature);\n    }\n}\n",
  "sourcePath": "/Users/chanopalis/Documents/ethereum-contracts/smart-law-contracts/DexRE-Contract/contracts/Beneficiary.sol",
  "schemaVersion": "1.0.0",
  "updatedAt": "2018-02-28T18:05:46.240Z"
}