{
  "contractName": "Bid",
  "abi": [
    {
      "constant": true,
      "inputs": [],
      "name": "date",
      "outputs": [
        {
          "name": "",
          "type": "uint256"
        }
      ],
      "payable": false,
      "stateMutability": "view",
      "type": "function"
    },
    {
      "constant": true,
      "inputs": [],
      "name": "owner",
      "outputs": [
        {
          "name": "",
          "type": "address"
        }
      ],
      "payable": false,
      "stateMutability": "view",
      "type": "function"
    },
    {
      "constant": true,
      "inputs": [],
      "name": "amount",
      "outputs": [
        {
          "name": "",
          "type": "uint256"
        }
      ],
      "payable": false,
      "stateMutability": "view",
      "type": "function"
    },
    {
      "inputs": [
        {
          "name": "_owner",
          "type": "address"
        },
        {
          "name": "_amount",
          "type": "uint256"
        }
      ],
      "payable": false,
      "stateMutability": "nonpayable",
      "type": "constructor"
    }
  ],
  "bytecode": "0x6060604052341561000f57600080fd5b604051604080610171833981016040528080519190602001805160018054600160a060020a03909516600160a060020a03199095169490941790935550506000554260025561010e806100636000396000f300606060405263ffffffff7c0100000000000000000000000000000000000000000000000000000000600035041663323046b18114604f5780638da5cb5b146071578063aa8c217c1460aa57600080fd5b3415605957600080fd5b605f60ba565b60405190815260200160405180910390f35b3415607b57600080fd5b608160c0565b60405173ffffffffffffffffffffffffffffffffffffffff909116815260200160405180910390f35b341560b457600080fd5b605f60dc565b60025481565b60015473ffffffffffffffffffffffffffffffffffffffff1681565b600054815600a165627a7a7230582085fe5935d56c5200c13af3900e68c22b7f96b2a1f037974e812e0a5cfb8569ce0029",
  "source": "pragma solidity ^0.4.4;\n\ncontract Bid {\n\n    uint public amount;\n    address public owner; // entity address of the bidder\n    uint public date;\n\n    function Bid(address _owner, uint _amount)\n        public\n    {\n        owner = _owner;\n        amount = _amount;\n        date = now;\n    }\n\n}\n",
  "sourcePath": "/Users/chanopalis/Documents/ethereum-contracts/smart-law-contracts/DexRE-Contract/contracts/Bid.sol",
  "schemaVersion": "1.0.0",
  "updatedAt": "2018-02-28T18:05:46.240Z"
}