{
  "contractName": "Buffer",
  "abi": [
    {
      "constant": true,
      "inputs": [],
      "name": "getUnavailableAmount",
      "outputs": [
        {
          "name": "",
          "type": "uint256"
        }
      ],
      "payable": false,
      "stateMutability": "view",
      "type": "function"
    },
    {
      "constant": false,
      "inputs": [
        {
          "name": "amount",
          "type": "uint256"
        },
        {
          "name": "lret",
          "type": "address"
        }
      ],
      "name": "Deposit",
      "outputs": [],
      "payable": true,
      "stateMutability": "payable",
      "type": "function"
    },
    {
      "constant": true,
      "inputs": [],
      "name": "getAvailableAmount",
      "outputs": [
        {
          "name": "",
          "type": "uint256"
        }
      ],
      "payable": false,
      "stateMutability": "view",
      "type": "function"
    },
    {
      "inputs": [],
      "payable": false,
      "stateMutability": "nonpayable",
      "type": "constructor"
    }
  ],
  "bytecode": "0x606060405262029810600155341561001657600080fd5b610116806100256000396000f300606060405263ffffffff7c01000000000000000000000000000000000000000000000000000000006000350416630554e4a28114604f5780634bcc17091460715780637bb476f514609557600080fd5b3415605957600080fd5b605f60a5565b60405190815260200160405180910390f35b609360043573ffffffffffffffffffffffffffffffffffffffff6024351660b6565b005b3415609f57600080fd5b605f60c6565b600060ad60c6565b60005403905090565b5043600255600080549091019055565b6000806000600254430391506000546001548381151560e157fe5b040293925050505600a165627a7a723058209811dab0c7aeae96db0e716595b4b03bc63bc0fad5753cca3dea86961e3ae3a80029",
  "source": "pragma solidity ^0.4.4;\n\ncontract Buffer {\n    uint bufferBalance;\n    uint blocksInPeriod = 170000;\n    uint startingBlock;\n\n    function Buffer()\n        public\n    {\n    }\n\n    function Deposit(uint amount, address lret)\n        payable\n        public\n    {\n        //transferFrom(msg.sender, lret, amount);\n        startingBlock = block.number;\n        bufferBalance += amount;\n    }\n\n    function getAvailableAmount()\n        public\n        view\n        returns(uint)\n    {\n        //return amount of buffer available to CRR\n        uint blocksSinceDeposit = block.number - startingBlock;\n\n        uint availableAmount = (blocksSinceDeposit / blocksInPeriod) * bufferBalance;\n\n        return availableAmount;\n\n    }\n\n    function getUnavailableAmount()\n        public\n        view\n        returns(uint)\n    {\n        return bufferBalance - getAvailableAmount();\n    }\n\n}\n",
  "sourcePath": "/Users/chanopalis/Documents/ethereum-contracts/smart-law-contracts/DexRE-Contract/contracts/LiquidRE/Buffer.sol",
  "schemaVersion": "1.0.0",
  "updatedAt": "2018-03-02T16:04:52.214Z"
}