{
  "contractName": "Entity",
  "abi": [
    {
      "constant": true,
      "inputs": [],
      "name": "DexREAdmin",
      "outputs": [
        {
          "name": "",
          "type": "address"
        }
      ],
      "payable": false,
      "stateMutability": "view",
      "type": "function"
    },
    {
      "constant": true,
      "inputs": [],
      "name": "status",
      "outputs": [
        {
          "name": "",
          "type": "bool"
        }
      ],
      "payable": false,
      "stateMutability": "view",
      "type": "function"
    },
    {
      "constant": false,
      "inputs": [
        {
          "name": "_sender",
          "type": "address"
        }
      ],
      "name": "acceptOwnership",
      "outputs": [],
      "payable": false,
      "stateMutability": "nonpayable",
      "type": "function"
    },
    {
      "constant": false,
      "inputs": [
        {
          "name": "_sender",
          "type": "address"
        },
        {
          "name": "_newOwner",
          "type": "address"
        }
      ],
      "name": "transferOwnership",
      "outputs": [],
      "payable": false,
      "stateMutability": "nonpayable",
      "type": "function"
    },
    {
      "constant": false,
      "inputs": [
        {
          "name": "_amount",
          "type": "uint256"
        },
        {
          "name": "_source",
          "type": "string"
        }
      ],
      "name": "mint",
      "outputs": [],
      "payable": false,
      "stateMutability": "nonpayable",
      "type": "function"
    },
    {
      "constant": true,
      "inputs": [
        {
          "name": "_source",
          "type": "string"
        }
      ],
      "name": "availableFunds",
      "outputs": [
        {
          "name": "",
          "type": "uint256"
        }
      ],
      "payable": false,
      "stateMutability": "view",
      "type": "function"
    },
    {
      "constant": true,
      "inputs": [],
      "name": "owner",
      "outputs": [
        {
          "name": "",
          "type": "address"
        }
      ],
      "payable": false,
      "stateMutability": "view",
      "type": "function"
    },
    {
      "constant": true,
      "inputs": [],
      "name": "verified",
      "outputs": [
        {
          "name": "",
          "type": "bool"
        }
      ],
      "payable": false,
      "stateMutability": "view",
      "type": "function"
    },
    {
      "constant": true,
      "inputs": [],
      "name": "factory",
      "outputs": [
        {
          "name": "",
          "type": "address"
        }
      ],
      "payable": false,
      "stateMutability": "view",
      "type": "function"
    },
    {
      "constant": true,
      "inputs": [],
      "name": "LiquidREAdmin",
      "outputs": [
        {
          "name": "",
          "type": "address"
        }
      ],
      "payable": false,
      "stateMutability": "view",
      "type": "function"
    },
    {
      "constant": true,
      "inputs": [],
      "name": "newOwner",
      "outputs": [
        {
          "name": "",
          "type": "address"
        }
      ],
      "payable": false,
      "stateMutability": "view",
      "type": "function"
    },
    {
      "constant": true,
      "inputs": [],
      "name": "country",
      "outputs": [
        {
          "name": "",
          "type": "string"
        }
      ],
      "payable": false,
      "stateMutability": "view",
      "type": "function"
    },
    {
      "constant": false,
      "inputs": [
        {
          "name": "_amount",
          "type": "uint256"
        },
        {
          "name": "_source",
          "type": "string"
        }
      ],
      "name": "withdraw",
      "outputs": [],
      "payable": false,
      "stateMutability": "nonpayable",
      "type": "function"
    },
    {
      "constant": true,
      "inputs": [],
      "name": "isAccreditedInvestor",
      "outputs": [
        {
          "name": "",
          "type": "bool"
        }
      ],
      "payable": false,
      "stateMutability": "view",
      "type": "function"
    },
    {
      "constant": false,
      "inputs": [],
      "name": "disabled",
      "outputs": [],
      "payable": false,
      "stateMutability": "nonpayable",
      "type": "function"
    },
    {
      "constant": true,
      "inputs": [],
      "name": "category",
      "outputs": [
        {
          "name": "",
          "type": "uint256"
        }
      ],
      "payable": false,
      "stateMutability": "view",
      "type": "function"
    },
    {
      "constant": false,
      "inputs": [
        {
          "name": "_amount",
          "type": "uint256"
        },
        {
          "name": "_source",
          "type": "string"
        }
      ],
      "name": "deposit",
      "outputs": [],
      "payable": false,
      "stateMutability": "nonpayable",
      "type": "function"
    },
    {
      "constant": false,
      "inputs": [],
      "name": "verify",
      "outputs": [],
      "payable": false,
      "stateMutability": "nonpayable",
      "type": "function"
    },
    {
      "inputs": [
        {
          "name": "_dexRE",
          "type": "address"
        },
        {
          "name": "_liquidRE",
          "type": "address"
        },
        {
          "name": "_owner",
          "type": "address"
        },
        {
          "name": "_category",
          "type": "uint256"
        },
        {
          "name": "_investor",
          "type": "bool"
        },
        {
          "name": "_country",
          "type": "string"
        }
      ],
      "payable": false,
      "stateMutability": "nonpayable",
      "type": "constructor"
    }
  ],
  "bytecode": "0x6060604052341561000f57600080fd5b6040516110c83803806110c8833981016040528080519190602001805191906020018051919060200180519190602001805191906020018051909101905033848787600060016040517f44657852450000000000000000000000000000000000000000000000000000008152600581019190915260250160405190819003902055600060016040517f4c6971756964524500000000000000000000000000000000000000000000000081526008810191909152602801604051908190039020556002805460008054600160a060020a0319908116600160a060020a0398891617909155600160a860020a0319909116610100958716959095029490941790556004805484169285169290921790915560058054740100000000000000000000000000000000000000009316919093161760a060020a60ff02191617905560068390556007805460ff1916831515179055600881805161017292916020019061017e565b50505050505050610219565b828054600181600116156101000203166002900490600052602060002090601f016020900481019282601f106101bf57805160ff19168380011785556101ec565b828001600101855582156101ec579182015b828111156101ec5782518255916020019190600101906101d1565b506101f89291506101fc565b5090565b61021691905b808211156101f85760008155600101610202565b90565b610ea0806102286000396000f300606060405236156100f95763ffffffff7c01000000000000000000000000000000000000000000000000000000006000350416631eac965781146100fe578063200d2ed21461012d57806351710e45146101545780636d4354211461017557806377097fc81461019a57806381b7a2ec146101f05780638da5cb5b14610253578063bbb82d8914610266578063c45a015514610279578063c908b58e1461028c578063d4ee1d901461029f578063d8b0b499146102b2578063dc048cf21461033c578063dd21a61a14610392578063ee070805146103a5578063ef430aa6146103b8578063f1215d25146103cb578063fc735e9914610421575b600080fd5b341561010957600080fd5b610111610434565b604051600160a060020a03909116815260200160405180910390f35b341561013857600080fd5b610140610443565b604051901515815260200160405180910390f35b341561015f57600080fd5b610173600160a060020a0360043516610464565b005b341561018057600080fd5b610173600160a060020a03600435811690602435166104e6565b34156101a557600080fd5b610173600480359060446024803590810190830135806020601f8201819004810201604051908101604052818152929190602084018383808284375094965061057395505050505050565b34156101fb57600080fd5b61024160046024813581810190830135806020601f820181900481020160405190810160405281815292919060208401838380828437509496506107c195505050505050565b60405190815260200160405180910390f35b341561025e57600080fd5b61011161089e565b341561027157600080fd5b6101406108b2565b341561028457600080fd5b6101116108bb565b341561029757600080fd5b6101116108ca565b34156102aa57600080fd5b6101116108d9565b34156102bd57600080fd5b6102c56108e8565b60405160208082528190810183818151815260200191508051906020019080838360005b838110156103015780820151838201526020016102e9565b50505050905090810190601f16801561032e5780820380516001836020036101000a031916815260200191505b509250505060405180910390f35b341561034757600080fd5b610173600480359060446024803590810190830135806020601f8201819004810201604051908101604052818152929190602084018383808284375094965061098695505050505050565b341561039d57600080fd5b610140610bf0565b34156103b057600080fd5b610173610bf9565b34156103c357600080fd5b610241610c4f565b34156103d657600080fd5b610173600480359060446024803590810190830135806020601f82018190048102016040519081016040528181529291906020840183838082843750949650610c5595505050505050565b341561042c57600080fd5b610173610e2f565b600454600160a060020a031681565b60055474010000000000000000000000000000000000000000900460ff1681565b60005433600160a060020a0390811691161461047f57600080fd5b600354600160a060020a0382811691161461049957600080fd5b50600380546002805474ffffffffffffffffffffffffffffffffffffffff001916610100600160a060020a0384160217905573ffffffffffffffffffffffffffffffffffffffff19169055565b6002548290600160a060020a03808316610100909204161461050757600080fd5b60005433600160a060020a0390811691161461052257600080fd5b600254600160a060020a0383811661010090920416141561054257600080fd5b506003805473ffffffffffffffffffffffffffffffffffffffff1916600160a060020a039290921691909117905550565b60045433600160a060020a039081169116148061059e575060055433600160a060020a039081169116145b15156105a957600080fd5b6040517f44657852450000000000000000000000000000000000000000000000000000008152600501604051908190039020816040518082805190602001908083835b6020831061060b5780518252601f1990920191602091820191016105ec565b6001836020036101000a038019825116818451161790925250505091909101925060409150505190819003902014806106d057506040517f4c697175696452450000000000000000000000000000000000000000000000008152600801604051908190039020816040518082805190602001908083835b602083106106a15780518252601f199092019160209182019101610682565b6001836020036101000a0380198251168184511617909252505050919091019250604091505051908190039020145b15156106db57600080fd5b816001826040518082805190602001908083835b6020831061070e5780518252601f1990920191602091820191016106ef565b6001836020036101000a03801982511681845116808217855250505050505090500191505090815260200160405190819003902054101561074e57600080fd5b816001826040518082805190602001908083835b602083106107815780518252601f199092019160209182019101610762565b6001836020036101000a03801982511681845116808217855250505050505090500191505090815260200160405190819003902080549190910390555050565b60025460009033600160a060020a039081166101009092041614806107f4575060005433600160a060020a039081169116145b8061080d575060045433600160a060020a039081169116145b80610826575060055433600160a060020a039081169116145b151561083157600080fd5b6001826040518082805190602001908083835b602083106108635780518252601f199092019160209182019101610844565b6001836020036101000a0380198251168184511680821785525050505050509050019150509081526020016040518091039020549050919050565b6002546101009004600160a060020a031681565b60025460ff1681565b600054600160a060020a031681565b600554600160a060020a031681565b600354600160a060020a031681565b60088054600181600116156101000203166002900480601f01602080910402602001604051908101604052809291908181526020018280546001816001161561010002031660029004801561097e5780601f106109535761010080835404028352916020019161097e565b820191906000526020600020905b81548152906001019060200180831161096157829003601f168201915b505050505081565b6002546000903390600160a060020a0380831661010090920416146109aa57600080fd5b6040517f44657852450000000000000000000000000000000000000000000000000000008152600501604051908190039020836040518082805190602001908083835b60208310610a0c5780518252601f1990920191602091820191016109ed565b6001836020036101000a03801982511681845116179092525050509190910192506040915050519081900390201480610ad157506040517f4c697175696452450000000000000000000000000000000000000000000000008152600801604051908190039020836040518082805190602001908083835b60208310610aa25780518252601f199092019160209182019101610a83565b6001836020036101000a0380198251168184511617909252505050919091019250604091505051908190039020145b1515610adc57600080fd5b6040517f44657852450000000000000000000000000000000000000000000000000000008152600501604051908190039020836040518082805190602001908083835b60208310610b3e5780518252601f199092019160209182019101610b1f565b6001836020036101000a03801982511681845116179092525050509190910192506040915050519081900390201415610bea57600454600160a060020a0316915081632e1a7d4d856040517c010000000000000000000000000000000000000000000000000000000063ffffffff84160281526004810191909152602401600060405180830381600087803b1515610bd557600080fd5b6102c65a03f11515610be657600080fd5b5050505b50505050565b60075460ff1681565b60045433600160a060020a0390811691161480610c24575060055433600160a060020a039081169116145b1515610c2f57600080fd5b6005805474ff000000000000000000000000000000000000000019169055565b60065481565b60045433600160a060020a0390811691161480610c80575060055433600160a060020a039081169116145b1515610c8b57600080fd5b6040517f44657852450000000000000000000000000000000000000000000000000000008152600501604051908190039020816040518082805190602001908083835b60208310610ced5780518252601f199092019160209182019101610cce565b6001836020036101000a03801982511681845116179092525050509190910192506040915050519081900390201480610db257506040517f4c697175696452450000000000000000000000000000000000000000000000008152600801604051908190039020816040518082805190602001908083835b60208310610d835780518252601f199092019160209182019101610d64565b6001836020036101000a0380198251168184511617909252505050919091019250604091505051908190039020145b1515610dbd57600080fd5b816001826040518082805190602001908083835b60208310610df05780518252601f199092019160209182019101610dd1565b6001836020036101000a038019825116818451168082178552505050505050905001915050908152602001604051908190039020805490910190555050565b60045433600160a060020a0390811691161480610e5a575060055433600160a060020a039081169116145b1515610e6557600080fd5b6002805460ff191660011790555600a165627a7a7230582041e10898f1709c0ce76d40139aabaf5d385fdf47a054dc2451cc3c88ddfbf2510029",
  "source": "pragma solidity ^0.4.4;\nimport './User.sol';\n\ncontract Entity is User {\n\n    uint public category;\n    bool public isAccreditedInvestor;\n    string public country;\n\n    function Entity(\n        address _dexRE,\n        address _liquidRE,\n        address _owner,\n        uint _category,\n        bool _investor,\n        string _country\n    )\n        public\n        User(msg.sender, _owner, _dexRE, _liquidRE)\n    {\n        category = _category;\n        isAccreditedInvestor = _investor;\n        country = _country;\n    }\n\n}\n",
  "sourcePath": "/Users/chanopalis/Documents/ethereum-contracts/smart-law-contracts/DexRE-Contract/contracts/Entity.sol",
  "schemaVersion": "1.0.0",
  "updatedAt": "2018-03-02T16:04:52.212Z"
}