{
  "contractName": "ERC20Token",
  "abi": [
    {
      "constant": true,
      "inputs": [],
      "name": "name",
      "outputs": [
        {
          "name": "",
          "type": "string"
        }
      ],
      "payable": false,
      "stateMutability": "view",
      "type": "function"
    },
    {
      "constant": false,
      "inputs": [
        {
          "name": "_spender",
          "type": "address"
        },
        {
          "name": "_value",
          "type": "uint256"
        }
      ],
      "name": "approve",
      "outputs": [
        {
          "name": "success",
          "type": "bool"
        }
      ],
      "payable": false,
      "stateMutability": "nonpayable",
      "type": "function"
    },
    {
      "constant": true,
      "inputs": [],
      "name": "totalSupply",
      "outputs": [
        {
          "name": "",
          "type": "uint256"
        }
      ],
      "payable": false,
      "stateMutability": "view",
      "type": "function"
    },
    {
      "constant": false,
      "inputs": [
        {
          "name": "_from",
          "type": "address"
        },
        {
          "name": "_to",
          "type": "address"
        },
        {
          "name": "_value",
          "type": "uint256"
        }
      ],
      "name": "transferFrom",
      "outputs": [
        {
          "name": "success",
          "type": "bool"
        }
      ],
      "payable": false,
      "stateMutability": "nonpayable",
      "type": "function"
    },
    {
      "constant": true,
      "inputs": [],
      "name": "decimals",
      "outputs": [
        {
          "name": "",
          "type": "uint8"
        }
      ],
      "payable": false,
      "stateMutability": "view",
      "type": "function"
    },
    {
      "constant": true,
      "inputs": [],
      "name": "standard",
      "outputs": [
        {
          "name": "",
          "type": "string"
        }
      ],
      "payable": false,
      "stateMutability": "view",
      "type": "function"
    },
    {
      "constant": true,
      "inputs": [
        {
          "name": "",
          "type": "address"
        }
      ],
      "name": "balanceOf",
      "outputs": [
        {
          "name": "",
          "type": "uint256"
        }
      ],
      "payable": false,
      "stateMutability": "view",
      "type": "function"
    },
    {
      "constant": true,
      "inputs": [],
      "name": "symbol",
      "outputs": [
        {
          "name": "",
          "type": "string"
        }
      ],
      "payable": false,
      "stateMutability": "view",
      "type": "function"
    },
    {
      "constant": false,
      "inputs": [
        {
          "name": "_to",
          "type": "address"
        },
        {
          "name": "_value",
          "type": "uint256"
        }
      ],
      "name": "transfer",
      "outputs": [
        {
          "name": "success",
          "type": "bool"
        }
      ],
      "payable": false,
      "stateMutability": "nonpayable",
      "type": "function"
    },
    {
      "constant": true,
      "inputs": [
        {
          "name": "",
          "type": "address"
        },
        {
          "name": "",
          "type": "address"
        }
      ],
      "name": "allowance",
      "outputs": [
        {
          "name": "",
          "type": "uint256"
        }
      ],
      "payable": false,
      "stateMutability": "view",
      "type": "function"
    },
    {
      "inputs": [
        {
          "name": "_name",
          "type": "string"
        },
        {
          "name": "_symbol",
          "type": "string"
        },
        {
          "name": "_decimals",
          "type": "uint8"
        }
      ],
      "payable": false,
      "stateMutability": "nonpayable",
      "type": "constructor"
    },
    {
      "anonymous": false,
      "inputs": [
        {
          "indexed": true,
          "name": "_from",
          "type": "address"
        },
        {
          "indexed": true,
          "name": "_to",
          "type": "address"
        },
        {
          "indexed": false,
          "name": "_value",
          "type": "uint256"
        }
      ],
      "name": "Transfer",
      "type": "event"
    },
    {
      "anonymous": false,
      "inputs": [
        {
          "indexed": true,
          "name": "_owner",
          "type": "address"
        },
        {
          "indexed": true,
          "name": "_spender",
          "type": "address"
        },
        {
          "indexed": false,
          "name": "_value",
          "type": "uint256"
        }
      ],
      "name": "Approval",
      "type": "event"
    }
  ],
  "bytecode": "0x606060405260408051908101604052600981527f546f6b656e20302e310000000000000000000000000000000000000000000000602082015260009080516200004d92916020019062000210565b5060206040519081016040526000815260019080516200007292916020019062000210565b5060206040519081016040526000815260029080516200009792916020019062000210565b506003805460ff1916905560006004553415620000b357600080fd5b60405162000adf38038062000adf83398101604052808051820191906020018051820191906020018051915060009050825111620000f057600080fd5b6200010930640100000000620006fd6200015282021704565b60019080516200011e92916020019062000210565b5060028280516200013492916020019062000210565b506003805460ff191660ff9290921691909117905550620002c79050565b6200015c62000295565b6200016662000295565b60006014604051805910620001785750595b90808252806020026020018201604052509150600090505b601481101562000209578060130360080260020a84600160a060020a0316811515620001b857fe5b047f010000000000000000000000000000000000000000000000000000000000000002828281518110620001e857fe5b906020010190600160f860020a031916908160001a90535060010162000190565b5092915050565b828054600181600116156101000203166002900490600052602060002090601f016020900481019282601f106200025357805160ff191683800117855562000283565b8280016001018555821562000283579182015b828111156200028357825182559160200191906001019062000266565b5062000291929150620002a7565b5090565b60206040519081016040526000815290565b620002c491905b80821115620002915760008155600101620002ae565b90565b61080880620002d76000396000f300606060405236156100a15763ffffffff7c010000000000000000000000000000000000000000000000000000000060003504166306fdde0381146100a6578063095ea7b31461013057806318160ddd1461016657806323b872dd1461018b578063313ce567146101b35780635a3b7e42146101dc57806370a08231146101ef57806395d89b411461020e578063a9059cbb14610221578063dd62ed3e14610243575b600080fd5b34156100b157600080fd5b6100b9610268565b60405160208082528190810183818151815260200191508051906020019080838360005b838110156100f55780820151838201526020016100dd565b50505050905090810190601f1680156101225780820380516001836020036101000a031916815260200191505b509250505060405180910390f35b341561013b57600080fd5b610152600160a060020a0360043516602435610306565b604051901515815260200160405180910390f35b341561017157600080fd5b6101796103c3565b60405190815260200160405180910390f35b341561019657600080fd5b610152600160a060020a03600435811690602435166044356103c9565b34156101be57600080fd5b6101c66104fb565b60405160ff909116815260200160405180910390f35b34156101e757600080fd5b6100b9610504565b34156101fa57600080fd5b610179600160a060020a036004351661056f565b341561021957600080fd5b6100b9610581565b341561022c57600080fd5b610152600160a060020a03600435166024356105ec565b341561024e57600080fd5b610179600160a060020a03600435811690602435166106b8565b60018054600181600116156101000203166002900480601f0160208091040260200160405190810160405280929190818152602001828054600181600116156101000203166002900480156102fe5780601f106102d3576101008083540402835291602001916102fe565b820191906000526020600020905b8154815290600101906020018083116102e157829003601f168201915b505050505081565b600082600160a060020a038116151561031e57600080fd5b82158061034e5750600160a060020a03338116600090815260066020908152604080832093881683529290522054155b151561035957600080fd5b600160a060020a03338116600081815260066020908152604080832094891680845294909152908190208690557f8c5be1e5ebec7d5bd14f71427d1e84f3dd0314c0f7b2291e5b200ac8c7c3b9259086905190815260200160405180910390a35060019392505050565b60045481565b600083600160a060020a03811615156103e157600080fd5b83600160a060020a03811615156103f757600080fd5b600160a060020a038087166000908152600660209081526040808320339094168352929052205461042890856106d5565b600160a060020a03808816600081815260066020908152604080832033909516835293815283822094909455908152600590925290205461046990856106d5565b600160a060020a03808816600090815260056020526040808220939093559087168152205461049890856106e7565b600160a060020a03808716600081815260056020526040908190209390935591908816907fddf252ad1be2c89b69c2b068fc378daa952ba7f163c4a11628f55a4df523b3ef9087905190815260200160405180910390a350600195945050505050565b60035460ff1681565b60008054600181600116156101000203166002900480601f0160208091040260200160405190810160405280929190818152602001828054600181600116156101000203166002900480156102fe5780601f106102d3576101008083540402835291602001916102fe565b60056020526000908152604090205481565b60028054600181600116156101000203166002900480601f0160208091040260200160405190810160405280929190818152602001828054600181600116156101000203166002900480156102fe5780601f106102d3576101008083540402835291602001916102fe565b600082600160a060020a038116151561060457600080fd5b600160a060020a03331660009081526005602052604090205461062790846106d5565b600160a060020a03338116600090815260056020526040808220939093559086168152205461065690846106e7565b600160a060020a0380861660008181526005602052604090819020939093559133909116907fddf252ad1be2c89b69c2b068fc378daa952ba7f163c4a11628f55a4df523b3ef9086905190815260200160405180910390a35060019392505050565b600660209081526000928352604080842090915290825290205481565b6000818310156106e157fe5b50900390565b6000828201838110156106f657fe5b9392505050565b6107056107ca565b61070d6107ca565b6000601460405180591061071e5750595b90808252806020026020018201604052509150600090505b60148110156107c3578060130360080260020a84600160a060020a031681151561075c57fe5b047f01000000000000000000000000000000000000000000000000000000000000000282828151811061078b57fe5b9060200101907effffffffffffffffffffffffffffffffffffffffffffffffffffffffffffff1916908160001a905350600101610736565b5092915050565b602060405190810160405260008152905600a165627a7a7230582048e202ff83b25d1b2f93cd630c9f26cacc13c1b75a6af30c831c56fdb1cbc7d80029",
  "source": "pragma solidity ^0.4.11;\nimport './Utils.sol';\nimport './interfaces/IERC20Token.sol';\n\n/**\n    ERC20 Standard Token implementation\n*/\ncontract ERC20Token is IERC20Token, Utils {\n    string public standard = 'Token 0.1';\n    string public name = '';\n    string public symbol = '';\n    uint8 public decimals = 0;\n    uint256 public totalSupply = 0;\n    mapping (address => uint256) public balanceOf;\n    mapping (address => mapping (address => uint256)) public allowance;\n\n    event Transfer(address indexed _from, address indexed _to, uint256 _value);\n    event Approval(address indexed _owner, address indexed _spender, uint256 _value);\n\n    /**\n        @dev constructor\n\n        @param _name        token name\n        @param _symbol      token symbol\n        @param _decimals    decimal points, for display purposes\n    */\n    function ERC20Token(string _name, string _symbol, uint8 _decimals) public {\n        //require(bytes(_name).length > 0 && bytes(_symbol).length > 0); // validate input\n        require(bytes(_symbol).length > 0);\n\n        //name = _name;\n        name = toString(address(this));\n        symbol = _symbol;\n        decimals = _decimals;\n    }\n\n    /**\n        @dev send coins\n        throws on any error rather then return a false flag to minimize user errors\n\n        @param _to      target address\n        @param _value   transfer amount\n\n        @return true if the transfer was successful, false if it wasn't\n    */\n    function transfer(address _to, uint256 _value)\n        public\n        validAddress(_to)\n        returns (bool success)\n    {\n        balanceOf[msg.sender] = safeSub(balanceOf[msg.sender], _value);\n        balanceOf[_to] = safeAdd(balanceOf[_to], _value);\n        Transfer(msg.sender, _to, _value);\n        return true;\n    }\n\n    /**\n        @dev an account/contract attempts to get the coins\n        throws on any error rather then return a false flag to minimize user errors\n\n        @param _from    source address\n        @param _to      target address\n        @param _value   transfer amount\n\n        @return true if the transfer was successful, false if it wasn't\n    */\n    function transferFrom(address _from, address _to, uint256 _value)\n        public\n        validAddress(_from)\n        validAddress(_to)\n        returns (bool success)\n    {\n        allowance[_from][msg.sender] = safeSub(allowance[_from][msg.sender], _value);\n        balanceOf[_from] = safeSub(balanceOf[_from], _value);\n        balanceOf[_to] = safeAdd(balanceOf[_to], _value);\n        Transfer(_from, _to, _value);\n        return true;\n    }\n\n    /**\n        @dev allow another account/contract to spend some tokens on your behalf\n        throws on any error rather then return a false flag to minimize user errors\n\n        also, to minimize the risk of the approve/transferFrom attack vector\n        (see https://docs.google.com/document/d/1YLPtQxZu1UAvO9cZ1O2RPXBbT0mooh4DYKjA_jp-RLM/), approve has to be called twice\n        in 2 separate transactions - once to change the allowance to 0 and secondly to change it to the new allowance value\n\n        @param _spender approved address\n        @param _value   allowance amount\n\n        @return true if the approval was successful, false if it wasn't\n    */\n    function approve(address _spender, uint256 _value)\n        public\n        validAddress(_spender)\n        returns (bool success)\n    {\n        // if the allowance isn't 0, it can only be updated to 0 to prevent an allowance change immediately after withdrawal\n        require(_value == 0 || allowance[msg.sender][_spender] == 0);\n\n        allowance[msg.sender][_spender] = _value;\n        Approval(msg.sender, _spender, _value);\n        return true;\n    }\n}\n",
  "sourcePath": "/Users/chanopalis/Documents/ethereum-contracts/smart-law-contracts/DexRE-Contract/contracts/LiquidRE/bancor/ERC20Token.sol",
  "schemaVersion": "1.0.0",
  "updatedAt": "2018-02-28T18:05:46.272Z"
}