{
  "contractName": "EtherToken",
  "abi": [
    {
      "constant": true,
      "inputs": [],
      "name": "name",
      "outputs": [
        {
          "name": "",
          "type": "string"
        }
      ],
      "payable": false,
      "stateMutability": "view",
      "type": "function"
    },
    {
      "constant": false,
      "inputs": [
        {
          "name": "_spender",
          "type": "address"
        },
        {
          "name": "_value",
          "type": "uint256"
        }
      ],
      "name": "approve",
      "outputs": [
        {
          "name": "success",
          "type": "bool"
        }
      ],
      "payable": false,
      "stateMutability": "nonpayable",
      "type": "function"
    },
    {
      "constant": true,
      "inputs": [],
      "name": "totalSupply",
      "outputs": [
        {
          "name": "",
          "type": "uint256"
        }
      ],
      "payable": false,
      "stateMutability": "view",
      "type": "function"
    },
    {
      "constant": false,
      "inputs": [
        {
          "name": "_to",
          "type": "address"
        },
        {
          "name": "_amount",
          "type": "uint256"
        }
      ],
      "name": "withdrawTo",
      "outputs": [],
      "payable": false,
      "stateMutability": "nonpayable",
      "type": "function"
    },
    {
      "constant": false,
      "inputs": [
        {
          "name": "_from",
          "type": "address"
        },
        {
          "name": "_to",
          "type": "address"
        },
        {
          "name": "_value",
          "type": "uint256"
        }
      ],
      "name": "transferFrom",
      "outputs": [
        {
          "name": "success",
          "type": "bool"
        }
      ],
      "payable": false,
      "stateMutability": "nonpayable",
      "type": "function"
    },
    {
      "constant": false,
      "inputs": [
        {
          "name": "_amount",
          "type": "uint256"
        }
      ],
      "name": "withdraw",
      "outputs": [],
      "payable": false,
      "stateMutability": "nonpayable",
      "type": "function"
    },
    {
      "constant": true,
      "inputs": [],
      "name": "decimals",
      "outputs": [
        {
          "name": "",
          "type": "uint8"
        }
      ],
      "payable": false,
      "stateMutability": "view",
      "type": "function"
    },
    {
      "constant": true,
      "inputs": [],
      "name": "standard",
      "outputs": [
        {
          "name": "",
          "type": "string"
        }
      ],
      "payable": false,
      "stateMutability": "view",
      "type": "function"
    },
    {
      "constant": false,
      "inputs": [
        {
          "name": "_token",
          "type": "address"
        },
        {
          "name": "_to",
          "type": "address"
        },
        {
          "name": "_amount",
          "type": "uint256"
        }
      ],
      "name": "withdrawTokens",
      "outputs": [],
      "payable": false,
      "stateMutability": "nonpayable",
      "type": "function"
    },
    {
      "constant": true,
      "inputs": [
        {
          "name": "",
          "type": "address"
        }
      ],
      "name": "balanceOf",
      "outputs": [
        {
          "name": "",
          "type": "uint256"
        }
      ],
      "payable": false,
      "stateMutability": "view",
      "type": "function"
    },
    {
      "constant": false,
      "inputs": [],
      "name": "acceptOwnership",
      "outputs": [],
      "payable": false,
      "stateMutability": "nonpayable",
      "type": "function"
    },
    {
      "constant": true,
      "inputs": [],
      "name": "owner",
      "outputs": [
        {
          "name": "",
          "type": "address"
        }
      ],
      "payable": false,
      "stateMutability": "view",
      "type": "function"
    },
    {
      "constant": true,
      "inputs": [],
      "name": "symbol",
      "outputs": [
        {
          "name": "",
          "type": "string"
        }
      ],
      "payable": false,
      "stateMutability": "view",
      "type": "function"
    },
    {
      "constant": false,
      "inputs": [
        {
          "name": "_to",
          "type": "address"
        },
        {
          "name": "_value",
          "type": "uint256"
        }
      ],
      "name": "transfer",
      "outputs": [
        {
          "name": "success",
          "type": "bool"
        }
      ],
      "payable": false,
      "stateMutability": "nonpayable",
      "type": "function"
    },
    {
      "constant": false,
      "inputs": [],
      "name": "deposit",
      "outputs": [],
      "payable": true,
      "stateMutability": "payable",
      "type": "function"
    },
    {
      "constant": true,
      "inputs": [],
      "name": "newOwner",
      "outputs": [
        {
          "name": "",
          "type": "address"
        }
      ],
      "payable": false,
      "stateMutability": "view",
      "type": "function"
    },
    {
      "constant": true,
      "inputs": [
        {
          "name": "",
          "type": "address"
        },
        {
          "name": "",
          "type": "address"
        }
      ],
      "name": "allowance",
      "outputs": [
        {
          "name": "",
          "type": "uint256"
        }
      ],
      "payable": false,
      "stateMutability": "view",
      "type": "function"
    },
    {
      "constant": false,
      "inputs": [
        {
          "name": "_newOwner",
          "type": "address"
        }
      ],
      "name": "transferOwnership",
      "outputs": [],
      "payable": false,
      "stateMutability": "nonpayable",
      "type": "function"
    },
    {
      "inputs": [],
      "payable": false,
      "stateMutability": "nonpayable",
      "type": "constructor"
    },
    {
      "payable": true,
      "stateMutability": "payable",
      "type": "fallback"
    },
    {
      "anonymous": false,
      "inputs": [
        {
          "indexed": false,
          "name": "_amount",
          "type": "uint256"
        }
      ],
      "name": "Issuance",
      "type": "event"
    },
    {
      "anonymous": false,
      "inputs": [
        {
          "indexed": false,
          "name": "_amount",
          "type": "uint256"
        }
      ],
      "name": "Destruction",
      "type": "event"
    },
    {
      "anonymous": false,
      "inputs": [
        {
          "indexed": true,
          "name": "_from",
          "type": "address"
        },
        {
          "indexed": true,
          "name": "_to",
          "type": "address"
        },
        {
          "indexed": false,
          "name": "_value",
          "type": "uint256"
        }
      ],
      "name": "Transfer",
      "type": "event"
    },
    {
      "anonymous": false,
      "inputs": [
        {
          "indexed": true,
          "name": "_owner",
          "type": "address"
        },
        {
          "indexed": true,
          "name": "_spender",
          "type": "address"
        },
        {
          "indexed": false,
          "name": "_value",
          "type": "uint256"
        }
      ],
      "name": "Approval",
      "type": "event"
    },
    {
      "anonymous": false,
      "inputs": [
        {
          "indexed": false,
          "name": "_prevOwner",
          "type": "address"
        },
        {
          "indexed": false,
          "name": "_newOwner",
          "type": "address"
        }
      ],
      "name": "OwnerUpdate",
      "type": "event"
    }
  ],
  "bytecode": "0x606060405260408051908101604052600981527f546f6b656e20302e310000000000000000000000000000000000000000000000602082015260029080516200004d92916020019062000266565b5060206040519081016040526000815260039080516200007292916020019062000266565b5060206040519081016040526000815260049080516200009792916020019062000266565b506005805460ff1916905560006006553415620000b357600080fd5b604080519081016040908152600b82527f457468657220546f6b656e00000000000000000000000000000000000000000060208301528051908101604052600381527f4554480000000000000000000000000000000000000000000000000000000000602082015260008054600160a060020a03191633600160a060020a03161781556012908251116200014657600080fd5b6200015f3064010000000062000c89620001a882021704565b60039080516200017492916020019062000266565b5060048280516200018a92916020019062000266565b506005805460ff191660ff92909216919091179055506200031d9050565b620001b2620002eb565b620001bc620002eb565b60006014604051805910620001ce5750595b90808252806020026020018201604052509150600090505b60148110156200025f578060130360080260020a84600160a060020a03168115156200020e57fe5b047f0100000000000000000000000000000000000000000000000000000000000000028282815181106200023e57fe5b906020010190600160f860020a031916908160001a905350600101620001e6565b5092915050565b828054600181600116156101000203166002900490600052602060002090601f016020900481019282601f10620002a957805160ff1916838001178555620002d9565b82800160010185558215620002d9579182015b82811115620002d9578251825591602001919060010190620002bc565b50620002e7929150620002fd565b5090565b60206040519081016040526000815290565b6200031a91905b80821115620002e7576000815560010162000304565b90565b610db4806200032d6000396000f300606060405236156100f95763ffffffff7c010000000000000000000000000000000000000000000000000000000060003504166306fdde038114610103578063095ea7b31461018d57806318160ddd146101c3578063205c2878146101e857806323b872dd1461020a5780632e1a7d4d14610232578063313ce567146102485780635a3b7e42146102715780635e35359e1461028457806370a08231146102ac57806379ba5097146102cb5780638da5cb5b146102de57806395d89b411461030d578063a9059cbb14610320578063d0e30db0146100f9578063d4ee1d9014610342578063dd62ed3e14610355578063f2fde38b1461037a575b610101610399565b005b341561010e57600080fd5b61011661044f565b60405160208082528190810183818151815260200191508051906020019080838360005b8381101561015257808201518382015260200161013a565b50505050905090810190601f16801561017f5780820380516001836020036101000a031916815260200191505b509250505060405180910390f35b341561019857600080fd5b6101af600160a060020a03600435166024356104ed565b604051901515815260200160405180910390f35b34156101ce57600080fd5b6101d66105aa565b60405190815260200160405180910390f35b34156101f357600080fd5b610101600160a060020a03600435166024356105b0565b341561021557600080fd5b6101af600160a060020a03600435811690602435166044356106bc565b341561023d57600080fd5b6101016004356106fe565b341561025357600080fd5b61025b61070b565b60405160ff909116815260200160405180910390f35b341561027c57600080fd5b610116610714565b341561028f57600080fd5b610101600160a060020a036004358116906024351660443561077f565b34156102b757600080fd5b6101d6600160a060020a0360043516610886565b34156102d657600080fd5b610101610898565b34156102e957600080fd5b6102f161093f565b604051600160a060020a03909116815260200160405180910390f35b341561031857600080fd5b61011661094e565b341561032b57600080fd5b6101af600160a060020a03600435166024356109b9565b341561034d57600080fd5b6102f16109f9565b341561036057600080fd5b6101d6600160a060020a0360043581169060243516610a08565b341561038557600080fd5b610101600160a060020a0360043516610a25565b600160a060020a0333166000908152600760205260409020546103bc9034610a87565b600160a060020a0333166000908152600760205260409020556006546103e29034610a87565b6006557f9386c90217c323f58030f9dadcbc938f807a940f4ff41cd4cead9562f5da7dc33460405190815260200160405180910390a133600160a060020a031630600160a060020a0316600080516020610d698339815191523460405190815260200160405180910390a3565b60038054600181600116156101000203166002900480601f0160208091040260200160405190810160405280929190818152602001828054600181600116156101000203166002900480156104e55780601f106104ba576101008083540402835291602001916104e5565b820191906000526020600020905b8154815290600101906020018083116104c857829003601f168201915b505050505081565b600082600160a060020a038116151561050557600080fd5b8215806105355750600160a060020a03338116600090815260086020908152604080832093881683529290522054155b151561054057600080fd5b600160a060020a03338116600081815260086020908152604080832094891680845294909152908190208690557f8c5be1e5ebec7d5bd14f71427d1e84f3dd0314c0f7b2291e5b200ac8c7c3b9259086905190815260200160405180910390a35060019392505050565b60065481565b8130600160a060020a031681600160a060020a0316141515156105d257600080fd5b600160a060020a0333166000908152600760205260409020546105f59083610a9d565b600160a060020a03331660009081526007602052604090205560065461061b9083610a9d565b600655600160a060020a03831682156108fc0283604051600060405180830381858888f19350505050151561064f57600080fd5b30600160a060020a031633600160a060020a0316600080516020610d698339815191528460405190815260200160405180910390a37f9a1b418bc061a5d80270261562e6986a35d995f8051145f277be16103abd34538260405190815260200160405180910390a1505050565b60008230600160a060020a031681600160a060020a0316141515156106e057600080fd5b6106eb858585610aaf565b15156106f357fe5b506001949350505050565b61070833826105b0565b50565b60055460ff1681565b60028054600181600116156101000203166002900480601f0160208091040260200160405190810160405280929190818152602001828054600181600116156101000203166002900480156104e55780601f106104ba576101008083540402835291602001916104e5565b60005433600160a060020a0390811691161461079757fe5b82600160a060020a03811615156107ad57600080fd5b82600160a060020a03811615156107c357600080fd5b8330600160a060020a031681600160a060020a0316141515156107e557600080fd5b85600160a060020a031663a9059cbb86866000604051602001526040517c010000000000000000000000000000000000000000000000000000000063ffffffff8516028152600160a060020a0390921660048301526024820152604401602060405180830381600087803b151561085b57600080fd5b6102c65a03f1151561086c57600080fd5b50505060405180519050151561087e57fe5b505050505050565b60076020526000908152604090205481565b60015433600160a060020a039081169116146108b357600080fd5b6000546001547f343765429aea5a34b3ff6a3785a98a5abb2597aca87bfbb58632c173d585373a91600160a060020a039081169116604051600160a060020a039283168152911660208201526040908101905180910390a1600180546000805473ffffffffffffffffffffffffffffffffffffffff19908116600160a060020a03841617909155169055565b600054600160a060020a031681565b60048054600181600116156101000203166002900480601f0160208091040260200160405190810160405280929190818152602001828054600181600116156101000203166002900480156104e55780601f106104ba576101008083540402835291602001916104e5565b60008230600160a060020a031681600160a060020a0316141515156109dd57600080fd5b6109e78484610bcf565b15156109ef57fe5b5060019392505050565b600154600160a060020a031681565b600860209081526000928352604080842090915290825290205481565b60005433600160a060020a03908116911614610a3d57fe5b600054600160a060020a0382811691161415610a5857600080fd5b6001805473ffffffffffffffffffffffffffffffffffffffff1916600160a060020a0392909216919091179055565b600082820183811015610a9657fe5b9392505050565b600081831015610aa957fe5b50900390565b600083600160a060020a0381161515610ac757600080fd5b83600160a060020a0381161515610add57600080fd5b600160a060020a0380871660009081526008602090815260408083203390941683529290522054610b0e9085610a9d565b600160a060020a038088166000818152600860209081526040808320339095168352938152838220949094559081526007909252902054610b4f9085610a9d565b600160a060020a038088166000908152600760205260408082209390935590871681522054610b7e9085610a87565b600160a060020a0380871660008181526007602052604090819020939093559190881690600080516020610d698339815191529087905190815260200160405180910390a350600195945050505050565b600082600160a060020a0381161515610be757600080fd5b600160a060020a033316600090815260076020526040902054610c0a9084610a9d565b600160a060020a033381166000908152600760205260408082209390935590861681522054610c399084610a87565b600160a060020a038086166000818152600760205260409081902093909355913390911690600080516020610d698339815191529086905190815260200160405180910390a35060019392505050565b610c91610d56565b610c99610d56565b60006014604051805910610caa5750595b90808252806020026020018201604052509150600090505b6014811015610d4f578060130360080260020a84600160a060020a0316811515610ce857fe5b047f010000000000000000000000000000000000000000000000000000000000000002828281518110610d1757fe5b9060200101907effffffffffffffffffffffffffffffffffffffffffffffffffffffffffffff1916908160001a905350600101610cc2565b5092915050565b602060405190810160405260008152905600ddf252ad1be2c89b69c2b068fc378daa952ba7f163c4a11628f55a4df523b3efa165627a7a723058204c0a18b77bf38417bc96944b1a6e46d8441f0b23a8fa6c0bf6ad6f2ccc6702dc0029",
  "source": "pragma solidity ^0.4.11;\nimport './ERC20Token.sol';\nimport './TokenHolder.sol';\nimport './Owned.sol';\nimport './interfaces/IEtherToken.sol';\n\n/**\n    Ether tokenization contract\n\n    'Owned' is specified here for readability reasons\n*/\ncontract EtherToken is IEtherToken, Owned, ERC20Token, TokenHolder {\n    // triggered when the total supply is increased\n    event Issuance(uint256 _amount);\n    // triggered when the total supply is decreased\n    event Destruction(uint256 _amount);\n\n    /**\n        @dev constructor\n    */\n    function EtherToken()\n        public\n        ERC20Token('Ether Token', 'ETH', 18) {\n    }\n\n    /**\n        @dev deposit ether in the account\n    */\n    function deposit() public payable {\n        balanceOf[msg.sender] = safeAdd(balanceOf[msg.sender], msg.value); // add the value to the account balance\n        totalSupply = safeAdd(totalSupply, msg.value); // increase the total supply\n\n        Issuance(msg.value);\n        Transfer(this, msg.sender, msg.value);\n    }\n\n    /**\n        @dev withdraw ether from the account\n\n        @param _amount  amount of ether to withdraw\n    */\n    function withdraw(uint256 _amount) public {\n        withdrawTo(msg.sender, _amount);\n    }\n\n    /**\n        @dev withdraw ether from the account to a target account\n\n        @param _to      account to receive the ether\n        @param _amount  amount of ether to withdraw\n    */\n    function withdrawTo(address _to, uint256 _amount)\n        public\n        notThis(_to)\n    {\n        balanceOf[msg.sender] = safeSub(balanceOf[msg.sender], _amount); // deduct the amount from the account balance\n        totalSupply = safeSub(totalSupply, _amount); // decrease the total supply\n        _to.transfer(_amount); // send the amount to the target account\n\n        Transfer(msg.sender, this, _amount);\n        Destruction(_amount);\n    }\n\n    // ERC20 standard method overrides with some extra protection\n\n    /**\n        @dev send coins\n        throws on any error rather then return a false flag to minimize user errors\n\n        @param _to      target address\n        @param _value   transfer amount\n\n        @return true if the transfer was successful, false if it wasn't\n    */\n    function transfer(address _to, uint256 _value)\n        public\n        notThis(_to)\n        returns (bool success)\n    {\n        assert(super.transfer(_to, _value));\n        return true;\n    }\n\n    /**\n        @dev an account/contract attempts to get the coins\n        throws on any error rather then return a false flag to minimize user errors\n\n        @param _from    source address\n        @param _to      target address\n        @param _value   transfer amount\n\n        @return true if the transfer was successful, false if it wasn't\n    */\n    function transferFrom(address _from, address _to, uint256 _value)\n        public\n        notThis(_to)\n        returns (bool success)\n    {\n        assert(super.transferFrom(_from, _to, _value));\n        return true;\n    }\n\n    /**\n        @dev deposit ether in the account\n    */\n    function() public payable {\n        deposit();\n    }\n}\n",
  "sourcePath": "/Users/chanopalis/Documents/ethereum-contracts/smart-law-contracts/DexRE-Contract/contracts/LiquidRE/bancor/EtherToken.sol",
  "schemaVersion": "1.0.0",
  "updatedAt": "2018-02-28T18:05:46.272Z"
}