{
  "contractName": "IBancorConverterExtensions",
  "abi": [
    {
      "constant": true,
      "inputs": [],
      "name": "formula",
      "outputs": [
        {
          "name": "",
          "type": "address"
        }
      ],
      "payable": false,
      "stateMutability": "pure",
      "type": "function"
    },
    {
      "constant": true,
      "inputs": [],
      "name": "gasPriceLimit",
      "outputs": [
        {
          "name": "",
          "type": "address"
        }
      ],
      "payable": false,
      "stateMutability": "pure",
      "type": "function"
    },
    {
      "constant": true,
      "inputs": [],
      "name": "quickConverter",
      "outputs": [
        {
          "name": "",
          "type": "address"
        }
      ],
      "payable": false,
      "stateMutability": "pure",
      "type": "function"
    }
  ],
  "bytecode": "0x6060604052341561000f57600080fd5b60b98061001d6000396000f300606060405263ffffffff7c01000000000000000000000000000000000000000000000000000000006000350416634b75f54f8114604f578063961a929c14604f578063c31e054714604f57600080fd5b3415605957600080fd5b605f6088565b60405173ffffffffffffffffffffffffffffffffffffffff909116815260200160405180910390f35b6000905600a165627a7a72305820da3048e01da053f689d955ae0197ac2d21012be2903421a0e966dc2ddee44f120029",
  "source": "pragma solidity ^0.4.11;\nimport './IBancorFormula.sol';\nimport './IBancorGasPriceLimit.sol';\nimport './IBancorQuickConverter.sol';\n\n/*\n    Bancor Converter Extensions interface\n*/\ncontract IBancorConverterExtensions {\n    function formula() public pure returns (IBancorFormula) {}\n    function gasPriceLimit() public pure returns (IBancorGasPriceLimit) {}\n    function quickConverter() public pure returns (IBancorQuickConverter) {}\n}\n",
  "sourcePath": "/Users/chanopalis/Documents/ethereum-contracts/smart-law-contracts/DexRE-Contract/contracts/LiquidRE/bancor/interfaces/IBancorConverterExtensions.sol",
  "schemaVersion": "1.0.0",
  "updatedAt": "2018-02-28T18:05:46.276Z"
}