{
  "contractName": "IBancorGasPriceLimit",
  "abi": [
    {
      "constant": true,
      "inputs": [],
      "name": "gasPrice",
      "outputs": [
        {
          "name": "",
          "type": "uint256"
        }
      ],
      "payable": false,
      "stateMutability": "pure",
      "type": "function"
    }
  ],
  "bytecode": "0x60606040523415600e57600080fd5b608e8061001c6000396000f300606060405263ffffffff7c0100000000000000000000000000000000000000000000000000000000600035041663fe173b978114603b57600080fd5b3415604557600080fd5b604b605d565b60405190815260200160405180910390f35b6000905600a165627a7a72305820f7a4b376dd51fc69e3f7831982b1ae060db4d20eb4f4dbd4ed0567be21459dd00029",
  "source": "pragma solidity ^0.4.11;\n\n/*\n    Bancor Gas Price Limit interface\n*/\ncontract IBancorGasPriceLimit {\n    function gasPrice() public pure returns (uint256) {}\n}\n",
  "sourcePath": "/Users/chanopalis/Documents/ethereum-contracts/smart-law-contracts/DexRE-Contract/contracts/LiquidRE/bancor/interfaces/IBancorGasPriceLimit.sol",
  "schemaVersion": "1.0.0",
  "updatedAt": "2018-02-28T18:05:46.276Z"
}