{
  "contractName": "IREO",
  "abi": [
    {
      "constant": false,
      "inputs": [],
      "name": "checkGoalReached",
      "outputs": [],
      "payable": false,
      "stateMutability": "nonpayable",
      "type": "function"
    },
    {
      "constant": true,
      "inputs": [],
      "name": "amountWithdrawn",
      "outputs": [
        {
          "name": "",
          "type": "uint256"
        }
      ],
      "payable": false,
      "stateMutability": "view",
      "type": "function"
    },
    {
      "constant": false,
      "inputs": [
        {
          "name": "_status",
          "type": "bool"
        }
      ],
      "name": "updateStatus",
      "outputs": [],
      "payable": false,
      "stateMutability": "nonpayable",
      "type": "function"
    },
    {
      "constant": true,
      "inputs": [],
      "name": "status",
      "outputs": [
        {
          "name": "",
          "type": "bool"
        }
      ],
      "payable": false,
      "stateMutability": "view",
      "type": "function"
    },
    {
      "constant": false,
      "inputs": [],
      "name": "makeCrowdsaleEnd",
      "outputs": [],
      "payable": false,
      "stateMutability": "nonpayable",
      "type": "function"
    },
    {
      "constant": true,
      "inputs": [],
      "name": "trusteeWithdraw",
      "outputs": [
        {
          "name": "",
          "type": "bool"
        }
      ],
      "payable": false,
      "stateMutability": "view",
      "type": "function"
    },
    {
      "constant": true,
      "inputs": [],
      "name": "endTime",
      "outputs": [
        {
          "name": "",
          "type": "uint256"
        }
      ],
      "payable": false,
      "stateMutability": "view",
      "type": "function"
    },
    {
      "constant": true,
      "inputs": [],
      "name": "newTrustee",
      "outputs": [
        {
          "name": "",
          "type": "address"
        }
      ],
      "payable": false,
      "stateMutability": "view",
      "type": "function"
    },
    {
      "constant": false,
      "inputs": [
        {
          "name": "_newTrustee",
          "type": "address"
        }
      ],
      "name": "transferTrustee",
      "outputs": [],
      "payable": false,
      "stateMutability": "nonpayable",
      "type": "function"
    },
    {
      "constant": false,
      "inputs": [],
      "name": "withdraw",
      "outputs": [],
      "payable": false,
      "stateMutability": "nonpayable",
      "type": "function"
    },
    {
      "constant": true,
      "inputs": [
        {
          "name": "",
          "type": "address"
        }
      ],
      "name": "contributions",
      "outputs": [
        {
          "name": "",
          "type": "uint256"
        }
      ],
      "payable": false,
      "stateMutability": "view",
      "type": "function"
    },
    {
      "constant": false,
      "inputs": [],
      "name": "acceptTrustee",
      "outputs": [],
      "payable": false,
      "stateMutability": "nonpayable",
      "type": "function"
    },
    {
      "constant": true,
      "inputs": [],
      "name": "entity",
      "outputs": [
        {
          "name": "",
          "type": "address"
        }
      ],
      "payable": false,
      "stateMutability": "view",
      "type": "function"
    },
    {
      "constant": true,
      "inputs": [],
      "name": "startTime",
      "outputs": [
        {
          "name": "",
          "type": "uint256"
        }
      ],
      "payable": false,
      "stateMutability": "view",
      "type": "function"
    },
    {
      "constant": true,
      "inputs": [],
      "name": "fundingGoal",
      "outputs": [
        {
          "name": "",
          "type": "uint256"
        }
      ],
      "payable": false,
      "stateMutability": "view",
      "type": "function"
    },
    {
      "constant": true,
      "inputs": [],
      "name": "amountRaised",
      "outputs": [
        {
          "name": "",
          "type": "uint256"
        }
      ],
      "payable": false,
      "stateMutability": "view",
      "type": "function"
    },
    {
      "constant": true,
      "inputs": [],
      "name": "price",
      "outputs": [
        {
          "name": "",
          "type": "uint256"
        }
      ],
      "payable": false,
      "stateMutability": "view",
      "type": "function"
    },
    {
      "constant": false,
      "inputs": [],
      "name": "checkCrowdsaleStatus",
      "outputs": [],
      "payable": false,
      "stateMutability": "nonpayable",
      "type": "function"
    },
    {
      "constant": true,
      "inputs": [],
      "name": "LiquidREAdmin",
      "outputs": [
        {
          "name": "",
          "type": "address"
        }
      ],
      "payable": false,
      "stateMutability": "view",
      "type": "function"
    },
    {
      "constant": false,
      "inputs": [],
      "name": "contribute",
      "outputs": [
        {
          "name": "",
          "type": "uint256"
        }
      ],
      "payable": true,
      "stateMutability": "payable",
      "type": "function"
    },
    {
      "constant": true,
      "inputs": [],
      "name": "token",
      "outputs": [
        {
          "name": "",
          "type": "address"
        }
      ],
      "payable": false,
      "stateMutability": "view",
      "type": "function"
    },
    {
      "constant": true,
      "inputs": [],
      "name": "trustee",
      "outputs": [
        {
          "name": "",
          "type": "address"
        }
      ],
      "payable": false,
      "stateMutability": "view",
      "type": "function"
    },
    {
      "inputs": [
        {
          "name": "_entity",
          "type": "address"
        },
        {
          "name": "_trustee",
          "type": "address"
        },
        {
          "name": "_startTime",
          "type": "uint256"
        },
        {
          "name": "_endTime",
          "type": "uint256"
        },
        {
          "name": "_goal",
          "type": "uint256"
        },
        {
          "name": "_price",
          "type": "uint256"
        },
        {
          "name": "_token",
          "type": "address"
        }
      ],
      "payable": false,
      "stateMutability": "nonpayable",
      "type": "constructor"
    },
    {
      "payable": true,
      "stateMutability": "payable",
      "type": "fallback"
    },
    {
      "anonymous": false,
      "inputs": [
        {
          "indexed": true,
          "name": "trustee",
          "type": "address"
        },
        {
          "indexed": false,
          "name": "amount",
          "type": "uint256"
        }
      ],
      "name": "GoalReached",
      "type": "event"
    },
    {
      "anonymous": false,
      "inputs": [
        {
          "indexed": true,
          "name": "contributor",
          "type": "address"
        },
        {
          "indexed": false,
          "name": "amount",
          "type": "uint256"
        },
        {
          "indexed": false,
          "name": "tokenAmount",
          "type": "uint256"
        }
      ],
      "name": "Contribution",
      "type": "event"
    },
    {
      "anonymous": false,
      "inputs": [
        {
          "indexed": false,
          "name": "_prevTrustee",
          "type": "address"
        },
        {
          "indexed": false,
          "name": "_newTrustee",
          "type": "address"
        }
      ],
      "name": "TrusteeUpdate",
      "type": "event"
    }
  ],
  "bytecode": "0x60606040526002805460a060020a60ff0219169055600060038190556004819055600581905560068190556007819055600855600a8054600160b860020a0319169055600b8054600160a060020a0319169055341561005d57600080fd5b60405160e080610ae38339810160405280805191906020018051919060200180519190602001805191906020018051919060200180519190602001805160008054600160a060020a03998a16600160a060020a031991821617909155600b80549a8a169a82169a909a179099556003969096555050600492909255600555600855600a8054338416630100000002630100000060b860020a03199091161790556002805492909116919092161790556109c88061011b6000396000f300606060405236156101255763ffffffff7c010000000000000000000000000000000000000000000000000000000060003504166301cb3b2081146101305780630d662a1f1461014557806319e072ef1461016a578063200d2ed214610182578063253a6d27146101a95780632e6e504a146101bc5780633197cbb6146101cf57806332243378146101e25780633ac7f831146102115780633ccfd60b1461023057806342e94c90146102435780634c10b9cd146102625780636cdbbc661461027557806378e97925146102885780637a3a0e841461029b5780637b3e5e7b146102ae578063a035b1fe146102c1578063afb493a4146102d4578063c908b58e146102e7578063d7bb99ba146102fa578063fc0c546a14610302578063fdf97cb214610315575b61012d610328565b50005b341561013b57600080fd5b61014361037f565b005b341561015057600080fd5b6101586103ea565b60405190815260200160405180910390f35b341561017557600080fd5b61014360043515156103f0565b341561018d57600080fd5b610195610458565b604051901515815260200160405180910390f35b34156101b457600080fd5b610143610479565b34156101c757600080fd5b610195610480565b34156101da57600080fd5b61015861048f565b34156101ed57600080fd5b6101f5610495565b604051600160a060020a03909116815260200160405180910390f35b341561021c57600080fd5b610143600160a060020a03600435166104a4565b341561023b57600080fd5b6101436104f0565b341561024e57600080fd5b610158600160a060020a0360043516610623565b341561026d57600080fd5b610143610635565b341561028057600080fd5b6101f56106dc565b341561029357600080fd5b6101586106eb565b34156102a657600080fd5b6101586106f1565b34156102b957600080fd5b6101586106f7565b34156102cc57600080fd5b6101586106fd565b34156102df57600080fd5b610143610703565b34156102f257600080fd5b6101f561071d565b610158610328565b341561030d57600080fd5b6101f5610733565b341561032057600080fd5b6101f5610742565b60025460009074010000000000000000000000000000000000000000900460ff16151561035457600080fd5b6003544210158015610367575060045442105b151561037257600080fd5b61037a610751565b905090565b600554600654106103e857600a805461ff001960ff1990911660011716610100179055600054600654600160a060020a03909116907fec3f991caf7857d61663fd1bba1739e04abd4781238508cde554bb849d790c859060405190815260200160405180910390a25b565b60075481565b60006103fa6108fe565b600054909150600160a060020a0380831691161461041757600080fd5b5060028054911515740100000000000000000000000000000000000000000274ff000000000000000000000000000000000000000019909216919091179055565b60025474010000000000000000000000000000000000000000900460ff1681565b6000600455565b600a5462010000900460ff1681565b60045481565b600154600160a060020a031681565b6000543390600160a060020a038083169116146104c057600080fd5b506001805473ffffffffffffffffffffffffffffffffffffffff1916600160a060020a0392909216919091179055565b600060045442101580610507575060055460065410155b151561051257600080fd5b61051a6108fe565b600054909150600160a060020a038083169116141561059d576000600654118015610549575060055460065410155b1561059857600a805462ff0000191662010000179055600054600654600160a060020a039091169080156108fc0290604051600060405180830381858888f19350505050151561059857600080fd5b610620565b60006006541180156105b25750600a5460ff16155b1561062057600160a060020a033316600090815260096020526040812054111561062057600160a060020a03331660008181526009602052604080822080546007805490910190558290556108fc919051600060405180830381858888f19350505050151561062057600080fd5b50565b60096020526000908152604090205481565b60015433600160a060020a0390811691161461065057600080fd5b6000546001547fe26fc4f197ae4791837ad16b269120b79398e58128899ccdbca7d4ed6a9f203d91600160a060020a039081169116604051600160a060020a039283168152911660208201526040908101905180910390a1600180546000805473ffffffffffffffffffffffffffffffffffffffff19908116600160a060020a03841617909155169055565b600b54600160a060020a031681565b60035481565b60055481565b60065481565b60085481565b60045442106103e857600a805461ff001916610100179055565b600a5463010000009004600160a060020a031681565b600254600160a060020a031681565b600054600160a060020a031681565b6000806000806000600a60019054906101000a900460ff1615151561077557600080fd5b600160a060020a0333166000908152600960205260408120805434908101909155600554600654919650919450850111156107b857600654600554039384900392505b600854848115156107c557fe5b60068054870190550491506107d861037f565b50600a54600254600160a060020a03630100000090920482169182916324709d50911684336040517c010000000000000000000000000000000000000000000000000000000063ffffffff8616028152600160a060020a03938416600482015260248101929092529091166044820152606401600060405180830381600087803b151561086457600080fd5b6102c65a03f1151561087557600080fd5b50505033600160a060020a03167f5f7675b09617d2c9fa4fd13058ee5877a9538f626b0308816736e83748a45040348460405191825260208201526040908101905180910390a260008311156108f657600160a060020a03331683156108fc0284604051600060405180830381858888f1935050505015156108f657600080fd5b509392505050565b600a5460009063010000009004600160a060020a0316818163e40f09b13383604051602001526040517c010000000000000000000000000000000000000000000000000000000063ffffffff8416028152600160a060020a039091166004820152602401602060405180830381600087803b151561097b57600080fd5b6102c65a03f1151561098c57600080fd5b50505060405180519493505050505600a165627a7a723058208ec412b0da806f4521ef82ce600180ff1876fd3bb4bf7aaff833b05108cc74200029",
  "source": "// IREO Crowdsale controller\npragma solidity ^0.4.4;\nimport './bancor/interfaces/ISmartToken.sol';\nimport './bancor/Utils.sol';\nimport '../Trusteed.sol';\nimport { LiquidRE } from './LiquidRE.sol';\n\ncontract IREO is Trusteed {\n\n    ISmartToken public token;\n    bool public status = false;                // pending by default\n    uint256 public startTime = 0;       // IREO start time (in seconds)\n    uint256 public endTime = 0;         // IREO end time (in seconds)\n    uint256 public fundingGoal = 0;\n    uint256 public amountRaised = 0;\n    uint256 public amountWithdrawn = 0;\n    uint256 public price = 0;\n    mapping(address => uint256) public contributions;\n    bool fundingGoalReached = false;\n    bool crowdsaleClosed = false;\n    bool public trusteeWithdraw = false;\n\n    address public LiquidREAdmin = 0x0;\n    address public entity = 0x0;\n\n    event GoalReached(address indexed trustee, uint256 amount);\n    event Contribution(address indexed contributor, uint256 amount, uint256 tokenAmount);\n\n    function IREO(\n        address _entity,\n        address _trustee,\n        uint256 _startTime,\n        uint256 _endTime,\n        uint256 _goal,\n        uint256 _price,\n        ISmartToken _token\n    )\n        public\n        Trusteed(_trustee)\n    {\n        entity = _entity;\n        startTime = _startTime;\n        endTime = _endTime;\n        fundingGoal = _goal; // wei\n        price = _price; // wei\n        LiquidREAdmin = msg.sender;\n        token = _token;\n    }\n\n    modifier approved() {\n        require(status);\n        _;\n    }\n\n    modifier crowdsaleOngoing() {\n        require(now >= startTime && now < endTime);\n        _;\n    }\n\n    modifier crowdsaleEnd() {\n        require(now >= endTime || amountRaised >= fundingGoal);\n        _;\n    }\n\n    modifier trusteeOwnerOnly()\n    {\n        address _trustee = senderTrustee();\n        require(_trustee == trustee);\n        _;\n    }\n\n    /**\n     * should be removed for the purpose of testing\n     */\n    function makeCrowdsaleEnd()\n        public\n    {\n        endTime = 0;\n    }\n\n    function senderTrustee()\n        private\n        view\n        returns (address)\n    {\n        LiquidRE liquidRE = LiquidRE(LiquidREAdmin);\n        address _trustee = liquidRE.addressTrustee(msg.sender);\n        return _trustee;\n    }\n\n    function updateStatus(bool _status)\n        public\n        trusteeOwnerOnly\n    {\n        status = _status;\n    }\n\n    function contribute()\n        public\n        approved\n        crowdsaleOngoing\n        payable\n        returns (uint256)\n    {\n        return processContribution();\n    }\n\n    function processContribution()\n        private\n        returns (uint256)\n    {\n        require(!crowdsaleClosed);\n        uint amount = msg.value;\n        contributions[msg.sender] += amount;\n        uint returnAmount = 0;\n\n        // check if amount puts it over funding goal\n        if (amountRaised + amount > fundingGoal) {\n            returnAmount = amount - (fundingGoal - amountRaised);\n            amount = fundingGoal - amountRaised;\n        }\n\n        uint tokenAmount = amount / price;\n        amountRaised += amount;\n        checkGoalReached();\n        LiquidRE liquidRE = LiquidRE(LiquidREAdmin);\n        liquidRE.sendIREOToken(token, tokenAmount, msg.sender);\n        Contribution(msg.sender, msg.value, tokenAmount);\n\n        // return any leftovers that would've put it over funding goal\n        if (returnAmount > 0) {\n            msg.sender.transfer(returnAmount);\n        }\n\n        return tokenAmount;\n    }\n\n    function ()\n        public\n        payable\n    {\n        contribute();\n    }\n\n    function checkGoalReached()\n        public\n    {\n        if(amountRaised >= fundingGoal) {\n            fundingGoalReached = true;\n            crowdsaleClosed = true;\n            GoalReached(trustee, amountRaised);\n        }\n    }\n\n    function checkCrowdsaleStatus()\n        public\n    {\n        if(now >= endTime) {\n            crowdsaleClosed = true;\n        }\n    }\n\n    function withdraw()\n        public\n        crowdsaleEnd\n    {\n        address sender = senderTrustee();\n        if(sender == trustee) {\n            if(amountRaised > 0 && amountRaised >= fundingGoal) {\n                trusteeWithdraw = true;\n                trustee.transfer(amountRaised);\n            }\n        } else {\n            if(amountRaised > 0 && !fundingGoalReached) {\n                if(contributions[msg.sender] > 0) {\n                    amountWithdrawn += contributions[msg.sender];\n                    contributions[msg.sender] = 0;\n                    msg.sender.transfer(contributions[msg.sender]);\n                }\n            }\n        }\n    }\n\n}\n",
  "sourcePath": "/Users/chanopalis/Documents/ethereum-contracts/smart-law-contracts/DexRE-Contract/contracts/LiquidRE/IREO.sol",
  "schemaVersion": "1.0.0",
  "updatedAt": "2018-03-02T16:04:52.214Z"
}