{
  "contractName": "IREO",
  "abi": [
    {
      "constant": false,
      "inputs": [],
      "name": "checkGoalReached",
      "outputs": [],
      "payable": false,
      "stateMutability": "nonpayable",
      "type": "function"
    },
    {
      "constant": true,
      "inputs": [],
      "name": "amountWithdrawn",
      "outputs": [
        {
          "name": "",
          "type": "uint256"
        }
      ],
      "payable": false,
      "stateMutability": "view",
      "type": "function"
    },
    {
      "constant": false,
      "inputs": [
        {
          "name": "_status",
          "type": "bool"
        }
      ],
      "name": "updateStatus",
      "outputs": [],
      "payable": false,
      "stateMutability": "nonpayable",
      "type": "function"
    },
    {
      "constant": true,
      "inputs": [],
      "name": "status",
      "outputs": [
        {
          "name": "",
          "type": "bool"
        }
      ],
      "payable": false,
      "stateMutability": "view",
      "type": "function"
    },
    {
      "constant": false,
      "inputs": [],
      "name": "makeCrowdsaleEnd",
      "outputs": [],
      "payable": false,
      "stateMutability": "nonpayable",
      "type": "function"
    },
    {
      "constant": true,
      "inputs": [],
      "name": "trusteeWithdraw",
      "outputs": [
        {
          "name": "",
          "type": "bool"
        }
      ],
      "payable": false,
      "stateMutability": "view",
      "type": "function"
    },
    {
      "constant": true,
      "inputs": [],
      "name": "endTime",
      "outputs": [
        {
          "name": "",
          "type": "uint256"
        }
      ],
      "payable": false,
      "stateMutability": "view",
      "type": "function"
    },
    {
      "constant": true,
      "inputs": [],
      "name": "newTrustee",
      "outputs": [
        {
          "name": "",
          "type": "address"
        }
      ],
      "payable": false,
      "stateMutability": "view",
      "type": "function"
    },
    {
      "constant": false,
      "inputs": [
        {
          "name": "_newTrustee",
          "type": "address"
        }
      ],
      "name": "transferTrustee",
      "outputs": [],
      "payable": false,
      "stateMutability": "nonpayable",
      "type": "function"
    },
    {
      "constant": false,
      "inputs": [],
      "name": "withdraw",
      "outputs": [],
      "payable": false,
      "stateMutability": "nonpayable",
      "type": "function"
    },
    {
      "constant": true,
      "inputs": [
        {
          "name": "",
          "type": "address"
        }
      ],
      "name": "contributions",
      "outputs": [
        {
          "name": "",
          "type": "uint256"
        }
      ],
      "payable": false,
      "stateMutability": "view",
      "type": "function"
    },
    {
      "constant": false,
      "inputs": [],
      "name": "acceptTrustee",
      "outputs": [],
      "payable": false,
      "stateMutability": "nonpayable",
      "type": "function"
    },
    {
      "constant": true,
      "inputs": [],
      "name": "entity",
      "outputs": [
        {
          "name": "",
          "type": "address"
        }
      ],
      "payable": false,
      "stateMutability": "view",
      "type": "function"
    },
    {
      "constant": true,
      "inputs": [],
      "name": "startTime",
      "outputs": [
        {
          "name": "",
          "type": "uint256"
        }
      ],
      "payable": false,
      "stateMutability": "view",
      "type": "function"
    },
    {
      "constant": true,
      "inputs": [],
      "name": "fundingGoal",
      "outputs": [
        {
          "name": "",
          "type": "uint256"
        }
      ],
      "payable": false,
      "stateMutability": "view",
      "type": "function"
    },
    {
      "constant": true,
      "inputs": [],
      "name": "amountRaised",
      "outputs": [
        {
          "name": "",
          "type": "uint256"
        }
      ],
      "payable": false,
      "stateMutability": "view",
      "type": "function"
    },
    {
      "constant": true,
      "inputs": [],
      "name": "price",
      "outputs": [
        {
          "name": "",
          "type": "uint256"
        }
      ],
      "payable": false,
      "stateMutability": "view",
      "type": "function"
    },
    {
      "constant": false,
      "inputs": [],
      "name": "checkCrowdsaleStatus",
      "outputs": [],
      "payable": false,
      "stateMutability": "nonpayable",
      "type": "function"
    },
    {
      "constant": true,
      "inputs": [],
      "name": "LiquidREAdmin",
      "outputs": [
        {
          "name": "",
          "type": "address"
        }
      ],
      "payable": false,
      "stateMutability": "view",
      "type": "function"
    },
    {
      "constant": false,
      "inputs": [],
      "name": "contribute",
      "outputs": [
        {
          "name": "",
          "type": "uint256"
        }
      ],
      "payable": true,
      "stateMutability": "payable",
      "type": "function"
    },
    {
      "constant": true,
      "inputs": [],
      "name": "token",
      "outputs": [
        {
          "name": "",
          "type": "address"
        }
      ],
      "payable": false,
      "stateMutability": "view",
      "type": "function"
    },
    {
      "constant": true,
      "inputs": [],
      "name": "trustee",
      "outputs": [
        {
          "name": "",
          "type": "address"
        }
      ],
      "payable": false,
      "stateMutability": "view",
      "type": "function"
    },
    {
      "inputs": [
        {
          "name": "_entity",
          "type": "address"
        },
        {
          "name": "_trustee",
          "type": "address"
        },
        {
          "name": "_startTime",
          "type": "uint256"
        },
        {
          "name": "_endTime",
          "type": "uint256"
        },
        {
          "name": "_goal",
          "type": "uint256"
        },
        {
          "name": "_price",
          "type": "uint256"
        },
        {
          "name": "_token",
          "type": "address"
        }
      ],
      "payable": false,
      "stateMutability": "nonpayable",
      "type": "constructor"
    },
    {
      "payable": true,
      "stateMutability": "payable",
      "type": "fallback"
    },
    {
      "anonymous": false,
      "inputs": [
        {
          "indexed": true,
          "name": "trustee",
          "type": "address"
        },
        {
          "indexed": false,
          "name": "amount",
          "type": "uint256"
        }
      ],
      "name": "GoalReached",
      "type": "event"
    },
    {
      "anonymous": false,
      "inputs": [
        {
          "indexed": true,
          "name": "contributor",
          "type": "address"
        },
        {
          "indexed": false,
          "name": "amount",
          "type": "uint256"
        },
        {
          "indexed": false,
          "name": "token",
          "type": "uint256"
        }
      ],
      "name": "Contribution",
      "type": "event"
    },
    {
      "anonymous": false,
      "inputs": [
        {
          "indexed": false,
          "name": "_prevTrustee",
          "type": "address"
        },
        {
          "indexed": false,
          "name": "_newTrustee",
          "type": "address"
        }
      ],
      "name": "TrusteeUpdate",
      "type": "event"
    }
  ],
  "bytecode": "0x60606040526002805460a060020a60ff0219169055600060038190556004819055600581905560068190556007819055600855600a8054600160b860020a0319169055600b8054600160a060020a0319169055341561005d57600080fd5b60405160e080610a2c8339810160405280805191906020018051919060200180519190602001805191906020018051919060200180519190602001805160008054600160a060020a0319908116600160a060020a039a8b16178255600b805482169b8b169b909b17909a556003979097556004959095555050670de0b6b3a764000091820260055502600855600a8054630100000060b860020a0319166301000000338616021790556002805490941692169190911790915561090690819061012690396000f3006060604052361561010c5763ffffffff60e060020a60003504166301cb3b2081146101175780630d662a1f1461012c57806319e072ef14610151578063200d2ed214610169578063253a6d27146101905780632e6e504a146101a35780633197cbb6146101b657806332243378146101c95780633ac7f831146101f85780633ccfd60b1461021757806342e94c901461022a5780634c10b9cd146102495780636cdbbc661461025c57806378e979251461026f5780637a3a0e84146102825780637b3e5e7b14610295578063a035b1fe146102a8578063afb493a4146102bb578063c908b58e146102ce578063d7bb99ba146102e1578063fc0c546a146102e9578063fdf97cb2146102fc575b61011461030f565b50005b341561012257600080fd5b61012a610366565b005b341561013757600080fd5b61013f6103c6565b60405190815260200160405180910390f35b341561015c57600080fd5b61012a60043515156103cc565b341561017457600080fd5b61017c610434565b604051901515815260200160405180910390f35b341561019b57600080fd5b61012a610455565b34156101ae57600080fd5b61017c61045c565b34156101c157600080fd5b61013f61046b565b34156101d457600080fd5b6101dc610471565b604051600160a060020a03909116815260200160405180910390f35b341561020357600080fd5b61012a600160a060020a0360043516610480565b341561022257600080fd5b61012a6104cc565b341561023557600080fd5b61013f600160a060020a03600435166105ff565b341561025457600080fd5b61012a610611565b341561026757600080fd5b6101dc6106b8565b341561027a57600080fd5b61013f6106c7565b341561028d57600080fd5b61013f6106cd565b34156102a057600080fd5b61013f6106d3565b34156102b357600080fd5b61013f6106d9565b34156102c657600080fd5b61012a6106df565b34156102d957600080fd5b6101dc6106f9565b61013f61030f565b34156102f457600080fd5b6101dc61070f565b341561030757600080fd5b6101dc61071e565b60025460009074010000000000000000000000000000000000000000900460ff16151561033b57600080fd5b600354421015801561034e575060045442105b151561035957600080fd5b61036161072d565b905090565b600554600654106103c457600a805460ff19166001179055600054600654600160a060020a03909116907fec3f991caf7857d61663fd1bba1739e04abd4781238508cde554bb849d790c859060405190815260200160405180910390a25b565b60075481565b60006103d6610855565b600054909150600160a060020a038083169116146103f357600080fd5b5060028054911515740100000000000000000000000000000000000000000274ff000000000000000000000000000000000000000019909216919091179055565b60025474010000000000000000000000000000000000000000900460ff1681565b6000600455565b600a5462010000900460ff1681565b60045481565b600154600160a060020a031681565b6000543390600160a060020a0380831691161461049c57600080fd5b506001805473ffffffffffffffffffffffffffffffffffffffff1916600160a060020a0392909216919091179055565b6004546000904210156104de57600080fd5b6104e6610855565b600054909150600160a060020a0380831691161415610564576000600654118015610515575060055460065410155b1561055f57600054600654600160a060020a039091169080156108fc0290604051600060405180830381858888f193505050501561055f57600a805462ff00001916620100001790555b6105fc565b60006006541180156105795750600a5460ff16155b156105fc57600160a060020a03331660009081526009602052604081205411156105fc57600160a060020a033316600081815260096020526040908190205480156108fc029151600060405180830381858888f19350505050156105fc57600160a060020a03331660009081526009602052604081208054600780549091019055555b50565b60096020526000908152604090205481565b60015433600160a060020a0390811691161461062c57600080fd5b6000546001547fe26fc4f197ae4791837ad16b269120b79398e58128899ccdbca7d4ed6a9f203d91600160a060020a039081169116604051600160a060020a039283168152911660208201526040908101905180910390a1600180546000805473ffffffffffffffffffffffffffffffffffffffff19908116600160a060020a03841617909155169055565b600b54600160a060020a031681565b60035481565b60055481565b60065481565b60085481565b60045442106103c457600a805461ff001916610100179055565b600a5463010000009004600160a060020a031681565b600254600160a060020a031681565b600054600160a060020a031681565b600a54600090819081908190610100900460ff161561074b57600080fd5b3492506008548381151561075b57fe5b33600160a060020a03818116600090815260096020526040908190208054890190556006805489019055600a5460025495909404965063010000009093048116945084936324709d509391169186915160e060020a63ffffffff8616028152600160a060020a03938416600482015260248101929092529091166044820152606401600060405180830381600087803b15156107f657600080fd5b6102c65a03f1151561080757600080fd5b50505033600160a060020a03167f5f7675b09617d2c9fa4fd13058ee5877a9538f626b0308816736e83748a45040348460405191825260208201526040908101905180910390a25092915050565b600a5460009063010000009004600160a060020a0316818163e40f09b133836040516020015260405160e060020a63ffffffff8416028152600160a060020a039091166004820152602401602060405180830381600087803b15156108b957600080fd5b6102c65a03f115156108ca57600080fd5b50505060405180519493505050505600a165627a7a7230582016106bfa66bee8c4010a46397c831793d2d4d1644b97a1289511ef6864d1fe620029",
  "source": "// IREO Crowdsale controller\npragma solidity ^0.4.4;\nimport './bancor/interfaces/ISmartToken.sol';\nimport './bancor/Utils.sol';\nimport '../Trusteed.sol';\nimport { LiquidRE } from './LiquidRE.sol';\n\ncontract IREO is Trusteed {\n\n    ISmartToken public token;\n    bool public status = false;                // pending by default\n    uint256 public startTime = 0;       // IREO start time (in seconds)\n    uint256 public endTime = 0;         // IREO end time (in seconds)\n    uint256 public fundingGoal = 0;\n    uint256 public amountRaised = 0;\n    uint256 public amountWithdrawn = 0;\n    uint256 public price = 0;\n    mapping(address => uint256) public contributions;\n    bool fundingGoalReached = false;\n    bool crowdsaleClosed = false;\n    bool public trusteeWithdraw = false;\n\n    address public LiquidREAdmin = 0x0;\n    address public entity = 0x0;\n\n    event GoalReached(address indexed trustee, uint256 amount);\n    event Contribution(address indexed contributor, uint256 amount, uint256 token);\n\n    function IREO(\n        address _entity,\n        address _trustee,\n        uint256 _startTime,\n        uint256 _endTime,\n        uint256 _goal,\n        uint256 _price,\n        ISmartToken _token\n    )\n        public\n        Trusteed(_trustee)\n    {\n        entity = _entity;\n        startTime = _startTime;\n        endTime = _endTime;\n        fundingGoal = _goal * 1 ether;\n        price = _price * 1 ether;\n        LiquidREAdmin = msg.sender;\n        token = _token;\n    }\n\n    modifier approved() {\n        require(status);\n        _;\n    }\n\n    modifier crowdsaleOngoing() {\n        require(now >= startTime && now < endTime);\n        _;\n    }\n\n    modifier crowdsaleEnd() {\n        require(now >= endTime);\n        _;\n    }\n\n    modifier trusteeOwnerOnly()\n    {\n        address _trustee = senderTrustee();\n        require(_trustee == trustee);\n        _;\n    }\n\n    /**\n     * should be removed for the purpose of testing\n     */\n    function makeCrowdsaleEnd()\n        public\n    {\n        endTime = 0;\n    }\n\n    function senderTrustee()\n        private\n        view\n        returns (address)\n    {\n        LiquidRE liquidRE = LiquidRE(LiquidREAdmin);\n        address _trustee = liquidRE.addressTrustee(msg.sender);\n        return _trustee;\n    }\n\n    function updateStatus(bool _status)\n        public\n        trusteeOwnerOnly\n    {\n        status = _status;\n    }\n\n    function contribute()\n        public\n        approved\n        crowdsaleOngoing\n        payable\n        returns (uint256)\n    {\n        return processContribution();\n    }\n\n    function processContribution()\n        private\n        returns (uint256)\n    {\n        require(!crowdsaleClosed);\n        uint amount = msg.value;\n        uint tokenAmount = amount / price;\n\n        contributions[msg.sender] += amount;\n        amountRaised += amount;\n        LiquidRE liquidRE = LiquidRE(LiquidREAdmin);\n        liquidRE.sendIREOToken(token, tokenAmount, msg.sender);\n\n        Contribution(msg.sender, msg.value, tokenAmount);\n        return tokenAmount;\n    }\n\n    function ()\n        public\n        payable\n    {\n        contribute();\n    }\n\n    function checkGoalReached()\n        public\n    {\n        if(amountRaised >= fundingGoal) {\n            fundingGoalReached = true;\n            GoalReached(trustee, amountRaised);\n        }\n    }\n\n    function checkCrowdsaleStatus()\n        public\n    {\n        if(now >= endTime) {\n            crowdsaleClosed = true;\n        }\n    }\n\n    function withdraw()\n        public\n        crowdsaleEnd\n    {\n        address sender = senderTrustee();\n        if(sender == trustee) {\n            if(amountRaised > 0 && amountRaised >= fundingGoal) {\n                if(trustee.send(amountRaised)) {\n                    trusteeWithdraw = true;\n                }\n            }\n        } else {\n            if(amountRaised > 0 && !fundingGoalReached) {\n                if(contributions[msg.sender] > 0) {\n                    if(msg.sender.send(contributions[msg.sender])) {\n                        amountWithdrawn += contributions[msg.sender];\n                        contributions[msg.sender] = 0;\n                    }\n                }\n            }\n        }\n    }\n\n}\n",
  "sourcePath": "/Users/chanopalis/Documents/ethereum-contracts/smart-law-contracts/DexRE-Contract/contracts/LiquidRE/IREO.sol",
  "schemaVersion": "1.0.0",
  "updatedAt": "2018-02-28T18:05:46.245Z"
}