{
  "contractName": "LiquidConverter",
  "abi": [
    {
      "constant": false,
      "inputs": [
        {
          "name": "_connectorToken",
          "type": "address"
        },
        {
          "name": "_weight",
          "type": "uint32"
        },
        {
          "name": "_enableVirtualBalance",
          "type": "bool"
        },
        {
          "name": "_virtualBalance",
          "type": "uint256"
        }
      ],
      "name": "updateConnector",
      "outputs": [],
      "payable": false,
      "stateMutability": "nonpayable",
      "type": "function"
    },
    {
      "constant": true,
      "inputs": [
        {
          "name": "",
          "type": "address"
        }
      ],
      "name": "connectors",
      "outputs": [
        {
          "name": "virtualBalance",
          "type": "uint256"
        },
        {
          "name": "weight",
          "type": "uint32"
        },
        {
          "name": "isVirtualBalanceEnabled",
          "type": "bool"
        },
        {
          "name": "isPurchaseEnabled",
          "type": "bool"
        },
        {
          "name": "isSet",
          "type": "bool"
        }
      ],
      "payable": false,
      "stateMutability": "view",
      "type": "function"
    },
    {
      "constant": true,
      "inputs": [
        {
          "name": "",
          "type": "uint256"
        }
      ],
      "name": "connectorTokens",
      "outputs": [
        {
          "name": "",
          "type": "address"
        }
      ],
      "payable": false,
      "stateMutability": "view",
      "type": "function"
    },
    {
      "constant": true,
      "inputs": [
        {
          "name": "_fromToken",
          "type": "address"
        },
        {
          "name": "_toToken",
          "type": "address"
        },
        {
          "name": "_amount",
          "type": "uint256"
        }
      ],
      "name": "getReturn",
      "outputs": [
        {
          "name": "",
          "type": "uint256"
        }
      ],
      "payable": false,
      "stateMutability": "view",
      "type": "function"
    },
    {
      "constant": false,
      "inputs": [
        {
          "name": "_newOwner",
          "type": "address"
        }
      ],
      "name": "transferTokenOwnership",
      "outputs": [],
      "payable": false,
      "stateMutability": "nonpayable",
      "type": "function"
    },
    {
      "constant": false,
      "inputs": [
        {
          "name": "_disable",
          "type": "bool"
        }
      ],
      "name": "disableConversions",
      "outputs": [],
      "payable": false,
      "stateMutability": "nonpayable",
      "type": "function"
    },
    {
      "constant": false,
      "inputs": [
        {
          "name": "_extensions",
          "type": "address"
        }
      ],
      "name": "setExtensions",
      "outputs": [],
      "payable": false,
      "stateMutability": "nonpayable",
      "type": "function"
    },
    {
      "constant": true,
      "inputs": [],
      "name": "extensions",
      "outputs": [
        {
          "name": "",
          "type": "address"
        }
      ],
      "payable": false,
      "stateMutability": "view",
      "type": "function"
    },
    {
      "constant": true,
      "inputs": [
        {
          "name": "_amount",
          "type": "uint256"
        }
      ],
      "name": "getConversionFeeAmount",
      "outputs": [
        {
          "name": "",
          "type": "uint256"
        }
      ],
      "payable": false,
      "stateMutability": "view",
      "type": "function"
    },
    {
      "constant": false,
      "inputs": [],
      "name": "acceptTokenOwnership",
      "outputs": [],
      "payable": false,
      "stateMutability": "nonpayable",
      "type": "function"
    },
    {
      "constant": true,
      "inputs": [],
      "name": "converterType",
      "outputs": [
        {
          "name": "",
          "type": "string"
        }
      ],
      "payable": false,
      "stateMutability": "view",
      "type": "function"
    },
    {
      "constant": false,
      "inputs": [
        {
          "name": "_token",
          "type": "address"
        },
        {
          "name": "_weight",
          "type": "uint32"
        },
        {
          "name": "_enableVirtualBalance",
          "type": "bool"
        }
      ],
      "name": "addConnector",
      "outputs": [],
      "payable": false,
      "stateMutability": "nonpayable",
      "type": "function"
    },
    {
      "constant": false,
      "inputs": [
        {
          "name": "_token",
          "type": "address"
        },
        {
          "name": "_to",
          "type": "address"
        },
        {
          "name": "_amount",
          "type": "uint256"
        }
      ],
      "name": "withdrawFromToken",
      "outputs": [],
      "payable": false,
      "stateMutability": "nonpayable",
      "type": "function"
    },
    {
      "constant": true,
      "inputs": [],
      "name": "newManager",
      "outputs": [
        {
          "name": "",
          "type": "address"
        }
      ],
      "payable": false,
      "stateMutability": "view",
      "type": "function"
    },
    {
      "constant": true,
      "inputs": [],
      "name": "manager",
      "outputs": [
        {
          "name": "",
          "type": "address"
        }
      ],
      "payable": false,
      "stateMutability": "view",
      "type": "function"
    },
    {
      "constant": false,
      "inputs": [],
      "name": "clearQuickBuyPath",
      "outputs": [],
      "payable": false,
      "stateMutability": "nonpayable",
      "type": "function"
    },
    {
      "constant": false,
      "inputs": [
        {
          "name": "_connectorToken",
          "type": "address"
        },
        {
          "name": "_disable",
          "type": "bool"
        }
      ],
      "name": "disableConnectorPurchases",
      "outputs": [],
      "payable": false,
      "stateMutability": "nonpayable",
      "type": "function"
    },
    {
      "constant": true,
      "inputs": [],
      "name": "version",
      "outputs": [
        {
          "name": "",
          "type": "string"
        }
      ],
      "payable": false,
      "stateMutability": "view",
      "type": "function"
    },
    {
      "constant": true,
      "inputs": [],
      "name": "conversionFee",
      "outputs": [
        {
          "name": "",
          "type": "uint32"
        }
      ],
      "payable": false,
      "stateMutability": "view",
      "type": "function"
    },
    {
      "constant": false,
      "inputs": [
        {
          "name": "_token",
          "type": "address"
        },
        {
          "name": "_to",
          "type": "address"
        },
        {
          "name": "_amount",
          "type": "uint256"
        }
      ],
      "name": "withdrawTokens",
      "outputs": [],
      "payable": false,
      "stateMutability": "nonpayable",
      "type": "function"
    },
    {
      "constant": false,
      "inputs": [
        {
          "name": "_fromToken",
          "type": "address"
        },
        {
          "name": "_toToken",
          "type": "address"
        },
        {
          "name": "_amount",
          "type": "uint256"
        },
        {
          "name": "_minReturn",
          "type": "uint256"
        }
      ],
      "name": "change",
      "outputs": [
        {
          "name": "",
          "type": "uint256"
        }
      ],
      "payable": false,
      "stateMutability": "nonpayable",
      "type": "function"
    },
    {
      "constant": false,
      "inputs": [
        {
          "name": "_connectorToken",
          "type": "address"
        },
        {
          "name": "_sellAmount",
          "type": "uint256"
        },
        {
          "name": "_minReturn",
          "type": "uint256"
        }
      ],
      "name": "sell",
      "outputs": [
        {
          "name": "",
          "type": "uint256"
        }
      ],
      "payable": false,
      "stateMutability": "nonpayable",
      "type": "function"
    },
    {
      "constant": true,
      "inputs": [],
      "name": "connectorTokenCount",
      "outputs": [
        {
          "name": "",
          "type": "uint16"
        }
      ],
      "payable": false,
      "stateMutability": "view",
      "type": "function"
    },
    {
      "constant": true,
      "inputs": [
        {
          "name": "_connectorToken",
          "type": "address"
        },
        {
          "name": "_sellAmount",
          "type": "uint256"
        }
      ],
      "name": "getSaleReturn",
      "outputs": [
        {
          "name": "",
          "type": "uint256"
        }
      ],
      "payable": false,
      "stateMutability": "view",
      "type": "function"
    },
    {
      "constant": false,
      "inputs": [
        {
          "name": "_fromToken",
          "type": "address"
        },
        {
          "name": "_toToken",
          "type": "address"
        },
        {
          "name": "_amount",
          "type": "uint256"
        },
        {
          "name": "_minReturn",
          "type": "uint256"
        }
      ],
      "name": "convert",
      "outputs": [
        {
          "name": "",
          "type": "uint256"
        }
      ],
      "payable": false,
      "stateMutability": "nonpayable",
      "type": "function"
    },
    {
      "constant": false,
      "inputs": [],
      "name": "acceptOwnership",
      "outputs": [],
      "payable": false,
      "stateMutability": "nonpayable",
      "type": "function"
    },
    {
      "constant": false,
      "inputs": [
        {
          "name": "_disable",
          "type": "bool"
        }
      ],
      "name": "disableTokenTransfers",
      "outputs": [],
      "payable": false,
      "stateMutability": "nonpayable",
      "type": "function"
    },
    {
      "constant": true,
      "inputs": [],
      "name": "owner",
      "outputs": [
        {
          "name": "",
          "type": "address"
        }
      ],
      "payable": false,
      "stateMutability": "view",
      "type": "function"
    },
    {
      "constant": true,
      "inputs": [],
      "name": "getQuickBuyPathLength",
      "outputs": [
        {
          "name": "",
          "type": "uint256"
        }
      ],
      "payable": false,
      "stateMutability": "view",
      "type": "function"
    },
    {
      "constant": true,
      "inputs": [],
      "name": "maxConversionFee",
      "outputs": [
        {
          "name": "",
          "type": "uint32"
        }
      ],
      "payable": false,
      "stateMutability": "view",
      "type": "function"
    },
    {
      "constant": true,
      "inputs": [
        {
          "name": "_connectorToken",
          "type": "address"
        },
        {
          "name": "_depositAmount",
          "type": "uint256"
        }
      ],
      "name": "getPurchaseReturn",
      "outputs": [
        {
          "name": "",
          "type": "uint256"
        }
      ],
      "payable": false,
      "stateMutability": "view",
      "type": "function"
    },
    {
      "constant": false,
      "inputs": [
        {
          "name": "_connectorToken",
          "type": "address"
        },
        {
          "name": "_depositAmount",
          "type": "uint256"
        },
        {
          "name": "_minReturn",
          "type": "uint256"
        }
      ],
      "name": "buy",
      "outputs": [
        {
          "name": "",
          "type": "uint256"
        }
      ],
      "payable": false,
      "stateMutability": "nonpayable",
      "type": "function"
    },
    {
      "constant": true,
      "inputs": [],
      "name": "convertibleTokenCount",
      "outputs": [
        {
          "name": "",
          "type": "uint16"
        }
      ],
      "payable": false,
      "stateMutability": "view",
      "type": "function"
    },
    {
      "constant": true,
      "inputs": [],
      "name": "conversionsEnabled",
      "outputs": [
        {
          "name": "",
          "type": "bool"
        }
      ],
      "payable": false,
      "stateMutability": "view",
      "type": "function"
    },
    {
      "constant": false,
      "inputs": [],
      "name": "acceptManagement",
      "outputs": [],
      "payable": false,
      "stateMutability": "nonpayable",
      "type": "function"
    },
    {
      "constant": false,
      "inputs": [
        {
          "name": "_path",
          "type": "address[]"
        }
      ],
      "name": "setQuickBuyPath",
      "outputs": [],
      "payable": false,
      "stateMutability": "nonpayable",
      "type": "function"
    },
    {
      "constant": true,
      "inputs": [],
      "name": "newOwner",
      "outputs": [
        {
          "name": "",
          "type": "address"
        }
      ],
      "payable": false,
      "stateMutability": "view",
      "type": "function"
    },
    {
      "constant": true,
      "inputs": [
        {
          "name": "_connectorToken",
          "type": "address"
        }
      ],
      "name": "getConnectorBalance",
      "outputs": [
        {
          "name": "",
          "type": "uint256"
        }
      ],
      "payable": false,
      "stateMutability": "view",
      "type": "function"
    },
    {
      "constant": false,
      "inputs": [],
      "name": "depositDividends",
      "outputs": [],
      "payable": false,
      "stateMutability": "nonpayable",
      "type": "function"
    },
    {
      "constant": false,
      "inputs": [
        {
          "name": "_newManager",
          "type": "address"
        }
      ],
      "name": "transferManagement",
      "outputs": [],
      "payable": false,
      "stateMutability": "nonpayable",
      "type": "function"
    },
    {
      "constant": true,
      "inputs": [
        {
          "name": "",
          "type": "uint256"
        }
      ],
      "name": "quickBuyPath",
      "outputs": [
        {
          "name": "",
          "type": "address"
        }
      ],
      "payable": false,
      "stateMutability": "view",
      "type": "function"
    },
    {
      "constant": false,
      "inputs": [
        {
          "name": "_conversionFee",
          "type": "uint32"
        }
      ],
      "name": "setConversionFee",
      "outputs": [],
      "payable": false,
      "stateMutability": "nonpayable",
      "type": "function"
    },
    {
      "constant": false,
      "inputs": [
        {
          "name": "_path",
          "type": "address[]"
        },
        {
          "name": "_amount",
          "type": "uint256"
        },
        {
          "name": "_minReturn",
          "type": "uint256"
        }
      ],
      "name": "quickConvert",
      "outputs": [
        {
          "name": "",
          "type": "uint256"
        }
      ],
      "payable": true,
      "stateMutability": "payable",
      "type": "function"
    },
    {
      "constant": true,
      "inputs": [
        {
          "name": "_tokenIndex",
          "type": "uint16"
        }
      ],
      "name": "convertibleToken",
      "outputs": [
        {
          "name": "",
          "type": "address"
        }
      ],
      "payable": false,
      "stateMutability": "view",
      "type": "function"
    },
    {
      "constant": false,
      "inputs": [
        {
          "name": "_newOwner",
          "type": "address"
        }
      ],
      "name": "transferOwnership",
      "outputs": [],
      "payable": false,
      "stateMutability": "nonpayable",
      "type": "function"
    },
    {
      "constant": true,
      "inputs": [],
      "name": "token",
      "outputs": [
        {
          "name": "",
          "type": "address"
        }
      ],
      "payable": false,
      "stateMutability": "view",
      "type": "function"
    },
    {
      "inputs": [
        {
          "name": "_token",
          "type": "address"
        },
        {
          "name": "_extensions",
          "type": "address"
        },
        {
          "name": "_maxConversionFee",
          "type": "uint32"
        },
        {
          "name": "_connectorToken",
          "type": "address"
        },
        {
          "name": "_connectorWeight",
          "type": "uint32"
        }
      ],
      "payable": false,
      "stateMutability": "nonpayable",
      "type": "constructor"
    },
    {
      "payable": true,
      "stateMutability": "payable",
      "type": "fallback"
    },
    {
      "anonymous": false,
      "inputs": [
        {
          "indexed": true,
          "name": "_fromToken",
          "type": "address"
        },
        {
          "indexed": true,
          "name": "_toToken",
          "type": "address"
        },
        {
          "indexed": true,
          "name": "_trader",
          "type": "address"
        },
        {
          "indexed": false,
          "name": "_amount",
          "type": "uint256"
        },
        {
          "indexed": false,
          "name": "_return",
          "type": "uint256"
        },
        {
          "indexed": false,
          "name": "_currentPriceN",
          "type": "uint256"
        },
        {
          "indexed": false,
          "name": "_currentPriceD",
          "type": "uint256"
        }
      ],
      "name": "Conversion",
      "type": "event"
    },
    {
      "anonymous": false,
      "inputs": [
        {
          "indexed": false,
          "name": "_prevFee",
          "type": "uint32"
        },
        {
          "indexed": false,
          "name": "_newFee",
          "type": "uint32"
        }
      ],
      "name": "ConversionFeeUpdate",
      "type": "event"
    },
    {
      "anonymous": false,
      "inputs": [
        {
          "indexed": false,
          "name": "_prevManager",
          "type": "address"
        },
        {
          "indexed": false,
          "name": "_newManager",
          "type": "address"
        }
      ],
      "name": "ManagerUpdate",
      "type": "event"
    },
    {
      "anonymous": false,
      "inputs": [
        {
          "indexed": false,
          "name": "_prevOwner",
          "type": "address"
        },
        {
          "indexed": false,
          "name": "_newOwner",
          "type": "address"
        }
      ],
      "name": "OwnerUpdate",
      "type": "event"
    }
  ],
  "bytecode": "0x606060405260408051908101604052600381527f302e360000000000000000000000000000000000000000000000000000000000602082015260059080516200004d9291602001906200046e565b506040805190810160405260068082527f62616e636f7200000000000000000000000000000000000000000000000000006020830152908051620000969291602001906200046e565b50600b80546001606860020a0319166c010000000000000000000000001790553415620000c257600080fd5b60405160a0806200309e833981016040528080519190602001805191906020018051919060200180519190602001805160008054600160a060020a03191633600160a060020a0390811691909117909155909250869150859085908590859085908190811615156200013357600080fd5b5060028054600160a060020a0319908116600160a060020a0393841617909155600380549091163383161790558490811615156200017057600080fd5b8360008163ffffffff1610158015620001925750620f424063ffffffff821611155b15156200019e57600080fd5b60078054600160a060020a031916600160a060020a0388811691909117909155600b805467ffffffff00000000191664010000000063ffffffff89160217905584161562000202576200020284846000640100000000620011146200021482021704565b5050505050505050505050506200053f565b60005433600160a060020a039081169116146200022d57fe5b600254600160a060020a033081169116638da5cb5b6000604051602001526040518163ffffffff167c0100000000000000000000000000000000000000000000000000000000028152600401602060405180830381600087803b15156200029357600080fd5b6102c65a03f11515620002a557600080fd5b50505060405180519050600160a060020a031614151515620002c357fe5b82600160a060020a0381161515620002da57600080fd5b8330600160a060020a031681600160a060020a031614151515620002fd57600080fd5b8360008163ffffffff161180156200031e5750620f424063ffffffff821611155b15156200032a57600080fd5b600254600160a060020a038781169116148015906200036f5750600160a060020a0386166000908152600a60205260409020600101546601000000000000900460ff16155b80156200038e5750600b54620f424063ffffffff918216870190911611155b15156200039a57600080fd5b600160a060020a0386166000908152600a602052604081209081556001908101805466010000000000006501000000000063ffffffff1990921663ffffffff8a161764ff000000001916640100000000891515021765ff000000000019169190911766ff000000000000191617905560088054909181016200041d8382620004f3565b5060009182526020909120018054600160a060020a031916600160a060020a0397909716969096179095555050600b805463ffffffff19811663ffffffff9182169490940116929092179091555050565b828054600181600116156101000203166002900490600052602060002090601f016020900481019282601f10620004b157805160ff1916838001178555620004e1565b82800160010185558215620004e1579182015b82811115620004e1578251825591602001919060010190620004c4565b50620004ef9291506200051f565b5090565b8154818355818115116200051a576000838152602090206200051a9181019083016200051f565b505050565b6200053c91905b80821115620004ef576000815560010162000526565b90565b612b4f806200054f6000396000f300606060405236156102145763ffffffff60e060020a6000350416630ca78923811461027d5780630e53aae9146102af57806319b640151461030a5780631e1401f81461033c57806321e6b53d14610376578063228d2820146103955780632314aad6146103ad57806324f159c2146103cc5780632a3c2c56146103df57806338a5e016146103f55780633e8ff43f146104085780633f4d2fc21461049257806341a5b33d146104bf57806342906029146104e7578063481c6a75146104fa5780634e2280c41461050d578063514385be1461052057806354fd4d5014610544578063579cd3ca146105575780635e35359e146105835780635e5144eb146105ab5780636a272462146105d657806371f52bf3146105fb57806372b44b2c1461062557806375892cf11461064757806379ba50971461067257806385d5e631146106855780638da5cb5b1461069d5780639396a7f0146106b057806394c275ad146106c3578063a2c4c336146106d6578063a59ac6dd146106f8578063ba9a8b371461071d578063bf75455814610730578063c8c2fe6c14610757578063d395ee0f1461076a578063d4ee1d90146107b9578063d8959512146107cc578063defa92ee146107eb578063e4edf852146107fe578063e7ee85a51461081d578063ecbca55d14610833578063f0843ba91461084f578063f2c8d2471461089a578063f2fde38b146108b4578063fc0c546a146108d3575b61027a600980548060200260200160405190810160405280929190818152602001828054801561026d57602002820191906000526020600020905b8154600160a060020a0316815260019091019060200180831161024f575b50505050503460016108e6565b50005b341561028857600080fd5b6102ad600160a060020a036004351663ffffffff602435166044351515606435610c04565b005b34156102ba57600080fd5b6102ce600160a060020a0360043516610d18565b60405194855263ffffffff90931660208501529015156040808501919091529015156060840152901515608083015260a0909101905180910390f35b341561031557600080fd5b610320600435610d5e565b604051600160a060020a03909116815260200160405180910390f35b341561034757600080fd5b610364600160a060020a0360043581169060243516604435610d86565b60405190815260200160405180910390f35b341561038157600080fd5b6102ad600160a060020a0360043516610e7b565b34156103a057600080fd5b6102ad6004351515610efa565b34156103b857600080fd5b6102ad600160a060020a0360043516610f3f565b34156103d757600080fd5b610320610fc0565b34156103ea57600080fd5b610364600435610fcf565b341561040057600080fd5b6102ad611009565b341561041357600080fd5b61041b611076565b60405160208082528190810183818151815260200191508051906020019080838360005b8381101561045757808201518382015260200161043f565b50505050905090810190601f1680156104845780820380516001836020036101000a031916815260200191505b509250505060405180910390f35b341561049d57600080fd5b6102ad600160a060020a036004351663ffffffff602435166044351515611114565b34156104ca57600080fd5b6102ad600160a060020a0360043581169060243516604435611355565b34156104f257600080fd5b6103206113e9565b341561050557600080fd5b6103206113f8565b341561051857600080fd5b6102ad611407565b341561052b57600080fd5b6102ad600160a060020a0360043516602435151561142f565b341561054f57600080fd5b61041b6114b8565b341561056257600080fd5b61056a611523565b60405163ffffffff909116815260200160405180910390f35b341561058e57600080fd5b6102ad600160a060020a036004358116906024351660443561153b565b34156105b657600080fd5b610364600160a060020a0360043581169060243516604435606435611621565b34156105e157600080fd5b610364600160a060020a0360043516602435604435611638565b341561060657600080fd5b61060e611656565b60405161ffff909116815260200160405180910390f35b341561063057600080fd5b610364600160a060020a036004351660243561165d565b341561065257600080fd5b610364600160a060020a03600435811690602435166044356064356116d6565b341561067d57600080fd5b6102ad611760565b341561069057600080fd5b6102ad6004351515611807565b34156106a857600080fd5b610320611867565b34156106bb57600080fd5b610364611876565b34156106ce57600080fd5b61056a61187c565b34156106e157600080fd5b610364600160a060020a0360043516602435611890565b341561070357600080fd5b610364600160a060020a0360043516602435604435611b18565b341561072857600080fd5b61060e611b2e565b341561073b57600080fd5b610743611b40565b604051901515815260200160405180910390f35b341561076257600080fd5b6102ad611b59565b341561077557600080fd5b6102ad6004602481358181019083013580602081810201604051908101604052809392919081815260200183836020028082843750949650611c0095505050505050565b34156107c457600080fd5b610320611c63565b34156107d757600080fd5b610364600160a060020a0360043516611c72565b34156107f657600080fd5b6102ad611d58565b341561080957600080fd5b6102ad600160a060020a0360043516611d5a565b341561082857600080fd5b610320600435611dbc565b341561083e57600080fd5b6102ad63ffffffff60043516611dca565b6103646004602481358181019083013580602081810201604051908101604052809392919081815260200183836020028082843750949650508435946020013593506108e692505050565b34156108a557600080fd5b61032061ffff60043516611ea2565b34156108bf57600080fd5b6102ad600160a060020a0360043516611ef2565b34156108de57600080fd5b610320611f54565b600080600085600281511180156108ff57506015815111155b801561091857506002815181151561091357fe5b066001145b151561092357600080fd5b8660008151811061093057fe5b90602001906020020151600754909350600160a060020a031663c31e05476000604051602001526040518163ffffffff1660e060020a028152600401602060405180830381600087803b151561098557600080fd5b6102c65a03f1151561099657600080fd5b5050506040518051925050341515610b2557600254600160a060020a0384811691161415610a9857600254600160a060020a031663a24835d1338860405160e060020a63ffffffff8516028152600160a060020a0390921660048301526024820152604401600060405180830381600087803b1515610a1457600080fd5b6102c65a03f11515610a2557600080fd5b5050600254600160a060020a0316905063867904b4838860405160e060020a63ffffffff8516028152600160a060020a0390921660048301526024820152604401600060405180830381600087803b1515610a7f57600080fd5b6102c65a03f11515610a9057600080fd5b505050610b25565b82600160a060020a03166323b872dd33848960006040516020015260405160e060020a63ffffffff8616028152600160a060020a0393841660048201529190921660248201526044810191909152606401602060405180830381600087803b1515610b0257600080fd5b6102c65a03f11515610b1357600080fd5b505050604051805190501515610b2557fe5b81600160a060020a031663c98fefed34898989336000604051602001526040518663ffffffff1660e060020a028152600401808060200185815260200184815260200183600160a060020a0316600160a060020a03168152602001828103825286818151815260200191508051906020019060200280838360005b83811015610bb8578082015183820152602001610ba0565b50505050905001955050505050506020604051808303818588803b1515610bde57600080fd5b6125ee5a03f11515610bef57600080fd5b50505050604051805198975050505050505050565b6000805433600160a060020a03908116911614610c1d57fe5b600160a060020a0385166000908152600a602052604090206001015485906601000000000000900460ff161515610c5357600080fd5b8460008163ffffffff16118015610c735750620f424063ffffffff821611155b1515610c7e57600080fd5b600160a060020a0387166000908152600a602052604090206001810154600b54919450620f424063ffffffff918216928216929092038801161115610cc257600080fd5b5050600181018054600b805463ffffffff928316818416038801831663ffffffff199182161790915582549515156401000000000264ff0000000019929097169516949094179390931693909317909155905550565b600a602052600090815260409020805460019091015463ffffffff81169060ff640100000000820481169165010000000000810482169166010000000000009091041685565b6008805482908110610d6c57fe5b600091825260209091200154600160a060020a0316905081565b600080600160a060020a038581169085161415610da257600080fd5b600254600160a060020a0385811691161415610dc957610dc28584611890565b9150610e73565b600254600160a060020a0386811691161415610de957610dc2848461165d565b610df38584611890565b600254909150610e709085908390610e6b90600160a060020a03166318160ddd6000604051602001526040518163ffffffff1660e060020a028152600401602060405180830381600087803b1515610e4a57600080fd5b6102c65a03f11515610e5b57600080fd5b5050506040518051905085611f63565b611f72565b91505b509392505050565b60005433600160a060020a03908116911614610e9357fe5b600254600160a060020a031663f2fde38b8260405160e060020a63ffffffff8416028152600160a060020a039091166004820152602401600060405180830381600087803b1515610ee357600080fd5b6102c65a03f11515610ef457600080fd5b50505050565b60035433600160a060020a03908116911614610f1257fe5b600b80546cff000000000000000000000000191691156c0100000000000000000000000002919091179055565b60005433600160a060020a03908116911614610f5757fe5b80600160a060020a0381161515610f6d57600080fd5b8130600160a060020a031681600160a060020a031614151515610f8f57600080fd5b50506007805473ffffffffffffffffffffffffffffffffffffffff1916600160a060020a0392909216919091179055565b600754600160a060020a031681565b600b54600090620f424090610ff790849068010000000000000000900463ffffffff16612185565b81151561100057fe5b0490505b919050565b60005433600160a060020a0390811691161461102157fe5b600254600160a060020a03166379ba50976040518163ffffffff1660e060020a028152600401600060405180830381600087803b151561106057600080fd5b6102c65a03f1151561107157600080fd5b505050565b60068054600181600116156101000203166002900480601f01602080910402602001604051908101604052809291908181526020018280546001816001161561010002031660029004801561110c5780601f106110e15761010080835404028352916020019161110c565b820191906000526020600020905b8154815290600101906020018083116110ef57829003601f168201915b505050505081565b60005433600160a060020a0390811691161461112c57fe5b600254600160a060020a033081169116638da5cb5b6000604051602001526040518163ffffffff1660e060020a028152600401602060405180830381600087803b151561117857600080fd5b6102c65a03f1151561118957600080fd5b50505060405180519050600160a060020a0316141515156111a657fe5b82600160a060020a03811615156111bc57600080fd5b8330600160a060020a031681600160a060020a0316141515156111de57600080fd5b8360008163ffffffff161180156111fe5750620f424063ffffffff821611155b151561120957600080fd5b600254600160a060020a0387811691161480159061124d5750600160a060020a0386166000908152600a60205260409020600101546601000000000000900460ff16155b801561126b5750600b54620f424063ffffffff918216870190911611155b151561127657600080fd5b600160a060020a0386166000908152600a602052604081209081556001908101805466010000000000006501000000000063ffffffff1990921663ffffffff8a161764ff000000001916640100000000891515021765ff000000000019169190911766ff000000000000191617905560088054909181016112f78382612a40565b506000918252602090912001805473ffffffffffffffffffffffffffffffffffffffff1916600160a060020a0397909716969096179095555050600b805463ffffffff19811663ffffffff9182169490940116929092179091555050565b60005433600160a060020a0390811691161461136d57fe5b600254600160a060020a0316635e35359e84848460405160e060020a63ffffffff8616028152600160a060020a0393841660048201529190921660248201526044810191909152606401600060405180830381600087803b15156113d057600080fd5b6102c65a03f115156113e157600080fd5b505050505050565b600454600160a060020a031681565b600354600160a060020a031681565b60005433600160a060020a0390811691161461141f57fe5b600061142c600982612a40565b50565b60005433600160a060020a0390811691161461144757fe5b600160a060020a0382166000908152600a602052604090206001015482906601000000000000900460ff16151561147d57600080fd5b50600160a060020a03919091166000908152600a60205260409020600101805465ff0000000000191691156501000000000002919091179055565b60058054600181600116156101000203166002900480601f01602080910402602001604051908101604052809291908181526020018280546001816001161561010002031660029004801561110c5780601f106110e15761010080835404028352916020019161110c565b600b5468010000000000000000900463ffffffff1681565b60005433600160a060020a0390811691161461155357fe5b82600160a060020a038116151561156957600080fd5b82600160a060020a038116151561157f57600080fd5b8330600160a060020a031681600160a060020a0316141515156115a157600080fd5b85600160a060020a031663a9059cbb868660006040516020015260405160e060020a63ffffffff8516028152600160a060020a0390921660048301526024820152604401602060405180830381600087803b15156115fe57600080fd5b6102c65a03f1151561160f57600080fd5b5050506040518051905015156113e157fe5b600061162f858585856116d6565b95945050505050565b6000611643846121a9565b61164e8484846121bc565b949350505050565b6008545b90565b6002546000906116cf9084908490600160a060020a03166318160ddd85604051602001526040518163ffffffff1660e060020a028152600401602060405180830381600087803b15156116af57600080fd5b6102c65a03f115156116c057600080fd5b50505060405180519050611f72565b9392505050565b600080600160a060020a0386811690861614156116f257600080fd5b600254600160a060020a038681169116141561171a57611713868585611b18565b9150611757565b600254600160a060020a038781169116141561173b57611713858585611638565b61174786856001611b18565b9050611754858285611638565b91505b50949350505050565b60015433600160a060020a0390811691161461177b57600080fd5b6000546001547f343765429aea5a34b3ff6a3785a98a5abb2597aca87bfbb58632c173d585373a91600160a060020a039081169116604051600160a060020a039283168152911660208201526040908101905180910390a1600180546000805473ffffffffffffffffffffffffffffffffffffffff19908116600160a060020a03841617909155169055565b60005433600160a060020a0390811691161461181f57fe5b600254600160a060020a0316631608f18f8260405160e060020a63ffffffff84160281529015156004820152602401600060405180830381600087803b1515610ee357600080fd5b600054600160a060020a031681565b60095490565b600b54640100000000900463ffffffff1681565b60025460009081908190819081908190600160a060020a033081169116638da5cb5b83604051602001526040518163ffffffff1660e060020a028152600401602060405180830381600087803b15156118e857600080fd5b6102c65a03f115156118f957600080fd5b50505060405180519050600160a060020a031614151561191557fe5b600160a060020a0388166000908152600a602052604090206001015488906601000000000000900460ff16151561194b57600080fd5b600160a060020a0389166000908152600a60205260409020600181015490965065010000000000900460ff16151561198257600080fd5b600254600160a060020a03166318160ddd6000604051602001526040518163ffffffff1660e060020a028152600401602060405180830381600087803b15156119ca57600080fd5b6102c65a03f115156119db57600080fd5b5050506040518051905094506119f089611c72565b600754909450600160a060020a0316634b75f54f6000604051602001526040518163ffffffff1660e060020a028152600401602060405180830381600087803b1515611a3b57600080fd5b6102c65a03f11515611a4c57600080fd5b50505060405180516001880154600160a060020a0390911691506329a00e7c908790879063ffffffff168c6000604051602001526040518563ffffffff1660e060020a028152600401808581526020018481526020018363ffffffff1663ffffffff168152602001828152602001945050505050602060405180830381600087803b1515611ad957600080fd5b6102c65a03f11515611aea57600080fd5b505050604051805190509250611aff83610fcf565b9150611b0b838361252b565b9998505050505050505050565b6000611b23846121a9565b61164e84848461253d565b6000611b38611656565b600101905090565b600b546c01000000000000000000000000900460ff1681565b60045433600160a060020a03908116911614611b7457600080fd5b6003546004547fbe4cc281795971a471c980e842627a7f1ea3892ddfce8c5b6357cd2611c1973291600160a060020a039081169116604051600160a060020a039283168152911660208201526040908101905180910390a1600480546003805473ffffffffffffffffffffffffffffffffffffffff19908116600160a060020a03841617909155169055565b60005433600160a060020a03908116911614611c1857fe5b8060028151118015611c2c57506015815111155b8015611c45575060028151811515611c4057fe5b066001145b1515611c5057600080fd5b6009828051611071929160200190612a64565b600154600160a060020a031681565b600160a060020a0381166000908152600a6020526040812060010154819083906601000000000000900460ff161515611caa57600080fd5b600160a060020a0384166000908152600a602052604090206001810154909250640100000000900460ff16611d505783600160a060020a03166370a082313060006040516020015260405160e060020a63ffffffff8416028152600160a060020a039091166004820152602401602060405180830381600087803b1515611d3057600080fd5b6102c65a03f11515611d4157600080fd5b5050506040518051905061164e565b505492915050565b565b60035433600160a060020a03908116911614611d7257fe5b600354600160a060020a0382811691161415611d8d57600080fd5b6004805473ffffffffffffffffffffffffffffffffffffffff1916600160a060020a0392909216919091179055565b6009805482908110610d6c57fe5b60035433600160a060020a03908116911614611de257fe5b8060008163ffffffff1610158015611e0e5750600b5463ffffffff640100000000909104811690821611155b1515611e1957600080fd5b600b547f81cd2ffb37dd237c0e4e2a3de5265fcf9deb43d3e7801e80db9f1ccfba7ee6009068010000000000000000900463ffffffff168360405163ffffffff9283168152911660208201526040908101905180910390a150600b805463ffffffff90921668010000000000000000026bffffffff000000000000000019909216919091179055565b600061ffff82161515611ec15750600254600160a060020a0316611004565b6008805461ffff600019850116908110611ed757fe5b600091825260209091200154600160a060020a031692915050565b60005433600160a060020a03908116911614611f0a57fe5b600054600160a060020a0382811691161415611f2557600080fd5b6001805473ffffffffffffffffffffffffffffffffffffffff1916600160a060020a0392909216919091179055565b600254600160a060020a031681565b6000828201838110156116cf57fe5b6002546000908190819081908190600160a060020a033081169116638da5cb5b83604051602001526040518163ffffffff1660e060020a028152600401602060405180830381600087803b1515611fc857600080fd5b6102c65a03f11515611fd957600080fd5b50505060405180519050600160a060020a0316141515611ff557fe5b600160a060020a0388166000908152600a602052604090206001015488906601000000000000900460ff16151561202b57600080fd5b866000811161203957600080fd5b600160a060020a038a166000908152600a60205260409020955061205c8a611c72565b600754909550600160a060020a0316634b75f54f6000604051602001526040518163ffffffff1660e060020a028152600401602060405180830381600087803b15156120a757600080fd5b6102c65a03f115156120b857600080fd5b50505060405180516001880154600160a060020a0390911691506349f9b0f7908a90889063ffffffff168d6000604051602001526040518563ffffffff1660e060020a028152600401808581526020018481526020018363ffffffff1663ffffffff168152602001828152602001945050505050602060405180830381600087803b151561214557600080fd5b6102c65a03f1151561215657600080fd5b50505060405180519050935061216b84610fcf565b9250612177848461252b565b9a9950505050505050505050565b60008282028315806121a1575082848281151561219e57fe5b04145b15156116cf57fe5b600160a060020a0316600052600a602052565b6000806000806000600b600c9054906101000a900460ff1615156121dc57fe5b600754600160a060020a031663961a929c6000604051602001526040518163ffffffff1660e060020a028152600401602060405180830381600087803b151561222457600080fd5b6102c65a03f1151561223557600080fd5b50505060405180519050600160a060020a031663fe173b976000604051602001526040518163ffffffff1660e060020a028152600401602060405180830381600087803b151561228457600080fd5b6102c65a03f1151561229557600080fd5b50505060405180513a111590506122a857fe5b85600081116122b657600080fd5b600254600160a060020a03166370a082313360006040516020015260405160e060020a63ffffffff8416028152600160a060020a039091166004820152602401602060405180830381600087803b151561230f57600080fd5b6102c65a03f1151561232057600080fd5b5050506040518051891115905061233657600080fd5b612340898961165d565b945084158015906123515750868510155b151561235957fe5b600254600160a060020a03166318160ddd6000604051602001526040518163ffffffff1660e060020a028152600401602060405180830381600087803b15156123a157600080fd5b6102c65a03f115156123b257600080fd5b5050506040518051905093506123c789611c72565b9250828510806123e0575082851480156123e057508388145b15156123e857fe5b600160a060020a0389166000908152600a602052604090206001810154909250640100000000900460ff1615612427578154612424908661252b565b82555b600254600160a060020a031663a24835d1338a60405160e060020a63ffffffff8516028152600160a060020a0390921660048301526024820152604401600060405180830381600087803b151561247d57600080fd5b6102c65a03f1151561248e57600080fd5b50505088600160a060020a031663a9059cbb338760006040516020015260405160e060020a63ffffffff8516028152600160a060020a0390921660048301526024820152604401602060405180830381600087803b15156124ee57600080fd5b6102c65a03f115156124ff57600080fd5b50505060405180519050151561251157fe5b61251e89898760006127a5565b5092979650505050505050565b60008183101561253757fe5b50900390565b6000806000600b600c9054906101000a900460ff16151561255a57fe5b600754600160a060020a031663961a929c6000604051602001526040518163ffffffff1660e060020a028152600401602060405180830381600087803b15156125a257600080fd5b6102c65a03f115156125b357600080fd5b50505060405180519050600160a060020a031663fe173b976000604051602001526040518163ffffffff1660e060020a028152600401602060405180830381600087803b151561260257600080fd5b6102c65a03f1151561261357600080fd5b50505060405180513a1115905061262657fe5b836000811161263457600080fd5b61263e8787611890565b9250821580159061264f5750848310155b151561265757fe5b600160a060020a0387166000908152600a602052604090206001810154909250640100000000900460ff16156126965781546126939087611f63565b82555b86600160a060020a03166323b872dd33308960006040516020015260405160e060020a63ffffffff8616028152600160a060020a0393841660048201529190921660248201526044810191909152606401602060405180830381600087803b151561270057600080fd5b6102c65a03f1151561271157600080fd5b50505060405180519050151561272357fe5b600254600160a060020a031663867904b4338560405160e060020a63ffffffff8516028152600160a060020a0390921660048301526024820152604401600060405180830381600087803b151561277957600080fd5b6102c65a03f1151561278a57600080fd5b50505061279a87878560016127a5565b509095945050505050565b600160a060020a0384166000908152600a60205260408120908080806127d66127cd8a611c72565b620f4240612185565b60025490945061285190600160a060020a03166318160ddd6000604051602001526040518163ffffffff1660e060020a028152600401602060405180830381600087803b151561282557600080fd5b6102c65a03f1151561283657600080fd5b5050506040518051600188015490915063ffffffff16612185565b600254909350600160a060020a031663313ce5676000604051602001526040518163ffffffff1660e060020a028152600401602060405180830381600087803b151561289c57600080fd5b6102c65a03f115156128ad57600080fd5b5050506040518051925050600160a060020a03891663313ce5676000604051602001526040518163ffffffff1660e060020a028152600401602060405180830381600087803b15156128fe57600080fd5b6102c65a03f1151561290f57600080fd5b505050604051805191505060ff82811690821614612963578060ff168260ff16111561294e576129478482840360ff16600a0a612185565b9350612963565b6129608383830360ff16600a0a612185565b92505b85156129d157600254600160a060020a03338116918116908b167f431d62569d69247969ee24b65452f881ddcc12e42b7b71c324403449f870c0d38b8b89896040518085815260200184815260200183815260200182815260200194505050505060405180910390a4612a35565b600254600160a060020a03338116918b821691167f431d62569d69247969ee24b65452f881ddcc12e42b7b71c324403449f870c0d38b8b888a6040518085815260200184815260200183815260200182815260200194505050505060405180910390a45b505050505050505050565b81548183558181151161107157600083815260209020611071918101908301612ad8565b828054828255906000526020600020908101928215612ac8579160200282015b82811115612ac8578251825473ffffffffffffffffffffffffffffffffffffffff1916600160a060020a039190911617825560209290920191600190910190612a84565b50612ad4929150612af2565b5090565b61165a91905b80821115612ad45760008155600101612ade565b61165a91905b80821115612ad457805473ffffffffffffffffffffffffffffffffffffffff19168155600101612af85600a165627a7a72305820bf18411f325b8e084102038b7313766043eb6d42e840dcc82e4ed4f2111405dd0029",
  "source": "pragma solidity ^0.4.4;\n\nimport \"./bancor/BancorConverter.sol\";\n\n/*\n    Override bancor converter to replace references to the virtual balance\n    This allows a buffer for dividends so the virtual balance slowly approaches the actual balance\n*/\ncontract LiquidConverter is BancorConverter {\n\n    // to do variables for buffer start, end\n\n    // just pass everything through to bancor converter constructor\n    function LiquidConverter(ISmartToken _token, IBancorConverterExtensions _extensions, uint32 _maxConversionFee, IERC20Token _connectorToken, uint32 _connectorWeight)\n        BancorConverter(_token, _extensions, _maxConversionFee, _connectorToken, _connectorWeight)\n        public\n    {\n    }\n\n    // update the connectors virtual balance so the bancor converter has it up to date\n    function bufferVirtualBalance(IERC20Token _connectorToken)\n        private\n    {\n        Connector storage connector = connectors[_connectorToken];\n        // connector.virtualBalance += 1;\n        // to do\n    }\n\n    // allows trustee to send dividends (as connector tokens) that add to the connector balance without minting and update the virtual balance buffer\n    function depositDividends()\n        public\n    {\n        // to do\n    }\n\n    /* function getConnectorBalance(IERC20Token _connectorToken)\n        public\n        returns (uint256)\n    {\n        bufferVirtualBalance(_connectorToken);\n        return super.getConnectorBalance(_connectorToken);\n    } */\n\n    function buy(IERC20Token _connectorToken, uint256 _depositAmount, uint256 _minReturn)\n        public\n        returns (uint256)\n    {\n        bufferVirtualBalance(_connectorToken);\n        return super.buy(_connectorToken, _depositAmount, _minReturn);\n    }\n\n    function sell(IERC20Token _connectorToken, uint256 _sellAmount, uint256 _minReturn)\n        public\n        returns (uint256)\n    {\n        bufferVirtualBalance(_connectorToken);\n        return super.sell(_connectorToken, _sellAmount, _minReturn);\n    }\n}\n",
  "sourcePath": "/Users/chanopalis/Documents/ethereum-contracts/smart-law-contracts/DexRE-Contract/contracts/LiquidRE/LiquidConverter.sol",
  "schemaVersion": "1.0.0",
  "updatedAt": "2018-03-02T16:04:52.215Z"
}