{
  "contractName": "LiquidRE",
  "abi": [
    {
      "constant": false,
      "inputs": [
        {
          "name": "_disable",
          "type": "bool"
        }
      ],
      "name": "updateStatus",
      "outputs": [],
      "payable": false,
      "stateMutability": "nonpayable",
      "type": "function"
    },
    {
      "constant": true,
      "inputs": [],
      "name": "status",
      "outputs": [
        {
          "name": "",
          "type": "bool"
        }
      ],
      "payable": false,
      "stateMutability": "view",
      "type": "function"
    },
    {
      "constant": false,
      "inputs": [
        {
          "name": "_token",
          "type": "address"
        },
        {
          "name": "_amount",
          "type": "uint256"
        },
        {
          "name": "_to",
          "type": "address"
        }
      ],
      "name": "sendIREOToken",
      "outputs": [],
      "payable": false,
      "stateMutability": "nonpayable",
      "type": "function"
    },
    {
      "constant": true,
      "inputs": [
        {
          "name": "",
          "type": "uint256"
        }
      ],
      "name": "IREOs",
      "outputs": [
        {
          "name": "",
          "type": "address"
        }
      ],
      "payable": false,
      "stateMutability": "view",
      "type": "function"
    },
    {
      "constant": true,
      "inputs": [],
      "name": "IREOsAddresses",
      "outputs": [
        {
          "name": "",
          "type": "address[]"
        }
      ],
      "payable": false,
      "stateMutability": "view",
      "type": "function"
    },
    {
      "constant": false,
      "inputs": [],
      "name": "acceptOwnership",
      "outputs": [],
      "payable": false,
      "stateMutability": "nonpayable",
      "type": "function"
    },
    {
      "constant": true,
      "inputs": [],
      "name": "trusteeFactory",
      "outputs": [
        {
          "name": "",
          "type": "address"
        }
      ],
      "payable": false,
      "stateMutability": "view",
      "type": "function"
    },
    {
      "constant": true,
      "inputs": [],
      "name": "owner",
      "outputs": [
        {
          "name": "",
          "type": "address"
        }
      ],
      "payable": false,
      "stateMutability": "view",
      "type": "function"
    },
    {
      "constant": true,
      "inputs": [],
      "name": "entityFactory",
      "outputs": [
        {
          "name": "",
          "type": "address"
        }
      ],
      "payable": false,
      "stateMutability": "view",
      "type": "function"
    },
    {
      "constant": true,
      "inputs": [
        {
          "name": "_address",
          "type": "address"
        }
      ],
      "name": "addressEntity",
      "outputs": [
        {
          "name": "",
          "type": "address"
        }
      ],
      "payable": false,
      "stateMutability": "view",
      "type": "function"
    },
    {
      "constant": false,
      "inputs": [
        {
          "name": "_trustee",
          "type": "address"
        },
        {
          "name": "_startTime",
          "type": "uint256"
        },
        {
          "name": "_endTime",
          "type": "uint256"
        },
        {
          "name": "_goal",
          "type": "uint256"
        },
        {
          "name": "_price",
          "type": "uint256"
        }
      ],
      "name": "newIREO",
      "outputs": [],
      "payable": false,
      "stateMutability": "nonpayable",
      "type": "function"
    },
    {
      "constant": true,
      "inputs": [],
      "name": "newOwner",
      "outputs": [
        {
          "name": "",
          "type": "address"
        }
      ],
      "payable": false,
      "stateMutability": "view",
      "type": "function"
    },
    {
      "constant": true,
      "inputs": [
        {
          "name": "",
          "type": "uint256"
        }
      ],
      "name": "LRETs",
      "outputs": [
        {
          "name": "",
          "type": "address"
        }
      ],
      "payable": false,
      "stateMutability": "view",
      "type": "function"
    },
    {
      "constant": true,
      "inputs": [
        {
          "name": "_address",
          "type": "address"
        }
      ],
      "name": "addressTrustee",
      "outputs": [
        {
          "name": "",
          "type": "address"
        }
      ],
      "payable": false,
      "stateMutability": "view",
      "type": "function"
    },
    {
      "constant": false,
      "inputs": [
        {
          "name": "_newOwner",
          "type": "address"
        }
      ],
      "name": "transferOwnership",
      "outputs": [],
      "payable": false,
      "stateMutability": "nonpayable",
      "type": "function"
    },
    {
      "inputs": [
        {
          "name": "_entityFactory",
          "type": "address"
        },
        {
          "name": "_trusteeFactory",
          "type": "address"
        }
      ],
      "payable": false,
      "stateMutability": "nonpayable",
      "type": "constructor"
    },
    {
      "anonymous": false,
      "inputs": [
        {
          "indexed": false,
          "name": "ireo",
          "type": "address"
        }
      ],
      "name": "IREOCreated",
      "type": "event"
    },
    {
      "anonymous": false,
      "inputs": [
        {
          "indexed": false,
          "name": "_prevOwner",
          "type": "address"
        },
        {
          "indexed": false,
          "name": "_newOwner",
          "type": "address"
        }
      ],
      "name": "OwnerUpdate",
      "type": "event"
    }
  ],
  "bytecode": "0x6060604052341561000f57600080fd5b6040516040806128c1833981016040528080519190602001805160008054600160a060020a03338116600160a060020a0319928316179092556002805496831696821696909617909555600380549190921694169390931790925550506001805460a060020a60ff0219167401000000000000000000000000000000000000000017905561281f806100a26000396000f30060606040523615620000cf5763ffffffff60e060020a60003504166319e072ef8114620000d4578063200d2ed214620000f157806324709d50146200011b5780634eb80a0514620001475780637137e37c146200017c57806379ba509714620001e75780637bd3269d14620001fd5780638da5cb5b14620002135780639d1c1b821462000229578063c8d7430e146200023f578063caa7ec3d1462000261578063d4ee1d90146200028f578063d9fd9c4214620002a5578063e40f09b114620002be578063f2fde38b14620002e0575b600080fd5b3415620000e057600080fd5b620000ef600435151562000302565b005b3415620000fd57600080fd5b620001076200035e565b604051901515815260200160405180910390f35b34156200012757600080fd5b620000ef600160a060020a0360043581169060243590604435166200037f565b34156200015357600080fd5b6200016060043562000471565b604051600160a060020a03909116815260200160405180910390f35b34156200018857600080fd5b620001926200049a565b60405160208082528190810183818151815260200191508051906020019060200280838360005b83811015620001d3578082015183820152602001620001b9565b505050509050019250505060405180910390f35b3415620001f357600080fd5b620000ef62000507565b34156200020957600080fd5b62000160620005af565b34156200021f57600080fd5b62000160620005be565b34156200023557600080fd5b62000160620005cd565b34156200024b57600080fd5b62000160600160a060020a0360043516620005dc565b34156200026d57600080fd5b620000ef600160a060020a0360043516602435604435606435608435620006db565b34156200029b57600080fd5b62000160620009a6565b3415620002b157600080fd5b62000160600435620009b5565b3415620002ca57600080fd5b62000160600160a060020a0360043516620009c4565b3415620002ec57600080fd5b620000ef600160a060020a036004351662000aa1565b60005433600160a060020a039081169116146200031e57600080fd5b60018054911515740100000000000000000000000000000000000000000274ff000000000000000000000000000000000000000019909216919091179055565b60015474010000000000000000000000000000000000000000900460ff1681565b336000600160a060020a0380861690831663fc0c546a83604051602001526040518163ffffffff1660e060020a028152600401602060405180830381600087803b1515620003cc57600080fd5b6102c65a03f11515620003de57600080fd5b50505060405180519050600160a060020a0316141515620003fe57600080fd5b5083600160a060020a03811663867904b4848660405160e060020a63ffffffff8516028152600160a060020a0390921660048301526024820152604401600060405180830381600087803b15156200045557600080fd5b6102c65a03f115156200046757600080fd5b5050505050505050565b60048054829081106200048057fe5b600091825260209091200154600160a060020a0316905081565b620004a462000b08565b6004805480602002602001604051908101604052809291908181526020018280548015620004fc57602002820191906000526020600020905b8154600160a060020a03168152600190910190602001808311620004dd575b505050505090505b90565b60015433600160a060020a039081169116146200052357600080fd5b6000546001547f343765429aea5a34b3ff6a3785a98a5abb2597aca87bfbb58632c173d585373a91600160a060020a039081169116604051600160a060020a039283168152911660208201526040908101905180910390a1600180546000805473ffffffffffffffffffffffffffffffffffffffff19908116600160a060020a03841617909155169055565b600354600160a060020a031681565b600054600160a060020a031681565b600254600160a060020a031681565b600254600090600160a060020a0316806355bcae0684846040516020015260405160e060020a63ffffffff8416028152600160a060020a039091166004820152602401602060405180830381600087803b15156200063957600080fd5b6102c65a03f115156200064b57600080fd5b5050506040518051905015156200066157600080fd5b80600160a060020a0316637a521d618460006040516020015260405160e060020a63ffffffff8416028152600160a060020a039091166004820152602401602060405180830381600087803b1515620006b957600080fd5b6102c65a03f11515620006cb57600080fd5b5050506040518051949350505050565b6000806000806000620006ee33620005dc565b600354909550600160a060020a031693508363c784cd178b60006040516020015260405160e060020a63ffffffff8416028152600160a060020a039091166004820152602401602060405180830381600087803b15156200074e57600080fd5b6102c65a03f115156200076057600080fd5b5050506040518051905015156200077657600080fd5b60126200078262000b1a565b60ff909116604080830191909152606080835260009083015260a0602083018190526004908301527f4c5245540000000000000000000000000000000000000000000000000000000060c083015260e09091019051809103906000f0801515620007eb57600080fd5b9250848a8a8a8a8a88620007fe62000b2b565b600160a060020a03978816815295871660208701526040808701959095526060860193909352608085019190915260a084015290921660c082015260e0019051809103906000f08015156200085257600080fd5b915082600160a060020a0316631608f18f600160405160e060020a63ffffffff84160281529015156004820152602401600060405180830381600087803b15156200089c57600080fd5b6102c65a03f11515620008ae57600080fd5b50505060048054806001018281620008c7919062000b3c565b506000918252602090912001805473ffffffffffffffffffffffffffffffffffffffff1916600160a060020a03848116919091179091558a915081166388d34efd8360405160e060020a63ffffffff8416028152600160a060020a039091166004820152602401600060405180830381600087803b15156200094857600080fd5b6102c65a03f115156200095a57600080fd5b5050507f254a2240752cf51869f24fc40822ef2d23da26400ccfbc56848d67a96bfc968982604051600160a060020a03909116815260200160405180910390a150505050505050505050565b600154600160a060020a031681565b60058054829081106200048057fe5b600354600090600160a060020a0316806318bfb38084846040516020015260405160e060020a63ffffffff8416028152600160a060020a039091166004820152602401602060405180830381600087803b151562000a2157600080fd5b6102c65a03f1151562000a3357600080fd5b50505060405180519050151562000a4957600080fd5b80600160a060020a031663960e9ff48460006040516020015260405160e060020a63ffffffff8416028152600160a060020a039091166004820152602401602060405180830381600087803b1515620006b957600080fd5b60005433600160a060020a0390811691161462000abd57600080fd5b600054600160a060020a038281169116141562000ad957600080fd5b6001805473ffffffffffffffffffffffffffffffffffffffff1916600160a060020a0392909216919091179055565b60206040519081016040526000815290565b60405161123e8062000b8a83390190565b604051610a2c8062001dc883390190565b81548183558181151162000b635760008381526020902062000b6391810190830162000b68565b505050565b6200050491905b8082111562000b85576000815560010162000b6f565b50905600606060405260408051908101604052600981527f546f6b656e20302e310000000000000000000000000000000000000000000000602082015260029080516200004d929160200190620002c6565b50602060405190810160405260008152600390805162000072929160200190620002c6565b50602060405190810160405260008152600490805162000097929160200190620002c6565b506005805460ff19169055600060065560408051908101604052600381527f302e33000000000000000000000000000000000000000000000000000000000060208201526009908051620000f0929160200190620002c6565b50600a805460ff1916600117905534156200010a57600080fd5b6040516200123e3803806200123e8339810160405280805182019190602001805182019190602001805160008054600160a060020a03191633600160a060020a0316178155909250849150839083908251116200016657600080fd5b6200017f3064010000000062000d866200020882021704565b600390805162000194929160200190620002c6565b506004828051620001aa929160200190620002c6565b506005805460ff191660ff92909216919091179055507ff4cd1f8571e8d9c97ffcb81558807ab73f9803d54de5da6a0420593c82a4a9f0905030604051600160a060020a03909116815260200160405180910390a15050506200037d565b620002126200034b565b6200021c6200034b565b600060146040518059106200022e5750595b90808252806020026020018201604052509150600090505b6014811015620002bf578060130360080260020a84600160a060020a03168115156200026e57fe5b047f0100000000000000000000000000000000000000000000000000000000000000028282815181106200029e57fe5b906020010190600160f860020a031916908160001a90535060010162000246565b5092915050565b828054600181600116156101000203166002900490600052602060002090601f016020900481019282601f106200030957805160ff191683800117855562000339565b8280016001018555821562000339579182015b82811115620003395782518255916020019190600101906200031c565b50620003479291506200035d565b5090565b60206040519081016040526000815290565b6200037a91905b8082111562000347576000815560010162000364565b90565b610eb1806200038d6000396000f3006060604052361561010f5763ffffffff7c010000000000000000000000000000000000000000000000000000000060003504166306fdde038114610114578063095ea7b31461019e5780631608f18f146101d457806318160ddd146101ee57806323b872dd14610213578063313ce5671461023b57806354fd4d50146102645780635a3b7e42146102775780635e35359e1461028a57806370a08231146102b257806379ba5097146102d1578063867904b4146102e45780638da5cb5b1461030657806395d89b4114610335578063a24835d114610348578063a9059cbb1461036a578063bef97c871461038c578063d4ee1d901461039f578063dd62ed3e146103b2578063f2fde38b146103d7575b600080fd5b341561011f57600080fd5b6101276103f6565b60405160208082528190810183818151815260200191508051906020019080838360005b8381101561016357808201518382015260200161014b565b50505050905090810190601f1680156101905780820380516001836020036101000a031916815260200191505b509250505060405180910390f35b34156101a957600080fd5b6101c0600160a060020a0360043516602435610494565b604051901515815260200160405180910390f35b34156101df57600080fd5b6101ec6004351515610551565b005b34156101f957600080fd5b61020161057b565b60405190815260200160405180910390f35b341561021e57600080fd5b6101c0600160a060020a0360043581169060243516604435610581565b341561024657600080fd5b61024e6105af565b60405160ff909116815260200160405180910390f35b341561026f57600080fd5b6101276105b8565b341561028257600080fd5b610127610623565b341561029557600080fd5b6101ec600160a060020a036004358116906024351660443561068e565b34156102bd57600080fd5b610201600160a060020a0360043516610795565b34156102dc57600080fd5b6101ec6107a7565b34156102ef57600080fd5b6101ec600160a060020a036004351660243561084e565b341561031157600080fd5b61031961095c565b604051600160a060020a03909116815260200160405180910390f35b341561034057600080fd5b61012761096b565b341561035357600080fd5b6101ec600160a060020a03600435166024356109d6565b341561037557600080fd5b6101c0600160a060020a0360043516602435610ac1565b341561039757600080fd5b6101c0610aed565b34156103aa57600080fd5b610319610af6565b34156103bd57600080fd5b610201600160a060020a0360043581169060243516610b05565b34156103e257600080fd5b6101ec600160a060020a0360043516610b22565b60038054600181600116156101000203166002900480601f01602080910402602001604051908101604052809291908181526020018280546001816001161561010002031660029004801561048c5780601f106104615761010080835404028352916020019161048c565b820191906000526020600020905b81548152906001019060200180831161046f57829003601f168201915b505050505081565b600082600160a060020a03811615156104ac57600080fd5b8215806104dc5750600160a060020a03338116600090815260086020908152604080832093881683529290522054155b15156104e757600080fd5b600160a060020a03338116600081815260086020908152604080832094891680845294909152908190208690557f8c5be1e5ebec7d5bd14f71427d1e84f3dd0314c0f7b2291e5b200ac8c7c3b9259086905190815260200160405180910390a35060019392505050565b60005433600160a060020a0390811691161461056957fe5b600a805460ff19169115919091179055565b60065481565b600a5460009060ff16151561059257fe5b61059d848484610b84565b15156105a557fe5b5060019392505050565b60055460ff1681565b60098054600181600116156101000203166002900480601f01602080910402602001604051908101604052809291908181526020018280546001816001161561010002031660029004801561048c5780601f106104615761010080835404028352916020019161048c565b60028054600181600116156101000203166002900480601f01602080910402602001604051908101604052809291908181526020018280546001816001161561010002031660029004801561048c5780601f106104615761010080835404028352916020019161048c565b60005433600160a060020a039081169116146106a657fe5b82600160a060020a03811615156106bc57600080fd5b82600160a060020a03811615156106d257600080fd5b8330600160a060020a031681600160a060020a0316141515156106f457600080fd5b85600160a060020a031663a9059cbb86866000604051602001526040517c010000000000000000000000000000000000000000000000000000000063ffffffff8516028152600160a060020a0390921660048301526024820152604401602060405180830381600087803b151561076a57600080fd5b6102c65a03f1151561077b57600080fd5b50505060405180519050151561078d57fe5b505050505050565b60076020526000908152604090205481565b60015433600160a060020a039081169116146107c257600080fd5b6000546001547f343765429aea5a34b3ff6a3785a98a5abb2597aca87bfbb58632c173d585373a91600160a060020a039081169116604051600160a060020a039283168152911660208201526040908101905180910390a1600180546000805473ffffffffffffffffffffffffffffffffffffffff19908116600160a060020a03841617909155169055565b60005433600160a060020a0390811691161461086657fe5b81600160a060020a038116151561087c57600080fd5b8230600160a060020a031681600160a060020a03161415151561089e57600080fd5b6108aa60065484610ca4565b600655600160a060020a0384166000908152600760205260409020546108d09084610ca4565b600160a060020a03851660009081526007602052604090819020919091557f9386c90217c323f58030f9dadcbc938f807a940f4ff41cd4cead9562f5da7dc39084905190815260200160405180910390a183600160a060020a031630600160a060020a0316600080516020610e668339815191528560405190815260200160405180910390a350505050565b600054600160a060020a031681565b60048054600181600116156101000203166002900480601f01602080910402602001604051908101604052809291908181526020018280546001816001161561010002031660029004801561048c5780601f106104615761010080835404028352916020019161048c565b81600160a060020a031633600160a060020a03161480610a04575060005433600160a060020a039081169116145b1515610a0f57600080fd5b600160a060020a038216600090815260076020526040902054610a329082610cba565b600160a060020a038316600090815260076020526040902055600654610a589082610cba565b600655600160a060020a03308116908316600080516020610e668339815191528360405190815260200160405180910390a37f9a1b418bc061a5d80270261562e6986a35d995f8051145f277be16103abd34538160405190815260200160405180910390a15050565b600a5460009060ff161515610ad257fe5b610adc8383610ccc565b1515610ae457fe5b50600192915050565b600a5460ff1681565b600154600160a060020a031681565b600860209081526000928352604080842090915290825290205481565b60005433600160a060020a03908116911614610b3a57fe5b600054600160a060020a0382811691161415610b5557600080fd5b6001805473ffffffffffffffffffffffffffffffffffffffff1916600160a060020a0392909216919091179055565b600083600160a060020a0381161515610b9c57600080fd5b83600160a060020a0381161515610bb257600080fd5b600160a060020a0380871660009081526008602090815260408083203390941683529290522054610be39085610cba565b600160a060020a038088166000818152600860209081526040808320339095168352938152838220949094559081526007909252902054610c249085610cba565b600160a060020a038088166000908152600760205260408082209390935590871681522054610c539085610ca4565b600160a060020a0380871660008181526007602052604090819020939093559190881690600080516020610e668339815191529087905190815260200160405180910390a350600195945050505050565b600082820183811015610cb357fe5b9392505050565b600081831015610cc657fe5b50900390565b600082600160a060020a0381161515610ce457600080fd5b600160a060020a033316600090815260076020526040902054610d079084610cba565b600160a060020a033381166000908152600760205260408082209390935590861681522054610d369084610ca4565b600160a060020a038086166000818152600760205260409081902093909355913390911690600080516020610e668339815191529086905190815260200160405180910390a35060019392505050565b610d8e610e53565b610d96610e53565b60006014604051805910610da75750595b90808252806020026020018201604052509150600090505b6014811015610e4c578060130360080260020a84600160a060020a0316811515610de557fe5b047f010000000000000000000000000000000000000000000000000000000000000002828281518110610e1457fe5b9060200101907effffffffffffffffffffffffffffffffffffffffffffffffffffffffffffff1916908160001a905350600101610dbf565b5092915050565b602060405190810160405260008152905600ddf252ad1be2c89b69c2b068fc378daa952ba7f163c4a11628f55a4df523b3efa165627a7a72305820b8910df8ffce3e72bffc64328b4d76b1a904eb529ab1cb58518eea312a890e81002960606040526002805460a060020a60ff0219169055600060038190556004819055600581905560068190556007819055600855600a8054600160b860020a0319169055600b8054600160a060020a0319169055341561005d57600080fd5b60405160e080610a2c8339810160405280805191906020018051919060200180519190602001805191906020018051919060200180519190602001805160008054600160a060020a0319908116600160a060020a039a8b16178255600b805482169b8b169b909b17909a556003979097556004959095555050670de0b6b3a764000091820260055502600855600a8054630100000060b860020a0319166301000000338616021790556002805490941692169190911790915561090690819061012690396000f3006060604052361561010c5763ffffffff60e060020a60003504166301cb3b2081146101175780630d662a1f1461012c57806319e072ef14610151578063200d2ed214610169578063253a6d27146101905780632e6e504a146101a35780633197cbb6146101b657806332243378146101c95780633ac7f831146101f85780633ccfd60b1461021757806342e94c901461022a5780634c10b9cd146102495780636cdbbc661461025c57806378e979251461026f5780637a3a0e84146102825780637b3e5e7b14610295578063a035b1fe146102a8578063afb493a4146102bb578063c908b58e146102ce578063d7bb99ba146102e1578063fc0c546a146102e9578063fdf97cb2146102fc575b61011461030f565b50005b341561012257600080fd5b61012a610366565b005b341561013757600080fd5b61013f6103c6565b60405190815260200160405180910390f35b341561015c57600080fd5b61012a60043515156103cc565b341561017457600080fd5b61017c610434565b604051901515815260200160405180910390f35b341561019b57600080fd5b61012a610455565b34156101ae57600080fd5b61017c61045c565b34156101c157600080fd5b61013f61046b565b34156101d457600080fd5b6101dc610471565b604051600160a060020a03909116815260200160405180910390f35b341561020357600080fd5b61012a600160a060020a0360043516610480565b341561022257600080fd5b61012a6104cc565b341561023557600080fd5b61013f600160a060020a03600435166105ff565b341561025457600080fd5b61012a610611565b341561026757600080fd5b6101dc6106b8565b341561027a57600080fd5b61013f6106c7565b341561028d57600080fd5b61013f6106cd565b34156102a057600080fd5b61013f6106d3565b34156102b357600080fd5b61013f6106d9565b34156102c657600080fd5b61012a6106df565b34156102d957600080fd5b6101dc6106f9565b61013f61030f565b34156102f457600080fd5b6101dc61070f565b341561030757600080fd5b6101dc61071e565b60025460009074010000000000000000000000000000000000000000900460ff16151561033b57600080fd5b600354421015801561034e575060045442105b151561035957600080fd5b61036161072d565b905090565b600554600654106103c457600a805460ff19166001179055600054600654600160a060020a03909116907fec3f991caf7857d61663fd1bba1739e04abd4781238508cde554bb849d790c859060405190815260200160405180910390a25b565b60075481565b60006103d6610855565b600054909150600160a060020a038083169116146103f357600080fd5b5060028054911515740100000000000000000000000000000000000000000274ff000000000000000000000000000000000000000019909216919091179055565b60025474010000000000000000000000000000000000000000900460ff1681565b6000600455565b600a5462010000900460ff1681565b60045481565b600154600160a060020a031681565b6000543390600160a060020a0380831691161461049c57600080fd5b506001805473ffffffffffffffffffffffffffffffffffffffff1916600160a060020a0392909216919091179055565b6004546000904210156104de57600080fd5b6104e6610855565b600054909150600160a060020a0380831691161415610564576000600654118015610515575060055460065410155b1561055f57600054600654600160a060020a039091169080156108fc0290604051600060405180830381858888f193505050501561055f57600a805462ff00001916620100001790555b6105fc565b60006006541180156105795750600a5460ff16155b156105fc57600160a060020a03331660009081526009602052604081205411156105fc57600160a060020a033316600081815260096020526040908190205480156108fc029151600060405180830381858888f19350505050156105fc57600160a060020a03331660009081526009602052604081208054600780549091019055555b50565b60096020526000908152604090205481565b60015433600160a060020a0390811691161461062c57600080fd5b6000546001547fe26fc4f197ae4791837ad16b269120b79398e58128899ccdbca7d4ed6a9f203d91600160a060020a039081169116604051600160a060020a039283168152911660208201526040908101905180910390a1600180546000805473ffffffffffffffffffffffffffffffffffffffff19908116600160a060020a03841617909155169055565b600b54600160a060020a031681565b60035481565b60055481565b60065481565b60085481565b60045442106103c457600a805461ff001916610100179055565b600a5463010000009004600160a060020a031681565b600254600160a060020a031681565b600054600160a060020a031681565b600a54600090819081908190610100900460ff161561074b57600080fd5b3492506008548381151561075b57fe5b33600160a060020a03818116600090815260096020526040908190208054890190556006805489019055600a5460025495909404965063010000009093048116945084936324709d509391169186915160e060020a63ffffffff8616028152600160a060020a03938416600482015260248101929092529091166044820152606401600060405180830381600087803b15156107f657600080fd5b6102c65a03f1151561080757600080fd5b50505033600160a060020a03167f5f7675b09617d2c9fa4fd13058ee5877a9538f626b0308816736e83748a45040348460405191825260208201526040908101905180910390a25092915050565b600a5460009063010000009004600160a060020a0316818163e40f09b133836040516020015260405160e060020a63ffffffff8416028152600160a060020a039091166004820152602401602060405180830381600087803b15156108b957600080fd5b6102c65a03f115156108ca57600080fd5b50505060405180519493505050505600a165627a7a7230582016106bfa66bee8c4010a46397c831793d2d4d1644b97a1289511ef6864d1fe620029a165627a7a72305820f94186e1725aee826e40048a42b88dd630ef6854243eb3e5465c11199f6720310029",
  "source": "pragma solidity ^0.4.4;\nimport '../Owned.sol';\nimport './bancor/interfaces/ISmartToken.sol';\nimport { TrusteeFactory } from '../TrusteeFactory.sol';\nimport { Trustee } from '../Trustee.sol';\nimport { EntityFactory } from '../EntityFactory.sol';\nimport { IREO } from './IREO.sol';\nimport { SmartToken } from './bancor/SmartToken.sol';\n\ncontract LiquidRE is Owned {\n\n    bool public status; // disable or enable contract\n    address public entityFactory;\n    address public trusteeFactory;\n    address[] public IREOs;\n    address[] public LRETs;\n\n    event IREOCreated(address ireo);\n\n    function LiquidRE(\n        address _entityFactory,\n        address _trusteeFactory\n    )\n        public\n        Owned(msg.sender)\n    {\n        entityFactory = _entityFactory;\n        trusteeFactory = _trusteeFactory;\n        status = true;\n    }\n\n    modifier active() {\n        require(status);\n        _;\n    }\n\n    function addressEntity(address _address)\n        public\n        view returns (address)\n    {\n        EntityFactory entityFactoryInstance = EntityFactory(entityFactory);\n        require(entityFactoryInstance.isEntityOwner(_address));\n        return entityFactoryInstance.entityAddress(_address);\n    }\n\n    function addressTrustee(address _address)\n        public\n        view returns (address)\n    {\n        TrusteeFactory trusteeFactoryInstance = TrusteeFactory(trusteeFactory);\n        require(trusteeFactoryInstance.isTrusteeOwner(_address));\n        return trusteeFactoryInstance.trusteeAddress(_address);\n    }\n\n    function updateStatus(bool _disable)\n        public\n        ownerOnly\n    {\n        status = _disable;\n    }\n\n    function newIREO(\n        address _trustee,\n        uint256 _startTime,\n        uint256 _endTime,\n        uint256 _goal,\n        uint256 _price\n    )\n        public\n    {\n        address _entity = addressEntity(msg.sender);\n        TrusteeFactory trusteeFactoryInstance = TrusteeFactory(trusteeFactory);\n        require(trusteeFactoryInstance.isTrustee(_trustee));\n        SmartToken token = new SmartToken('', 'LRET', 18);\n        IREO ireo = new IREO(_entity, _trustee, _startTime, _endTime, _goal, _price, token);\n        token.disableTransfers(true);\n        IREOs.push(ireo);\n        Trustee trusteeContract = Trustee(_trustee);\n        trusteeContract.addIREO(ireo);\n        IREOCreated(ireo);\n    }\n\n    function sendIREOToken(\n        ISmartToken _token,\n        uint256 _amount,\n        address _to\n    )\n        public\n    {\n        IREO ireo = IREO(msg.sender);\n        require(ireo.token() == _token);\n        SmartToken token = SmartToken(_token);\n        token.issue(_to, _amount);\n    }\n\n    function IREOsAddresses()\n        public\n        view returns(address[])\n    {\n        return IREOs;\n    }\n\n}\n",
  "sourcePath": "/Users/chanopalis/Documents/ethereum-contracts/smart-law-contracts/DexRE-Contract/contracts/LiquidRE/LiquidRE.sol",
  "schemaVersion": "1.0.0",
  "updatedAt": "2018-02-28T18:08:48.629Z"
}