{
  "contractName": "Loan",
  "abi": [
    {
      "constant": true,
      "inputs": [],
      "name": "startDate",
      "outputs": [
        {
          "name": "",
          "type": "uint256"
        }
      ],
      "payable": false,
      "stateMutability": "view",
      "type": "function"
    },
    {
      "constant": true,
      "inputs": [],
      "name": "isDue",
      "outputs": [
        {
          "name": "",
          "type": "bool"
        }
      ],
      "payable": false,
      "stateMutability": "view",
      "type": "function"
    },
    {
      "constant": true,
      "inputs": [],
      "name": "amountDue",
      "outputs": [
        {
          "name": "",
          "type": "uint256"
        }
      ],
      "payable": false,
      "stateMutability": "view",
      "type": "function"
    },
    {
      "constant": false,
      "inputs": [],
      "name": "deactivate",
      "outputs": [],
      "payable": false,
      "stateMutability": "nonpayable",
      "type": "function"
    },
    {
      "constant": true,
      "inputs": [],
      "name": "trust",
      "outputs": [
        {
          "name": "",
          "type": "address"
        }
      ],
      "payable": false,
      "stateMutability": "view",
      "type": "function"
    },
    {
      "constant": true,
      "inputs": [],
      "name": "dueDate",
      "outputs": [
        {
          "name": "",
          "type": "uint256"
        }
      ],
      "payable": false,
      "stateMutability": "view",
      "type": "function"
    },
    {
      "constant": false,
      "inputs": [],
      "name": "makeOverDue",
      "outputs": [],
      "payable": false,
      "stateMutability": "nonpayable",
      "type": "function"
    },
    {
      "constant": true,
      "inputs": [],
      "name": "amount",
      "outputs": [
        {
          "name": "",
          "type": "uint256"
        }
      ],
      "payable": false,
      "stateMutability": "view",
      "type": "function"
    },
    {
      "constant": true,
      "inputs": [],
      "name": "getSignatures",
      "outputs": [
        {
          "name": "",
          "type": "address[]"
        }
      ],
      "payable": false,
      "stateMutability": "view",
      "type": "function"
    },
    {
      "constant": true,
      "inputs": [],
      "name": "countSignatures",
      "outputs": [
        {
          "name": "",
          "type": "uint256"
        }
      ],
      "payable": false,
      "stateMutability": "view",
      "type": "function"
    },
    {
      "constant": true,
      "inputs": [],
      "name": "interest",
      "outputs": [
        {
          "name": "",
          "type": "uint256"
        }
      ],
      "payable": false,
      "stateMutability": "view",
      "type": "function"
    },
    {
      "constant": true,
      "inputs": [],
      "name": "disabled",
      "outputs": [
        {
          "name": "",
          "type": "bool"
        }
      ],
      "payable": false,
      "stateMutability": "view",
      "type": "function"
    },
    {
      "constant": false,
      "inputs": [
        {
          "name": "_signature",
          "type": "address"
        }
      ],
      "name": "sign",
      "outputs": [],
      "payable": false,
      "stateMutability": "nonpayable",
      "type": "function"
    },
    {
      "inputs": [
        {
          "name": "_trust",
          "type": "address"
        },
        {
          "name": "_amount",
          "type": "uint256"
        },
        {
          "name": "_interest",
          "type": "uint256"
        },
        {
          "name": "secondsBeforeDue",
          "type": "uint256"
        },
        {
          "name": "_signature",
          "type": "address"
        }
      ],
      "payable": false,
      "stateMutability": "nonpayable",
      "type": "constructor"
    }
  ],
  "bytecode": "0x6060604052341561000f57600080fd5b60405160a0806106b7833981016040528080519190602001805191906020018051919060200180519190602001805160008054600160a060020a031916600160a060020a0389161760a060020a60ff021916905542600681905560028790556004869055840160055560018054919350915080820161008e83826100d3565b5060009182526020909120018054600160a060020a031916600160a060020a03831617905560045460025461271091020460025401600381905550505050505061011d565b8154818355818115116100f7576000838152602090206100f79181019083016100fc565b505050565b61011a91905b808211156101165760008155600101610102565b5090565b90565b61058b8061012c6000396000f300606060405236156100c25763ffffffff7c01000000000000000000000000000000000000000000000000000000006000350416630b97bc8681146100c757806324975e55146100ec5780632f1956801461011357806351b42b00146101265780636f9fdd661461013b578063786716fe1461016a5780639580f1be1461017d578063aa8c217c14610190578063ad6f80ff146101a3578063bc5ffcc614610209578063c392f7661461021c578063ee0708051461022f578063f71be83714610242575b600080fd5b34156100d257600080fd5b6100da610261565b60405190815260200160405180910390f35b34156100f757600080fd5b6100ff610267565b604051901515815260200160405180910390f35b341561011e57600080fd5b6100da610271565b341561013157600080fd5b610139610277565b005b341561014657600080fd5b61014e6102c9565b604051600160a060020a03909116815260200160405180910390f35b341561017557600080fd5b6100da6102d8565b341561018857600080fd5b6101396102de565b341561019b57600080fd5b6100da6102e5565b34156101ae57600080fd5b6101b66102eb565b60405160208082528190810183818151815260200191508051906020019060200280838360005b838110156101f55780820151838201526020016101dd565b505050509050019250505060405180910390f35b341561021457600080fd5b6100da610353565b341561022757600080fd5b6100da610359565b341561023a57600080fd5b6100ff61035f565b341561024d57600080fd5b610139600160a060020a0360043516610380565b60065481565b6005544210155b90565b60035481565b60005433600160a060020a0390811691161461029257600080fd5b6000805474ff0000000000000000000000000000000000000000191674010000000000000000000000000000000000000000179055565b600054600160a060020a031681565b60055481565b6000600555565b60025481565b6102f3610506565b600180548060200260200160405190810160405280929190818152602001828054801561034957602002820191906000526020600020905b8154600160a060020a0316815260019091019060200180831161032b575b5050505050905090565b60015490565b60045481565b60005474010000000000000000000000000000000000000000900460ff1681565b60005433600160a060020a0390811691161461039b57600080fd5b60005474010000000000000000000000000000000000000000900460ff16156103c357600080fd5b73__UtilsLib______________________________638782be356001836000604051602001526040518363ffffffff167c0100000000000000000000000000000000000000000000000000000000028152600401808060200183600160a060020a0316600160a060020a03168152602001828103825284818154815260200191508054801561047b57602002820191906000526020600020905b8154600160a060020a0316815260019091019060200180831161045d575b5050935050505060206040518083038186803b151561049957600080fd5b6102c65a03f415156104aa57600080fd5b50505060405180519050156104be57600080fd5b600180548082016104cf8382610518565b5060009182526020909120018054600160a060020a03831673ffffffffffffffffffffffffffffffffffffffff1990911617905550565b60206040519081016040526000815290565b81548183558181151161053c5760008381526020902061053c918101908301610541565b505050565b61026e91905b8082111561055b5760008155600101610547565b50905600a165627a7a7230582098bf8d32a058bd65d80f2ab05b6faa0d49ab1b16966d48abcd3448f0e949a1dc0029",
  "source": "pragma solidity ^0.4.4;\nimport './Signable.sol';\n\ncontract Loan is Signable {\n\n  uint public amount; // wei\n  uint public amountDue;\n  uint public interest;\n  uint public dueDate;\n  uint public startDate;\n\n  function Loan(address _trust, uint _amount, uint _interest, uint256 secondsBeforeDue, address _signature)\n      public\n      Signable(_trust)\n  {\n      startDate = now;\n      amount = _amount;\n      interest = _interest; // multiplied by 100 already\n      dueDate = now + (secondsBeforeDue * 1 seconds);\n      signatures.push(_signature);\n      amountDue = amount + ((amount * interest) / 10000);\n  }\n\n  function isDue()\n      public\n      view returns (bool)\n  {\n      return now >= dueDate;\n  }\n\n  /**\n   * should be removed for the purpose of testing\n   */\n  function makeOverDue()\n      public\n  {\n      dueDate = 0;\n  }\n\n}\n",
  "sourcePath": "/Users/chanopalis/Documents/ethereum-contracts/smart-law-contracts/DexRE-Contract/contracts/Loan.sol",
  "schemaVersion": "1.0.0",
  "updatedAt": "2018-02-28T18:05:46.276Z"
}