{
  "contractName": "Loan",
  "abi": [
    {
      "constant": true,
      "inputs": [],
      "name": "startDate",
      "outputs": [
        {
          "name": "",
          "type": "uint256"
        }
      ],
      "payable": false,
      "stateMutability": "view",
      "type": "function"
    },
    {
      "constant": true,
      "inputs": [],
      "name": "isDue",
      "outputs": [
        {
          "name": "",
          "type": "bool"
        }
      ],
      "payable": false,
      "stateMutability": "view",
      "type": "function"
    },
    {
      "constant": true,
      "inputs": [],
      "name": "amountDue",
      "outputs": [
        {
          "name": "",
          "type": "uint256"
        }
      ],
      "payable": false,
      "stateMutability": "view",
      "type": "function"
    },
    {
      "constant": false,
      "inputs": [],
      "name": "deactivate",
      "outputs": [],
      "payable": false,
      "stateMutability": "nonpayable",
      "type": "function"
    },
    {
      "constant": true,
      "inputs": [],
      "name": "trust",
      "outputs": [
        {
          "name": "",
          "type": "address"
        }
      ],
      "payable": false,
      "stateMutability": "view",
      "type": "function"
    },
    {
      "constant": true,
      "inputs": [],
      "name": "dueDate",
      "outputs": [
        {
          "name": "",
          "type": "uint256"
        }
      ],
      "payable": false,
      "stateMutability": "view",
      "type": "function"
    },
    {
      "constant": false,
      "inputs": [],
      "name": "makeOverDue",
      "outputs": [],
      "payable": false,
      "stateMutability": "nonpayable",
      "type": "function"
    },
    {
      "constant": true,
      "inputs": [],
      "name": "amount",
      "outputs": [
        {
          "name": "",
          "type": "uint256"
        }
      ],
      "payable": false,
      "stateMutability": "view",
      "type": "function"
    },
    {
      "constant": true,
      "inputs": [],
      "name": "getSignatures",
      "outputs": [
        {
          "name": "",
          "type": "address[]"
        }
      ],
      "payable": false,
      "stateMutability": "view",
      "type": "function"
    },
    {
      "constant": true,
      "inputs": [],
      "name": "countSignatures",
      "outputs": [
        {
          "name": "",
          "type": "uint256"
        }
      ],
      "payable": false,
      "stateMutability": "view",
      "type": "function"
    },
    {
      "constant": true,
      "inputs": [],
      "name": "interest",
      "outputs": [
        {
          "name": "",
          "type": "uint256"
        }
      ],
      "payable": false,
      "stateMutability": "view",
      "type": "function"
    },
    {
      "constant": true,
      "inputs": [],
      "name": "disabled",
      "outputs": [
        {
          "name": "",
          "type": "bool"
        }
      ],
      "payable": false,
      "stateMutability": "view",
      "type": "function"
    },
    {
      "constant": false,
      "inputs": [
        {
          "name": "_signature",
          "type": "address"
        }
      ],
      "name": "sign",
      "outputs": [],
      "payable": false,
      "stateMutability": "nonpayable",
      "type": "function"
    },
    {
      "inputs": [
        {
          "name": "_trust",
          "type": "address"
        },
        {
          "name": "_amount",
          "type": "uint256"
        },
        {
          "name": "_interest",
          "type": "uint256"
        },
        {
          "name": "secondsBeforeDue",
          "type": "uint256"
        },
        {
          "name": "_signature",
          "type": "address"
        }
      ],
      "payable": false,
      "stateMutability": "nonpayable",
      "type": "constructor"
    }
  ],
  "bytecode": "0x6060604052341561000f57600080fd5b60405160a080610739833981016040528080519190602001805191906020018051919060200180519190602001805160008054600160a060020a031916600160a060020a0389161760a060020a60ff021916905542600681905560028790556004869055840160055560018054919350915080820161008e83826100d3565b5060009182526020909120018054600160a060020a031916600160a060020a03831617905560045460025461271091020460025401600381905550505050505061011d565b8154818355818115116100f7576000838152602090206100f79181019083016100fc565b505050565b61011a91905b808211156101165760008155600101610102565b5090565b90565b61060d8061012c6000396000f300606060405236156100c25763ffffffff7c01000000000000000000000000000000000000000000000000000000006000350416630b97bc8681146100c757806324975e55146100ec5780632f1956801461011357806351b42b00146101265780636f9fdd661461013b578063786716fe146101775780639580f1be1461018a578063aa8c217c1461019d578063ad6f80ff146101b0578063bc5ffcc614610216578063c392f76614610229578063ee0708051461023c578063f71be8371461024f575b600080fd5b34156100d257600080fd5b6100da61027b565b60405190815260200160405180910390f35b34156100f757600080fd5b6100ff610281565b604051901515815260200160405180910390f35b341561011e57600080fd5b6100da61028b565b341561013157600080fd5b610139610291565b005b341561014657600080fd5b61014e6102f0565b60405173ffffffffffffffffffffffffffffffffffffffff909116815260200160405180910390f35b341561018257600080fd5b6100da61030c565b341561019557600080fd5b610139610312565b34156101a857600080fd5b6100da610319565b34156101bb57600080fd5b6101c361031f565b60405160208082528190810183818151815260200191508051906020019060200280838360005b838110156102025780820151838201526020016101ea565b505050509050019250505060405180910390f35b341561022157600080fd5b6100da610394565b341561023457600080fd5b6100da61039a565b341561024757600080fd5b6100ff6103a0565b341561025a57600080fd5b61013973ffffffffffffffffffffffffffffffffffffffff600435166103c1565b60065481565b6005544210155b90565b60035481565b6000543373ffffffffffffffffffffffffffffffffffffffff9081169116146102b957600080fd5b6000805474ff0000000000000000000000000000000000000000191674010000000000000000000000000000000000000000179055565b60005473ffffffffffffffffffffffffffffffffffffffff1681565b60055481565b6000600555565b60025481565b610327610588565b600180548060200260200160405190810160405280929190818152602001828054801561038a57602002820191906000526020600020905b815473ffffffffffffffffffffffffffffffffffffffff16815260019091019060200180831161035f575b5050505050905090565b60015490565b60045481565b60005474010000000000000000000000000000000000000000900460ff1681565b6000543373ffffffffffffffffffffffffffffffffffffffff9081169116146103e957600080fd5b60005474010000000000000000000000000000000000000000900460ff161561041157600080fd5b73__UtilsLib______________________________638782be356001836000604051602001526040518363ffffffff167c010000000000000000000000000000000000000000000000000000000002815260040180806020018373ffffffffffffffffffffffffffffffffffffffff1673ffffffffffffffffffffffffffffffffffffffff16815260200182810382528481815481526020019150805480156104f057602002820191906000526020600020905b815473ffffffffffffffffffffffffffffffffffffffff1681526001909101906020018083116104c5575b5050935050505060206040518083038186803b151561050e57600080fd5b6102c65a03f4151561051f57600080fd5b505050604051805190501561053357600080fd5b60018054808201610544838261059a565b506000918252602090912001805473ffffffffffffffffffffffffffffffffffffffff831673ffffffffffffffffffffffffffffffffffffffff1990911617905550565b60206040519081016040526000815290565b8154818355818115116105be576000838152602090206105be9181019083016105c3565b505050565b61028891905b808211156105dd57600081556001016105c9565b50905600a165627a7a723058207b39c4e04c97d847c2c93574a5bb5025190ff1cbdaa5947cf473cc337e6a04dc0029",
  "source": "pragma solidity ^0.4.4;\nimport './Signable.sol';\n\ncontract Loan is Signable {\n\n  uint public amount; // wei\n  uint public amountDue;\n  uint public interest;\n  uint public dueDate;\n  uint public startDate;\n\n  function Loan(address _trust, uint _amount, uint _interest, uint256 secondsBeforeDue, address _signature)\n      public\n      Signable(_trust)\n  {\n      startDate = now;\n      amount = _amount;\n      interest = _interest; // multiplied by 100 already\n      dueDate = now + (secondsBeforeDue * 1 seconds);\n      signatures.push(_signature);\n      amountDue = amount + ((amount * interest) / 10000);\n  }\n\n  function isDue()\n      public\n      view returns (bool)\n  {\n      return now >= dueDate;\n  }\n\n  /**\n   * should be removed for the purpose of testing\n   */\n  function makeOverDue()\n      public\n  {\n      dueDate = 0;\n  }\n\n}\n",
  "sourcePath": "/Users/chanopalis/Documents/ethereum-contracts/smart-law-contracts/DexRE-Contract/contracts/Loan.sol",
  "schemaVersion": "1.0.0",
  "updatedAt": "2018-03-02T16:04:52.257Z"
}