{
  "contractName": "LoanableTrust",
  "abi": [
    {
      "constant": true,
      "inputs": [],
      "name": "loanAmountDue",
      "outputs": [
        {
          "name": "",
          "type": "uint256"
        }
      ],
      "payable": false,
      "stateMutability": "view",
      "type": "function"
    },
    {
      "constant": true,
      "inputs": [],
      "name": "loanAmount",
      "outputs": [
        {
          "name": "",
          "type": "uint256"
        }
      ],
      "payable": false,
      "stateMutability": "view",
      "type": "function"
    },
    {
      "constant": true,
      "inputs": [],
      "name": "activeLoan",
      "outputs": [
        {
          "name": "",
          "type": "address"
        }
      ],
      "payable": false,
      "stateMutability": "view",
      "type": "function"
    },
    {
      "constant": true,
      "inputs": [],
      "name": "lender",
      "outputs": [
        {
          "name": "",
          "type": "address"
        }
      ],
      "payable": false,
      "stateMutability": "view",
      "type": "function"
    },
    {
      "constant": true,
      "inputs": [],
      "name": "loanProposals",
      "outputs": [
        {
          "name": "",
          "type": "address[]"
        }
      ],
      "payable": false,
      "stateMutability": "view",
      "type": "function"
    },
    {
      "constant": true,
      "inputs": [],
      "name": "loanFunded",
      "outputs": [
        {
          "name": "",
          "type": "bool"
        }
      ],
      "payable": false,
      "stateMutability": "view",
      "type": "function"
    },
    {
      "inputs": [],
      "payable": false,
      "stateMutability": "nonpayable",
      "type": "constructor"
    },
    {
      "anonymous": false,
      "inputs": [
        {
          "indexed": false,
          "name": "loan",
          "type": "address"
        }
      ],
      "name": "LoanProposalAdded",
      "type": "event"
    },
    {
      "anonymous": false,
      "inputs": [
        {
          "indexed": false,
          "name": "loan",
          "type": "address"
        }
      ],
      "name": "LoanCreated",
      "type": "event"
    }
  ],
  "bytecode": "0x6060604052341561000f57600080fd5b60018054600160a060020a03199081169091556002805490911690556104108061003a6000396000f300606060405236156100755763ffffffff7c010000000000000000000000000000000000000000000000000000000060003504166305545d59811461007a5780639d585f7f1461009f578063b2700a88146100b2578063bcead63e146100ee578063c6dd8b0214610101578063cbadca6f14610167575b600080fd5b341561008557600080fd5b61008d61018e565b60405190815260200160405180910390f35b34156100aa57600080fd5b61008d61024c565b34156100bd57600080fd5b6100c56102df565b60405173ffffffffffffffffffffffffffffffffffffffff909116815260200160405180910390f35b34156100f957600080fd5b6100c56102fb565b341561010c57600080fd5b610114610317565b60405160208082528190810183818151815260200191508051906020019060200280838360005b8381101561015357808201518382015260200161013b565b505050509050019250505060405180910390f35b341561017257600080fd5b61017a61038c565b604051901515815260200160405180910390f35b600154600090819073ffffffffffffffffffffffffffffffffffffffff1615610243575060015473ffffffffffffffffffffffffffffffffffffffff1680632f1956806000604051602001526040518163ffffffff167c0100000000000000000000000000000000000000000000000000000000028152600401602060405180830381600087803b151561022157600080fd5b6102c65a03f1151561023257600080fd5b505050604051805190509150610248565b600091505b5090565b600154600090819073ffffffffffffffffffffffffffffffffffffffff1615610243575060015473ffffffffffffffffffffffffffffffffffffffff168063aa8c217c6000604051602001526040518163ffffffff167c0100000000000000000000000000000000000000000000000000000000028152600401602060405180830381600087803b151561022157600080fd5b60015473ffffffffffffffffffffffffffffffffffffffff1681565b60025473ffffffffffffffffffffffffffffffffffffffff1681565b61031f6103d2565b600080548060200260200160405190810160405280929190818152602001828054801561038257602002820191906000526020600020905b815473ffffffffffffffffffffffffffffffffffffffff168152600190910190602001808311610357575b5050505050905090565b60025460009073ffffffffffffffffffffffffffffffffffffffff16158015906103cd575060015473ffffffffffffffffffffffffffffffffffffffff1615155b905090565b602060405190810160405260008152905600a165627a7a72305820b86c990697b6594597c7771d9a0b6a9f95e700f2f93795c521a4ee0eca0736d60029",
  "source": "pragma solidity ^0.4.4;\nimport { Loan } from './Loan.sol';\n\ncontract LoanableTrust {\n\n    address[] loanProposalList;\n    address public activeLoan;\n    address public lender; // entity address that funds the loan\n\n    event LoanProposalAdded(address loan);\n    event LoanCreated(address loan);\n\n    function LoanableTrust()\n        public\n    {\n        activeLoan = 0x0;\n        lender = 0x0;\n    }\n\n    modifier noActiveLoan() {\n        require(activeLoan == 0x0);\n        _;\n    }\n\n    modifier hasActiveLoan() {\n        require(activeLoan != 0x0);\n        _;\n    }\n\n    function loanAmount()\n        public\n        view\n        returns (uint)\n    {\n        if(activeLoan != 0x0) {\n            Loan loan = Loan(activeLoan);\n            return loan.amount();\n        }\n        else {\n            return 0;\n        }\n    }\n\n    function loanAmountDue()\n        public\n        view\n        returns (uint)\n    {\n        if(activeLoan != 0x0) {\n            Loan loan = Loan(activeLoan);\n            return loan.amountDue();\n        }\n        else {\n            return 0;\n        }\n    }\n\n    function clearLoanProposals()\n        internal\n        hasActiveLoan\n    {\n        address[] memory emptyAddressArray;\n        loanProposalList = emptyAddressArray;\n    }\n\n    function loanFunded()\n        public\n        view\n        returns (bool)\n    {\n        return ( lender != 0x0 && activeLoan != 0x0 );\n    }\n\n    function newLoan(address _loan)\n        internal\n        noActiveLoan\n    {\n        loanProposalList.push(_loan);\n        LoanProposalAdded(_loan);\n    }\n\n    function setActiveLoan(address _loan)\n        internal\n        noActiveLoan\n    {\n        activeLoan = _loan;\n        address[] memory emptyAddressArray;\n        loanProposalList = emptyAddressArray;\n        LoanCreated(_loan);\n    }\n\n    function loanProposals()\n        public\n        view returns (address[])\n    {\n        return loanProposalList;\n    }\n\n}\n",
  "sourcePath": "/Users/chanopalis/Documents/ethereum-contracts/smart-law-contracts/DexRE-Contract/contracts/LoanableTrust.sol",
  "schemaVersion": "1.0.0",
  "updatedAt": "2018-03-02T16:04:52.257Z"
}