{
  "contractName": "LoanableTrust",
  "abi": [
    {
      "constant": true,
      "inputs": [],
      "name": "loanAmountDue",
      "outputs": [
        {
          "name": "",
          "type": "uint256"
        }
      ],
      "payable": false,
      "stateMutability": "view",
      "type": "function"
    },
    {
      "constant": true,
      "inputs": [],
      "name": "loanAmount",
      "outputs": [
        {
          "name": "",
          "type": "uint256"
        }
      ],
      "payable": false,
      "stateMutability": "view",
      "type": "function"
    },
    {
      "constant": true,
      "inputs": [],
      "name": "activeLoan",
      "outputs": [
        {
          "name": "",
          "type": "address"
        }
      ],
      "payable": false,
      "stateMutability": "view",
      "type": "function"
    },
    {
      "constant": true,
      "inputs": [],
      "name": "lender",
      "outputs": [
        {
          "name": "",
          "type": "address"
        }
      ],
      "payable": false,
      "stateMutability": "view",
      "type": "function"
    },
    {
      "constant": true,
      "inputs": [],
      "name": "loanProposals",
      "outputs": [
        {
          "name": "",
          "type": "address[]"
        }
      ],
      "payable": false,
      "stateMutability": "view",
      "type": "function"
    },
    {
      "constant": true,
      "inputs": [],
      "name": "loanFunded",
      "outputs": [
        {
          "name": "",
          "type": "bool"
        }
      ],
      "payable": false,
      "stateMutability": "view",
      "type": "function"
    },
    {
      "inputs": [],
      "payable": false,
      "stateMutability": "nonpayable",
      "type": "constructor"
    },
    {
      "anonymous": false,
      "inputs": [
        {
          "indexed": false,
          "name": "loan",
          "type": "address"
        }
      ],
      "name": "LoanProposalAdded",
      "type": "event"
    },
    {
      "anonymous": false,
      "inputs": [
        {
          "indexed": false,
          "name": "loan",
          "type": "address"
        }
      ],
      "name": "LoanCreated",
      "type": "event"
    }
  ],
  "bytecode": "0x6060604052341561000f57600080fd5b60018054600160a060020a03199081169091556002805490911690556103438061003a6000396000f3006060604052361561005c5763ffffffff60e060020a60003504166305545d5981146100615780639d585f7f14610086578063b2700a8814610099578063bcead63e146100c8578063c6dd8b02146100db578063cbadca6f14610141575b600080fd5b341561006c57600080fd5b610074610168565b60405190815260200160405180910390f35b341561009157600080fd5b6100746101f3565b34156100a457600080fd5b6100ac610253565b604051600160a060020a03909116815260200160405180910390f35b34156100d357600080fd5b6100ac610262565b34156100e657600080fd5b6100ee610271565b60405160208082528190810183818151815260200191508051906020019060200280838360005b8381101561012d578082015183820152602001610115565b505050509050019250505060405180910390f35b341561014c57600080fd5b6101546102d9565b604051901515815260200160405180910390f35b6001546000908190600160a060020a0316156101ea5750600154600160a060020a031680632f1956806000604051602001526040518163ffffffff1660e060020a028152600401602060405180830381600087803b15156101c857600080fd5b6102c65a03f115156101d957600080fd5b5050506040518051905091506101ef565b600091505b5090565b6001546000908190600160a060020a0316156101ea5750600154600160a060020a03168063aa8c217c6000604051602001526040518163ffffffff1660e060020a028152600401602060405180830381600087803b15156101c857600080fd5b600154600160a060020a031681565b600254600160a060020a031681565b610279610305565b60008054806020026020016040519081016040528092919081815260200182805480156102cf57602002820191906000526020600020905b8154600160a060020a031681526001909101906020018083116102b1575b5050505050905090565b600254600090600160a060020a0316158015906103005750600154600160a060020a031615155b905090565b602060405190810160405260008152905600a165627a7a7230582032da4c2965667b152efe76206bb9938e753d6f73579432c5b107b07b9cee41950029",
  "source": "pragma solidity ^0.4.4;\nimport { Loan } from './Loan.sol';\n\ncontract LoanableTrust {\n\n    address[] loanProposalList;\n    address public activeLoan;\n    address public lender; // entity address that funds the loan\n\n    event LoanProposalAdded(address loan);\n    event LoanCreated(address loan);\n\n    function LoanableTrust()\n        public\n    {\n        activeLoan = 0x0;\n        lender = 0x0;\n    }\n\n    modifier noActiveLoan() {\n        require(activeLoan == 0x0);\n        _;\n    }\n\n    modifier hasActiveLoan() {\n        require(activeLoan != 0x0);\n        _;\n    }\n\n    function loanAmount()\n        public\n        view\n        returns (uint)\n    {\n        if(activeLoan != 0x0) {\n            Loan loan = Loan(activeLoan);\n            return loan.amount();\n        }\n        else {\n            return 0;\n        }\n    }\n\n    function loanAmountDue()\n        public\n        view\n        returns (uint)\n    {\n        if(activeLoan != 0x0) {\n            Loan loan = Loan(activeLoan);\n            return loan.amountDue();\n        }\n        else {\n            return 0;\n        }\n    }\n\n    function clearLoanProposals()\n        internal\n        hasActiveLoan\n    {\n        address[] memory emptyAddressArray;\n        loanProposalList = emptyAddressArray;\n    }\n\n    function loanFunded()\n        public\n        view\n        returns (bool)\n    {\n        return ( lender != 0x0 && activeLoan != 0x0 );\n    }\n\n    function newLoan(address _loan)\n        internal\n        noActiveLoan\n    {\n        loanProposalList.push(_loan);\n        LoanProposalAdded(_loan);\n    }\n\n    function setActiveLoan(address _loan)\n        internal\n        noActiveLoan\n    {\n        activeLoan = _loan;\n        address[] memory emptyAddressArray;\n        loanProposalList = emptyAddressArray;\n        LoanCreated(_loan);\n    }\n\n    function loanProposals()\n        public\n        view returns (address[])\n    {\n        return loanProposalList;\n    }\n\n}\n",
  "sourcePath": "/Users/chanopalis/Documents/ethereum-contracts/smart-law-contracts/DexRE-Contract/contracts/LoanableTrust.sol",
  "schemaVersion": "1.0.0",
  "updatedAt": "2018-02-28T18:05:46.277Z"
}