{
  "contractName": "LRET",
  "abi": [
    {
      "constant": true,
      "inputs": [],
      "name": "name",
      "outputs": [
        {
          "name": "",
          "type": "string"
        }
      ],
      "payable": false,
      "stateMutability": "view",
      "type": "function"
    },
    {
      "constant": false,
      "inputs": [
        {
          "name": "_spender",
          "type": "address"
        },
        {
          "name": "_value",
          "type": "uint256"
        }
      ],
      "name": "approve",
      "outputs": [
        {
          "name": "success",
          "type": "bool"
        }
      ],
      "payable": false,
      "stateMutability": "nonpayable",
      "type": "function"
    },
    {
      "constant": false,
      "inputs": [
        {
          "name": "_disable",
          "type": "bool"
        }
      ],
      "name": "disableTransfers",
      "outputs": [],
      "payable": false,
      "stateMutability": "nonpayable",
      "type": "function"
    },
    {
      "constant": true,
      "inputs": [],
      "name": "totalSupply",
      "outputs": [
        {
          "name": "",
          "type": "uint256"
        }
      ],
      "payable": false,
      "stateMutability": "view",
      "type": "function"
    },
    {
      "constant": false,
      "inputs": [
        {
          "name": "_from",
          "type": "address"
        },
        {
          "name": "_to",
          "type": "address"
        },
        {
          "name": "_value",
          "type": "uint256"
        }
      ],
      "name": "transferFrom",
      "outputs": [
        {
          "name": "success",
          "type": "bool"
        }
      ],
      "payable": false,
      "stateMutability": "nonpayable",
      "type": "function"
    },
    {
      "constant": true,
      "inputs": [],
      "name": "decimals",
      "outputs": [
        {
          "name": "",
          "type": "uint8"
        }
      ],
      "payable": false,
      "stateMutability": "view",
      "type": "function"
    },
    {
      "constant": true,
      "inputs": [],
      "name": "version",
      "outputs": [
        {
          "name": "",
          "type": "string"
        }
      ],
      "payable": false,
      "stateMutability": "view",
      "type": "function"
    },
    {
      "constant": true,
      "inputs": [],
      "name": "standard",
      "outputs": [
        {
          "name": "",
          "type": "string"
        }
      ],
      "payable": false,
      "stateMutability": "view",
      "type": "function"
    },
    {
      "constant": false,
      "inputs": [
        {
          "name": "_token",
          "type": "address"
        },
        {
          "name": "_to",
          "type": "address"
        },
        {
          "name": "_amount",
          "type": "uint256"
        }
      ],
      "name": "withdrawTokens",
      "outputs": [],
      "payable": false,
      "stateMutability": "nonpayable",
      "type": "function"
    },
    {
      "constant": true,
      "inputs": [
        {
          "name": "",
          "type": "address"
        }
      ],
      "name": "balanceOf",
      "outputs": [
        {
          "name": "",
          "type": "uint256"
        }
      ],
      "payable": false,
      "stateMutability": "view",
      "type": "function"
    },
    {
      "constant": false,
      "inputs": [],
      "name": "acceptOwnership",
      "outputs": [],
      "payable": false,
      "stateMutability": "nonpayable",
      "type": "function"
    },
    {
      "constant": false,
      "inputs": [
        {
          "name": "_to",
          "type": "address"
        },
        {
          "name": "_amount",
          "type": "uint256"
        }
      ],
      "name": "issue",
      "outputs": [],
      "payable": false,
      "stateMutability": "nonpayable",
      "type": "function"
    },
    {
      "constant": true,
      "inputs": [],
      "name": "owner",
      "outputs": [
        {
          "name": "",
          "type": "address"
        }
      ],
      "payable": false,
      "stateMutability": "view",
      "type": "function"
    },
    {
      "constant": true,
      "inputs": [],
      "name": "symbol",
      "outputs": [
        {
          "name": "",
          "type": "string"
        }
      ],
      "payable": false,
      "stateMutability": "view",
      "type": "function"
    },
    {
      "constant": false,
      "inputs": [
        {
          "name": "_from",
          "type": "address"
        },
        {
          "name": "_amount",
          "type": "uint256"
        }
      ],
      "name": "destroy",
      "outputs": [],
      "payable": false,
      "stateMutability": "nonpayable",
      "type": "function"
    },
    {
      "constant": false,
      "inputs": [
        {
          "name": "_to",
          "type": "address"
        },
        {
          "name": "_value",
          "type": "uint256"
        }
      ],
      "name": "transfer",
      "outputs": [
        {
          "name": "success",
          "type": "bool"
        }
      ],
      "payable": false,
      "stateMutability": "nonpayable",
      "type": "function"
    },
    {
      "constant": true,
      "inputs": [],
      "name": "transfersEnabled",
      "outputs": [
        {
          "name": "",
          "type": "bool"
        }
      ],
      "payable": false,
      "stateMutability": "view",
      "type": "function"
    },
    {
      "constant": true,
      "inputs": [],
      "name": "newOwner",
      "outputs": [
        {
          "name": "",
          "type": "address"
        }
      ],
      "payable": false,
      "stateMutability": "view",
      "type": "function"
    },
    {
      "constant": true,
      "inputs": [
        {
          "name": "",
          "type": "address"
        },
        {
          "name": "",
          "type": "address"
        }
      ],
      "name": "allowance",
      "outputs": [
        {
          "name": "",
          "type": "uint256"
        }
      ],
      "payable": false,
      "stateMutability": "view",
      "type": "function"
    },
    {
      "constant": false,
      "inputs": [
        {
          "name": "_newOwner",
          "type": "address"
        }
      ],
      "name": "transferOwnership",
      "outputs": [],
      "payable": false,
      "stateMutability": "nonpayable",
      "type": "function"
    },
    {
      "inputs": [],
      "payable": false,
      "stateMutability": "nonpayable",
      "type": "constructor"
    },
    {
      "anonymous": false,
      "inputs": [
        {
          "indexed": false,
          "name": "_token",
          "type": "address"
        }
      ],
      "name": "NewSmartToken",
      "type": "event"
    },
    {
      "anonymous": false,
      "inputs": [
        {
          "indexed": false,
          "name": "_amount",
          "type": "uint256"
        }
      ],
      "name": "Issuance",
      "type": "event"
    },
    {
      "anonymous": false,
      "inputs": [
        {
          "indexed": false,
          "name": "_amount",
          "type": "uint256"
        }
      ],
      "name": "Destruction",
      "type": "event"
    },
    {
      "anonymous": false,
      "inputs": [
        {
          "indexed": true,
          "name": "_from",
          "type": "address"
        },
        {
          "indexed": true,
          "name": "_to",
          "type": "address"
        },
        {
          "indexed": false,
          "name": "_value",
          "type": "uint256"
        }
      ],
      "name": "Transfer",
      "type": "event"
    },
    {
      "anonymous": false,
      "inputs": [
        {
          "indexed": true,
          "name": "_owner",
          "type": "address"
        },
        {
          "indexed": true,
          "name": "_spender",
          "type": "address"
        },
        {
          "indexed": false,
          "name": "_value",
          "type": "uint256"
        }
      ],
      "name": "Approval",
      "type": "event"
    },
    {
      "anonymous": false,
      "inputs": [
        {
          "indexed": false,
          "name": "_prevOwner",
          "type": "address"
        },
        {
          "indexed": false,
          "name": "_newOwner",
          "type": "address"
        }
      ],
      "name": "OwnerUpdate",
      "type": "event"
    }
  ],
  "bytecode": "0x606060405260408051908101604052600981527f546f6b656e20302e310000000000000000000000000000000000000000000000602082015260029080516200004d92916020019062000303565b5060206040519081016040526000815260039080516200007292916020019062000303565b5060206040519081016040526000815260049080516200009792916020019062000303565b506005805460ff19169055600060065560408051908101604052600381527f302e33000000000000000000000000000000000000000000000000000000000060208201526009908051620000f092916020019062000303565b50600a805460ff1916600117905534156200010a57600080fd5b604080519081016040908152600e82527f4c6971756964524520546f6b656e00000000000000000000000000000000000060208301528051908101604052600481527f4c52455400000000000000000000000000000000000000000000000000000000602082015260008054600160a060020a03191633600160a060020a0316178155601290839083908390825111620001a357600080fd5b620001bc3064010000000062000d866200024582021704565b6003908051620001d192916020019062000303565b506004828051620001e792916020019062000303565b506005805460ff191660ff92909216919091179055507ff4cd1f8571e8d9c97ffcb81558807ab73f9803d54de5da6a0420593c82a4a9f0905030604051600160a060020a03909116815260200160405180910390a1505050620003ba565b6200024f62000388565b6200025962000388565b600060146040518059106200026b5750595b90808252806020026020018201604052509150600090505b6014811015620002fc578060130360080260020a84600160a060020a0316811515620002ab57fe5b047f010000000000000000000000000000000000000000000000000000000000000002828281518110620002db57fe5b906020010190600160f860020a031916908160001a90535060010162000283565b5092915050565b828054600181600116156101000203166002900490600052602060002090601f016020900481019282601f106200034657805160ff191683800117855562000376565b8280016001018555821562000376579182015b828111156200037657825182559160200191906001019062000359565b50620003849291506200039a565b5090565b60206040519081016040526000815290565b620003b791905b80821115620003845760008155600101620003a1565b90565b610eb180620003ca6000396000f3006060604052361561010f5763ffffffff7c010000000000000000000000000000000000000000000000000000000060003504166306fdde038114610114578063095ea7b31461019e5780631608f18f146101d457806318160ddd146101ee57806323b872dd14610213578063313ce5671461023b57806354fd4d50146102645780635a3b7e42146102775780635e35359e1461028a57806370a08231146102b257806379ba5097146102d1578063867904b4146102e45780638da5cb5b1461030657806395d89b4114610335578063a24835d114610348578063a9059cbb1461036a578063bef97c871461038c578063d4ee1d901461039f578063dd62ed3e146103b2578063f2fde38b146103d7575b600080fd5b341561011f57600080fd5b6101276103f6565b60405160208082528190810183818151815260200191508051906020019080838360005b8381101561016357808201518382015260200161014b565b50505050905090810190601f1680156101905780820380516001836020036101000a031916815260200191505b509250505060405180910390f35b34156101a957600080fd5b6101c0600160a060020a0360043516602435610494565b604051901515815260200160405180910390f35b34156101df57600080fd5b6101ec6004351515610551565b005b34156101f957600080fd5b61020161057b565b60405190815260200160405180910390f35b341561021e57600080fd5b6101c0600160a060020a0360043581169060243516604435610581565b341561024657600080fd5b61024e6105af565b60405160ff909116815260200160405180910390f35b341561026f57600080fd5b6101276105b8565b341561028257600080fd5b610127610623565b341561029557600080fd5b6101ec600160a060020a036004358116906024351660443561068e565b34156102bd57600080fd5b610201600160a060020a0360043516610795565b34156102dc57600080fd5b6101ec6107a7565b34156102ef57600080fd5b6101ec600160a060020a036004351660243561084e565b341561031157600080fd5b61031961095c565b604051600160a060020a03909116815260200160405180910390f35b341561034057600080fd5b61012761096b565b341561035357600080fd5b6101ec600160a060020a03600435166024356109d6565b341561037557600080fd5b6101c0600160a060020a0360043516602435610ac1565b341561039757600080fd5b6101c0610aed565b34156103aa57600080fd5b610319610af6565b34156103bd57600080fd5b610201600160a060020a0360043581169060243516610b05565b34156103e257600080fd5b6101ec600160a060020a0360043516610b22565b60038054600181600116156101000203166002900480601f01602080910402602001604051908101604052809291908181526020018280546001816001161561010002031660029004801561048c5780601f106104615761010080835404028352916020019161048c565b820191906000526020600020905b81548152906001019060200180831161046f57829003601f168201915b505050505081565b600082600160a060020a03811615156104ac57600080fd5b8215806104dc5750600160a060020a03338116600090815260086020908152604080832093881683529290522054155b15156104e757600080fd5b600160a060020a03338116600081815260086020908152604080832094891680845294909152908190208690557f8c5be1e5ebec7d5bd14f71427d1e84f3dd0314c0f7b2291e5b200ac8c7c3b9259086905190815260200160405180910390a35060019392505050565b60005433600160a060020a0390811691161461056957fe5b600a805460ff19169115919091179055565b60065481565b600a5460009060ff16151561059257fe5b61059d848484610b84565b15156105a557fe5b5060019392505050565b60055460ff1681565b60098054600181600116156101000203166002900480601f01602080910402602001604051908101604052809291908181526020018280546001816001161561010002031660029004801561048c5780601f106104615761010080835404028352916020019161048c565b60028054600181600116156101000203166002900480601f01602080910402602001604051908101604052809291908181526020018280546001816001161561010002031660029004801561048c5780601f106104615761010080835404028352916020019161048c565b60005433600160a060020a039081169116146106a657fe5b82600160a060020a03811615156106bc57600080fd5b82600160a060020a03811615156106d257600080fd5b8330600160a060020a031681600160a060020a0316141515156106f457600080fd5b85600160a060020a031663a9059cbb86866000604051602001526040517c010000000000000000000000000000000000000000000000000000000063ffffffff8516028152600160a060020a0390921660048301526024820152604401602060405180830381600087803b151561076a57600080fd5b6102c65a03f1151561077b57600080fd5b50505060405180519050151561078d57fe5b505050505050565b60076020526000908152604090205481565b60015433600160a060020a039081169116146107c257600080fd5b6000546001547f343765429aea5a34b3ff6a3785a98a5abb2597aca87bfbb58632c173d585373a91600160a060020a039081169116604051600160a060020a039283168152911660208201526040908101905180910390a1600180546000805473ffffffffffffffffffffffffffffffffffffffff19908116600160a060020a03841617909155169055565b60005433600160a060020a0390811691161461086657fe5b81600160a060020a038116151561087c57600080fd5b8230600160a060020a031681600160a060020a03161415151561089e57600080fd5b6108aa60065484610ca4565b600655600160a060020a0384166000908152600760205260409020546108d09084610ca4565b600160a060020a03851660009081526007602052604090819020919091557f9386c90217c323f58030f9dadcbc938f807a940f4ff41cd4cead9562f5da7dc39084905190815260200160405180910390a183600160a060020a031630600160a060020a0316600080516020610e668339815191528560405190815260200160405180910390a350505050565b600054600160a060020a031681565b60048054600181600116156101000203166002900480601f01602080910402602001604051908101604052809291908181526020018280546001816001161561010002031660029004801561048c5780601f106104615761010080835404028352916020019161048c565b81600160a060020a031633600160a060020a03161480610a04575060005433600160a060020a039081169116145b1515610a0f57600080fd5b600160a060020a038216600090815260076020526040902054610a329082610cba565b600160a060020a038316600090815260076020526040902055600654610a589082610cba565b600655600160a060020a03308116908316600080516020610e668339815191528360405190815260200160405180910390a37f9a1b418bc061a5d80270261562e6986a35d995f8051145f277be16103abd34538160405190815260200160405180910390a15050565b600a5460009060ff161515610ad257fe5b610adc8383610ccc565b1515610ae457fe5b50600192915050565b600a5460ff1681565b600154600160a060020a031681565b600860209081526000928352604080842090915290825290205481565b60005433600160a060020a03908116911614610b3a57fe5b600054600160a060020a0382811691161415610b5557600080fd5b6001805473ffffffffffffffffffffffffffffffffffffffff1916600160a060020a0392909216919091179055565b600083600160a060020a0381161515610b9c57600080fd5b83600160a060020a0381161515610bb257600080fd5b600160a060020a0380871660009081526008602090815260408083203390941683529290522054610be39085610cba565b600160a060020a038088166000818152600860209081526040808320339095168352938152838220949094559081526007909252902054610c249085610cba565b600160a060020a038088166000908152600760205260408082209390935590871681522054610c539085610ca4565b600160a060020a0380871660008181526007602052604090819020939093559190881690600080516020610e668339815191529087905190815260200160405180910390a350600195945050505050565b600082820183811015610cb357fe5b9392505050565b600081831015610cc657fe5b50900390565b600082600160a060020a0381161515610ce457600080fd5b600160a060020a033316600090815260076020526040902054610d079084610cba565b600160a060020a033381166000908152600760205260408082209390935590861681522054610d369084610ca4565b600160a060020a038086166000818152600760205260409081902093909355913390911690600080516020610e668339815191529086905190815260200160405180910390a35060019392505050565b610d8e610e53565b610d96610e53565b60006014604051805910610da75750595b90808252806020026020018201604052509150600090505b6014811015610e4c578060130360080260020a84600160a060020a0316811515610de557fe5b047f010000000000000000000000000000000000000000000000000000000000000002828281518110610e1457fe5b9060200101907effffffffffffffffffffffffffffffffffffffffffffffffffffffffffffff1916908160001a905350600101610dbf565b5092915050565b602060405190810160405260008152905600ddf252ad1be2c89b69c2b068fc378daa952ba7f163c4a11628f55a4df523b3efa165627a7a723058209aa9e9157c0060db0bcc42793ae2f968bee66235f8f709c069d9bd2ca590e4260029",
  "source": "// This is the Smart Token\n\npragma solidity ^0.4.16;\nimport './bancor/SmartToken.sol';\nimport './Dividends.sol';\n\ncontract LRET is SmartToken, Dividends {\n\n  function LRET()\n    SmartToken(\"LiquidRE Token\",\"LRET\",18)\n    public\n  {\n\n  }\n  /*\n  function addAccount(addr) {\n\n  }\n  */\n}\n",
  "sourcePath": "/Users/chanopalis/Documents/ethereum-contracts/smart-law-contracts/DexRE-Contract/contracts/LiquidRE/LRET.sol",
  "schemaVersion": "1.0.0",
  "updatedAt": "2018-02-28T18:05:46.246Z"
}