{
  "contractName": "Managed",
  "abi": [
    {
      "constant": true,
      "inputs": [],
      "name": "newManager",
      "outputs": [
        {
          "name": "",
          "type": "address"
        }
      ],
      "payable": false,
      "stateMutability": "view",
      "type": "function"
    },
    {
      "constant": true,
      "inputs": [],
      "name": "manager",
      "outputs": [
        {
          "name": "",
          "type": "address"
        }
      ],
      "payable": false,
      "stateMutability": "view",
      "type": "function"
    },
    {
      "constant": false,
      "inputs": [],
      "name": "acceptManagement",
      "outputs": [],
      "payable": false,
      "stateMutability": "nonpayable",
      "type": "function"
    },
    {
      "constant": false,
      "inputs": [
        {
          "name": "_newManager",
          "type": "address"
        }
      ],
      "name": "transferManagement",
      "outputs": [],
      "payable": false,
      "stateMutability": "nonpayable",
      "type": "function"
    },
    {
      "inputs": [],
      "payable": false,
      "stateMutability": "nonpayable",
      "type": "constructor"
    },
    {
      "anonymous": false,
      "inputs": [
        {
          "indexed": false,
          "name": "_prevManager",
          "type": "address"
        },
        {
          "indexed": false,
          "name": "_newManager",
          "type": "address"
        }
      ],
      "name": "ManagerUpdate",
      "type": "event"
    }
  ],
  "bytecode": "0x6060604052341561000f57600080fd5b60008054600160a060020a033316600160a060020a03199091161790556102b58061003b6000396000f300606060405263ffffffff7c010000000000000000000000000000000000000000000000000000000060003504166342906029811461005d578063481c6a7514610099578063c8c2fe6c146100ac578063e4edf852146100c157600080fd5b341561006857600080fd5b6100706100ed565b60405173ffffffffffffffffffffffffffffffffffffffff909116815260200160405180910390f35b34156100a457600080fd5b610070610109565b34156100b757600080fd5b6100bf610125565b005b34156100cc57600080fd5b6100bf73ffffffffffffffffffffffffffffffffffffffff60043516610200565b60015473ffffffffffffffffffffffffffffffffffffffff1681565b60005473ffffffffffffffffffffffffffffffffffffffff1681565b6001543373ffffffffffffffffffffffffffffffffffffffff90811691161461014d57600080fd5b6000546001547fbe4cc281795971a471c980e842627a7f1ea3892ddfce8c5b6357cd2611c197329173ffffffffffffffffffffffffffffffffffffffff908116911660405173ffffffffffffffffffffffffffffffffffffffff9283168152911660208201526040908101905180910390a1600180546000805473ffffffffffffffffffffffffffffffffffffffff1990811673ffffffffffffffffffffffffffffffffffffffff841617909155169055565b6000543373ffffffffffffffffffffffffffffffffffffffff90811691161461022557fe5b60005473ffffffffffffffffffffffffffffffffffffffff8281169116141561024d57600080fd5b6001805473ffffffffffffffffffffffffffffffffffffffff191673ffffffffffffffffffffffffffffffffffffffff929092169190911790555600a165627a7a7230582088914d5728ce580900fc7a4b03398a050e6e98ea7778fbfdf2bc56ceed8d16d30029",
  "source": "pragma solidity ^0.4.11;\n\n/*\n    Provides support and utilities for contract management\n*/\ncontract Managed {\n    address public manager;\n    address public newManager;\n\n    event ManagerUpdate(address _prevManager, address _newManager);\n\n    /**\n        @dev constructor\n    */\n    function Managed() public {\n        manager = msg.sender;\n    }\n\n    // allows execution by the manager only\n    modifier managerOnly {\n        assert(msg.sender == manager);\n        _;\n    }\n\n    /**\n        @dev allows transferring the contract management\n        the new manager still needs to accept the transfer\n        can only be called by the contract manager\n\n        @param _newManager    new contract manager\n    */\n    function transferManagement(address _newManager) public managerOnly {\n        require(_newManager != manager);\n        newManager = _newManager;\n    }\n\n    /**\n        @dev used by a new manager to accept a management transfer\n    */\n    function acceptManagement() public {\n        require(msg.sender == newManager);\n        ManagerUpdate(manager, newManager);\n        manager = newManager;\n        newManager = 0x0;\n    }\n}\n",
  "sourcePath": "/Users/chanopalis/Documents/ethereum-contracts/smart-law-contracts/DexRE-Contract/contracts/LiquidRE/bancor/Managed.sol",
  "schemaVersion": "1.0.0",
  "updatedAt": "2018-03-02T16:04:52.245Z"
}