{
  "contractName": "SalableTrust",
  "abi": [
    {
      "constant": true,
      "inputs": [],
      "name": "forSale",
      "outputs": [
        {
          "name": "",
          "type": "bool"
        }
      ],
      "payable": false,
      "stateMutability": "view",
      "type": "function"
    },
    {
      "constant": true,
      "inputs": [],
      "name": "activeSale",
      "outputs": [
        {
          "name": "",
          "type": "address"
        }
      ],
      "payable": false,
      "stateMutability": "view",
      "type": "function"
    },
    {
      "constant": true,
      "inputs": [],
      "name": "forSaleAmount",
      "outputs": [
        {
          "name": "",
          "type": "uint256"
        }
      ],
      "payable": false,
      "stateMutability": "view",
      "type": "function"
    },
    {
      "constant": true,
      "inputs": [],
      "name": "saleProposals",
      "outputs": [
        {
          "name": "",
          "type": "address[]"
        }
      ],
      "payable": false,
      "stateMutability": "view",
      "type": "function"
    },
    {
      "inputs": [],
      "payable": false,
      "stateMutability": "nonpayable",
      "type": "constructor"
    },
    {
      "anonymous": false,
      "inputs": [
        {
          "indexed": false,
          "name": "sale",
          "type": "address"
        }
      ],
      "name": "SaleProposalAdded",
      "type": "event"
    },
    {
      "anonymous": false,
      "inputs": [
        {
          "indexed": false,
          "name": "sale",
          "type": "address"
        }
      ],
      "name": "SaleCreated",
      "type": "event"
    }
  ],
  "bytecode": "0x6060604052341561000f57600080fd5b60018054600160a060020a03191690556102e38061002e6000396000f300606060405263ffffffff7c0100000000000000000000000000000000000000000000000000000000600035041663466ccac0811461005d5780634e17700a14610084578063ed40ce5c146100c0578063f6411800146100e557600080fd5b341561006857600080fd5b61007061014b565b604051901515815260200160405180910390f35b341561008f57600080fd5b610097610169565b60405173ffffffffffffffffffffffffffffffffffffffff909116815260200160405180910390f35b34156100cb57600080fd5b6100d3610185565b60405190815260200160405180910390f35b34156100f057600080fd5b6100f8610230565b60405160208082528190810183818151815260200191508051906020019060200280838360005b8381101561013757808201518382015260200161011f565b505050509050019250505060405180910390f35b60015473ffffffffffffffffffffffffffffffffffffffff16151590565b60015473ffffffffffffffffffffffffffffffffffffffff1681565b60008061019061014b565b15610227575060015473ffffffffffffffffffffffffffffffffffffffff168063aa8c217c6000604051602001526040518163ffffffff167c0100000000000000000000000000000000000000000000000000000000028152600401602060405180830381600087803b151561020557600080fd5b6102c65a03f1151561021657600080fd5b50505060405180519050915061022c565b600091505b5090565b6102386102a5565b600080548060200260200160405190810160405280929190818152602001828054801561029b57602002820191906000526020600020905b815473ffffffffffffffffffffffffffffffffffffffff168152600190910190602001808311610270575b5050505050905090565b602060405190810160405260008152905600a165627a7a72305820207a2559d0c83d08ec9b868287a372ea2da5389d4b146ad31d8c5dd78abf295e0029",
  "source": "pragma solidity ^0.4.4;\nimport { Sale } from './Sale.sol';\n\ncontract SalableTrust {\n\n    address[] saleProposalList;\n    address public activeSale;\n\n    event SaleProposalAdded(address sale);\n    event SaleCreated(address sale);\n\n    function SalableTrust()\n        public\n    {\n        activeSale = 0x0;\n    }\n\n    modifier noActiveSale() {\n        require(!forSale());\n        _;\n    }\n\n    modifier hasActiveSale() {\n        require(forSale());\n        _;\n    }\n\n    function forSale()\n        public\n        view\n        returns (bool)\n    {\n        return activeSale != 0x0;\n    }\n\n    function forSaleAmount()\n        public\n        view\n        returns (uint)\n    {\n        if(forSale()) {\n            Sale sale = Sale(activeSale);\n            return sale.amount();\n        }\n        else {\n            return 0;\n        }\n    }\n\n    function setActiveSale(address _sale)\n        internal\n        noActiveSale\n    {\n        activeSale = _sale;\n        address[] memory emptyAddressArray;\n        saleProposalList = emptyAddressArray;\n        SaleCreated(_sale);\n    }\n\n    function newSale(address _sale)\n        internal\n        noActiveSale\n    {\n        saleProposalList.push(_sale);\n        SaleProposalAdded(_sale);\n    }\n\n    function saleProposals()\n        public\n        view returns (address[])\n    {\n        return saleProposalList;\n    }\n\n    function doCancelSale()\n        internal\n        hasActiveSale\n    {\n        activeSale = 0x0;\n        address[] memory emptyAddressArray;\n        saleProposalList = emptyAddressArray;\n    }\n\n}\n",
  "sourcePath": "/Users/chanopalis/Documents/ethereum-contracts/smart-law-contracts/DexRE-Contract/contracts/SalableTrust.sol",
  "schemaVersion": "1.0.0",
  "updatedAt": "2018-03-02T16:04:52.258Z"
}