{
  "contractName": "Sale",
  "abi": [
    {
      "constant": false,
      "inputs": [],
      "name": "deactivate",
      "outputs": [],
      "payable": false,
      "stateMutability": "nonpayable",
      "type": "function"
    },
    {
      "constant": true,
      "inputs": [],
      "name": "trust",
      "outputs": [
        {
          "name": "",
          "type": "address"
        }
      ],
      "payable": false,
      "stateMutability": "view",
      "type": "function"
    },
    {
      "constant": true,
      "inputs": [],
      "name": "amount",
      "outputs": [
        {
          "name": "",
          "type": "uint256"
        }
      ],
      "payable": false,
      "stateMutability": "view",
      "type": "function"
    },
    {
      "constant": true,
      "inputs": [],
      "name": "getSignatures",
      "outputs": [
        {
          "name": "",
          "type": "address[]"
        }
      ],
      "payable": false,
      "stateMutability": "view",
      "type": "function"
    },
    {
      "constant": true,
      "inputs": [],
      "name": "countSignatures",
      "outputs": [
        {
          "name": "",
          "type": "uint256"
        }
      ],
      "payable": false,
      "stateMutability": "view",
      "type": "function"
    },
    {
      "constant": true,
      "inputs": [],
      "name": "disabled",
      "outputs": [
        {
          "name": "",
          "type": "bool"
        }
      ],
      "payable": false,
      "stateMutability": "view",
      "type": "function"
    },
    {
      "constant": false,
      "inputs": [
        {
          "name": "_signature",
          "type": "address"
        }
      ],
      "name": "sign",
      "outputs": [],
      "payable": false,
      "stateMutability": "nonpayable",
      "type": "function"
    },
    {
      "inputs": [
        {
          "name": "_trust",
          "type": "address"
        },
        {
          "name": "_amount",
          "type": "uint256"
        },
        {
          "name": "_signature",
          "type": "address"
        }
      ],
      "payable": false,
      "stateMutability": "nonpayable",
      "type": "constructor"
    }
  ],
  "bytecode": "0x6060604052341561000f57600080fd5b6040516060806105aa83398101604052808051919060200180519190602001805160008054600160a060020a031916600160a060020a0387161760a060020a60ff0219169055600284905560018054919350915080820161007083826100a2565b5060009182526020909120018054600160a060020a031916600160a060020a0392909216919091179055506100ec9050565b8154818355818115116100c6576000838152602090206100c69181019083016100cb565b505050565b6100e991905b808211156100e557600081556001016100d1565b5090565b90565b6104af806100fb6000396000f300606060405236156100805763ffffffff7c010000000000000000000000000000000000000000000000000000000060003504166351b42b0081146100855780636f9fdd661461009a578063aa8c217c146100c9578063ad6f80ff146100ee578063bc5ffcc614610154578063ee07080514610167578063f71be8371461018e575b600080fd5b341561009057600080fd5b6100986101ad565b005b34156100a557600080fd5b6100ad6101ff565b604051600160a060020a03909116815260200160405180910390f35b34156100d457600080fd5b6100dc61020e565b60405190815260200160405180910390f35b34156100f957600080fd5b610101610214565b60405160208082528190810183818151815260200191508051906020019060200280838360005b83811015610140578082015183820152602001610128565b505050509050019250505060405180910390f35b341561015f57600080fd5b6100dc61027d565b341561017257600080fd5b61017a610283565b604051901515815260200160405180910390f35b341561019957600080fd5b610098600160a060020a03600435166102a4565b60005433600160a060020a039081169116146101c857600080fd5b6000805474ff0000000000000000000000000000000000000000191674010000000000000000000000000000000000000000179055565b600054600160a060020a031681565b60025481565b61021c61042a565b600180548060200260200160405190810160405280929190818152602001828054801561027257602002820191906000526020600020905b8154600160a060020a03168152600190910190602001808311610254575b505050505090505b90565b60015490565b60005474010000000000000000000000000000000000000000900460ff1681565b60005433600160a060020a039081169116146102bf57600080fd5b60005474010000000000000000000000000000000000000000900460ff16156102e757600080fd5b73__UtilsLib______________________________638782be356001836000604051602001526040518363ffffffff167c0100000000000000000000000000000000000000000000000000000000028152600401808060200183600160a060020a0316600160a060020a03168152602001828103825284818154815260200191508054801561039f57602002820191906000526020600020905b8154600160a060020a03168152600190910190602001808311610381575b5050935050505060206040518083038186803b15156103bd57600080fd5b6102c65a03f415156103ce57600080fd5b50505060405180519050156103e257600080fd5b600180548082016103f3838261043c565b5060009182526020909120018054600160a060020a03831673ffffffffffffffffffffffffffffffffffffffff1990911617905550565b60206040519081016040526000815290565b81548183558181151161046057600083815260209020610460918101908301610465565b505050565b61027a91905b8082111561047f576000815560010161046b565b50905600a165627a7a72305820e57581200feda6ebffc0d8fe117e65ca97ace9275a888fc9edcfbed7907f55b60029",
  "source": "pragma solidity ^0.4.4;\nimport './Signable.sol';\n\ncontract Sale is Signable {\n\n  uint public amount; // wei\n\n  function Sale(address _trust, uint _amount, address _signature)\n      public\n      Signable(_trust)\n  {\n      amount = _amount;\n      signatures.push(_signature);\n  }\n}\n",
  "sourcePath": "/Users/chanopalis/Documents/ethereum-contracts/smart-law-contracts/DexRE-Contract/contracts/Sale.sol",
  "schemaVersion": "1.0.0",
  "updatedAt": "2018-02-28T18:05:46.277Z"
}