{
  "contractName": "Sale",
  "abi": [
    {
      "constant": false,
      "inputs": [],
      "name": "deactivate",
      "outputs": [],
      "payable": false,
      "stateMutability": "nonpayable",
      "type": "function"
    },
    {
      "constant": true,
      "inputs": [],
      "name": "trust",
      "outputs": [
        {
          "name": "",
          "type": "address"
        }
      ],
      "payable": false,
      "stateMutability": "view",
      "type": "function"
    },
    {
      "constant": true,
      "inputs": [],
      "name": "amount",
      "outputs": [
        {
          "name": "",
          "type": "uint256"
        }
      ],
      "payable": false,
      "stateMutability": "view",
      "type": "function"
    },
    {
      "constant": true,
      "inputs": [],
      "name": "getSignatures",
      "outputs": [
        {
          "name": "",
          "type": "address[]"
        }
      ],
      "payable": false,
      "stateMutability": "view",
      "type": "function"
    },
    {
      "constant": true,
      "inputs": [],
      "name": "countSignatures",
      "outputs": [
        {
          "name": "",
          "type": "uint256"
        }
      ],
      "payable": false,
      "stateMutability": "view",
      "type": "function"
    },
    {
      "constant": true,
      "inputs": [],
      "name": "disabled",
      "outputs": [
        {
          "name": "",
          "type": "bool"
        }
      ],
      "payable": false,
      "stateMutability": "view",
      "type": "function"
    },
    {
      "constant": false,
      "inputs": [
        {
          "name": "_signature",
          "type": "address"
        }
      ],
      "name": "sign",
      "outputs": [],
      "payable": false,
      "stateMutability": "nonpayable",
      "type": "function"
    },
    {
      "inputs": [
        {
          "name": "_trust",
          "type": "address"
        },
        {
          "name": "_amount",
          "type": "uint256"
        },
        {
          "name": "_signature",
          "type": "address"
        }
      ],
      "payable": false,
      "stateMutability": "nonpayable",
      "type": "constructor"
    }
  ],
  "bytecode": "0x6060604052341561000f57600080fd5b60405160608061062c83398101604052808051919060200180519190602001805160008054600160a060020a031916600160a060020a0387161760a060020a60ff0219169055600284905560018054919350915080820161007083826100a2565b5060009182526020909120018054600160a060020a031916600160a060020a0392909216919091179055506100ec9050565b8154818355818115116100c6576000838152602090206100c69181019083016100cb565b505050565b6100e991905b808211156100e557600081556001016100d1565b5090565b90565b610531806100fb6000396000f300606060405236156100805763ffffffff7c010000000000000000000000000000000000000000000000000000000060003504166351b42b0081146100855780636f9fdd661461009a578063aa8c217c146100d6578063ad6f80ff146100fb578063bc5ffcc614610161578063ee07080514610174578063f71be8371461019b575b600080fd5b341561009057600080fd5b6100986101c7565b005b34156100a557600080fd5b6100ad610226565b60405173ffffffffffffffffffffffffffffffffffffffff909116815260200160405180910390f35b34156100e157600080fd5b6100e9610242565b60405190815260200160405180910390f35b341561010657600080fd5b61010e610248565b60405160208082528190810183818151815260200191508051906020019060200280838360005b8381101561014d578082015183820152602001610135565b505050509050019250505060405180910390f35b341561016c57600080fd5b6100e96102be565b341561017f57600080fd5b6101876102c4565b604051901515815260200160405180910390f35b34156101a657600080fd5b61009873ffffffffffffffffffffffffffffffffffffffff600435166102e5565b6000543373ffffffffffffffffffffffffffffffffffffffff9081169116146101ef57600080fd5b6000805474ff0000000000000000000000000000000000000000191674010000000000000000000000000000000000000000179055565b60005473ffffffffffffffffffffffffffffffffffffffff1681565b60025481565b6102506104ac565b60018054806020026020016040519081016040528092919081815260200182805480156102b357602002820191906000526020600020905b815473ffffffffffffffffffffffffffffffffffffffff168152600190910190602001808311610288575b505050505090505b90565b60015490565b60005474010000000000000000000000000000000000000000900460ff1681565b6000543373ffffffffffffffffffffffffffffffffffffffff90811691161461030d57600080fd5b60005474010000000000000000000000000000000000000000900460ff161561033557600080fd5b73__UtilsLib______________________________638782be356001836000604051602001526040518363ffffffff167c010000000000000000000000000000000000000000000000000000000002815260040180806020018373ffffffffffffffffffffffffffffffffffffffff1673ffffffffffffffffffffffffffffffffffffffff168152602001828103825284818154815260200191508054801561041457602002820191906000526020600020905b815473ffffffffffffffffffffffffffffffffffffffff1681526001909101906020018083116103e9575b5050935050505060206040518083038186803b151561043257600080fd5b6102c65a03f4151561044357600080fd5b505050604051805190501561045757600080fd5b6001805480820161046883826104be565b506000918252602090912001805473ffffffffffffffffffffffffffffffffffffffff831673ffffffffffffffffffffffffffffffffffffffff1990911617905550565b60206040519081016040526000815290565b8154818355818115116104e2576000838152602090206104e29181019083016104e7565b505050565b6102bb91905b8082111561050157600081556001016104ed565b50905600a165627a7a72305820c521f8f6171fb229464b30050badfc8dc134869325e27714e7cf1ad4b3b5749e0029",
  "source": "pragma solidity ^0.4.4;\nimport './Signable.sol';\n\ncontract Sale is Signable {\n\n  uint public amount; // wei\n\n  function Sale(address _trust, uint _amount, address _signature)\n      public\n      Signable(_trust)\n  {\n      amount = _amount;\n      signatures.push(_signature);\n  }\n}\n",
  "sourcePath": "/Users/chanopalis/Documents/ethereum-contracts/smart-law-contracts/DexRE-Contract/contracts/Sale.sol",
  "schemaVersion": "1.0.0",
  "updatedAt": "2018-03-02T16:04:52.258Z"
}