{
  "contractName": "Signable",
  "abi": [
    {
      "constant": false,
      "inputs": [],
      "name": "deactivate",
      "outputs": [],
      "payable": false,
      "stateMutability": "nonpayable",
      "type": "function"
    },
    {
      "constant": true,
      "inputs": [],
      "name": "trust",
      "outputs": [
        {
          "name": "",
          "type": "address"
        }
      ],
      "payable": false,
      "stateMutability": "view",
      "type": "function"
    },
    {
      "constant": true,
      "inputs": [],
      "name": "getSignatures",
      "outputs": [
        {
          "name": "",
          "type": "address[]"
        }
      ],
      "payable": false,
      "stateMutability": "view",
      "type": "function"
    },
    {
      "constant": true,
      "inputs": [],
      "name": "countSignatures",
      "outputs": [
        {
          "name": "",
          "type": "uint256"
        }
      ],
      "payable": false,
      "stateMutability": "view",
      "type": "function"
    },
    {
      "constant": true,
      "inputs": [],
      "name": "disabled",
      "outputs": [
        {
          "name": "",
          "type": "bool"
        }
      ],
      "payable": false,
      "stateMutability": "view",
      "type": "function"
    },
    {
      "constant": false,
      "inputs": [
        {
          "name": "_signature",
          "type": "address"
        }
      ],
      "name": "sign",
      "outputs": [],
      "payable": false,
      "stateMutability": "nonpayable",
      "type": "function"
    },
    {
      "inputs": [
        {
          "name": "_trust",
          "type": "address"
        }
      ],
      "payable": false,
      "stateMutability": "nonpayable",
      "type": "constructor"
    }
  ],
  "bytecode": "0x6060604052341561000f57600080fd5b6040516020806104e9833981016040528080516000805460a060020a60ff0219600160a060020a03909316600160a060020a031990911617919091169055505061048b8061005e6000396000f300606060405236156100755763ffffffff7c010000000000000000000000000000000000000000000000000000000060003504166351b42b00811461007a5780636f9fdd661461008f578063ad6f80ff146100be578063bc5ffcc614610124578063ee07080514610149578063f71be83714610170575b600080fd5b341561008557600080fd5b61008d61018f565b005b341561009a57600080fd5b6100a26101e1565b604051600160a060020a03909116815260200160405180910390f35b34156100c957600080fd5b6100d16101f0565b60405160208082528190810183818151815260200191508051906020019060200280838360005b838110156101105780820151838201526020016100f8565b505050509050019250505060405180910390f35b341561012f57600080fd5b610137610259565b60405190815260200160405180910390f35b341561015457600080fd5b61015c61025f565b604051901515815260200160405180910390f35b341561017b57600080fd5b61008d600160a060020a0360043516610280565b60005433600160a060020a039081169116146101aa57600080fd5b6000805474ff0000000000000000000000000000000000000000191674010000000000000000000000000000000000000000179055565b600054600160a060020a031681565b6101f8610406565b600180548060200260200160405190810160405280929190818152602001828054801561024e57602002820191906000526020600020905b8154600160a060020a03168152600190910190602001808311610230575b505050505090505b90565b60015490565b60005474010000000000000000000000000000000000000000900460ff1681565b60005433600160a060020a0390811691161461029b57600080fd5b60005474010000000000000000000000000000000000000000900460ff16156102c357600080fd5b73__UtilsLib______________________________638782be356001836000604051602001526040518363ffffffff167c0100000000000000000000000000000000000000000000000000000000028152600401808060200183600160a060020a0316600160a060020a03168152602001828103825284818154815260200191508054801561037b57602002820191906000526020600020905b8154600160a060020a0316815260019091019060200180831161035d575b5050935050505060206040518083038186803b151561039957600080fd5b6102c65a03f415156103aa57600080fd5b50505060405180519050156103be57600080fd5b600180548082016103cf8382610418565b5060009182526020909120018054600160a060020a03831673ffffffffffffffffffffffffffffffffffffffff1990911617905550565b60206040519081016040526000815290565b81548183558181151161043c5760008381526020902061043c918101908301610441565b505050565b61025691905b8082111561045b5760008155600101610447565b50905600a165627a7a72305820cd04390950d8adc4e57c01685701c241ebb353c1eda06d8343e8e82510b5006c0029",
  "source": "pragma solidity ^0.4.4;\nimport './UtilsLib.sol';\n\ncontract Signable {\n\n    address public trust;\n    bool public disabled;\n    address[] signatures;\n\n    function Signable(address _trust)\n        public\n    {\n        trust = _trust;\n        disabled = false;\n    }\n\n    modifier trustOnly {\n        require(msg.sender == trust);\n        _;\n    }\n\n    modifier enabledOnly {\n        require(disabled == false);\n        _;\n    }\n\n    function deactivate()\n        public\n        trustOnly\n    {\n        disabled = true;\n    }\n\n    function sign(address _signature)\n        public\n        trustOnly\n        enabledOnly\n    {\n        if(UtilsLib.isAddressFound(signatures, _signature))\n            revert();\n        else\n            signatures.push(_signature);\n    }\n\n    function getSignatures()\n        public\n        view returns (address[])\n    {\n        return signatures;\n    }\n\n    function countSignatures()\n        public\n        view returns (uint)\n    {\n        return signatures.length;\n    }\n\n}\n",
  "sourcePath": "/Users/chanopalis/Documents/ethereum-contracts/smart-law-contracts/DexRE-Contract/contracts/Signable.sol",
  "schemaVersion": "1.0.0",
  "updatedAt": "2018-02-28T18:05:46.278Z"
}