{
  "contractName": "Signable",
  "abi": [
    {
      "constant": false,
      "inputs": [],
      "name": "deactivate",
      "outputs": [],
      "payable": false,
      "stateMutability": "nonpayable",
      "type": "function"
    },
    {
      "constant": true,
      "inputs": [],
      "name": "trust",
      "outputs": [
        {
          "name": "",
          "type": "address"
        }
      ],
      "payable": false,
      "stateMutability": "view",
      "type": "function"
    },
    {
      "constant": true,
      "inputs": [],
      "name": "getSignatures",
      "outputs": [
        {
          "name": "",
          "type": "address[]"
        }
      ],
      "payable": false,
      "stateMutability": "view",
      "type": "function"
    },
    {
      "constant": true,
      "inputs": [],
      "name": "countSignatures",
      "outputs": [
        {
          "name": "",
          "type": "uint256"
        }
      ],
      "payable": false,
      "stateMutability": "view",
      "type": "function"
    },
    {
      "constant": true,
      "inputs": [],
      "name": "disabled",
      "outputs": [
        {
          "name": "",
          "type": "bool"
        }
      ],
      "payable": false,
      "stateMutability": "view",
      "type": "function"
    },
    {
      "constant": false,
      "inputs": [
        {
          "name": "_signature",
          "type": "address"
        }
      ],
      "name": "sign",
      "outputs": [],
      "payable": false,
      "stateMutability": "nonpayable",
      "type": "function"
    },
    {
      "inputs": [
        {
          "name": "_trust",
          "type": "address"
        }
      ],
      "payable": false,
      "stateMutability": "nonpayable",
      "type": "constructor"
    }
  ],
  "bytecode": "0x6060604052341561000f57600080fd5b60405160208061056b833981016040528080516000805460a060020a60ff0219600160a060020a03909316600160a060020a031990911617919091169055505061050d8061005e6000396000f300606060405236156100755763ffffffff7c010000000000000000000000000000000000000000000000000000000060003504166351b42b00811461007a5780636f9fdd661461008f578063ad6f80ff146100cb578063bc5ffcc614610131578063ee07080514610156578063f71be8371461017d575b600080fd5b341561008557600080fd5b61008d6101a9565b005b341561009a57600080fd5b6100a2610208565b60405173ffffffffffffffffffffffffffffffffffffffff909116815260200160405180910390f35b34156100d657600080fd5b6100de610224565b60405160208082528190810183818151815260200191508051906020019060200280838360005b8381101561011d578082015183820152602001610105565b505050509050019250505060405180910390f35b341561013c57600080fd5b61014461029a565b60405190815260200160405180910390f35b341561016157600080fd5b6101696102a0565b604051901515815260200160405180910390f35b341561018857600080fd5b61008d73ffffffffffffffffffffffffffffffffffffffff600435166102c1565b6000543373ffffffffffffffffffffffffffffffffffffffff9081169116146101d157600080fd5b6000805474ff0000000000000000000000000000000000000000191674010000000000000000000000000000000000000000179055565b60005473ffffffffffffffffffffffffffffffffffffffff1681565b61022c610488565b600180548060200260200160405190810160405280929190818152602001828054801561028f57602002820191906000526020600020905b815473ffffffffffffffffffffffffffffffffffffffff168152600190910190602001808311610264575b505050505090505b90565b60015490565b60005474010000000000000000000000000000000000000000900460ff1681565b6000543373ffffffffffffffffffffffffffffffffffffffff9081169116146102e957600080fd5b60005474010000000000000000000000000000000000000000900460ff161561031157600080fd5b73__UtilsLib______________________________638782be356001836000604051602001526040518363ffffffff167c010000000000000000000000000000000000000000000000000000000002815260040180806020018373ffffffffffffffffffffffffffffffffffffffff1673ffffffffffffffffffffffffffffffffffffffff16815260200182810382528481815481526020019150805480156103f057602002820191906000526020600020905b815473ffffffffffffffffffffffffffffffffffffffff1681526001909101906020018083116103c5575b5050935050505060206040518083038186803b151561040e57600080fd5b6102c65a03f4151561041f57600080fd5b505050604051805190501561043357600080fd5b60018054808201610444838261049a565b506000918252602090912001805473ffffffffffffffffffffffffffffffffffffffff831673ffffffffffffffffffffffffffffffffffffffff1990911617905550565b60206040519081016040526000815290565b8154818355818115116104be576000838152602090206104be9181019083016104c3565b505050565b61029791905b808211156104dd57600081556001016104c9565b50905600a165627a7a723058200ae73df9318b600af35e66989165d0e8af719511ee8d7c0c7fe286b443ba133c0029",
  "source": "pragma solidity ^0.4.4;\nimport './UtilsLib.sol';\n\ncontract Signable {\n\n    address public trust;\n    bool public disabled;\n    address[] signatures;\n\n    function Signable(address _trust)\n        public\n    {\n        trust = _trust;\n        disabled = false;\n    }\n\n    modifier trustOnly {\n        require(msg.sender == trust);\n        _;\n    }\n\n    modifier enabledOnly {\n        require(disabled == false);\n        _;\n    }\n\n    function deactivate()\n        public\n        trustOnly\n    {\n        disabled = true;\n    }\n\n    function sign(address _signature)\n        public\n        trustOnly\n        enabledOnly\n    {\n        if(UtilsLib.isAddressFound(signatures, _signature))\n            revert();\n        else\n            signatures.push(_signature);\n    }\n\n    function getSignatures()\n        public\n        view returns (address[])\n    {\n        return signatures;\n    }\n\n    function countSignatures()\n        public\n        view returns (uint)\n    {\n        return signatures.length;\n    }\n\n}\n",
  "sourcePath": "/Users/chanopalis/Documents/ethereum-contracts/smart-law-contracts/DexRE-Contract/contracts/Signable.sol",
  "schemaVersion": "1.0.0",
  "updatedAt": "2018-03-02T16:04:52.258Z"
}