{
  "contractName": "SmartTokenController",
  "abi": [
    {
      "constant": false,
      "inputs": [
        {
          "name": "_newOwner",
          "type": "address"
        }
      ],
      "name": "transferTokenOwnership",
      "outputs": [],
      "payable": false,
      "stateMutability": "nonpayable",
      "type": "function"
    },
    {
      "constant": false,
      "inputs": [],
      "name": "acceptTokenOwnership",
      "outputs": [],
      "payable": false,
      "stateMutability": "nonpayable",
      "type": "function"
    },
    {
      "constant": false,
      "inputs": [
        {
          "name": "_token",
          "type": "address"
        },
        {
          "name": "_to",
          "type": "address"
        },
        {
          "name": "_amount",
          "type": "uint256"
        }
      ],
      "name": "withdrawFromToken",
      "outputs": [],
      "payable": false,
      "stateMutability": "nonpayable",
      "type": "function"
    },
    {
      "constant": false,
      "inputs": [
        {
          "name": "_token",
          "type": "address"
        },
        {
          "name": "_to",
          "type": "address"
        },
        {
          "name": "_amount",
          "type": "uint256"
        }
      ],
      "name": "withdrawTokens",
      "outputs": [],
      "payable": false,
      "stateMutability": "nonpayable",
      "type": "function"
    },
    {
      "constant": false,
      "inputs": [],
      "name": "acceptOwnership",
      "outputs": [],
      "payable": false,
      "stateMutability": "nonpayable",
      "type": "function"
    },
    {
      "constant": false,
      "inputs": [
        {
          "name": "_disable",
          "type": "bool"
        }
      ],
      "name": "disableTokenTransfers",
      "outputs": [],
      "payable": false,
      "stateMutability": "nonpayable",
      "type": "function"
    },
    {
      "constant": true,
      "inputs": [],
      "name": "owner",
      "outputs": [
        {
          "name": "",
          "type": "address"
        }
      ],
      "payable": false,
      "stateMutability": "view",
      "type": "function"
    },
    {
      "constant": true,
      "inputs": [],
      "name": "newOwner",
      "outputs": [
        {
          "name": "",
          "type": "address"
        }
      ],
      "payable": false,
      "stateMutability": "view",
      "type": "function"
    },
    {
      "constant": false,
      "inputs": [
        {
          "name": "_newOwner",
          "type": "address"
        }
      ],
      "name": "transferOwnership",
      "outputs": [],
      "payable": false,
      "stateMutability": "nonpayable",
      "type": "function"
    },
    {
      "constant": true,
      "inputs": [],
      "name": "token",
      "outputs": [
        {
          "name": "",
          "type": "address"
        }
      ],
      "payable": false,
      "stateMutability": "view",
      "type": "function"
    },
    {
      "inputs": [
        {
          "name": "_token",
          "type": "address"
        }
      ],
      "payable": false,
      "stateMutability": "nonpayable",
      "type": "constructor"
    },
    {
      "anonymous": false,
      "inputs": [
        {
          "indexed": false,
          "name": "_prevOwner",
          "type": "address"
        },
        {
          "indexed": false,
          "name": "_newOwner",
          "type": "address"
        }
      ],
      "name": "OwnerUpdate",
      "type": "event"
    }
  ],
  "bytecode": "0x6060604052341561000f57600080fd5b6040516020806106f48339810160405280805160008054600160a060020a03191633600160a060020a03908116919091179091559092508291508116151561005657600080fd5b5060028054600160a060020a031916600160a060020a039290921691909117905561066e806100866000396000f300606060405236156100a15763ffffffff7c010000000000000000000000000000000000000000000000000000000060003504166321e6b53d81146100a657806338a5e016146100c757806341a5b33d146100da5780635e35359e1461010257806379ba50971461012a57806385d5e6311461013d5780638da5cb5b14610155578063d4ee1d9014610184578063f2fde38b14610197578063fc0c546a146101b6575b600080fd5b34156100b157600080fd5b6100c5600160a060020a03600435166101c9565b005b34156100d257600080fd5b6100c5610261565b34156100e557600080fd5b6100c5600160a060020a03600435811690602435166044356102e7565b341561010d57600080fd5b6100c5600160a060020a0360043581169060243516604435610394565b341561013557600080fd5b6100c5610493565b341561014857600080fd5b6100c5600435151561053a565b341561016057600080fd5b6101686105b3565b604051600160a060020a03909116815260200160405180910390f35b341561018f57600080fd5b6101686105c2565b34156101a257600080fd5b6100c5600160a060020a03600435166105d1565b34156101c157600080fd5b610168610633565b60005433600160a060020a039081169116146101e157fe5b600254600160a060020a031663f2fde38b826040517c010000000000000000000000000000000000000000000000000000000063ffffffff8416028152600160a060020a039091166004820152602401600060405180830381600087803b151561024a57600080fd5b6102c65a03f1151561025b57600080fd5b50505050565b60005433600160a060020a0390811691161461027957fe5b600254600160a060020a03166379ba50976040518163ffffffff167c0100000000000000000000000000000000000000000000000000000000028152600401600060405180830381600087803b15156102d157600080fd5b6102c65a03f115156102e257600080fd5b505050565b60005433600160a060020a039081169116146102ff57fe5b600254600160a060020a0316635e35359e8484846040517c010000000000000000000000000000000000000000000000000000000063ffffffff8616028152600160a060020a0393841660048201529190921660248201526044810191909152606401600060405180830381600087803b151561037b57600080fd5b6102c65a03f1151561038c57600080fd5b505050505050565b60005433600160a060020a039081169116146103ac57fe5b82600160a060020a03811615156103c257600080fd5b82600160a060020a03811615156103d857600080fd5b8330600160a060020a031681600160a060020a0316141515156103fa57600080fd5b85600160a060020a031663a9059cbb86866000604051602001526040517c010000000000000000000000000000000000000000000000000000000063ffffffff8516028152600160a060020a0390921660048301526024820152604401602060405180830381600087803b151561047057600080fd5b6102c65a03f1151561048157600080fd5b50505060405180519050151561038c57fe5b60015433600160a060020a039081169116146104ae57600080fd5b6000546001547f343765429aea5a34b3ff6a3785a98a5abb2597aca87bfbb58632c173d585373a91600160a060020a039081169116604051600160a060020a039283168152911660208201526040908101905180910390a1600180546000805473ffffffffffffffffffffffffffffffffffffffff19908116600160a060020a03841617909155169055565b60005433600160a060020a0390811691161461055257fe5b600254600160a060020a0316631608f18f826040517c010000000000000000000000000000000000000000000000000000000063ffffffff84160281529015156004820152602401600060405180830381600087803b151561024a57600080fd5b600054600160a060020a031681565b600154600160a060020a031681565b60005433600160a060020a039081169116146105e957fe5b600054600160a060020a038281169116141561060457600080fd5b6001805473ffffffffffffffffffffffffffffffffffffffff1916600160a060020a0392909216919091179055565b600254600160a060020a0316815600a165627a7a7230582059dde067b3d13a55bc66a2419b070c1107cde81f0d42e19337576d96f3e1bc9f0029",
  "source": "pragma solidity ^0.4.11;\nimport './TokenHolder.sol';\nimport './interfaces/ISmartToken.sol';\n\n/*\n    The smart token controller is an upgradable part of the smart token that allows\n    more functionality as well as fixes for bugs/exploits.\n    Once it accepts ownership of the token, it becomes the token's sole controller\n    that can execute any of its functions.\n\n    To upgrade the controller, ownership must be transferred to a new controller, along with\n    any relevant data.\n\n    The smart token must be set on construction and cannot be changed afterwards.\n    Wrappers are provided (as opposed to a single 'execute' function) for each of the token's functions, for easier access.\n\n    Note that the controller can transfer token ownership to a new controller that\n    doesn't allow executing any function on the token, for a trustless solution.\n    Doing that will also remove the owner's ability to upgrade the controller.\n*/\ncontract SmartTokenController is TokenHolder {\n    ISmartToken public token;   // smart token\n\n    /**\n        @dev constructor\n    */\n    function SmartTokenController(ISmartToken _token)\n        validAddress(_token)\n        public\n    {\n        token = _token;\n    }\n\n    // ensures that the controller is the token's owner\n    modifier active() {\n        assert(token.owner() == address(this));\n        _;\n    }\n\n    // ensures that the controller is not the token's owner\n    modifier inactive() {\n        assert(token.owner() != address(this));\n        _;\n    }\n\n    /**\n        @dev allows transferring the token ownership\n        the new owner still need to accept the transfer\n        can only be called by the contract owner\n\n        @param _newOwner    new token owner\n    */\n    function transferTokenOwnership(address _newOwner) public ownerOnly {\n        token.transferOwnership(_newOwner);\n    }\n\n    /**\n        @dev used by a new owner to accept a token ownership transfer\n        can only be called by the contract owner\n    */\n    function acceptTokenOwnership() public ownerOnly {\n        token.acceptOwnership();\n    }\n\n    /**\n        @dev disables/enables token transfers\n        can only be called by the contract owner\n\n        @param _disable    true to disable transfers, false to enable them\n    */\n    function disableTokenTransfers(bool _disable) public ownerOnly {\n        token.disableTransfers(_disable);\n    }\n\n    /**\n        @dev withdraws tokens held by the token and sends them to an account\n        can only be called by the owner\n\n        @param _token   ERC20 token contract address\n        @param _to      account to receive the new amount\n        @param _amount  amount to withdraw\n    */\n    function withdrawFromToken(IERC20Token _token, address _to, uint256 _amount) public ownerOnly {\n        ITokenHolder(token).withdrawTokens(_token, _to, _amount);\n    }\n}\n",
  "sourcePath": "/Users/chanopalis/Documents/ethereum-contracts/smart-law-contracts/DexRE-Contract/contracts/LiquidRE/bancor/SmartTokenController.sol",
  "schemaVersion": "1.0.0",
  "updatedAt": "2018-03-02T16:04:52.254Z"
}