{
  "contractName": "TestCrowdsaleController",
  "abi": [
    {
      "constant": true,
      "inputs": [],
      "name": "BTCS_ETHER_CAP",
      "outputs": [
        {
          "name": "",
          "type": "uint256"
        }
      ],
      "payable": false,
      "stateMutability": "view",
      "type": "function"
    },
    {
      "constant": true,
      "inputs": [],
      "name": "TOKEN_PRICE_D",
      "outputs": [
        {
          "name": "",
          "type": "uint256"
        }
      ],
      "payable": false,
      "stateMutability": "view",
      "type": "function"
    },
    {
      "constant": false,
      "inputs": [],
      "name": "contributeETH",
      "outputs": [
        {
          "name": "amount",
          "type": "uint256"
        }
      ],
      "payable": true,
      "stateMutability": "payable",
      "type": "function"
    },
    {
      "constant": true,
      "inputs": [],
      "name": "DURATION",
      "outputs": [
        {
          "name": "",
          "type": "uint256"
        }
      ],
      "payable": false,
      "stateMutability": "view",
      "type": "function"
    },
    {
      "constant": true,
      "inputs": [
        {
          "name": "_contribution",
          "type": "uint256"
        }
      ],
      "name": "computeReturn",
      "outputs": [
        {
          "name": "",
          "type": "uint256"
        }
      ],
      "payable": false,
      "stateMutability": "pure",
      "type": "function"
    },
    {
      "constant": false,
      "inputs": [
        {
          "name": "_newOwner",
          "type": "address"
        }
      ],
      "name": "transferTokenOwnership",
      "outputs": [],
      "payable": false,
      "stateMutability": "nonpayable",
      "type": "function"
    },
    {
      "constant": true,
      "inputs": [],
      "name": "endTime",
      "outputs": [
        {
          "name": "",
          "type": "uint256"
        }
      ],
      "payable": false,
      "stateMutability": "view",
      "type": "function"
    },
    {
      "constant": true,
      "inputs": [],
      "name": "totalEtherCap",
      "outputs": [
        {
          "name": "",
          "type": "uint256"
        }
      ],
      "payable": false,
      "stateMutability": "view",
      "type": "function"
    },
    {
      "constant": false,
      "inputs": [],
      "name": "acceptTokenOwnership",
      "outputs": [],
      "payable": false,
      "stateMutability": "nonpayable",
      "type": "function"
    },
    {
      "constant": true,
      "inputs": [],
      "name": "beneficiary",
      "outputs": [
        {
          "name": "",
          "type": "address"
        }
      ],
      "payable": false,
      "stateMutability": "view",
      "type": "function"
    },
    {
      "constant": false,
      "inputs": [
        {
          "name": "_token",
          "type": "address"
        },
        {
          "name": "_to",
          "type": "address"
        },
        {
          "name": "_amount",
          "type": "uint256"
        }
      ],
      "name": "withdrawFromToken",
      "outputs": [],
      "payable": false,
      "stateMutability": "nonpayable",
      "type": "function"
    },
    {
      "constant": true,
      "inputs": [],
      "name": "TOKEN_PRICE_N",
      "outputs": [
        {
          "name": "",
          "type": "uint256"
        }
      ],
      "payable": false,
      "stateMutability": "view",
      "type": "function"
    },
    {
      "constant": true,
      "inputs": [],
      "name": "version",
      "outputs": [
        {
          "name": "",
          "type": "string"
        }
      ],
      "payable": false,
      "stateMutability": "view",
      "type": "function"
    },
    {
      "constant": false,
      "inputs": [
        {
          "name": "_token",
          "type": "address"
        },
        {
          "name": "_to",
          "type": "address"
        },
        {
          "name": "_amount",
          "type": "uint256"
        }
      ],
      "name": "withdrawTokens",
      "outputs": [],
      "payable": false,
      "stateMutability": "nonpayable",
      "type": "function"
    },
    {
      "constant": true,
      "inputs": [],
      "name": "startTime",
      "outputs": [
        {
          "name": "",
          "type": "uint256"
        }
      ],
      "payable": false,
      "stateMutability": "view",
      "type": "function"
    },
    {
      "constant": false,
      "inputs": [],
      "name": "acceptOwnership",
      "outputs": [],
      "payable": false,
      "stateMutability": "nonpayable",
      "type": "function"
    },
    {
      "constant": false,
      "inputs": [
        {
          "name": "_disable",
          "type": "bool"
        }
      ],
      "name": "disableTokenTransfers",
      "outputs": [],
      "payable": false,
      "stateMutability": "nonpayable",
      "type": "function"
    },
    {
      "constant": true,
      "inputs": [],
      "name": "owner",
      "outputs": [
        {
          "name": "",
          "type": "address"
        }
      ],
      "payable": false,
      "stateMutability": "view",
      "type": "function"
    },
    {
      "constant": true,
      "inputs": [],
      "name": "realEtherCapHash",
      "outputs": [
        {
          "name": "",
          "type": "bytes32"
        }
      ],
      "payable": false,
      "stateMutability": "view",
      "type": "function"
    },
    {
      "constant": false,
      "inputs": [
        {
          "name": "_cap",
          "type": "uint256"
        },
        {
          "name": "_key",
          "type": "uint256"
        }
      ],
      "name": "enableRealCap",
      "outputs": [],
      "payable": false,
      "stateMutability": "nonpayable",
      "type": "function"
    },
    {
      "constant": false,
      "inputs": [],
      "name": "contributeBTCs",
      "outputs": [
        {
          "name": "amount",
          "type": "uint256"
        }
      ],
      "payable": true,
      "stateMutability": "payable",
      "type": "function"
    },
    {
      "constant": true,
      "inputs": [],
      "name": "totalEtherContributed",
      "outputs": [
        {
          "name": "",
          "type": "uint256"
        }
      ],
      "payable": false,
      "stateMutability": "view",
      "type": "function"
    },
    {
      "constant": true,
      "inputs": [],
      "name": "btcs",
      "outputs": [
        {
          "name": "",
          "type": "address"
        }
      ],
      "payable": false,
      "stateMutability": "view",
      "type": "function"
    },
    {
      "constant": true,
      "inputs": [],
      "name": "newOwner",
      "outputs": [
        {
          "name": "",
          "type": "address"
        }
      ],
      "payable": false,
      "stateMutability": "view",
      "type": "function"
    },
    {
      "constant": true,
      "inputs": [
        {
          "name": "_cap",
          "type": "uint256"
        },
        {
          "name": "_key",
          "type": "uint256"
        }
      ],
      "name": "computeRealCap",
      "outputs": [
        {
          "name": "",
          "type": "bytes32"
        }
      ],
      "payable": false,
      "stateMutability": "pure",
      "type": "function"
    },
    {
      "constant": true,
      "inputs": [],
      "name": "MAX_GAS_PRICE",
      "outputs": [
        {
          "name": "",
          "type": "uint256"
        }
      ],
      "payable": false,
      "stateMutability": "view",
      "type": "function"
    },
    {
      "constant": false,
      "inputs": [
        {
          "name": "_newOwner",
          "type": "address"
        }
      ],
      "name": "transferOwnership",
      "outputs": [],
      "payable": false,
      "stateMutability": "nonpayable",
      "type": "function"
    },
    {
      "constant": true,
      "inputs": [],
      "name": "token",
      "outputs": [
        {
          "name": "",
          "type": "address"
        }
      ],
      "payable": false,
      "stateMutability": "view",
      "type": "function"
    },
    {
      "inputs": [
        {
          "name": "_token",
          "type": "address"
        },
        {
          "name": "_startTime",
          "type": "uint256"
        },
        {
          "name": "_beneficiary",
          "type": "address"
        },
        {
          "name": "_btcs",
          "type": "address"
        },
        {
          "name": "_realEtherCapHash",
          "type": "bytes32"
        },
        {
          "name": "_startTimeOverride",
          "type": "uint256"
        }
      ],
      "payable": false,
      "stateMutability": "nonpayable",
      "type": "constructor"
    },
    {
      "payable": true,
      "stateMutability": "payable",
      "type": "fallback"
    },
    {
      "anonymous": false,
      "inputs": [
        {
          "indexed": true,
          "name": "_contributor",
          "type": "address"
        },
        {
          "indexed": false,
          "name": "_amount",
          "type": "uint256"
        },
        {
          "indexed": false,
          "name": "_return",
          "type": "uint256"
        }
      ],
      "name": "Contribution",
      "type": "event"
    },
    {
      "anonymous": false,
      "inputs": [
        {
          "indexed": false,
          "name": "_prevOwner",
          "type": "address"
        },
        {
          "indexed": false,
          "name": "_newOwner",
          "type": "address"
        }
      ],
      "name": "OwnerUpdate",
      "type": "event"
    }
  ],
  "bytecode": "0x60606040526040805190810160405260038082527f302e31000000000000000000000000000000000000000000000000000000000060208301529080516200004c929160200190620001bb565b5060006004819055600581905569d3c21bcecceda100000060065560075560098054600160a060020a0319908116909155600a8054909116905534156200009257600080fd5b60405160c08062000fdc83398101604052808051919060200180519190602001805191906020018051919060200180519190602001805160008054600160a060020a03191633600160a060020a0390811691909117909155909250879150869086908690869085908190811615156200010a57600080fd5b5060028054600160a060020a031916600160a060020a039283161790558390811615156200013757600080fd5b82600160a060020a03811615156200014e57600080fd5b85428190106200015a57fe5b83600081116200016957600080fd5b505060098054600160a060020a03968716600160a060020a031991821617909155600a805495909616941693909317909355600855505050600482905550621275000160055550620002609350505050565b828054600181600116156101000203166002900490600052602060002090601f016020900481019282601f10620001fe57805160ff19168380011785556200022e565b828001600101855582156200022e579182015b828111156200022e57825182559160200191906001019062000211565b506200023c92915062000240565b5090565b6200025d91905b808211156200023c576000815560010162000247565b90565b610d6c80620002706000396000f3006060604052361561014e5763ffffffff60e060020a60003504166301d1c7fd81146101595780630d2806ad1461017e578063175323a8146101915780631be05289146101995780631fc3a519146101ac57806321e6b53d146101c25780633197cbb6146101e357806334971dd6146101f657806338a5e0161461020957806338af3eed1461021c57806341a5b33d1461024b57806345cfad3e1461027357806354fd4d50146102865780635e35359e1461031057806378e979251461033857806379ba50971461034b57806385d5e6311461035e5780638da5cb5b14610376578063aa4bdd3b14610389578063ad03abc51461039c578063b3cffc6e146103b5578063b591fc69146103bd578063bb632244146103d0578063d4ee1d90146103e3578063e2119c80146103f6578063e3bbb4f11461040f578063f2fde38b14610422578063fc0c546a14610441575b610156610454565b50005b341561016457600080fd5b61016c610482565b60405190815260200160405180910390f35b341561018957600080fd5b61016c610490565b61016c610454565b34156101a457600080fd5b61016c610495565b34156101b757600080fd5b61016c60043561049c565b34156101cd57600080fd5b6101e1600160a060020a03600435166104bb565b005b34156101ee57600080fd5b61016c61053a565b341561020157600080fd5b61016c610540565b341561021457600080fd5b6101e1610546565b341561022757600080fd5b61022f6105b3565b604051600160a060020a03909116815260200160405180910390f35b341561025657600080fd5b6101e1600160a060020a03600435811690602435166044356105c2565b341561027e57600080fd5b61016c610656565b341561029157600080fd5b61029961065b565b60405160208082528190810183818151815260200191508051906020019080838360005b838110156102d55780820151838201526020016102bd565b50505050905090810190601f1680156103025780820380516001836020036101000a031916815260200191505b509250505060405180910390f35b341561031b57600080fd5b6101e1600160a060020a03600435811690602435166044356106f9565b341561034357600080fd5b61016c6107df565b341561035657600080fd5b6101e16107e5565b341561036957600080fd5b6101e1600435151561088c565b341561038157600080fd5b61022f6108ec565b341561039457600080fd5b61016c6108fb565b34156103a757600080fd5b6101e1600435602435610901565b61016c6109e5565b34156103c857600080fd5b61016c610a2d565b34156103db57600080fd5b61022f610a33565b34156103ee57600080fd5b61022f610a42565b341561040157600080fd5b61016c600435602435610a51565b341561041a57600080fd5b61016c610a74565b341561042d57600080fd5b6101e1600160a060020a0360043516610a7d565b341561044c57600080fd5b61022f610adf565b600060045460055481421015801561046b57508042105b151561047357fe5b61047b610aee565b9250505090565b690a968163f0a57b40000081565b606481565b6212750081565b600060016104ab836064610d06565b8115156104b457fe5b0492915050565b60005433600160a060020a039081169116146104d357fe5b600254600160a060020a031663f2fde38b8260405160e060020a63ffffffff8416028152600160a060020a039091166004820152602401600060405180830381600087803b151561052357600080fd5b6102c65a03f1151561053457600080fd5b50505050565b60055481565b60065481565b60005433600160a060020a0390811691161461055e57fe5b600254600160a060020a03166379ba50976040518163ffffffff1660e060020a028152600401600060405180830381600087803b151561059d57600080fd5b6102c65a03f115156105ae57600080fd5b505050565b600954600160a060020a031681565b60005433600160a060020a039081169116146105da57fe5b600254600160a060020a0316635e35359e84848460405160e060020a63ffffffff8616028152600160a060020a0393841660048201529190921660248201526044810191909152606401600060405180830381600087803b151561063d57600080fd5b6102c65a03f1151561064e57600080fd5b505050505050565b600181565b60038054600181600116156101000203166002900480601f0160208091040260200160405190810160405280929190818152602001828054600181600116156101000203166002900480156106f15780601f106106c6576101008083540402835291602001916106f1565b820191906000526020600020905b8154815290600101906020018083116106d457829003601f168201915b505050505081565b60005433600160a060020a0390811691161461071157fe5b82600160a060020a038116151561072757600080fd5b82600160a060020a038116151561073d57600080fd5b8330600160a060020a031681600160a060020a03161415151561075f57600080fd5b85600160a060020a031663a9059cbb868660006040516020015260405160e060020a63ffffffff8516028152600160a060020a0390921660048301526024820152604401602060405180830381600087803b15156107bc57600080fd5b6102c65a03f115156107cd57600080fd5b50505060405180519050151561064e57fe5b60045481565b60015433600160a060020a0390811691161461080057600080fd5b6000546001547f343765429aea5a34b3ff6a3785a98a5abb2597aca87bfbb58632c173d585373a91600160a060020a039081169116604051600160a060020a039283168152911660208201526040908101905180910390a1600180546000805473ffffffffffffffffffffffffffffffffffffffff19908116600160a060020a03841617909155169055565b60005433600160a060020a039081169116146108a457fe5b600254600160a060020a0316631608f18f8260405160e060020a63ffffffff84160281529015156004820152602401600060405180830381600087803b151561052357600080fd5b600054600160a060020a031681565b60085481565b60005433600160a060020a0390811691161461091957fe5b600254600160a060020a033081169116638da5cb5b6000604051602001526040518163ffffffff1660e060020a028152600401602060405180830381600087803b151561096557600080fd5b6102c65a03f1151561097657600080fd5b50505060405180519050600160a060020a031614151561099257fe5b6004546005548142101580156109a757508042105b15156109af57fe5b600854849084906109c08383610a51565b146109ca57600080fd5b60065486106109d857600080fd5b5050506006929092555050565b600a5460009033600160a060020a03908116911614610a0057fe5b34690a968163f0a57b400000610a1860075483610d31565b1115610a2057fe5b6004544281901061047357fe5b60075481565b600a54600160a060020a031681565b600154600160a060020a031681565b600082826040519182526020820152604090810190518091039020905092915050565b640ba43b740081565b60005433600160a060020a03908116911614610a9557fe5b600054600160a060020a0382811691161415610ab057600080fd5b6001805473ffffffffffffffffffffffffffffffffffffffff1916600160a060020a0392909216919091179055565b600254600160a060020a031681565b6002546000908190600160a060020a033081169116638da5cb5b83604051602001526040518163ffffffff1660e060020a028152600401602060405180830381600087803b1515610b3e57600080fd5b6102c65a03f11515610b4f57600080fd5b50505060405180519050600160a060020a0316141515610b6b57fe5b34600654610b7b60075483610d31565b1115610b8357fe5b640ba43b74003a1115610b9257fe5b610b9b3461049c565b600954909250600160a060020a03163480156108fc0290604051600060405180830381858888f193505050501515610bd257600080fd5b610bde60075434610d31565b600755600254600160a060020a031663867904b4338460405160e060020a63ffffffff8516028152600160a060020a0390921660048301526024820152604401600060405180830381600087803b1515610c3757600080fd5b6102c65a03f11515610c4857600080fd5b5050600254600954600160a060020a03918216925063867904b491168460405160e060020a63ffffffff8516028152600160a060020a0390921660048301526024820152604401600060405180830381600087803b1515610ca857600080fd5b6102c65a03f11515610cb957600080fd5b50505033600160a060020a03167f5f7675b09617d2c9fa4fd13058ee5877a9538f626b0308816736e83748a45040348460405191825260208201526040908101905180910390a250919050565b6000828202831580610d225750828482811515610d1f57fe5b04145b1515610d2a57fe5b9392505050565b600082820183811015610d2a57fe00a165627a7a72305820366d905d8795e79651f3dc3400bb94dec465a58a9485f63a9ab94579e88c33d70029",
  "source": "pragma solidity ^0.4.11;\nimport '../CrowdsaleController.sol';\n\n/*\n    Test crowdsale controller with start time < now < end time\n*/\ncontract TestCrowdsaleController is CrowdsaleController {\n    function TestCrowdsaleController(\n        ISmartToken _token,\n        uint256 _startTime,\n        address _beneficiary,\n        address _btcs,\n        bytes32 _realEtherCapHash,\n        uint256 _startTimeOverride)\n        public\n        CrowdsaleController(_token, _startTime, _beneficiary, _btcs, _realEtherCapHash)\n    {\n        startTime = _startTimeOverride;\n        endTime = startTime + DURATION;\n    }\n}\n",
  "sourcePath": "/Users/chanopalis/Documents/ethereum-contracts/smart-law-contracts/DexRE-Contract/contracts/LiquidRE/bancor/helpers/TestCrowdsaleController.sol",
  "schemaVersion": "1.0.0",
  "updatedAt": "2018-02-28T18:05:46.275Z"
}