{
  "contractName": "TestUtils",
  "abi": [
    {
      "constant": true,
      "inputs": [
        {
          "name": "_x",
          "type": "uint256"
        },
        {
          "name": "_y",
          "type": "uint256"
        }
      ],
      "name": "testSafeMul",
      "outputs": [
        {
          "name": "",
          "type": "uint256"
        }
      ],
      "payable": false,
      "stateMutability": "pure",
      "type": "function"
    },
    {
      "constant": true,
      "inputs": [
        {
          "name": "_x",
          "type": "uint256"
        },
        {
          "name": "_y",
          "type": "uint256"
        }
      ],
      "name": "testSafeAdd",
      "outputs": [
        {
          "name": "",
          "type": "uint256"
        }
      ],
      "payable": false,
      "stateMutability": "pure",
      "type": "function"
    },
    {
      "constant": true,
      "inputs": [
        {
          "name": "_x",
          "type": "uint256"
        },
        {
          "name": "_y",
          "type": "uint256"
        }
      ],
      "name": "testSafeSub",
      "outputs": [
        {
          "name": "",
          "type": "uint256"
        }
      ],
      "payable": false,
      "stateMutability": "pure",
      "type": "function"
    },
    {
      "inputs": [],
      "payable": false,
      "stateMutability": "nonpayable",
      "type": "constructor"
    }
  ],
  "bytecode": "0x6060604052341561000f57600080fd5b61014b8061001e6000396000f300606060405263ffffffff7c01000000000000000000000000000000000000000000000000000000006000350416639ee6ff708114610052578063de47864c1461007d578063ec0da3301461009657600080fd5b341561005d57600080fd5b61006b6004356024356100af565b60405190815260200160405180910390f35b341561008857600080fd5b61006b6004356024356100c2565b34156100a157600080fd5b61006b6004356024356100ce565b60006100bb83836100da565b9392505050565b60006100bb83836100fe565b60006100bb838361010d565b60008282028315806100f657508284828115156100f357fe5b04145b15156100bb57fe5b6000828201838110156100bb57fe5b60008183101561011957fe5b509003905600a165627a7a723058205b8866d13591081f8a8336c8aa83f126d9367a166f64f236326ab326a6d292f40029",
  "source": "pragma solidity ^0.4.11;\nimport '../Utils.sol';\n\n/*\n    Utils test helper that exposes the safe math functions\n*/\ncontract TestUtils is Utils {\n    function TestUtils() {\n    }\n\n    function testSafeAdd(uint256 _x, uint256 _y) public pure returns (uint256) {\n        return super.safeAdd(_x, _y);\n    }\n\n    function testSafeSub(uint256 _x, uint256 _y) public pure returns (uint256) {\n        return super.safeSub(_x, _y);\n    }\n\n    function testSafeMul(uint256 _x, uint256 _y) public pure returns (uint256) {\n        return super.safeMul(_x, _y);\n    }\n}\n",
  "sourcePath": "/Users/chanopalis/Documents/ethereum-contracts/smart-law-contracts/DexRE-Contract/contracts/LiquidRE/bancor/helpers/TestUtils.sol",
  "schemaVersion": "1.0.0",
  "updatedAt": "2018-03-02T16:04:52.256Z"
}