{
  "contractName": "TokenHolder",
  "abi": [
    {
      "constant": false,
      "inputs": [
        {
          "name": "_token",
          "type": "address"
        },
        {
          "name": "_to",
          "type": "address"
        },
        {
          "name": "_amount",
          "type": "uint256"
        }
      ],
      "name": "withdrawTokens",
      "outputs": [],
      "payable": false,
      "stateMutability": "nonpayable",
      "type": "function"
    },
    {
      "constant": false,
      "inputs": [],
      "name": "acceptOwnership",
      "outputs": [],
      "payable": false,
      "stateMutability": "nonpayable",
      "type": "function"
    },
    {
      "constant": true,
      "inputs": [],
      "name": "owner",
      "outputs": [
        {
          "name": "",
          "type": "address"
        }
      ],
      "payable": false,
      "stateMutability": "view",
      "type": "function"
    },
    {
      "constant": true,
      "inputs": [],
      "name": "newOwner",
      "outputs": [
        {
          "name": "",
          "type": "address"
        }
      ],
      "payable": false,
      "stateMutability": "view",
      "type": "function"
    },
    {
      "constant": false,
      "inputs": [
        {
          "name": "_newOwner",
          "type": "address"
        }
      ],
      "name": "transferOwnership",
      "outputs": [],
      "payable": false,
      "stateMutability": "nonpayable",
      "type": "function"
    },
    {
      "inputs": [],
      "payable": false,
      "stateMutability": "nonpayable",
      "type": "constructor"
    },
    {
      "anonymous": false,
      "inputs": [
        {
          "indexed": false,
          "name": "_prevOwner",
          "type": "address"
        },
        {
          "indexed": false,
          "name": "_newOwner",
          "type": "address"
        }
      ],
      "name": "OwnerUpdate",
      "type": "event"
    }
  ],
  "bytecode": "0x6060604052341561000f57600080fd5b60008054600160a060020a033316600160a060020a03199091161790556103608061003b6000396000f300606060405263ffffffff7c01000000000000000000000000000000000000000000000000000000006000350416635e35359e811461006857806379ba5097146100925780638da5cb5b146100a5578063d4ee1d90146100d4578063f2fde38b146100e757600080fd5b341561007357600080fd5b610090600160a060020a0360043581169060243516604435610106565b005b341561009d57600080fd5b61009061020d565b34156100b057600080fd5b6100b86102b4565b604051600160a060020a03909116815260200160405180910390f35b34156100df57600080fd5b6100b86102c3565b34156100f257600080fd5b610090600160a060020a03600435166102d2565b60005433600160a060020a0390811691161461011e57fe5b82600160a060020a038116151561013457600080fd5b82600160a060020a038116151561014a57600080fd5b8330600160a060020a031681600160a060020a03161415151561016c57600080fd5b85600160a060020a031663a9059cbb86866000604051602001526040517c010000000000000000000000000000000000000000000000000000000063ffffffff8516028152600160a060020a0390921660048301526024820152604401602060405180830381600087803b15156101e257600080fd5b6102c65a03f115156101f357600080fd5b50505060405180519050151561020557fe5b505050505050565b60015433600160a060020a0390811691161461022857600080fd5b6000546001547f343765429aea5a34b3ff6a3785a98a5abb2597aca87bfbb58632c173d585373a91600160a060020a039081169116604051600160a060020a039283168152911660208201526040908101905180910390a1600180546000805473ffffffffffffffffffffffffffffffffffffffff19908116600160a060020a03841617909155169055565b600054600160a060020a031681565b600154600160a060020a031681565b60005433600160a060020a039081169116146102ea57fe5b600054600160a060020a038281169116141561030557600080fd5b6001805473ffffffffffffffffffffffffffffffffffffffff1916600160a060020a03929092169190911790555600a165627a7a723058208ca579be7eb90e50e17bdb52da02f18917583a7c939c7db4cc9486a3f358b1000029",
  "source": "pragma solidity ^0.4.11;\nimport './Owned.sol';\nimport './Utils.sol';\nimport './interfaces/IERC20Token.sol';\nimport './interfaces/ITokenHolder.sol';\n\n/*\n    We consider every contract to be a 'token holder' since it's currently not possible\n    for a contract to deny receiving tokens.\n\n    The TokenHolder's contract sole purpose is to provide a safety mechanism that allows\n    the owner to send tokens that were sent to the contract by mistake back to their sender.\n*/\ncontract TokenHolder is ITokenHolder, Owned, Utils {\n    /**\n        @dev constructor\n    */\n    function TokenHolder() public {\n    }\n\n    /**\n        @dev withdraws tokens held by the contract and sends them to an account\n        can only be called by the owner\n\n        @param _token   ERC20 token contract address\n        @param _to      account to receive the new amount\n        @param _amount  amount to withdraw\n    */\n    function withdrawTokens(IERC20Token _token, address _to, uint256 _amount)\n        public\n        ownerOnly\n        validAddress(_token)\n        validAddress(_to)\n        notThis(_to)\n    {\n        assert(_token.transfer(_to, _amount));\n    }\n}\n",
  "sourcePath": "/Users/chanopalis/Documents/ethereum-contracts/smart-law-contracts/DexRE-Contract/contracts/LiquidRE/bancor/TokenHolder.sol",
  "schemaVersion": "1.0.0",
  "updatedAt": "2018-03-02T16:04:52.254Z"
}