{
  "contractName": "Trust",
  "abi": [
    {
      "constant": true,
      "inputs": [],
      "name": "name",
      "outputs": [
        {
          "name": "",
          "type": "string"
        }
      ],
      "payable": false,
      "stateMutability": "view",
      "type": "function"
    },
    {
      "constant": true,
      "inputs": [],
      "name": "property",
      "outputs": [
        {
          "name": "",
          "type": "string"
        }
      ],
      "payable": false,
      "stateMutability": "view",
      "type": "function"
    },
    {
      "constant": true,
      "inputs": [],
      "name": "deleted",
      "outputs": [
        {
          "name": "",
          "type": "bool"
        }
      ],
      "payable": false,
      "stateMutability": "view",
      "type": "function"
    },
    {
      "inputs": [],
      "payable": false,
      "stateMutability": "nonpayable",
      "type": "constructor"
    }
  ],
  "bytecode": "0x6060604052341561000f57600080fd5b6002805460ff19169055610254806100286000396000f300606060405263ffffffff7c010000000000000000000000000000000000000000000000000000000060003504166306fdde038114610052578063176fd3f0146100dc5780636b35f7c1146100ef57600080fd5b341561005d57600080fd5b610065610116565b60405160208082528190810183818151815260200191508051906020019080838360005b838110156100a1578082015183820152602001610089565b50505050905090810190601f1680156100ce5780820380516001836020036101000a031916815260200191505b509250505060405180910390f35b34156100e757600080fd5b6100656101b4565b34156100fa57600080fd5b61010261021f565b604051901515815260200160405180910390f35b60008054600181600116156101000203166002900480601f0160208091040260200160405190810160405280929190818152602001828054600181600116156101000203166002900480156101ac5780601f10610181576101008083540402835291602001916101ac565b820191906000526020600020905b81548152906001019060200180831161018f57829003601f168201915b505050505081565b60018054600181600116156101000203166002900480601f0160208091040260200160405190810160405280929190818152602001828054600181600116156101000203166002900480156101ac5780601f10610181576101008083540402835291602001916101ac565b60025460ff16815600a165627a7a723058202fb2385a213de75045e9b5c7ccaf58c55e12a02fa235e3f23ae0c303d3dc73790029",
  "source": "pragma solidity ^0.4.4;\n\ncontract Trust {\n\n    string public name;\n    string public property;\n    bool public deleted;\n\n    function Trust() public {\n        deleted = false;\n    }\n\n    modifier notDissolved() {\n        require(deleted == false);\n        _;\n    }\n\n    function wasRestored()\n        internal\n    {\n        deleted = false;\n    }\n\n    function wasDissolved()\n        internal\n    {\n        deleted = true;\n    }\n\n}\n",
  "sourcePath": "/Users/chanopalis/Documents/ethereum-contracts/smart-law-contracts/DexRE-Contract/contracts/Trust.sol",
  "schemaVersion": "1.0.0",
  "updatedAt": "2018-02-28T18:05:46.285Z"
}