{
  "contractName": "Trustee",
  "abi": [
    {
      "constant": false,
      "inputs": [
        {
          "name": "_trust",
          "type": "address"
        }
      ],
      "name": "addTrust",
      "outputs": [],
      "payable": false,
      "stateMutability": "nonpayable",
      "type": "function"
    },
    {
      "constant": true,
      "inputs": [],
      "name": "name",
      "outputs": [
        {
          "name": "",
          "type": "string"
        }
      ],
      "payable": false,
      "stateMutability": "view",
      "type": "function"
    },
    {
      "constant": true,
      "inputs": [],
      "name": "DexREAdmin",
      "outputs": [
        {
          "name": "",
          "type": "address"
        }
      ],
      "payable": false,
      "stateMutability": "view",
      "type": "function"
    },
    {
      "constant": true,
      "inputs": [],
      "name": "status",
      "outputs": [
        {
          "name": "",
          "type": "bool"
        }
      ],
      "payable": false,
      "stateMutability": "view",
      "type": "function"
    },
    {
      "constant": true,
      "inputs": [
        {
          "name": "",
          "type": "uint256"
        }
      ],
      "name": "IREOs",
      "outputs": [
        {
          "name": "",
          "type": "address"
        }
      ],
      "payable": false,
      "stateMutability": "view",
      "type": "function"
    },
    {
      "constant": false,
      "inputs": [
        {
          "name": "_sender",
          "type": "address"
        }
      ],
      "name": "acceptOwnership",
      "outputs": [],
      "payable": false,
      "stateMutability": "nonpayable",
      "type": "function"
    },
    {
      "constant": true,
      "inputs": [
        {
          "name": "",
          "type": "uint256"
        }
      ],
      "name": "trusts",
      "outputs": [
        {
          "name": "",
          "type": "address"
        }
      ],
      "payable": false,
      "stateMutability": "view",
      "type": "function"
    },
    {
      "constant": false,
      "inputs": [
        {
          "name": "_sender",
          "type": "address"
        },
        {
          "name": "_newOwner",
          "type": "address"
        }
      ],
      "name": "transferOwnership",
      "outputs": [],
      "payable": false,
      "stateMutability": "nonpayable",
      "type": "function"
    },
    {
      "constant": true,
      "inputs": [],
      "name": "IREOsAddresses",
      "outputs": [
        {
          "name": "",
          "type": "address[]"
        }
      ],
      "payable": false,
      "stateMutability": "view",
      "type": "function"
    },
    {
      "constant": false,
      "inputs": [
        {
          "name": "_amount",
          "type": "uint256"
        },
        {
          "name": "_source",
          "type": "string"
        }
      ],
      "name": "mint",
      "outputs": [],
      "payable": false,
      "stateMutability": "nonpayable",
      "type": "function"
    },
    {
      "constant": true,
      "inputs": [
        {
          "name": "_source",
          "type": "string"
        }
      ],
      "name": "availableFunds",
      "outputs": [
        {
          "name": "",
          "type": "uint256"
        }
      ],
      "payable": false,
      "stateMutability": "view",
      "type": "function"
    },
    {
      "constant": false,
      "inputs": [
        {
          "name": "_IREO",
          "type": "address"
        }
      ],
      "name": "addIREO",
      "outputs": [],
      "payable": false,
      "stateMutability": "nonpayable",
      "type": "function"
    },
    {
      "constant": true,
      "inputs": [],
      "name": "owner",
      "outputs": [
        {
          "name": "",
          "type": "address"
        }
      ],
      "payable": false,
      "stateMutability": "view",
      "type": "function"
    },
    {
      "constant": true,
      "inputs": [],
      "name": "trustAddresses",
      "outputs": [
        {
          "name": "",
          "type": "address[]"
        }
      ],
      "payable": false,
      "stateMutability": "view",
      "type": "function"
    },
    {
      "constant": true,
      "inputs": [],
      "name": "verified",
      "outputs": [
        {
          "name": "",
          "type": "bool"
        }
      ],
      "payable": false,
      "stateMutability": "view",
      "type": "function"
    },
    {
      "constant": true,
      "inputs": [],
      "name": "factory",
      "outputs": [
        {
          "name": "",
          "type": "address"
        }
      ],
      "payable": false,
      "stateMutability": "view",
      "type": "function"
    },
    {
      "constant": true,
      "inputs": [],
      "name": "LiquidREAdmin",
      "outputs": [
        {
          "name": "",
          "type": "address"
        }
      ],
      "payable": false,
      "stateMutability": "view",
      "type": "function"
    },
    {
      "constant": true,
      "inputs": [],
      "name": "newOwner",
      "outputs": [
        {
          "name": "",
          "type": "address"
        }
      ],
      "payable": false,
      "stateMutability": "view",
      "type": "function"
    },
    {
      "constant": true,
      "inputs": [
        {
          "name": "",
          "type": "uint256"
        }
      ],
      "name": "LRETs",
      "outputs": [
        {
          "name": "",
          "type": "address"
        }
      ],
      "payable": false,
      "stateMutability": "view",
      "type": "function"
    },
    {
      "constant": false,
      "inputs": [
        {
          "name": "_amount",
          "type": "uint256"
        },
        {
          "name": "_source",
          "type": "string"
        }
      ],
      "name": "withdraw",
      "outputs": [],
      "payable": false,
      "stateMutability": "nonpayable",
      "type": "function"
    },
    {
      "constant": false,
      "inputs": [],
      "name": "disabled",
      "outputs": [],
      "payable": false,
      "stateMutability": "nonpayable",
      "type": "function"
    },
    {
      "constant": false,
      "inputs": [
        {
          "name": "_amount",
          "type": "uint256"
        },
        {
          "name": "_source",
          "type": "string"
        }
      ],
      "name": "deposit",
      "outputs": [],
      "payable": false,
      "stateMutability": "nonpayable",
      "type": "function"
    },
    {
      "constant": false,
      "inputs": [],
      "name": "verify",
      "outputs": [],
      "payable": false,
      "stateMutability": "nonpayable",
      "type": "function"
    },
    {
      "inputs": [
        {
          "name": "_dexRE",
          "type": "address"
        },
        {
          "name": "_liquidRE",
          "type": "address"
        },
        {
          "name": "_owner",
          "type": "address"
        },
        {
          "name": "_name",
          "type": "string"
        }
      ],
      "payable": false,
      "stateMutability": "nonpayable",
      "type": "constructor"
    }
  ],
  "bytecode": "0x606060405234156200001057600080fd5b604051620013923803806200139283398101604052808051919060200180519190602001805191906020018051909101905033828585600060016040517f44657852450000000000000000000000000000000000000000000000000000008152600581019190915260250160405190819003902055600060016040517f4c6971756964524500000000000000000000000000000000000000000000000081526008810191909152602801604051908190039020556002805460008054600160a060020a0319908116600160a060020a0398891617909155600160a860020a0319909116610100958716959095029490941790556004805484169285169290921790915560058054740100000000000000000000000000000000000000009316919093161760a060020a60ff02191617905560068180516200015692916020019062000161565b505050505062000206565b828054600181600116156101000203166002900490600052602060002090601f016020900481019282601f10620001a457805160ff1916838001178555620001d4565b82800160010185558215620001d4579182015b82811115620001d4578251825591602001919060010190620001b7565b50620001e2929150620001e6565b5090565b6200020391905b80821115620001e25760008155600101620001ed565b90565b61117c80620002166000396000f300606060405236156101305763ffffffff7c0100000000000000000000000000000000000000000000000000000000600035041663048915e4811461013557806306fdde03146101565780631eac9657146101e0578063200d2ed21461020f5780634eb80a051461023657806351710e451461024c578063582c4e2b1461026b5780636d435421146102815780637137e37c146102a657806377097fc81461030c57806381b7a2ec1461036257806388d34efd146103c55780638da5cb5b146103e4578063afc637bf146103f7578063bbb82d891461040a578063c45a01551461041d578063c908b58e14610430578063d4ee1d9014610443578063d9fd9c4214610456578063dc048cf21461046c578063ee070805146104c2578063f1215d25146104d5578063fc735e991461052b575b600080fd5b341561014057600080fd5b610154600160a060020a036004351661053e565b005b341561016157600080fd5b6101696105bf565b60405160208082528190810183818151815260200191508051906020019080838360005b838110156101a557808201518382015260200161018d565b50505050905090810190601f1680156101d25780820380516001836020036101000a031916815260200191505b509250505060405180910390f35b34156101eb57600080fd5b6101f361065d565b604051600160a060020a03909116815260200160405180910390f35b341561021a57600080fd5b61022261066c565b604051901515815260200160405180910390f35b341561024157600080fd5b6101f360043561068d565b341561025757600080fd5b610154600160a060020a03600435166106b5565b341561027657600080fd5b6101f3600435610737565b341561028c57600080fd5b610154600160a060020a0360043581169060243516610745565b34156102b157600080fd5b6102b96107d2565b60405160208082528190810183818151815260200191508051906020019060200280838360005b838110156102f85780820151838201526020016102e0565b505050509050019250505060405180910390f35b341561031757600080fd5b610154600480359060446024803590810190830135806020601f8201819004810201604051908101604052818152929190602084018383808284375094965061083b95505050505050565b341561036d57600080fd5b6103b360046024813581810190830135806020601f82018190048102016040519081016040528181529291906020840183838082843750949650610a7495505050505050565b60405190815260200160405180910390f35b34156103d057600080fd5b610154600160a060020a0360043516610b51565b34156103ef57600080fd5b6101f3610b99565b341561040257600080fd5b6102b9610bad565b341561041557600080fd5b610222610c13565b341561042857600080fd5b6101f3610c1c565b341561043b57600080fd5b6101f3610c2b565b341561044e57600080fd5b6101f3610c3a565b341561046157600080fd5b6101f3600435610c49565b341561047757600080fd5b610154600480359060446024803590810190830135806020601f82018190048102016040519081016040528181529291906020840183838082843750949650610c5795505050505050565b34156104cd57600080fd5b610154610e97565b34156104e057600080fd5b610154600480359060446024803590810190830135806020601f82018190048102016040519081016040528181529291906020840183838082843750949650610eed95505050505050565b341561053657600080fd5b6101546110b2565b60045433600160a060020a0390811691161480610569575060055433600160a060020a039081169116145b151561057457600080fd5b600780546001810161058683826110f7565b506000918252602090912001805473ffffffffffffffffffffffffffffffffffffffff1916600160a060020a0392909216919091179055565b60068054600181600116156101000203166002900480601f0160208091040260200160405190810160405280929190818152602001828054600181600116156101000203166002900480156106555780601f1061062a57610100808354040283529160200191610655565b820191906000526020600020905b81548152906001019060200180831161063857829003601f168201915b505050505081565b600454600160a060020a031681565b60055474010000000000000000000000000000000000000000900460ff1681565b600880548290811061069b57fe5b600091825260209091200154600160a060020a0316905081565b60005433600160a060020a039081169116146106d057600080fd5b600354600160a060020a038281169116146106ea57600080fd5b50600380546002805474ffffffffffffffffffffffffffffffffffffffff001916610100600160a060020a0384160217905573ffffffffffffffffffffffffffffffffffffffff19169055565b600780548290811061069b57fe5b6002548290600160a060020a03808316610100909204161461076657600080fd5b60005433600160a060020a0390811691161461078157600080fd5b600254600160a060020a038381166101009092041614156107a157600080fd5b506003805473ffffffffffffffffffffffffffffffffffffffff1916600160a060020a039290921691909117905550565b6107da611120565b600880548060200260200160405190810160405280929190818152602001828054801561083057602002820191906000526020600020905b8154600160a060020a03168152600190910190602001808311610812575b505050505090505b90565b60045433600160a060020a0390811691161480610866575060055433600160a060020a039081169116145b151561087157600080fd5b60405160d860020a644465785245028152600501604051908190039020816040518082805190602001908083835b602083106108be5780518252601f19909201916020918201910161089f565b6001836020036101000a0380198251168184511617909252505050919091019250604091505051908190039020148061098357506040517f4c697175696452450000000000000000000000000000000000000000000000008152600801604051908190039020816040518082805190602001908083835b602083106109545780518252601f199092019160209182019101610935565b6001836020036101000a0380198251168184511617909252505050919091019250604091505051908190039020145b151561098e57600080fd5b816001826040518082805190602001908083835b602083106109c15780518252601f1990920191602091820191016109a2565b6001836020036101000a038019825116818451168082178552505050505050905001915050908152602001604051908190039020541015610a0157600080fd5b816001826040518082805190602001908083835b60208310610a345780518252601f199092019160209182019101610a15565b6001836020036101000a03801982511681845116808217855250505050505090500191505090815260200160405190819003902080549190910390555050565b60025460009033600160a060020a03908116610100909204161480610aa7575060005433600160a060020a039081169116145b80610ac0575060045433600160a060020a039081169116145b80610ad9575060055433600160a060020a039081169116145b1515610ae457600080fd5b6001826040518082805190602001908083835b60208310610b165780518252601f199092019160209182019101610af7565b6001836020036101000a0380198251168184511680821785525050505050509050019150509081526020016040518091039020549050919050565b60045433600160a060020a0390811691161480610b7c575060055433600160a060020a039081169116145b1515610b8757600080fd5b600880546001810161058683826110f7565b6002546101009004600160a060020a031681565b610bb5611120565b600780548060200260200160405190810160405280929190818152602001828054801561083057602002820191906000526020600020908154600160a060020a03168152600190910190602001808311610812575050505050905090565b60025460ff1681565b600054600160a060020a031681565b600554600160a060020a031681565b600354600160a060020a031681565b600980548290811061069b57fe5b6002546000903390600160a060020a038083166101009092041614610c7b57600080fd5b60405160d860020a644465785245028152600501604051908190039020836040518082805190602001908083835b60208310610cc85780518252601f199092019160209182019101610ca9565b6001836020036101000a03801982511681845116179092525050509190910192506040915050519081900390201480610d8d57506040517f4c697175696452450000000000000000000000000000000000000000000000008152600801604051908190039020836040518082805190602001908083835b60208310610d5e5780518252601f199092019160209182019101610d3f565b6001836020036101000a0380198251168184511617909252505050919091019250604091505051908190039020145b1515610d9857600080fd5b60405160d860020a644465785245028152600501604051908190039020836040518082805190602001908083835b60208310610de55780518252601f199092019160209182019101610dc6565b6001836020036101000a03801982511681845116179092525050509190910192506040915050519081900390201415610e9157600454600160a060020a0316915081632e1a7d4d856040517c010000000000000000000000000000000000000000000000000000000063ffffffff84160281526004810191909152602401600060405180830381600087803b1515610e7c57600080fd5b6102c65a03f11515610e8d57600080fd5b5050505b50505050565b60045433600160a060020a0390811691161480610ec2575060055433600160a060020a039081169116145b1515610ecd57600080fd5b6005805474ff000000000000000000000000000000000000000019169055565b60045433600160a060020a0390811691161480610f18575060055433600160a060020a039081169116145b1515610f2357600080fd5b60405160d860020a644465785245028152600501604051908190039020816040518082805190602001908083835b60208310610f705780518252601f199092019160209182019101610f51565b6001836020036101000a0380198251168184511617909252505050919091019250604091505051908190039020148061103557506040517f4c697175696452450000000000000000000000000000000000000000000000008152600801604051908190039020816040518082805190602001908083835b602083106110065780518252601f199092019160209182019101610fe7565b6001836020036101000a0380198251168184511617909252505050919091019250604091505051908190039020145b151561104057600080fd5b816001826040518082805190602001908083835b602083106110735780518252601f199092019160209182019101611054565b6001836020036101000a038019825116818451168082178552505050505050905001915050908152602001604051908190039020805490910190555050565b60045433600160a060020a03908116911614806110dd575060055433600160a060020a039081169116145b15156110e857600080fd5b6002805460ff19166001179055565b81548183558181151161111b5760008381526020902061111b918101908301611132565b505050565b60206040519081016040526000815290565b61083891905b8082111561114c5760008155600101611138565b50905600a165627a7a723058202d82b5aae8265de384a7b08900ede0f6613a2463afcdd3f09de360018039b7840029",
  "source": "pragma solidity ^0.4.4;\nimport './User.sol';\nimport { IREO } from './LiquidRE/IREO.sol';\n\ncontract Trustee is User {\n\n    string public name;\n    address[] public trusts;\n    address[] public IREOs;\n    address[] public LRETs;\n\n    function Trustee(\n        address _dexRE,\n        address _liquidRE,\n        address _owner,\n        string _name\n    )\n        public\n        User(msg.sender, _owner, _dexRE, _liquidRE)\n    {\n        name = _name;\n    }\n\n    function trustAddresses()\n        public\n        view returns(address[])\n    {\n        return trusts;\n    }\n\n    function addTrust(address _trust)\n        public\n        adminOnly\n    {\n        trusts.push(_trust);\n    }\n\n    function IREOsAddresses()\n        public\n        view returns(address[])\n    {\n        return IREOs;\n    }\n\n    function addIREO(address _IREO)\n        public\n        adminOnly\n    {\n        IREOs.push(_IREO);\n    }\n\n}\n",
  "sourcePath": "/Users/chanopalis/Documents/ethereum-contracts/smart-law-contracts/DexRE-Contract/contracts/Trustee.sol",
  "schemaVersion": "1.0.0",
  "updatedAt": "2018-02-28T18:05:46.288Z"
}