{
  "contractName": "TrusteeFactory",
  "abi": [
    {
      "constant": true,
      "inputs": [
        {
          "name": "_address",
          "type": "address"
        }
      ],
      "name": "isTrusteeOwner",
      "outputs": [
        {
          "name": "",
          "type": "bool"
        }
      ],
      "payable": false,
      "stateMutability": "view",
      "type": "function"
    },
    {
      "constant": false,
      "inputs": [
        {
          "name": "_trustee",
          "type": "address"
        },
        {
          "name": "_newOwner",
          "type": "address"
        }
      ],
      "name": "transferTrusteeOwnership",
      "outputs": [],
      "payable": false,
      "stateMutability": "nonpayable",
      "type": "function"
    },
    {
      "constant": false,
      "inputs": [
        {
          "name": "_address",
          "type": "address"
        }
      ],
      "name": "setDexRE",
      "outputs": [],
      "payable": false,
      "stateMutability": "nonpayable",
      "type": "function"
    },
    {
      "constant": false,
      "inputs": [
        {
          "name": "_name",
          "type": "string"
        }
      ],
      "name": "newTrustee",
      "outputs": [],
      "payable": false,
      "stateMutability": "nonpayable",
      "type": "function"
    },
    {
      "constant": true,
      "inputs": [
        {
          "name": "",
          "type": "uint256"
        }
      ],
      "name": "trustees",
      "outputs": [
        {
          "name": "",
          "type": "address"
        }
      ],
      "payable": false,
      "stateMutability": "view",
      "type": "function"
    },
    {
      "constant": true,
      "inputs": [],
      "name": "dexRE",
      "outputs": [
        {
          "name": "",
          "type": "address"
        }
      ],
      "payable": false,
      "stateMutability": "view",
      "type": "function"
    },
    {
      "constant": false,
      "inputs": [],
      "name": "acceptOwnership",
      "outputs": [],
      "payable": false,
      "stateMutability": "nonpayable",
      "type": "function"
    },
    {
      "constant": true,
      "inputs": [],
      "name": "owner",
      "outputs": [
        {
          "name": "",
          "type": "address"
        }
      ],
      "payable": false,
      "stateMutability": "view",
      "type": "function"
    },
    {
      "constant": true,
      "inputs": [
        {
          "name": "_owner",
          "type": "address"
        }
      ],
      "name": "trusteeAddress",
      "outputs": [
        {
          "name": "",
          "type": "address"
        }
      ],
      "payable": false,
      "stateMutability": "view",
      "type": "function"
    },
    {
      "constant": false,
      "inputs": [
        {
          "name": "_trustee",
          "type": "address"
        }
      ],
      "name": "acceptTrusteeOwnership",
      "outputs": [],
      "payable": false,
      "stateMutability": "nonpayable",
      "type": "function"
    },
    {
      "constant": true,
      "inputs": [
        {
          "name": "_trustee",
          "type": "address"
        }
      ],
      "name": "trusteeOwner",
      "outputs": [
        {
          "name": "",
          "type": "address"
        }
      ],
      "payable": false,
      "stateMutability": "view",
      "type": "function"
    },
    {
      "constant": false,
      "inputs": [
        {
          "name": "_address",
          "type": "address"
        }
      ],
      "name": "setLiquidRE",
      "outputs": [],
      "payable": false,
      "stateMutability": "nonpayable",
      "type": "function"
    },
    {
      "constant": true,
      "inputs": [
        {
          "name": "_address",
          "type": "address"
        }
      ],
      "name": "isTrustee",
      "outputs": [
        {
          "name": "",
          "type": "bool"
        }
      ],
      "payable": false,
      "stateMutability": "view",
      "type": "function"
    },
    {
      "constant": true,
      "inputs": [],
      "name": "newOwner",
      "outputs": [
        {
          "name": "",
          "type": "address"
        }
      ],
      "payable": false,
      "stateMutability": "view",
      "type": "function"
    },
    {
      "constant": true,
      "inputs": [],
      "name": "liquidRE",
      "outputs": [
        {
          "name": "",
          "type": "address"
        }
      ],
      "payable": false,
      "stateMutability": "view",
      "type": "function"
    },
    {
      "constant": true,
      "inputs": [],
      "name": "trusteeAddresses",
      "outputs": [
        {
          "name": "",
          "type": "address[]"
        }
      ],
      "payable": false,
      "stateMutability": "view",
      "type": "function"
    },
    {
      "constant": false,
      "inputs": [
        {
          "name": "_newOwner",
          "type": "address"
        }
      ],
      "name": "transferOwnership",
      "outputs": [],
      "payable": false,
      "stateMutability": "nonpayable",
      "type": "function"
    },
    {
      "inputs": [],
      "payable": false,
      "stateMutability": "nonpayable",
      "type": "constructor"
    },
    {
      "anonymous": false,
      "inputs": [
        {
          "indexed": false,
          "name": "trustee",
          "type": "address"
        }
      ],
      "name": "TrusteeCreated",
      "type": "event"
    },
    {
      "anonymous": false,
      "inputs": [
        {
          "indexed": false,
          "name": "_prevOwner",
          "type": "address"
        },
        {
          "indexed": false,
          "name": "_newOwner",
          "type": "address"
        }
      ],
      "name": "OwnerUpdate",
      "type": "event"
    }
  ],
  "bytecode": "0x6060604052341561000f57600080fd5b60008054600160a060020a033316600160a060020a0319909116179055611e848061003b6000396000f300606060405236156100ee5763ffffffff7c010000000000000000000000000000000000000000000000000000000060003504166318bfb38081146100f3578063302deadd146101265780634e8d24311461014d578063711ad9d11461016c578063717d63a4146101bd5780637456ce2a146101ef57806379ba5097146102025780638da5cb5b14610215578063960e9ff4146102285780639a0fe13214610247578063aef3f15e14610266578063b17e210e14610285578063c784cd17146102a4578063d4ee1d90146102c3578063e43560bf146102d6578063edd1b4c8146102e9578063f2fde38b1461034f575b600080fd5b34156100fe57600080fd5b610112600160a060020a036004351661036e565b604051901515815260200160405180910390f35b341561013157600080fd5b61014b600160a060020a036004358116906024351661038e565b005b341561015857600080fd5b61014b600160a060020a0360043516610443565b341561017757600080fd5b61014b60046024813581810190830135806020601f8201819004810201604051908101604052818152929190602084018383808284375094965061048d95505050505050565b34156101c857600080fd5b6101d3600435610649565b604051600160a060020a03909116815260200160405180910390f35b34156101fa57600080fd5b6101d3610671565b341561020d57600080fd5b61014b610680565b341561022057600080fd5b6101d3610727565b341561023357600080fd5b6101d3600160a060020a0360043516610736565b341561025257600080fd5b61014b600160a060020a0360043516610754565b341561027157600080fd5b6101d3600160a060020a036004351661086c565b341561029057600080fd5b61014b600160a060020a03600435166108b5565b34156102af57600080fd5b610112600160a060020a03600435166108ff565b34156102ce57600080fd5b6101d361091d565b34156102e157600080fd5b6101d361092c565b34156102f457600080fd5b6102fc61093b565b60405160208082528190810183818151815260200191508051906020019060200280838360005b8381101561033b578082015183820152602001610323565b505050509050019250505060405180910390f35b341561035a57600080fd5b61014b600160a060020a03600435166109a4565b600160a060020a0390811660009081526004602052604090205416151590565b600160a060020a038216600090815260036020526040812054839060ff1615156103b757600080fd5b83915081600160a060020a0316636d43542133856040517c010000000000000000000000000000000000000000000000000000000063ffffffff8516028152600160a060020a03928316600482015291166024820152604401600060405180830381600087803b151561042957600080fd5b6102c65a03f1151561043a57600080fd5b50505050505050565b60005433600160a060020a0390811691161461045e57600080fd5b6006805473ffffffffffffffffffffffffffffffffffffffff1916600160a060020a0392909216919091179055565b600160a060020a0333818116600090815260046020526040812054909216156104b557600080fd5b600654600754600160a060020a03918216911633856104d2610a09565b600160a060020a03808616825284811660208301528316604082015260806060820181815290820183818151815260200191508051906020019080838360005b8381101561052a578082015183820152602001610512565b50505050905090810190601f1680156105575780820380516001836020036101000a031916815260200191505b5095505050505050604051809103906000f080151561057557600080fd5b91506002805480600101828161058b9190610a19565b5060009182526020808320919091018054600160a060020a0380871673ffffffffffffffffffffffffffffffffffffffff199283168117909355828552600384526040808620805460ff19166001179055339091168086526004855281862080548416851790559285526005909352928290208054909316179091557f230a34263bf89d4e369929a8f730f4be00b8d918d57d3e292e7103d21a5f5f9a90839051600160a060020a03909116815260200160405180910390a1505050565b600280548290811061065757fe5b600091825260209091200154600160a060020a0316905081565b600654600160a060020a031681565b60015433600160a060020a0390811691161461069b57600080fd5b6000546001547f343765429aea5a34b3ff6a3785a98a5abb2597aca87bfbb58632c173d585373a91600160a060020a039081169116604051600160a060020a039283168152911660208201526040908101905180910390a1600180546000805473ffffffffffffffffffffffffffffffffffffffff19908116600160a060020a03841617909155169055565b600054600160a060020a031681565b600160a060020a039081166000908152600460205260409020541690565b600160a060020a038116600090815260036020526040812054829060ff16151561077d57600080fd5b82915081600160a060020a03166351710e45336040517c010000000000000000000000000000000000000000000000000000000063ffffffff8416028152600160a060020a039091166004820152602401600060405180830381600087803b15156107e757600080fd5b6102c65a03f115156107f857600080fd5b505050600160a060020a033381166000818152600460208181526040808420805498871673ffffffffffffffffffffffffffffffffffffffff19998a168117909155808552600580845282862080549098168652938352908420805489169055909252905281549093169092179091555050565b600160a060020a038116600090815260036020526040812054829060ff16151561089557600080fd5b5050600160a060020a039081166000908152600560205260409020541690565b60005433600160a060020a039081169116146108d057600080fd5b6007805473ffffffffffffffffffffffffffffffffffffffff1916600160a060020a0392909216919091179055565b600160a060020a031660009081526003602052604090205460ff1690565b600154600160a060020a031681565b600754600160a060020a031681565b610943610a42565b600280548060200260200160405190810160405280929190818152602001828054801561099957602002820191906000526020600020905b8154600160a060020a0316815260019091019060200180831161097b575b505050505090505b90565b60005433600160a060020a039081169116146109bf57600080fd5b600054600160a060020a03828116911614156109da57600080fd5b6001805473ffffffffffffffffffffffffffffffffffffffff1916600160a060020a0392909216919091179055565b6040516113e680610a7383390190565b815481835581811511610a3d57600083815260209020610a3d918101908301610a54565b505050565b60206040519081016040526000815290565b6109a191905b80821115610a6e5760008155600101610a5a565b50905600606060405234156200001057600080fd5b604051620013e6380380620013e683398101604052808051919060200180519190602001805191906020018051909101905033828585600060016040517f44657852450000000000000000000000000000000000000000000000000000008152600581019190915260250160405190819003902055600060016040517f4c6971756964524500000000000000000000000000000000000000000000000081526008810191909152602801604051908190039020556002805460008054600160a060020a0319908116600160a060020a0398891617909155600160a860020a0319909116610100958716959095029490941790556004805484169285169290921790915560058054740100000000000000000000000000000000000000009316919093161760a060020a60ff02191617905560068180516200015692916020019062000161565b505050505062000206565b828054600181600116156101000203166002900490600052602060002090601f016020900481019282601f10620001a457805160ff1916838001178555620001d4565b82800160010185558215620001d4579182015b82811115620001d4578251825591602001919060010190620001b7565b50620001e2929150620001e6565b5090565b6200020391905b80821115620001e25760008155600101620001ed565b90565b6111d080620002166000396000f300606060405236156101305763ffffffff7c0100000000000000000000000000000000000000000000000000000000600035041663048915e4811461013557806306fdde03146101565780631eac9657146101e0578063200d2ed21461020f5780634eb80a051461023657806351710e451461024c578063582c4e2b1461026b5780636d435421146102815780637137e37c146102a657806377097fc81461030c57806381b7a2ec1461036257806388d34efd146103c55780638da5cb5b146103e4578063afc637bf146103f7578063bbb82d891461040a578063c45a01551461041d578063c908b58e14610430578063d4ee1d9014610443578063d9fd9c4214610456578063dc048cf21461046c578063ee070805146104c2578063f1215d25146104d5578063fc735e991461052b575b600080fd5b341561014057600080fd5b610154600160a060020a036004351661053e565b005b341561016157600080fd5b6101696105bf565b60405160208082528190810183818151815260200191508051906020019080838360005b838110156101a557808201518382015260200161018d565b50505050905090810190601f1680156101d25780820380516001836020036101000a031916815260200191505b509250505060405180910390f35b34156101eb57600080fd5b6101f361065d565b604051600160a060020a03909116815260200160405180910390f35b341561021a57600080fd5b61022261066c565b604051901515815260200160405180910390f35b341561024157600080fd5b6101f360043561068d565b341561025757600080fd5b610154600160a060020a03600435166106b5565b341561027657600080fd5b6101f3600435610737565b341561028c57600080fd5b610154600160a060020a0360043581169060243516610745565b34156102b157600080fd5b6102b96107d2565b60405160208082528190810183818151815260200191508051906020019060200280838360005b838110156102f85780820151838201526020016102e0565b505050509050019250505060405180910390f35b341561031757600080fd5b610154600480359060446024803590810190830135806020601f8201819004810201604051908101604052818152929190602084018383808284375094965061083b95505050505050565b341561036d57600080fd5b6103b360046024813581810190830135806020601f82018190048102016040519081016040528181529291906020840183838082843750949650610a8995505050505050565b60405190815260200160405180910390f35b34156103d057600080fd5b610154600160a060020a0360043516610b66565b34156103ef57600080fd5b6101f3610bae565b341561040257600080fd5b6102b9610bc2565b341561041557600080fd5b610222610c28565b341561042857600080fd5b6101f3610c31565b341561043b57600080fd5b6101f3610c40565b341561044e57600080fd5b6101f3610c4f565b341561046157600080fd5b6101f3600435610c5e565b341561047757600080fd5b610154600480359060446024803590810190830135806020601f82018190048102016040519081016040528181529291906020840183838082843750949650610c6c95505050505050565b34156104cd57600080fd5b610154610ed6565b34156104e057600080fd5b610154600480359060446024803590810190830135806020601f82018190048102016040519081016040528181529291906020840183838082843750949650610f2c95505050505050565b341561053657600080fd5b610154611106565b60045433600160a060020a0390811691161480610569575060055433600160a060020a039081169116145b151561057457600080fd5b6007805460018101610586838261114b565b506000918252602090912001805473ffffffffffffffffffffffffffffffffffffffff1916600160a060020a0392909216919091179055565b60068054600181600116156101000203166002900480601f0160208091040260200160405190810160405280929190818152602001828054600181600116156101000203166002900480156106555780601f1061062a57610100808354040283529160200191610655565b820191906000526020600020905b81548152906001019060200180831161063857829003601f168201915b505050505081565b600454600160a060020a031681565b60055474010000000000000000000000000000000000000000900460ff1681565b600880548290811061069b57fe5b600091825260209091200154600160a060020a0316905081565b60005433600160a060020a039081169116146106d057600080fd5b600354600160a060020a038281169116146106ea57600080fd5b50600380546002805474ffffffffffffffffffffffffffffffffffffffff001916610100600160a060020a0384160217905573ffffffffffffffffffffffffffffffffffffffff19169055565b600780548290811061069b57fe5b6002548290600160a060020a03808316610100909204161461076657600080fd5b60005433600160a060020a0390811691161461078157600080fd5b600254600160a060020a038381166101009092041614156107a157600080fd5b506003805473ffffffffffffffffffffffffffffffffffffffff1916600160a060020a039290921691909117905550565b6107da611174565b600880548060200260200160405190810160405280929190818152602001828054801561083057602002820191906000526020600020905b8154600160a060020a03168152600190910190602001808311610812575b505050505090505b90565b60045433600160a060020a0390811691161480610866575060055433600160a060020a039081169116145b151561087157600080fd5b6040517f44657852450000000000000000000000000000000000000000000000000000008152600501604051908190039020816040518082805190602001908083835b602083106108d35780518252601f1990920191602091820191016108b4565b6001836020036101000a0380198251168184511617909252505050919091019250604091505051908190039020148061099857506040517f4c697175696452450000000000000000000000000000000000000000000000008152600801604051908190039020816040518082805190602001908083835b602083106109695780518252601f19909201916020918201910161094a565b6001836020036101000a0380198251168184511617909252505050919091019250604091505051908190039020145b15156109a357600080fd5b816001826040518082805190602001908083835b602083106109d65780518252601f1990920191602091820191016109b7565b6001836020036101000a038019825116818451168082178552505050505050905001915050908152602001604051908190039020541015610a1657600080fd5b816001826040518082805190602001908083835b60208310610a495780518252601f199092019160209182019101610a2a565b6001836020036101000a03801982511681845116808217855250505050505090500191505090815260200160405190819003902080549190910390555050565b60025460009033600160a060020a03908116610100909204161480610abc575060005433600160a060020a039081169116145b80610ad5575060045433600160a060020a039081169116145b80610aee575060055433600160a060020a039081169116145b1515610af957600080fd5b6001826040518082805190602001908083835b60208310610b2b5780518252601f199092019160209182019101610b0c565b6001836020036101000a0380198251168184511680821785525050505050509050019150509081526020016040518091039020549050919050565b60045433600160a060020a0390811691161480610b91575060055433600160a060020a039081169116145b1515610b9c57600080fd5b6008805460018101610586838261114b565b6002546101009004600160a060020a031681565b610bca611174565b600780548060200260200160405190810160405280929190818152602001828054801561083057602002820191906000526020600020908154600160a060020a03168152600190910190602001808311610812575050505050905090565b60025460ff1681565b600054600160a060020a031681565b600554600160a060020a031681565b600354600160a060020a031681565b600980548290811061069b57fe5b6002546000903390600160a060020a038083166101009092041614610c9057600080fd5b6040517f44657852450000000000000000000000000000000000000000000000000000008152600501604051908190039020836040518082805190602001908083835b60208310610cf25780518252601f199092019160209182019101610cd3565b6001836020036101000a03801982511681845116179092525050509190910192506040915050519081900390201480610db757506040517f4c697175696452450000000000000000000000000000000000000000000000008152600801604051908190039020836040518082805190602001908083835b60208310610d885780518252601f199092019160209182019101610d69565b6001836020036101000a0380198251168184511617909252505050919091019250604091505051908190039020145b1515610dc257600080fd5b6040517f44657852450000000000000000000000000000000000000000000000000000008152600501604051908190039020836040518082805190602001908083835b60208310610e245780518252601f199092019160209182019101610e05565b6001836020036101000a03801982511681845116179092525050509190910192506040915050519081900390201415610ed057600454600160a060020a0316915081632e1a7d4d856040517c010000000000000000000000000000000000000000000000000000000063ffffffff84160281526004810191909152602401600060405180830381600087803b1515610ebb57600080fd5b6102c65a03f11515610ecc57600080fd5b5050505b50505050565b60045433600160a060020a0390811691161480610f01575060055433600160a060020a039081169116145b1515610f0c57600080fd5b6005805474ff000000000000000000000000000000000000000019169055565b60045433600160a060020a0390811691161480610f57575060055433600160a060020a039081169116145b1515610f6257600080fd5b6040517f44657852450000000000000000000000000000000000000000000000000000008152600501604051908190039020816040518082805190602001908083835b60208310610fc45780518252601f199092019160209182019101610fa5565b6001836020036101000a0380198251168184511617909252505050919091019250604091505051908190039020148061108957506040517f4c697175696452450000000000000000000000000000000000000000000000008152600801604051908190039020816040518082805190602001908083835b6020831061105a5780518252601f19909201916020918201910161103b565b6001836020036101000a0380198251168184511617909252505050919091019250604091505051908190039020145b151561109457600080fd5b816001826040518082805190602001908083835b602083106110c75780518252601f1990920191602091820191016110a8565b6001836020036101000a038019825116818451168082178552505050505050905001915050908152602001604051908190039020805490910190555050565b60045433600160a060020a0390811691161480611131575060055433600160a060020a039081169116145b151561113c57600080fd5b6002805460ff19166001179055565b81548183558181151161116f5760008381526020902061116f918101908301611186565b505050565b60206040519081016040526000815290565b61083891905b808211156111a0576000815560010161118c565b50905600a165627a7a7230582031f33534710ff77bc4f16f7a7590c9f6a1369b704d6d837bb68b5f21cfc7cf470029a165627a7a72305820e694193425bebdb2369855a082f8659e5cc69d0ac16228bdff6c344f9bb7f73f0029",
  "source": "pragma solidity ^0.4.4;\n\nimport { Trustee } from './Trustee.sol';\nimport './Owned.sol';\n\ncontract TrusteeFactory is Owned {\n  address[] public trustees;\n  mapping (address => bool) addressesOfTrustees;\n  mapping (address => address) ownersTrustee; // user address => trustee address\n  mapping (address => address) trusteeOwners; // trustee address => user address\n  address public dexRE;\n  address public liquidRE;\n\n  event TrusteeCreated(address trustee);\n\n  function TrusteeFactory()\n      public\n      Owned(msg.sender)\n  {\n\n  }\n\n  modifier trusteeExist(address _address) {\n      require(addressesOfTrustees[_address]);\n      _;\n  }\n\n  modifier notTrusteeOwner(address _address) {\n      require(ownersTrustee[_address] == 0x0);\n      _;\n  }\n\n  function setDexRE(address _address)\n      public\n      ownerOnly\n  {\n      dexRE = _address;\n  }\n\n  function setLiquidRE(address _address)\n      public\n      ownerOnly\n  {\n      liquidRE = _address;\n  }\n\n  function trusteeOwner(address _trustee)\n      public\n      trusteeExist(_trustee)\n      view\n      returns(address)\n  {\n      return trusteeOwners[_trustee];\n  }\n\n  function trusteeAddresses()\n      public\n      view\n      returns(address[])\n  {\n      return trustees;\n  }\n\n  function isTrustee(address _address)\n      public\n      view returns (bool)\n  {\n      return addressesOfTrustees[_address];\n  }\n\n  function isTrusteeOwner(address _address)\n      public\n      view returns (bool)\n  {\n      return ownersTrustee[_address] != 0x0;\n  }\n\n  function trusteeAddress(address _owner)\n      public\n      view returns (address)\n  {\n      return ownersTrustee[_owner];\n  }\n\n  function newTrustee(string _name)\n      public\n      notTrusteeOwner(msg.sender)\n  {\n      Trustee trustee = new Trustee(dexRE, liquidRE, msg.sender, _name);\n      trustees.push(trustee);\n      addressesOfTrustees[trustee] = true;\n      ownersTrustee[msg.sender] = trustee;\n      trusteeOwners[trustee] = msg.sender;\n      TrusteeCreated(trustee);\n  }\n\n  function transferTrusteeOwnership(address _trustee, address _newOwner)\n      public\n      trusteeExist(_trustee)\n  {\n      Trustee trustee = Trustee(_trustee);\n      trustee.transferOwnership(msg.sender, _newOwner);\n  }\n\n  function acceptTrusteeOwnership(address _trustee)\n      public\n      trusteeExist(_trustee)\n  {\n      Trustee trustee = Trustee(_trustee);\n      trustee.acceptOwnership(msg.sender);\n      ownersTrustee[msg.sender] = trustee;\n      delete ownersTrustee[trusteeOwners[trustee]];\n      trusteeOwners[trustee] = msg.sender;\n  }\n\n}\n",
  "sourcePath": "/Users/chanopalis/Documents/ethereum-contracts/smart-law-contracts/DexRE-Contract/contracts/TrusteeFactory.sol",
  "schemaVersion": "1.0.0",
  "updatedAt": "2018-03-02T16:07:25.146Z"
}