{
  "contractName": "Trusteed",
  "abi": [
    {
      "constant": true,
      "inputs": [],
      "name": "newTrustee",
      "outputs": [
        {
          "name": "",
          "type": "address"
        }
      ],
      "payable": false,
      "stateMutability": "view",
      "type": "function"
    },
    {
      "constant": false,
      "inputs": [
        {
          "name": "_newTrustee",
          "type": "address"
        }
      ],
      "name": "transferTrustee",
      "outputs": [],
      "payable": false,
      "stateMutability": "nonpayable",
      "type": "function"
    },
    {
      "constant": false,
      "inputs": [],
      "name": "acceptTrustee",
      "outputs": [],
      "payable": false,
      "stateMutability": "nonpayable",
      "type": "function"
    },
    {
      "constant": true,
      "inputs": [],
      "name": "trustee",
      "outputs": [
        {
          "name": "",
          "type": "address"
        }
      ],
      "payable": false,
      "stateMutability": "view",
      "type": "function"
    },
    {
      "inputs": [
        {
          "name": "_trustee",
          "type": "address"
        }
      ],
      "payable": false,
      "stateMutability": "nonpayable",
      "type": "constructor"
    },
    {
      "anonymous": false,
      "inputs": [
        {
          "indexed": false,
          "name": "_prevTrustee",
          "type": "address"
        },
        {
          "indexed": false,
          "name": "_newTrustee",
          "type": "address"
        }
      ],
      "name": "TrusteeUpdate",
      "type": "event"
    }
  ],
  "bytecode": "0x6060604052341561000f57600080fd5b6040516020806102648339810160405280805160008054600160a060020a03909216600160a060020a03199092169190911790555050610210806100546000396000f300606060405263ffffffff7c010000000000000000000000000000000000000000000000000000000060003504166332243378811461005d5780633ac7f8311461008c5780634c10b9cd146100ad578063fdf97cb2146100c057600080fd5b341561006857600080fd5b6100706100d3565b604051600160a060020a03909116815260200160405180910390f35b341561009757600080fd5b6100ab600160a060020a03600435166100e2565b005b34156100b857600080fd5b6100ab61012e565b34156100cb57600080fd5b6100706101d5565b600154600160a060020a031681565b6000543390600160a060020a038083169116146100fe57600080fd5b506001805473ffffffffffffffffffffffffffffffffffffffff1916600160a060020a0392909216919091179055565b60015433600160a060020a0390811691161461014957600080fd5b6000546001547fe26fc4f197ae4791837ad16b269120b79398e58128899ccdbca7d4ed6a9f203d91600160a060020a039081169116604051600160a060020a039283168152911660208201526040908101905180910390a1600180546000805473ffffffffffffffffffffffffffffffffffffffff19908116600160a060020a03841617909155169055565b600054600160a060020a0316815600a165627a7a72305820a82bd1c7787f0e68d7597b5e8b58d314038c55aae94fc1ff2e10e6c2fb1423250029",
  "source": "pragma solidity ^0.4.4;\n\ncontract Trusteed {\n    address public trustee;\n    address public newTrustee;\n\n    event TrusteeUpdate(address _prevTrustee, address _newTrustee);\n\n    function Trusteed(address _trustee) public {\n        trustee = _trustee;\n    }\n\n    modifier trusteeOnly(address _address) {\n        require(_address == trustee);\n        _;\n    }\n\n    function transferTrustee(address _newTrustee)\n        public\n        trusteeOnly(msg.sender)\n    {\n        newTrustee = _newTrustee;\n    }\n\n    function acceptTrustee()\n        public\n    {\n        require(msg.sender == newTrustee);\n        TrusteeUpdate(trustee, newTrustee);\n        trustee = newTrustee;\n        newTrustee = 0x0;\n    }\n}\n",
  "sourcePath": "/Users/chanopalis/Documents/ethereum-contracts/smart-law-contracts/DexRE-Contract/contracts/Trusteed.sol",
  "schemaVersion": "1.0.0",
  "updatedAt": "2018-02-28T18:05:46.290Z"
}