{
  "contractName": "Trusteed",
  "abi": [
    {
      "constant": true,
      "inputs": [],
      "name": "newTrustee",
      "outputs": [
        {
          "name": "",
          "type": "address"
        }
      ],
      "payable": false,
      "stateMutability": "view",
      "type": "function"
    },
    {
      "constant": false,
      "inputs": [
        {
          "name": "_newTrustee",
          "type": "address"
        }
      ],
      "name": "transferTrustee",
      "outputs": [],
      "payable": false,
      "stateMutability": "nonpayable",
      "type": "function"
    },
    {
      "constant": false,
      "inputs": [],
      "name": "acceptTrustee",
      "outputs": [],
      "payable": false,
      "stateMutability": "nonpayable",
      "type": "function"
    },
    {
      "constant": true,
      "inputs": [],
      "name": "trustee",
      "outputs": [
        {
          "name": "",
          "type": "address"
        }
      ],
      "payable": false,
      "stateMutability": "view",
      "type": "function"
    },
    {
      "inputs": [
        {
          "name": "_trustee",
          "type": "address"
        }
      ],
      "payable": false,
      "stateMutability": "nonpayable",
      "type": "constructor"
    },
    {
      "anonymous": false,
      "inputs": [
        {
          "indexed": false,
          "name": "_prevTrustee",
          "type": "address"
        },
        {
          "indexed": false,
          "name": "_newTrustee",
          "type": "address"
        }
      ],
      "name": "TrusteeUpdate",
      "type": "event"
    }
  ],
  "bytecode": "0x6060604052341561000f57600080fd5b6040516020806102e68339810160405280805160008054600160a060020a03909216600160a060020a03199092169190911790555050610292806100546000396000f300606060405263ffffffff7c010000000000000000000000000000000000000000000000000000000060003504166332243378811461005d5780633ac7f831146100995780634c10b9cd146100c7578063fdf97cb2146100da57600080fd5b341561006857600080fd5b6100706100ed565b60405173ffffffffffffffffffffffffffffffffffffffff909116815260200160405180910390f35b34156100a457600080fd5b6100c573ffffffffffffffffffffffffffffffffffffffff60043516610109565b005b34156100d257600080fd5b6100c561016f565b34156100e557600080fd5b61007061024a565b60015473ffffffffffffffffffffffffffffffffffffffff1681565b600054339073ffffffffffffffffffffffffffffffffffffffff80831691161461013257600080fd5b506001805473ffffffffffffffffffffffffffffffffffffffff191673ffffffffffffffffffffffffffffffffffffffff92909216919091179055565b6001543373ffffffffffffffffffffffffffffffffffffffff90811691161461019757600080fd5b6000546001547fe26fc4f197ae4791837ad16b269120b79398e58128899ccdbca7d4ed6a9f203d9173ffffffffffffffffffffffffffffffffffffffff908116911660405173ffffffffffffffffffffffffffffffffffffffff9283168152911660208201526040908101905180910390a1600180546000805473ffffffffffffffffffffffffffffffffffffffff1990811673ffffffffffffffffffffffffffffffffffffffff841617909155169055565b60005473ffffffffffffffffffffffffffffffffffffffff16815600a165627a7a723058205df5f20b8c875dbfd45d413b080701842c956cba53f1512b9955c8f7e9e2688e0029",
  "source": "pragma solidity ^0.4.4;\n\ncontract Trusteed {\n    address public trustee;\n    address public newTrustee;\n\n    event TrusteeUpdate(address _prevTrustee, address _newTrustee);\n\n    function Trusteed(address _trustee) public {\n        trustee = _trustee;\n    }\n\n    modifier trusteeOnly(address _address) {\n        require(_address == trustee);\n        _;\n    }\n\n    function transferTrustee(address _newTrustee)\n        public\n        trusteeOnly(msg.sender)\n    {\n        newTrustee = _newTrustee;\n    }\n\n    function acceptTrustee()\n        public\n    {\n        require(msg.sender == newTrustee);\n        TrusteeUpdate(trustee, newTrustee);\n        trustee = newTrustee;\n        newTrustee = 0x0;\n    }\n}\n",
  "sourcePath": "/Users/chanopalis/Documents/ethereum-contracts/smart-law-contracts/DexRE-Contract/contracts/Trusteed.sol",
  "schemaVersion": "1.0.0",
  "updatedAt": "2018-03-02T16:04:52.262Z"
}