{
  "contractName": "TrustRE",
  "abi": [
    {
      "constant": true,
      "inputs": [],
      "name": "loanAmountDue",
      "outputs": [
        {
          "name": "",
          "type": "uint256"
        }
      ],
      "payable": false,
      "stateMutability": "view",
      "type": "function"
    },
    {
      "constant": true,
      "inputs": [],
      "name": "name",
      "outputs": [
        {
          "name": "",
          "type": "string"
        }
      ],
      "payable": false,
      "stateMutability": "view",
      "type": "function"
    },
    {
      "constant": false,
      "inputs": [
        {
          "name": "_amount",
          "type": "uint256"
        },
        {
          "name": "_interest",
          "type": "uint256"
        },
        {
          "name": "_secondsBeforeDue",
          "type": "uint256"
        }
      ],
      "name": "newLoanProposal",
      "outputs": [],
      "payable": false,
      "stateMutability": "nonpayable",
      "type": "function"
    },
    {
      "constant": false,
      "inputs": [
        {
          "name": "_amount",
          "type": "uint256"
        }
      ],
      "name": "newSaleOffer",
      "outputs": [],
      "payable": false,
      "stateMutability": "nonpayable",
      "type": "function"
    },
    {
      "constant": true,
      "inputs": [],
      "name": "property",
      "outputs": [
        {
          "name": "",
          "type": "string"
        }
      ],
      "payable": false,
      "stateMutability": "view",
      "type": "function"
    },
    {
      "constant": true,
      "inputs": [],
      "name": "DexREAdmin",
      "outputs": [
        {
          "name": "",
          "type": "address"
        }
      ],
      "payable": false,
      "stateMutability": "view",
      "type": "function"
    },
    {
      "constant": false,
      "inputs": [],
      "name": "auctionEnd",
      "outputs": [],
      "payable": false,
      "stateMutability": "nonpayable",
      "type": "function"
    },
    {
      "constant": true,
      "inputs": [],
      "name": "newTrustee",
      "outputs": [
        {
          "name": "",
          "type": "address"
        }
      ],
      "payable": false,
      "stateMutability": "view",
      "type": "function"
    },
    {
      "constant": false,
      "inputs": [
        {
          "name": "_sale",
          "type": "address"
        }
      ],
      "name": "agreeToSaleOffer",
      "outputs": [],
      "payable": false,
      "stateMutability": "nonpayable",
      "type": "function"
    },
    {
      "constant": false,
      "inputs": [
        {
          "name": "_bid",
          "type": "address"
        }
      ],
      "name": "setHighestBid",
      "outputs": [],
      "payable": false,
      "stateMutability": "nonpayable",
      "type": "function"
    },
    {
      "constant": false,
      "inputs": [
        {
          "name": "_newTrustee",
          "type": "address"
        }
      ],
      "name": "transferTrustee",
      "outputs": [],
      "payable": false,
      "stateMutability": "nonpayable",
      "type": "function"
    },
    {
      "constant": false,
      "inputs": [],
      "name": "dissolve",
      "outputs": [],
      "payable": false,
      "stateMutability": "nonpayable",
      "type": "function"
    },
    {
      "constant": true,
      "inputs": [],
      "name": "auctionEndDate",
      "outputs": [
        {
          "name": "",
          "type": "uint256"
        }
      ],
      "payable": false,
      "stateMutability": "view",
      "type": "function"
    },
    {
      "constant": false,
      "inputs": [
        {
          "name": "_entity",
          "type": "address"
        }
      ],
      "name": "funded",
      "outputs": [],
      "payable": false,
      "stateMutability": "nonpayable",
      "type": "function"
    },
    {
      "constant": true,
      "inputs": [],
      "name": "forSale",
      "outputs": [
        {
          "name": "",
          "type": "bool"
        }
      ],
      "payable": false,
      "stateMutability": "view",
      "type": "function"
    },
    {
      "constant": false,
      "inputs": [],
      "name": "acceptTrustee",
      "outputs": [],
      "payable": false,
      "stateMutability": "nonpayable",
      "type": "function"
    },
    {
      "constant": true,
      "inputs": [],
      "name": "activeSale",
      "outputs": [
        {
          "name": "",
          "type": "address"
        }
      ],
      "payable": false,
      "stateMutability": "view",
      "type": "function"
    },
    {
      "constant": false,
      "inputs": [
        {
          "name": "_bid",
          "type": "address"
        }
      ],
      "name": "newBid",
      "outputs": [],
      "payable": false,
      "stateMutability": "nonpayable",
      "type": "function"
    },
    {
      "constant": false,
      "inputs": [
        {
          "name": "_beneficiaryEntity",
          "type": "address"
        }
      ],
      "name": "newBeneficiary",
      "outputs": [],
      "payable": false,
      "stateMutability": "nonpayable",
      "type": "function"
    },
    {
      "constant": true,
      "inputs": [],
      "name": "deleted",
      "outputs": [
        {
          "name": "",
          "type": "bool"
        }
      ],
      "payable": false,
      "stateMutability": "view",
      "type": "function"
    },
    {
      "constant": true,
      "inputs": [],
      "name": "beneficiariesCount",
      "outputs": [
        {
          "name": "",
          "type": "uint256"
        }
      ],
      "payable": false,
      "stateMutability": "view",
      "type": "function"
    },
    {
      "constant": false,
      "inputs": [
        {
          "name": "_beneficiary",
          "type": "address"
        }
      ],
      "name": "agreeToAddBeneficiary",
      "outputs": [],
      "payable": false,
      "stateMutability": "nonpayable",
      "type": "function"
    },
    {
      "constant": true,
      "inputs": [],
      "name": "beneficiariesSignatures",
      "outputs": [
        {
          "name": "",
          "type": "address[]"
        }
      ],
      "payable": false,
      "stateMutability": "view",
      "type": "function"
    },
    {
      "constant": true,
      "inputs": [
        {
          "name": "_address",
          "type": "address"
        }
      ],
      "name": "isBeneficiary",
      "outputs": [
        {
          "name": "",
          "type": "bool"
        }
      ],
      "payable": false,
      "stateMutability": "view",
      "type": "function"
    },
    {
      "constant": true,
      "inputs": [],
      "name": "loanAmount",
      "outputs": [
        {
          "name": "",
          "type": "uint256"
        }
      ],
      "payable": false,
      "stateMutability": "view",
      "type": "function"
    },
    {
      "constant": true,
      "inputs": [],
      "name": "getPendingBeneficiaries",
      "outputs": [
        {
          "name": "",
          "type": "address[]"
        }
      ],
      "payable": false,
      "stateMutability": "view",
      "type": "function"
    },
    {
      "constant": true,
      "inputs": [],
      "name": "activeLoan",
      "outputs": [
        {
          "name": "",
          "type": "address"
        }
      ],
      "payable": false,
      "stateMutability": "view",
      "type": "function"
    },
    {
      "constant": false,
      "inputs": [],
      "name": "loanPaid",
      "outputs": [],
      "payable": false,
      "stateMutability": "nonpayable",
      "type": "function"
    },
    {
      "constant": false,
      "inputs": [
        {
          "name": "_entity",
          "type": "address"
        }
      ],
      "name": "sold",
      "outputs": [],
      "payable": false,
      "stateMutability": "nonpayable",
      "type": "function"
    },
    {
      "constant": true,
      "inputs": [],
      "name": "lender",
      "outputs": [
        {
          "name": "",
          "type": "address"
        }
      ],
      "payable": false,
      "stateMutability": "view",
      "type": "function"
    },
    {
      "constant": false,
      "inputs": [
        {
          "name": "_loan",
          "type": "address"
        }
      ],
      "name": "agreeToLoanProposal",
      "outputs": [],
      "payable": false,
      "stateMutability": "nonpayable",
      "type": "function"
    },
    {
      "constant": true,
      "inputs": [],
      "name": "loanProposals",
      "outputs": [
        {
          "name": "",
          "type": "address[]"
        }
      ],
      "payable": false,
      "stateMutability": "view",
      "type": "function"
    },
    {
      "constant": true,
      "inputs": [],
      "name": "loanFunded",
      "outputs": [
        {
          "name": "",
          "type": "bool"
        }
      ],
      "payable": false,
      "stateMutability": "view",
      "type": "function"
    },
    {
      "constant": true,
      "inputs": [],
      "name": "bids",
      "outputs": [
        {
          "name": "",
          "type": "address[]"
        }
      ],
      "payable": false,
      "stateMutability": "view",
      "type": "function"
    },
    {
      "constant": false,
      "inputs": [],
      "name": "makeAuctionEnd",
      "outputs": [],
      "payable": false,
      "stateMutability": "nonpayable",
      "type": "function"
    },
    {
      "constant": false,
      "inputs": [],
      "name": "loanDue",
      "outputs": [],
      "payable": false,
      "stateMutability": "nonpayable",
      "type": "function"
    },
    {
      "constant": true,
      "inputs": [],
      "name": "auctionRunning",
      "outputs": [
        {
          "name": "",
          "type": "bool"
        }
      ],
      "payable": false,
      "stateMutability": "view",
      "type": "function"
    },
    {
      "constant": true,
      "inputs": [],
      "name": "highestBid",
      "outputs": [
        {
          "name": "",
          "type": "address"
        }
      ],
      "payable": false,
      "stateMutability": "view",
      "type": "function"
    },
    {
      "constant": true,
      "inputs": [
        {
          "name": "index",
          "type": "uint256"
        }
      ],
      "name": "getBeneficiaryByIndex",
      "outputs": [
        {
          "name": "",
          "type": "address"
        }
      ],
      "payable": false,
      "stateMutability": "view",
      "type": "function"
    },
    {
      "constant": false,
      "inputs": [],
      "name": "cancelSale",
      "outputs": [],
      "payable": false,
      "stateMutability": "nonpayable",
      "type": "function"
    },
    {
      "constant": true,
      "inputs": [],
      "name": "forSaleAmount",
      "outputs": [
        {
          "name": "",
          "type": "uint256"
        }
      ],
      "payable": false,
      "stateMutability": "view",
      "type": "function"
    },
    {
      "constant": true,
      "inputs": [],
      "name": "saleProposals",
      "outputs": [
        {
          "name": "",
          "type": "address[]"
        }
      ],
      "payable": false,
      "stateMutability": "view",
      "type": "function"
    },
    {
      "constant": true,
      "inputs": [],
      "name": "trustee",
      "outputs": [
        {
          "name": "",
          "type": "address"
        }
      ],
      "payable": false,
      "stateMutability": "view",
      "type": "function"
    },
    {
      "constant": true,
      "inputs": [],
      "name": "getDissolveSignatures",
      "outputs": [
        {
          "name": "",
          "type": "address[]"
        }
      ],
      "payable": false,
      "stateMutability": "view",
      "type": "function"
    },
    {
      "inputs": [
        {
          "name": "_trustee",
          "type": "address"
        },
        {
          "name": "_name",
          "type": "string"
        },
        {
          "name": "_property",
          "type": "string"
        },
        {
          "name": "_beneficiary",
          "type": "address"
        }
      ],
      "payable": false,
      "stateMutability": "nonpayable",
      "type": "constructor"
    },
    {
      "anonymous": false,
      "inputs": [
        {
          "indexed": false,
          "name": "beneficiary",
          "type": "address"
        }
      ],
      "name": "PendingBeneficiaryAdded",
      "type": "event"
    },
    {
      "anonymous": false,
      "inputs": [
        {
          "indexed": false,
          "name": "entity",
          "type": "address"
        }
      ],
      "name": "BeneficiaryAdded",
      "type": "event"
    },
    {
      "anonymous": false,
      "inputs": [
        {
          "indexed": false,
          "name": "_prevTrustee",
          "type": "address"
        },
        {
          "indexed": false,
          "name": "_newTrustee",
          "type": "address"
        }
      ],
      "name": "TrusteeUpdate",
      "type": "event"
    },
    {
      "anonymous": false,
      "inputs": [
        {
          "indexed": false,
          "name": "loan",
          "type": "address"
        }
      ],
      "name": "LoanProposalAdded",
      "type": "event"
    },
    {
      "anonymous": false,
      "inputs": [
        {
          "indexed": false,
          "name": "loan",
          "type": "address"
        }
      ],
      "name": "LoanCreated",
      "type": "event"
    },
    {
      "anonymous": false,
      "inputs": [
        {
          "indexed": false,
          "name": "sale",
          "type": "address"
        }
      ],
      "name": "SaleProposalAdded",
      "type": "event"
    },
    {
      "anonymous": false,
      "inputs": [
        {
          "indexed": false,
          "name": "sale",
          "type": "address"
        }
      ],
      "name": "SaleCreated",
      "type": "event"
    }
  ],
  "bytecode": "0x606060405234156200001057600080fd5b60405162003a6338038062003a6383398101604052808051919060200180518201919060200180518201919060200180516002805460ff1916905560048054600160a060020a0319908116909155600680548216905560078054909116905591508490506200008c640100000000620024a06200013682021704565b600b8054600160a060020a039092166101000261010060a860020a03199092169190911790556000838051620000c792916020019062000157565b506001828051620000dd92916020019062000157565b50600d805460018101620000f28382620001dc565b5060009182526020909120018054600160a060020a0319908116600160a060020a039384161790915560108054909116339092169190911790555062000228915050565b60098054600160a060020a03191690556000600855600b805460ff19169055565b828054600181600116156101000203166002900490600052602060002090601f016020900481019282601f106200019a57805160ff1916838001178555620001ca565b82800160010185558215620001ca579182015b82811115620001ca578251825591602001919060010190620001ad565b50620001d892915062000208565b5090565b81548183558181151162000203576000838152602090206200020391810190830162000208565b505050565b6200022591905b80821115620001d857600081556001016200020f565b90565b61382b80620002386000396000f300606060405236156200022b5763ffffffff60e060020a60003504166305545d5981146200023057806306fdde031462000258578063097fe15514620002e85780630de22a891462000309578063176fd3f014620003225780631eac965714620003385780632a24f46c146200036a5780633224337814620003805780633297186e14620003965780633931d26614620003b85780633ac7f83114620003da5780633bef8a3a14620003fc5780633d827e05146200041257806345f9fc781462000428578063466ccac0146200044a5780634c10b9cd14620004745780634e17700a146200048a5780634f74cc7f14620004a0578063507959e114620004c25780636b35f7c114620004e45780636e616a4c14620004fa5780638ebb1f9614620005105780638f94a34e14620005325780639d19b226146200059d5780639d585f7f14620005bf578063a4d2ff4314620005d5578063b2700a8814620005eb578063b2a2413b1462000601578063b69dc15d1462000617578063bcead63e1462000639578063be38fab7146200064f578063c6dd8b021462000671578063cbadca6f1462000687578063cc996d1b146200069d578063cdf48ba014620006b3578063d256d2e914620006c9578063d51b817a14620006df578063d57bde7914620006f5578063e2380ff4146200070b578063e7e104901462000724578063ed40ce5c146200073a578063f64118001462000750578063fdf97cb21462000766578063fe2cb161146200077c575b600080fd5b34156200023c57600080fd5b6200024662000792565b60405190815260200160405180910390f35b34156200026457600080fd5b6200026e62000821565b60405160208082528190810183818151815260200191508051906020019080838360005b83811015620002ac57808201518382015260200162000292565b50505050905090810190601f168015620002da5780820380516001836020036101000a031916815260200191505b509250505060405180910390f35b3415620002f457600080fd5b62000307600435602435604435620008c3565b005b34156200031557600080fd5b62000307600435620009d7565b34156200032e57600080fd5b6200026e62000ade565b34156200034457600080fd5b6200034e62000b4c565b604051600160a060020a03909116815260200160405180910390f35b34156200037657600080fd5b6200030762000b5b565b34156200038c57600080fd5b6200034e62000c5b565b3415620003a257600080fd5b62000307600160a060020a036004351662000c6a565b3415620003c457600080fd5b62000307600160a060020a036004351662000d82565b3415620003e657600080fd5b62000307600160a060020a036004351662000de5565b34156200040857600080fd5b6200030762000e2a565b34156200041e57600080fd5b6200024662000fb0565b34156200043457600080fd5b62000307600160a060020a036004351662000fb6565b34156200045657600080fd5b6200046062001021565b604051901515815260200160405180910390f35b34156200048057600080fd5b6200030762001033565b34156200049657600080fd5b6200034e620010eb565b3415620004ac57600080fd5b62000307600160a060020a0360043516620010fa565b3415620004ce57600080fd5b62000307600160a060020a03600435166200117c565b3415620004f057600080fd5b620004606200150b565b34156200050657600080fd5b6200024662001514565b34156200051c57600080fd5b62000307600160a060020a03600435166200152f565b34156200053e57600080fd5b620005486200173a565b60405160208082528190810183818151815260200191508051906020019060200280838360005b83811015620005895780820151838201526020016200056f565b505050509050019250505060405180910390f35b3415620005a957600080fd5b62000460600160a060020a0360043516620017b7565b3415620005cb57600080fd5b62000246620018ac565b3415620005e157600080fd5b620005486200190e565b3415620005f757600080fd5b6200034e62001989565b34156200060d57600080fd5b6200030762001998565b34156200062357600080fd5b62000307600160a060020a036004351662001a59565b34156200064557600080fd5b6200034e62001a95565b34156200065b57600080fd5b62000307600160a060020a036004351662001aa4565b34156200067d57600080fd5b6200054862001bba565b34156200069357600080fd5b6200046062001c24565b3415620006a957600080fd5b6200054862001c51565b3415620006bf57600080fd5b6200030762001cbb565b3415620006d557600080fd5b6200030762001cc2565b3415620006eb57600080fd5b6200046062001dce565b34156200070157600080fd5b6200034e62001dd7565b34156200071757600080fd5b6200034e60043562001de6565b34156200073057600080fd5b6200030762001e24565b34156200074657600080fd5b6200024662001e4c565b34156200075c57600080fd5b6200054862001eaa565b34156200077257600080fd5b6200034e62001f14565b34156200078857600080fd5b6200054862001f28565b6006546000908190600160a060020a031615620008185750600654600160a060020a031680632f1956806000604051602001526040518163ffffffff1660e060020a028152600401602060405180830381600087803b1515620007f457600080fd5b6102c65a03f115156200080657600080fd5b5050506040518051905091506200081d565b600091505b5090565b60008054600181600116156101000203166002900480601f016020809104026020016040519081016040528092919081815260200182805460018160011615610100020316600290048015620008bb5780601f106200088f57610100808354040283529160200191620008bb565b820191906000526020600020905b8154815290600101906020018083116200089d57829003601f168201915b505050505081565b600254600090819060ff1615620008d957600080fd5b620008e362001021565b15620008ee57600080fd5b620008f862001fa3565b9150308585858562000909620024c1565b600160a060020a03958616815260208101949094526040808501939093526060840191909152909216608082015260a0019051809103906000f08015156200095057600080fd5b600d54909150600190111562000971576200096b8162002122565b620009d0565b6200097c81620021b2565b80600160a060020a03166351b42b006040518163ffffffff1660e060020a028152600401600060405180830381600087803b1515620009ba57600080fd5b6102c65a03f11515620009cc57600080fd5b5050505b5050505050565b600254600090819060ff1615620009ed57600080fd5b600654600160a060020a03161562000a0457600080fd5b62000a0e62001fa3565b915030838362000a1d620024d2565b600160a060020a039384168152602081019290925290911660408083019190915260609091019051809103906000f080151562000a5957600080fd5b600d54909150600190111562000a7a5762000a748162002245565b62000ad9565b62000a8581620022d3565b80600160a060020a03166351b42b006040518163ffffffff1660e060020a028152600401600060405180830381600087803b151562000ac357600080fd5b6102c65a03f1151562000ad557600080fd5b5050505b505050565b60018054600181600116156101000203166002900480601f016020809104026020016040519081016040528092919081815260200182805460018160011615610100020316600290048015620008bb5780601f106200088f57610100808354040283529160200191620008bb565b601054600160a060020a031681565b600254600090819060ff161562000b7157600080fd5b600654600160a060020a03161562000b8857600080fd5b62000b9262001021565b1562000b9d57600080fd5b600b5460ff16151562000baf57600080fd5b60085442101562000bbf57600080fd5b600754600954600160a060020a039182169350161562000c425750600954600160a060020a031680638da5cb5b6000604051602001526040518163ffffffff1660e060020a028152600401602060405180830381600087803b151562000c2457600080fd5b6102c65a03f1151562000c3657600080fd5b50505060405180519250505b62000c4d8262002364565b62000c57620023c4565b5050565b600c54600160a060020a031681565b600254600090819060ff161562000c8057600080fd5b600654600160a060020a03161562000c9757600080fd5b62000ca162001fa3565b915082905080600160a060020a031663f71be8378360405160e060020a63ffffffff8416028152600160a060020a039091166004820152602401600060405180830381600087803b151562000cf557600080fd5b6102c65a03f1151562000d0757600080fd5b50505080600160a060020a031663bc5ffcc66000604051602001526040518163ffffffff1660e060020a028152600401602060405180830381600087803b151562000d5157600080fd5b6102c65a03f1151562000d6357600080fd5b5050506040518051600d541415905062000ad95762000a8581620022d3565b60025460ff161562000d9357600080fd5b600b5460ff16151562000da557600080fd5b6010543390600160a060020a0380831691161462000dc257600080fd5b5060098054600160a060020a031916600160a060020a0392909216919091179055565b600b543390600160a060020a03808316610100909204161462000e0757600080fd5b50600c8054600160a060020a031916600160a060020a0392909216919091179055565b60025460009060ff161562000e3e57600080fd5b600654600160a060020a03161562000e5557600080fd5b62000e5f62001021565b1562000e6a57600080fd5b62000e7462001fa3565b905073__UtilsLib______________________________638782be35600f836000604051602001526040518363ffffffff1660e060020a028152600401808060200183600160a060020a0316600160a060020a03168152602001828103825284818154815260200191508054801562000f1757602002820191906000526020600020905b8154600160a060020a0316815260019091019060200180831162000ef8575b5050935050505060206040518083038186803b151562000f3657600080fd5b6102c65a03f4151562000f4857600080fd5b505050604051805190501562000f5d57600080fd5b600f80546001810162000f718382620024e3565b5060009182526020909120018054600160a060020a031916600160a060020a038316179055600f54600d54141562000fad5762000fad620023e0565b50565b60085481565b600654600160a060020a0316151562000fce57600080fd5b60025460ff161562000fdf57600080fd5b6010543390600160a060020a0380831691161462000ffc57600080fd5b60078054600160a060020a031916600160a060020a03841617905562000c57620023ef565b600454600160a060020a031615155b90565b600c5433600160a060020a039081169116146200104f57600080fd5b600b54600c547fe26fc4f197ae4791837ad16b269120b79398e58128899ccdbca7d4ed6a9f203d91600160a060020a0361010090910481169116604051600160a060020a039283168152911660208201526040908101905180910390a1600c8054600b805474ffffffffffffffffffffffffffffffffffffffff001916610100600160a060020a03841602179055600160a060020a0319169055565b600454600160a060020a031681565b60025460ff16156200110b57600080fd5b600b5460ff1615156200111d57600080fd5b6010543390600160a060020a038083169116146200113a57600080fd5b600a8054600181016200114e8382620024e3565b5060009182526020909120018054600160a060020a031916600160a060020a03939093169290921790915550565b60025460009081908190819060ff16156200119657600080fd5b600654600160a060020a031615620011ad57600080fd5b620011b762001021565b15620011c257600080fd5b601054600160a060020a0316935083639d1c1b826000604051602001526040518163ffffffff1660e060020a028152600401602060405180830381600087803b15156200120e57600080fd5b6102c65a03f115156200122057600080fd5b5050506040518051935050600160a060020a0383166355bcae063360006040516020015260405160e060020a63ffffffff8416028152600160a060020a039091166004820152602401602060405180830381600087803b15156200128357600080fd5b6102c65a03f115156200129557600080fd5b505050604051805190501515620012ab57600080fd5b82600160a060020a03166314887c588660006040516020015260405160e060020a63ffffffff8416028152600160a060020a039091166004820152602401602060405180830381600087803b15156200130357600080fd5b6102c65a03f115156200131557600080fd5b5050506040518051905015156200132b57600080fd5b82600160a060020a0316637a521d613360006040516020015260405160e060020a63ffffffff8416028152600160a060020a039091166004820152602401602060405180830381600087803b15156200138357600080fd5b6102c65a03f115156200139557600080fd5b505050604051805190509150620013ac82620017b7565b1515620013b857600080fd5b600d5460019011156200148e57308583620013d26200250a565b600160a060020a039384168152918316602083015290911660408083019190915260609091019051809103906000f08015156200140e57600080fd5b9050600e8054806001018281620014269190620024e3565b5060009182526020909120018054600160a060020a031916600160a060020a0383161790557fc0769547bb1aa0ce601192bf6db68fa8775ecc746fb8e322a949e6d4a0b6a8db81604051600160a060020a03909116815260200160405180910390a1620009d0565b600d805460018101620014a28382620024e3565b5060009182526020909120018054600160a060020a031916600160a060020a0387161790557fc3e089fc6227e049d0e41c3d7a383d57efe69c1955c5752f7e5a9b5f1f11302085604051600160a060020a03909116815260200160405180910390a15050505050565b60025460ff1681565b60025460009060ff16156200152857600080fd5b50600d5490565b600254600090819060ff16156200154557600080fd5b600654600160a060020a0316156200155c57600080fd5b6200156662001021565b156200157157600080fd5b6200157b62001fa3565b915082905080600160a060020a031663f71be8378360405160e060020a63ffffffff8416028152600160a060020a039091166004820152602401600060405180830381600087803b1515620015cf57600080fd5b6102c65a03f11515620015e157600080fd5b50505080600160a060020a031663bc5ffcc66000604051602001526040518163ffffffff1660e060020a028152600401602060405180830381600087803b15156200162b57600080fd5b6102c65a03f115156200163d57600080fd5b5050506040518051600d541415905062000ad957600d805460018101620016658382620024e3565b9160005260206000209001600083600160a060020a0316636cdbbc666000604051602001526040518163ffffffff1660e060020a028152600401602060405180830381600087803b1515620016b957600080fd5b6102c65a03f11515620016cb57600080fd5b50505060405180519050909190916101000a815481600160a060020a030219169083600160a060020a031602179055505080600160a060020a03166351b42b006040518163ffffffff1660e060020a028152600401600060405180830381600087803b151562000ac357600080fd5b620017446200251b565b60025460ff16156200175557600080fd5b600d805480602002602001604051908101604052809291908181526020018280548015620017ad57602002820191906000526020600020905b8154600160a060020a031681526001909101906020018083116200178e575b5050505050905090565b60025460009060ff1615620017cb57600080fd5b73__UtilsLib______________________________638782be35600d846000604051602001526040518363ffffffff1660e060020a028152600401808060200183600160a060020a0316600160a060020a0316815260200182810382528481815481526020019150805480156200186c57602002820191906000526020600020905b8154600160a060020a031681526001909101906020018083116200184d575b5050935050505060206040518083038186803b15156200188b57600080fd5b6102c65a03f415156200189d57600080fd5b50505060405180519392505050565b6006546000908190600160a060020a031615620008185750600654600160a060020a03168063aa8c217c6000604051602001526040518163ffffffff1660e060020a028152600401602060405180830381600087803b1515620007f457600080fd5b620019186200251b565b60025460ff16156200192957600080fd5b600e805480602002602001604051908101604052809291908181526020018280548015620017ad57602002820191906000526020600020908154600160a060020a031681526001909101906020018083116200178e575050505050905090565b600654600160a060020a031681565b600654600090600160a060020a03161515620019b357600080fd5b60025460ff1615620019c457600080fd5b6010543390600160a060020a03808316911614620019e157600080fd5b600654600160a060020a03169150816351b42b006040518163ffffffff1660e060020a028152600401600060405180830381600087803b151562001a2457600080fd5b6102c65a03f1151562001a3657600080fd5b505060068054600160a060020a0319908116909155600780549091169055505050565b6010543390600160a060020a0380831691161462001a7657600080fd5b62001a818262002364565b62001a8b62002426565b62000c5762002432565b600754600160a060020a031681565b600254600090819060ff161562001aba57600080fd5b62001ac462001021565b1562001acf57600080fd5b62001ad962001fa3565b915082905080600160a060020a031663f71be8378360405160e060020a63ffffffff8416028152600160a060020a039091166004820152602401600060405180830381600087803b151562001b2d57600080fd5b6102c65a03f1151562001b3f57600080fd5b50505080600160a060020a031663bc5ffcc66000604051602001526040518163ffffffff1660e060020a028152600401602060405180830381600087803b151562001b8957600080fd5b6102c65a03f1151562001b9b57600080fd5b5050506040518051600d541415905062000ad95762000a8581620021b2565b62001bc46200251b565b6005805480602002602001604051908101604052809291908181526020018280548015620017ad57602002820191906000526020600020908154600160a060020a031681526001909101906020018083116200178e575050505050905090565b600754600090600160a060020a03161580159062001c4c5750600654600160a060020a031615155b905090565b62001c5b6200251b565b600a805480602002602001604051908101604052809291908181526020018280548015620017ad57602002820191906000526020600020908154600160a060020a031681526001909101906020018083116200178e575050505050905090565b6000600855565b60025460009060ff161562001cd657600080fd5b600654600160a060020a0316151562001cee57600080fd5b50600654600160a060020a0316806324975e556000604051602001526040518163ffffffff1660e060020a028152600401602060405180830381600087803b151562001d3957600080fd5b6102c65a03f1151562001d4b57600080fd5b50505060405180519050151562001d6157600080fd5b80600160a060020a03166351b42b006040518163ffffffff1660e060020a028152600401600060405180830381600087803b151562001d9f57600080fd5b6102c65a03f1151562001db157600080fd5b505060068054600160a060020a03191690555062000fad62002477565b600b5460ff1681565b600954600160a060020a031681565b60025460009060ff161562001dfa57600080fd5b600d80548390811062001e0957fe5b600091825260209091200154600160a060020a031692915050565b60025460ff161562001e3557600080fd5b62001e3f62001fa3565b5062001e4a62002432565b565b60008062001e5962001021565b15620008185750600454600160a060020a03168063aa8c217c6000604051602001526040518163ffffffff1660e060020a028152600401602060405180830381600087803b1515620007f457600080fd5b62001eb46200251b565b6003805480602002602001604051908101604052809291908181526020018280548015620017ad57602002820191906000526020600020908154600160a060020a031681526001909101906020018083116200178e575050505050905090565b600b546101009004600160a060020a031681565b62001f326200251b565b60025460ff161562001f4357600080fd5b600f805480602002602001604051908101604052809291908181526020018280548015620017ad57602002820191906000526020600020908154600160a060020a031681526001909101906020018083116200178e575050505050905090565b601054600090600160a060020a0316818082639d1c1b8282604051602001526040518163ffffffff1660e060020a028152600401602060405180830381600087803b151562001ff157600080fd5b6102c65a03f115156200200357600080fd5b5050506040518051925050600160a060020a0382166355bcae063360006040516020015260405160e060020a63ffffffff8416028152600160a060020a039091166004820152602401602060405180830381600087803b15156200206657600080fd5b6102c65a03f115156200207857600080fd5b5050506040518051905015156200208e57600080fd5b81600160a060020a0316637a521d613360006040516020015260405160e060020a63ffffffff8416028152600160a060020a039091166004820152602401602060405180830381600087803b1515620020e657600080fd5b6102c65a03f11515620020f857600080fd5b5050506040518051905090506200210f81620017b7565b15156200211b57600080fd5b9392505050565b600654600160a060020a0316156200213957600080fd5b60058054600181016200214d8382620024e3565b5060009182526020909120018054600160a060020a031916600160a060020a0383161790557fd762015452576ce8c2046e41180535d3d77b1bf316adfef5172258f235b36ee281604051600160a060020a03909116815260200160405180910390a150565b620021bc6200251b565b600654600160a060020a031615620021d357600080fd5b60068054600160a060020a031916600160a060020a0384161790556005818051620022039291602001906200252d565b507f579d4ea4e4371eb2921d7f4aa8045e3a8909a8797f12cdf2957970840e797f1482604051600160a060020a03909116815260200160405180910390a15050565b6200224f62001021565b156200225a57600080fd5b60038054600181016200226e8382620024e3565b5060009182526020909120018054600160a060020a031916600160a060020a0383161790557f2a7dc50afcfe85877c1e2fe47c6c9ba6c73591a157278b8f912ec0926f05c9c781604051600160a060020a03909116815260200160405180910390a150565b620022dd6200251b565b620022e762001021565b15620022f257600080fd5b60048054600160a060020a031916600160a060020a0384161790556003818051620023229291602001906200252d565b507febe4caa5a549539b317ca5a7498a8570d6b8c322e90cc077f0dbb4ba669f6ece82604051600160a060020a03909116815260200160405180910390a15050565b6200236e6200251b565b600d818051620023839291602001906200252d565b50600e818051620023999291602001906200252d565b50600f818051620023af9291602001906200252d565b50600d8054600181016200114e8382620024e3565b600b5460ff161515620023d657600080fd5b62001e4a620024a0565b6002805460ff19166001179055565b620023f96200251b565b600654600160a060020a031615156200241157600080fd5b600581805162000c579291602001906200252d565b6002805460ff19169055565b6200243c6200251b565b6200244662001021565b15156200245257600080fd5b60048054600160a060020a0319169055600381805162000c579291602001906200252d565b600b5460ff16156200248857600080fd5b621275004201600855600b805460ff19166001179055565b60098054600160a060020a03191690556000600855600b805460ff19169055565b6040516106b780620025da83390190565b6040516105aa8062002c9183390190565b81548183558181151162000ad95760008381526020902062000ad991810190830162002595565b6040516105c5806200323b83390190565b60206040519081016040526000815290565b82805482825590600052602060002090810192821562002587579160200282015b82811115620025875782518254600160a060020a031916600160a060020a0391909116178255602092909201916001909101906200254e565b506200081d929150620025b2565b6200103091905b808211156200081d57600081556001016200259c565b6200103091905b808211156200081d578054600160a060020a0319168155600101620025b956006060604052341561000f57600080fd5b60405160a0806106b7833981016040528080519190602001805191906020018051919060200180519190602001805160008054600160a060020a031916600160a060020a0389161760a060020a60ff021916905542600681905560028790556004869055840160055560018054919350915080820161008e83826100d3565b5060009182526020909120018054600160a060020a031916600160a060020a03831617905560045460025461271091020460025401600381905550505050505061011d565b8154818355818115116100f7576000838152602090206100f79181019083016100fc565b505050565b61011a91905b808211156101165760008155600101610102565b5090565b90565b61058b8061012c6000396000f300606060405236156100c25763ffffffff7c01000000000000000000000000000000000000000000000000000000006000350416630b97bc8681146100c757806324975e55146100ec5780632f1956801461011357806351b42b00146101265780636f9fdd661461013b578063786716fe1461016a5780639580f1be1461017d578063aa8c217c14610190578063ad6f80ff146101a3578063bc5ffcc614610209578063c392f7661461021c578063ee0708051461022f578063f71be83714610242575b600080fd5b34156100d257600080fd5b6100da610261565b60405190815260200160405180910390f35b34156100f757600080fd5b6100ff610267565b604051901515815260200160405180910390f35b341561011e57600080fd5b6100da610271565b341561013157600080fd5b610139610277565b005b341561014657600080fd5b61014e6102c9565b604051600160a060020a03909116815260200160405180910390f35b341561017557600080fd5b6100da6102d8565b341561018857600080fd5b6101396102de565b341561019b57600080fd5b6100da6102e5565b34156101ae57600080fd5b6101b66102eb565b60405160208082528190810183818151815260200191508051906020019060200280838360005b838110156101f55780820151838201526020016101dd565b505050509050019250505060405180910390f35b341561021457600080fd5b6100da610353565b341561022757600080fd5b6100da610359565b341561023a57600080fd5b6100ff61035f565b341561024d57600080fd5b610139600160a060020a0360043516610380565b60065481565b6005544210155b90565b60035481565b60005433600160a060020a0390811691161461029257600080fd5b6000805474ff0000000000000000000000000000000000000000191674010000000000000000000000000000000000000000179055565b600054600160a060020a031681565b60055481565b6000600555565b60025481565b6102f3610506565b600180548060200260200160405190810160405280929190818152602001828054801561034957602002820191906000526020600020905b8154600160a060020a0316815260019091019060200180831161032b575b5050505050905090565b60015490565b60045481565b60005474010000000000000000000000000000000000000000900460ff1681565b60005433600160a060020a0390811691161461039b57600080fd5b60005474010000000000000000000000000000000000000000900460ff16156103c357600080fd5b73__UtilsLib______________________________638782be356001836000604051602001526040518363ffffffff167c0100000000000000000000000000000000000000000000000000000000028152600401808060200183600160a060020a0316600160a060020a03168152602001828103825284818154815260200191508054801561047b57602002820191906000526020600020905b8154600160a060020a0316815260019091019060200180831161045d575b5050935050505060206040518083038186803b151561049957600080fd5b6102c65a03f415156104aa57600080fd5b50505060405180519050156104be57600080fd5b600180548082016104cf8382610518565b5060009182526020909120018054600160a060020a03831673ffffffffffffffffffffffffffffffffffffffff1990911617905550565b60206040519081016040526000815290565b81548183558181151161053c5760008381526020902061053c918101908301610541565b505050565b61026e91905b8082111561055b5760008155600101610547565b50905600a165627a7a7230582098bf8d32a058bd65d80f2ab05b6faa0d49ab1b16966d48abcd3448f0e949a1dc00296060604052341561000f57600080fd5b6040516060806105aa83398101604052808051919060200180519190602001805160008054600160a060020a031916600160a060020a0387161760a060020a60ff0219169055600284905560018054919350915080820161007083826100a2565b5060009182526020909120018054600160a060020a031916600160a060020a0392909216919091179055506100ec9050565b8154818355818115116100c6576000838152602090206100c69181019083016100cb565b505050565b6100e991905b808211156100e557600081556001016100d1565b5090565b90565b6104af806100fb6000396000f300606060405236156100805763ffffffff7c010000000000000000000000000000000000000000000000000000000060003504166351b42b0081146100855780636f9fdd661461009a578063aa8c217c146100c9578063ad6f80ff146100ee578063bc5ffcc614610154578063ee07080514610167578063f71be8371461018e575b600080fd5b341561009057600080fd5b6100986101ad565b005b34156100a557600080fd5b6100ad6101ff565b604051600160a060020a03909116815260200160405180910390f35b34156100d457600080fd5b6100dc61020e565b60405190815260200160405180910390f35b34156100f957600080fd5b610101610214565b60405160208082528190810183818151815260200191508051906020019060200280838360005b83811015610140578082015183820152602001610128565b505050509050019250505060405180910390f35b341561015f57600080fd5b6100dc61027d565b341561017257600080fd5b61017a610283565b604051901515815260200160405180910390f35b341561019957600080fd5b610098600160a060020a03600435166102a4565b60005433600160a060020a039081169116146101c857600080fd5b6000805474ff0000000000000000000000000000000000000000191674010000000000000000000000000000000000000000179055565b600054600160a060020a031681565b60025481565b61021c61042a565b600180548060200260200160405190810160405280929190818152602001828054801561027257602002820191906000526020600020905b8154600160a060020a03168152600190910190602001808311610254575b505050505090505b90565b60015490565b60005474010000000000000000000000000000000000000000900460ff1681565b60005433600160a060020a039081169116146102bf57600080fd5b60005474010000000000000000000000000000000000000000900460ff16156102e757600080fd5b73__UtilsLib______________________________638782be356001836000604051602001526040518363ffffffff167c0100000000000000000000000000000000000000000000000000000000028152600401808060200183600160a060020a0316600160a060020a03168152602001828103825284818154815260200191508054801561039f57602002820191906000526020600020905b8154600160a060020a03168152600190910190602001808311610381575b5050935050505060206040518083038186803b15156103bd57600080fd5b6102c65a03f415156103ce57600080fd5b50505060405180519050156103e257600080fd5b600180548082016103f3838261043c565b5060009182526020909120018054600160a060020a03831673ffffffffffffffffffffffffffffffffffffffff1990911617905550565b60206040519081016040526000815290565b81548183558181151161046057600083815260209020610460918101908301610465565b505050565b61027a91905b8082111561047f576000815560010161046b565b50905600a165627a7a72305820e57581200feda6ebffc0d8fe117e65ca97ace9275a888fc9edcfbed7907f55b600296060604052341561000f57600080fd5b6040516060806105c583398101604052808051919060200180519190602001805160008054600160a060020a0319908116600160a060020a038881169190911760a060020a60ff0219169092556002805490911691861691909117905560018054919350915080820161008283826100b4565b5060009182526020909120018054600160a060020a031916600160a060020a0392909216919091179055506100fe9050565b8154818355818115116100d8576000838152602090206100d89181019083016100dd565b505050565b6100fb91905b808211156100f757600081556001016100e3565b5090565b90565b6104b88061010d6000396000f300606060405236156100805763ffffffff7c010000000000000000000000000000000000000000000000000000000060003504166351b42b0081146100855780636cdbbc661461009a5780636f9fdd66146100c9578063ad6f80ff146100dc578063bc5ffcc614610142578063ee07080514610167578063f71be8371461018e575b600080fd5b341561009057600080fd5b6100986101ad565b005b34156100a557600080fd5b6100ad6101ff565b604051600160a060020a03909116815260200160405180910390f35b34156100d457600080fd5b6100ad61020e565b34156100e757600080fd5b6100ef61021d565b60405160208082528190810183818151815260200191508051906020019060200280838360005b8381101561012e578082015183820152602001610116565b505050509050019250505060405180910390f35b341561014d57600080fd5b610155610286565b60405190815260200160405180910390f35b341561017257600080fd5b61017a61028c565b604051901515815260200160405180910390f35b341561019957600080fd5b610098600160a060020a03600435166102ad565b60005433600160a060020a039081169116146101c857600080fd5b6000805474ff0000000000000000000000000000000000000000191674010000000000000000000000000000000000000000179055565b600254600160a060020a031681565b600054600160a060020a031681565b610225610433565b600180548060200260200160405190810160405280929190818152602001828054801561027b57602002820191906000526020600020905b8154600160a060020a0316815260019091019060200180831161025d575b505050505090505b90565b60015490565b60005474010000000000000000000000000000000000000000900460ff1681565b60005433600160a060020a039081169116146102c857600080fd5b60005474010000000000000000000000000000000000000000900460ff16156102f057600080fd5b73__UtilsLib______________________________638782be356001836000604051602001526040518363ffffffff167c0100000000000000000000000000000000000000000000000000000000028152600401808060200183600160a060020a0316600160a060020a0316815260200182810382528481815481526020019150805480156103a857602002820191906000526020600020905b8154600160a060020a0316815260019091019060200180831161038a575b5050935050505060206040518083038186803b15156103c657600080fd5b6102c65a03f415156103d757600080fd5b50505060405180519050156103eb57600080fd5b600180548082016103fc8382610445565b5060009182526020909120018054600160a060020a03831673ffffffffffffffffffffffffffffffffffffffff1990911617905550565b60206040519081016040526000815290565b8154818355818115116104695760008381526020902061046991810190830161046e565b505050565b61028391905b808211156104885760008155600101610474565b50905600a165627a7a72305820b3fde77025f7ada71536c4c39fb3a1b4c7f5ea12dc25eb93bf5ffb661e4dd14d0029a165627a7a723058207b4f42d76b393207719406c02f915d57dc0f74bd211ed5b3e436066ecfbc6ade0029",
  "source": "pragma solidity ^0.4.4;\n\nimport './UtilsLib.sol';\nimport './Owned.sol';\nimport './Trusteed.sol';\n\nimport { Beneficiary } from './Beneficiary.sol';\nimport { Sale } from './Sale.sol';\nimport { Loan } from './Loan.sol';\nimport { Bid } from './Bid.sol';\nimport { DexRE } from './DexRE.sol';\nimport { Entity } from './Entity.sol';\nimport { EntityFactory } from './EntityFactory.sol';\n\nimport './Trust.sol';\nimport './LoanableTrust.sol';\nimport './SalableTrust.sol';\nimport './AuctionableTrust.sol';\n\ncontract TrustRE is Trust, SalableTrust, LoanableTrust, AuctionableTrust, Trusteed {\n\n  address[] beneficiaries;\n  address[] pendingBeneficiaries;\n  address[] dissolveSignatures;\n\n  address public DexREAdmin;\n\n  event PendingBeneficiaryAdded(address beneficiary);\n  event BeneficiaryAdded(address entity);\n\n  function TrustRE(address _trustee, string _name, string _property, address _beneficiary)\n      public\n      Trusteed(_trustee)\n  {\n      name = _name;\n      property = _property;\n      beneficiaries.push(_beneficiary);\n      DexREAdmin = msg.sender;\n  }\n\n  modifier beneficiary(address _address) {\n      require(isBeneficiary(_address));\n      _;\n  }\n\n  modifier adminOnly(address _address) {\n      require(_address == DexREAdmin);\n      _;\n  }\n\n  function isBeneficiary(address _address)\n      public\n      notDissolved\n      view returns (bool)\n  {\n      return UtilsLib.isAddressFound(beneficiaries, _address);\n  }\n\n  function beneficiariesSignatures()\n      public\n      notDissolved\n      view returns (address[])\n  {\n      return beneficiaries;\n  }\n\n  function getBeneficiaryByIndex(uint index)\n      public\n      notDissolved\n      view returns (address)\n  {\n      return beneficiaries[index];\n  }\n\n  function beneficiariesCount()\n      public\n      notDissolved\n      view returns (uint)\n  {\n      return beneficiaries.length;\n  }\n\n  function getPendingBeneficiaries()\n      public\n      notDissolved\n      view returns (address[])\n  {\n      return pendingBeneficiaries;\n  }\n\n  function dissolve()\n      public\n      notDissolved\n      noActiveLoan\n      noActiveSale\n  {\n      address _entity = validateSender();\n      if(UtilsLib.isAddressFound(dissolveSignatures, _entity))\n          revert();\n      else\n          dissolveSignatures.push(_entity);\n\n      if(beneficiaries.length == dissolveSignatures.length)\n      {\n          wasDissolved();\n      }\n  }\n\n  function cancelSale()\n      public\n      notDissolved\n  {\n      validateSender();\n      doCancelSale();\n  }\n\n  function sold(address _entity)\n      public\n      adminOnly(msg.sender)\n  {\n      resetBeneficiary(_entity);\n      wasRestored();\n      doCancelSale();\n  }\n\n  function validateSender()\n      private\n      view returns (address)\n  {\n      DexRE dexRE = DexRE(DexREAdmin);\n      EntityFactory entityFactoryInstance = EntityFactory(dexRE.entityFactory());\n      require(entityFactoryInstance.isEntityOwner(msg.sender));\n      address _entity = entityFactoryInstance.entityAddress(msg.sender);\n      require(isBeneficiary(_entity));\n      return _entity;\n  }\n\n  function newSaleOffer(uint _amount)\n      public\n      notDissolved\n      noActiveLoan\n  {\n      address _entity = validateSender();\n      Sale saleOffer = new Sale(address(this), _amount, _entity);\n      if(beneficiaries.length > 1) {\n          newSale(saleOffer);\n      }\n      else {\n          setActiveSale(saleOffer);\n          saleOffer.deactivate();\n      }\n  }\n\n  /**\n   * @dev allow beneficiaries to agree to sale offer amount\n   * @param  _sale sale address of the sale offer\n   */\n  function agreeToSaleOffer(address _sale)\n      public\n      notDissolved\n      noActiveLoan\n  {\n      address _entity = validateSender();\n      Sale saleOffer = Sale(_sale);\n      saleOffer.sign(_entity);\n      if(beneficiaries.length == saleOffer.countSignatures())\n      {\n          setActiveSale(saleOffer);\n          saleOffer.deactivate();\n      }\n  }\n\n  /**\n   * @dev allows adding new beneficiary entity to trust\n   * @param  _beneficiaryEntity entity address of the new beneficiary\n   */\n  function newBeneficiary(address _beneficiaryEntity)\n      public\n      notDissolved\n      noActiveLoan\n      noActiveSale\n  {\n      DexRE dexRE = DexRE(DexREAdmin);\n      EntityFactory entityFactoryInstance = EntityFactory(dexRE.entityFactory());\n      require(entityFactoryInstance.isEntityOwner(msg.sender));\n      require(entityFactoryInstance.isEntity(_beneficiaryEntity));\n      address _entity = entityFactoryInstance.entityAddress(msg.sender);\n      require(isBeneficiary(_entity));\n      if(beneficiaries.length > 1) {\n          Beneficiary pendingNewBeneficiary = new Beneficiary(address(this), _beneficiaryEntity, _entity);\n          pendingBeneficiaries.push(pendingNewBeneficiary);\n          PendingBeneficiaryAdded(pendingNewBeneficiary);\n      }\n      else {\n          beneficiaries.push(_beneficiaryEntity);\n          BeneficiaryAdded(_beneficiaryEntity);\n      }\n  }\n\n  /**\n   * @dev allow beneficiaries to agree to add pending beneficiary\n   * @param  _beneficiary beneficiary address of the pending beneficiary\n   */\n  function agreeToAddBeneficiary(address _beneficiary)\n      public\n      notDissolved\n      noActiveLoan\n      noActiveSale\n  {\n      address _entity = validateSender();\n      Beneficiary pendingBeneficiary = Beneficiary(_beneficiary);\n      pendingBeneficiary.sign(_entity);\n      if(beneficiaries.length == pendingBeneficiary.countSignatures())\n      {\n          beneficiaries.push(pendingBeneficiary.entity());\n          pendingBeneficiary.deactivate();\n      }\n  }\n\n  function getDissolveSignatures()\n      public\n      notDissolved\n      view returns (address[])\n  {\n      return dissolveSignatures;\n  }\n\n  function newLoanProposal(uint _amount, uint _interest, uint _secondsBeforeDue)\n      public\n      notDissolved\n      noActiveSale\n  {\n      address _entity = validateSender();\n      Loan loanProposal = new Loan(address(this), _amount, _interest, _secondsBeforeDue, _entity);\n      if(beneficiaries.length > 1) {\n          newLoan(loanProposal);\n      }\n      else {\n          setActiveLoan(loanProposal);\n          loanProposal.deactivate();\n      }\n  }\n\n  /**\n   * @dev allow beneficiaries to agree to any loan proposals\n   * @param  _loan loan address of the loan proposal\n   */\n  function agreeToLoanProposal(address _loan)\n      public\n      notDissolved\n      noActiveSale\n  {\n      address _entity = validateSender();\n      Loan loanProposal = Loan(_loan);\n      loanProposal.sign(_entity);\n      if(beneficiaries.length == loanProposal.countSignatures())\n      {\n          setActiveLoan(loanProposal);\n          loanProposal.deactivate();\n      }\n  }\n\n  function loanDue()\n      public\n      notDissolved\n      hasActiveLoan\n  {\n      Loan loan = Loan(activeLoan);\n      require(loan.isDue());\n      loan.deactivate();\n      activeLoan = 0x0;\n      runAuction();\n  }\n\n  function auctionEnd()\n      public\n      notDissolved\n      noActiveLoan\n      noActiveSale\n      onAuction\n  {\n      require(now >= auctionEndDate);\n      address _newOwner = lender;\n      if(highestBid != 0x0) {\n        Bid bid = Bid(highestBid);\n        _newOwner = bid.owner();\n      }\n      resetBeneficiary(_newOwner);\n      stopAuction();\n  }\n\n  function resetBeneficiary(address _entity)\n      internal\n  {\n      address[] memory emptyAddressArray;\n      beneficiaries = emptyAddressArray;\n      pendingBeneficiaries = emptyAddressArray;\n      dissolveSignatures = emptyAddressArray;\n      beneficiaries.push(_entity);\n  }\n\n  function funded(address _entity)\n      public\n      hasActiveLoan\n      notDissolved\n      adminOnly(msg.sender)\n  {\n      lender = _entity;\n      clearLoanProposals();\n  }\n\n  function loanPaid()\n      public\n      hasActiveLoan\n      notDissolved\n      adminOnly(msg.sender)\n  {\n      Loan loan = Loan(activeLoan);\n      loan.deactivate();\n      activeLoan = 0x0;\n      lender = 0x0;\n  }\n\n  function setHighestBid(address _bid)\n      public\n      notDissolved\n      onAuction\n      adminOnly(msg.sender)\n  {\n      highestBid = _bid;\n  }\n\n  function newBid(address _bid)\n      public\n      notDissolved\n      onAuction\n      adminOnly(msg.sender)\n  {\n      bidsList.push(_bid);\n  }\n\n}\n",
  "sourcePath": "/Users/chanopalis/Documents/ethereum-contracts/smart-law-contracts/DexRE-Contract/contracts/TrustRE.sol",
  "schemaVersion": "1.0.0",
  "updatedAt": "2018-02-28T18:05:46.285Z"
}