{
  "contractName": "User",
  "abi": [
    {
      "constant": true,
      "inputs": [],
      "name": "DexREAdmin",
      "outputs": [
        {
          "name": "",
          "type": "address"
        }
      ],
      "payable": false,
      "stateMutability": "view",
      "type": "function"
    },
    {
      "constant": true,
      "inputs": [],
      "name": "status",
      "outputs": [
        {
          "name": "",
          "type": "bool"
        }
      ],
      "payable": false,
      "stateMutability": "view",
      "type": "function"
    },
    {
      "constant": false,
      "inputs": [
        {
          "name": "_sender",
          "type": "address"
        }
      ],
      "name": "acceptOwnership",
      "outputs": [],
      "payable": false,
      "stateMutability": "nonpayable",
      "type": "function"
    },
    {
      "constant": false,
      "inputs": [
        {
          "name": "_sender",
          "type": "address"
        },
        {
          "name": "_newOwner",
          "type": "address"
        }
      ],
      "name": "transferOwnership",
      "outputs": [],
      "payable": false,
      "stateMutability": "nonpayable",
      "type": "function"
    },
    {
      "constant": false,
      "inputs": [
        {
          "name": "_amount",
          "type": "uint256"
        },
        {
          "name": "_source",
          "type": "string"
        }
      ],
      "name": "mint",
      "outputs": [],
      "payable": false,
      "stateMutability": "nonpayable",
      "type": "function"
    },
    {
      "constant": true,
      "inputs": [
        {
          "name": "_source",
          "type": "string"
        }
      ],
      "name": "availableFunds",
      "outputs": [
        {
          "name": "",
          "type": "uint256"
        }
      ],
      "payable": false,
      "stateMutability": "view",
      "type": "function"
    },
    {
      "constant": true,
      "inputs": [],
      "name": "owner",
      "outputs": [
        {
          "name": "",
          "type": "address"
        }
      ],
      "payable": false,
      "stateMutability": "view",
      "type": "function"
    },
    {
      "constant": true,
      "inputs": [],
      "name": "verified",
      "outputs": [
        {
          "name": "",
          "type": "bool"
        }
      ],
      "payable": false,
      "stateMutability": "view",
      "type": "function"
    },
    {
      "constant": true,
      "inputs": [],
      "name": "factory",
      "outputs": [
        {
          "name": "",
          "type": "address"
        }
      ],
      "payable": false,
      "stateMutability": "view",
      "type": "function"
    },
    {
      "constant": true,
      "inputs": [],
      "name": "LiquidREAdmin",
      "outputs": [
        {
          "name": "",
          "type": "address"
        }
      ],
      "payable": false,
      "stateMutability": "view",
      "type": "function"
    },
    {
      "constant": true,
      "inputs": [],
      "name": "newOwner",
      "outputs": [
        {
          "name": "",
          "type": "address"
        }
      ],
      "payable": false,
      "stateMutability": "view",
      "type": "function"
    },
    {
      "constant": false,
      "inputs": [
        {
          "name": "_amount",
          "type": "uint256"
        },
        {
          "name": "_source",
          "type": "string"
        }
      ],
      "name": "withdraw",
      "outputs": [],
      "payable": false,
      "stateMutability": "nonpayable",
      "type": "function"
    },
    {
      "constant": false,
      "inputs": [],
      "name": "disabled",
      "outputs": [],
      "payable": false,
      "stateMutability": "nonpayable",
      "type": "function"
    },
    {
      "constant": false,
      "inputs": [
        {
          "name": "_amount",
          "type": "uint256"
        },
        {
          "name": "_source",
          "type": "string"
        }
      ],
      "name": "deposit",
      "outputs": [],
      "payable": false,
      "stateMutability": "nonpayable",
      "type": "function"
    },
    {
      "constant": false,
      "inputs": [],
      "name": "verify",
      "outputs": [],
      "payable": false,
      "stateMutability": "nonpayable",
      "type": "function"
    },
    {
      "inputs": [
        {
          "name": "_factory",
          "type": "address"
        },
        {
          "name": "_owner",
          "type": "address"
        },
        {
          "name": "_dexRE",
          "type": "address"
        },
        {
          "name": "_liquidRE",
          "type": "address"
        }
      ],
      "payable": false,
      "stateMutability": "nonpayable",
      "type": "constructor"
    }
  ],
  "bytecode": "0x6060604052341561000f57600080fd5b604051608080610e168339810160405280805191906020018051919060200180519190602001805191506000905060016040517f44657852450000000000000000000000000000000000000000000000000000008152600581019190915260250160405190819003902055600060016040517f4c6971756964524500000000000000000000000000000000000000000000000081526008810191909152602801604051908190039020556002805460008054600160a060020a03978816600160a060020a03199182161790915594861661010002600160a860020a031990911617905560048054928516928416929092179091556005805460a060020a60ff02199290941693909216929092179190911674010000000000000000000000000000000000000000179055610cce806101486000396000f300606060405236156100d85763ffffffff7c01000000000000000000000000000000000000000000000000000000006000350416631eac965781146100dd578063200d2ed21461010c57806351710e45146101335780636d4354211461015457806377097fc81461017957806381b7a2ec146101cf5780638da5cb5b14610232578063bbb82d8914610245578063c45a015514610258578063c908b58e1461026b578063d4ee1d901461027e578063dc048cf214610291578063ee070805146102e7578063f1215d25146102fa578063fc735e9914610350575b600080fd5b34156100e857600080fd5b6100f0610363565b604051600160a060020a03909116815260200160405180910390f35b341561011757600080fd5b61011f610372565b604051901515815260200160405180910390f35b341561013e57600080fd5b610152600160a060020a0360043516610393565b005b341561015f57600080fd5b610152600160a060020a0360043581169060243516610415565b341561018457600080fd5b610152600480359060446024803590810190830135806020601f820181900481020160405190810160405281815292919060208401838380828437509496506104a295505050505050565b34156101da57600080fd5b61022060046024813581810190830135806020601f820181900481020160405190810160405281815292919060208401838380828437509496506106db95505050505050565b60405190815260200160405180910390f35b341561023d57600080fd5b6100f06107b8565b341561025057600080fd5b61011f6107cc565b341561026357600080fd5b6100f06107d5565b341561027657600080fd5b6100f06107e4565b341561028957600080fd5b6100f06107f3565b341561029c57600080fd5b610152600480359060446024803590810190830135806020601f8201819004810201604051908101604052818152929190602084018383808284375094965061080295505050505050565b34156102f257600080fd5b610152610a42565b341561030557600080fd5b610152600480359060446024803590810190830135806020601f82018190048102016040519081016040528181529291906020840183838082843750949650610a9895505050505050565b341561035b57600080fd5b610152610c5d565b600454600160a060020a031681565b60055474010000000000000000000000000000000000000000900460ff1681565b60005433600160a060020a039081169116146103ae57600080fd5b600354600160a060020a038281169116146103c857600080fd5b50600380546002805474ffffffffffffffffffffffffffffffffffffffff001916610100600160a060020a0384160217905573ffffffffffffffffffffffffffffffffffffffff19169055565b6002548290600160a060020a03808316610100909204161461043657600080fd5b60005433600160a060020a0390811691161461045157600080fd5b600254600160a060020a0383811661010090920416141561047157600080fd5b506003805473ffffffffffffffffffffffffffffffffffffffff1916600160a060020a039290921691909117905550565b60045433600160a060020a03908116911614806104cd575060055433600160a060020a039081169116145b15156104d857600080fd5b60405160d860020a644465785245028152600501604051908190039020816040518082805190602001908083835b602083106105255780518252601f199092019160209182019101610506565b6001836020036101000a038019825116818451161790925250505091909101925060409150505190819003902014806105ea57506040517f4c697175696452450000000000000000000000000000000000000000000000008152600801604051908190039020816040518082805190602001908083835b602083106105bb5780518252601f19909201916020918201910161059c565b6001836020036101000a0380198251168184511617909252505050919091019250604091505051908190039020145b15156105f557600080fd5b816001826040518082805190602001908083835b602083106106285780518252601f199092019160209182019101610609565b6001836020036101000a03801982511681845116808217855250505050505090500191505090815260200160405190819003902054101561066857600080fd5b816001826040518082805190602001908083835b6020831061069b5780518252601f19909201916020918201910161067c565b6001836020036101000a03801982511681845116808217855250505050505090500191505090815260200160405190819003902080549190910390555050565b60025460009033600160a060020a0390811661010090920416148061070e575060005433600160a060020a039081169116145b80610727575060045433600160a060020a039081169116145b80610740575060055433600160a060020a039081169116145b151561074b57600080fd5b6001826040518082805190602001908083835b6020831061077d5780518252601f19909201916020918201910161075e565b6001836020036101000a0380198251168184511680821785525050505050509050019150509081526020016040518091039020549050919050565b6002546101009004600160a060020a031681565b60025460ff1681565b600054600160a060020a031681565b600554600160a060020a031681565b600354600160a060020a031681565b6002546000903390600160a060020a03808316610100909204161461082657600080fd5b60405160d860020a644465785245028152600501604051908190039020836040518082805190602001908083835b602083106108735780518252601f199092019160209182019101610854565b6001836020036101000a0380198251168184511617909252505050919091019250604091505051908190039020148061093857506040517f4c697175696452450000000000000000000000000000000000000000000000008152600801604051908190039020836040518082805190602001908083835b602083106109095780518252601f1990920191602091820191016108ea565b6001836020036101000a0380198251168184511617909252505050919091019250604091505051908190039020145b151561094357600080fd5b60405160d860020a644465785245028152600501604051908190039020836040518082805190602001908083835b602083106109905780518252601f199092019160209182019101610971565b6001836020036101000a03801982511681845116179092525050509190910192506040915050519081900390201415610a3c57600454600160a060020a0316915081632e1a7d4d856040517c010000000000000000000000000000000000000000000000000000000063ffffffff84160281526004810191909152602401600060405180830381600087803b1515610a2757600080fd5b6102c65a03f11515610a3857600080fd5b5050505b50505050565b60045433600160a060020a0390811691161480610a6d575060055433600160a060020a039081169116145b1515610a7857600080fd5b6005805474ff000000000000000000000000000000000000000019169055565b60045433600160a060020a0390811691161480610ac3575060055433600160a060020a039081169116145b1515610ace57600080fd5b60405160d860020a644465785245028152600501604051908190039020816040518082805190602001908083835b60208310610b1b5780518252601f199092019160209182019101610afc565b6001836020036101000a03801982511681845116179092525050509190910192506040915050519081900390201480610be057506040517f4c697175696452450000000000000000000000000000000000000000000000008152600801604051908190039020816040518082805190602001908083835b60208310610bb15780518252601f199092019160209182019101610b92565b6001836020036101000a0380198251168184511617909252505050919091019250604091505051908190039020145b1515610beb57600080fd5b816001826040518082805190602001908083835b60208310610c1e5780518252601f199092019160209182019101610bff565b6001836020036101000a038019825116818451168082178552505050505050905001915050908152602001604051908190039020805490910190555050565b60045433600160a060020a0390811691161480610c88575060055433600160a060020a039081169116145b1515610c9357600080fd5b6002805460ff191660011790555600a165627a7a7230582050bac49a97cda710d818e31e0510d67779b5e7373ceaf8a254b2d815487aeb5d0029",
  "source": "pragma solidity ^0.4.4;\nimport { DexRE } from './DexRE.sol';\n\ncontract User {\n\n    address public factory;\n    mapping (string => uint) funds;\n    bool public verified;\n    address public owner;\n    address public newOwner;\n    address public DexREAdmin;\n    address public LiquidREAdmin;\n    bool public status;\n\n    function User(\n        address _factory,\n        address _owner,\n        address _dexRE,\n        address _liquidRE\n    )\n        public\n    {\n        funds['DexRE'] = 0;\n        funds['LiquidRE'] = 0;\n        verified = false;\n        factory = _factory;\n        owner = _owner;\n        DexREAdmin = _dexRE;\n        LiquidREAdmin = _liquidRE;\n        status = true;\n    }\n\n    modifier enabledOnly() {\n        require(status);\n        _;\n    }\n\n    modifier ownerOnly(address _address) {\n        require(_address == owner);\n        _;\n    }\n\n    modifier dexREOnly(address _address) {\n        require(_address == DexREAdmin);\n        _;\n    }\n\n    modifier liquidREOnly(address _address) {\n        require(_address == LiquidREAdmin);\n        _;\n    }\n\n    modifier factoryOnly() {\n        require(factory == msg.sender);\n        _;\n    }\n\n    modifier adminOnly() {\n        require(msg.sender == DexREAdmin || msg.sender == LiquidREAdmin);\n        _;\n    }\n\n    modifier validateSender() {\n        require(msg.sender == owner || msg.sender == factory || msg.sender == DexREAdmin || msg.sender == LiquidREAdmin);\n        _;\n    }\n\n    function disabled()\n        public\n        adminOnly\n    {\n        status = false;\n    }\n\n    function transferOwnership(address _sender, address _newOwner)\n        public\n        ownerOnly(_sender)\n        factoryOnly\n    {\n        require(_newOwner != owner);\n        newOwner = _newOwner;\n    }\n\n    function acceptOwnership(address _sender)\n        public\n        factoryOnly\n    {\n        require(_sender == newOwner);\n        owner = newOwner;\n        newOwner = 0x0;\n    }\n\n    function availableFunds(string _source)\n        public\n        validateSender\n        view returns(uint)\n    {\n        return funds[_source];\n    }\n\n    function verify()\n        public\n        adminOnly\n    {\n        verified = true;\n    }\n\n    function withdraw(uint _amount, string _source)\n        public\n        ownerOnly(msg.sender)\n    {\n        require(keccak256(_source) == keccak256('DexRE') || keccak256(_source) == keccak256('LiquidRE'));\n        if(keccak256(_source) == keccak256('DexRE')) {\n            DexRE dexRE = DexRE(DexREAdmin);\n            dexRE.withdraw(_amount);\n        }\n    }\n\n    function deposit(uint _amount, string _source)\n        public\n        adminOnly\n    {\n        require(keccak256(_source) == keccak256('DexRE') || keccak256(_source) == keccak256('LiquidRE'));\n        funds[_source] += _amount;\n    }\n\n    function mint(uint _amount, string _source)\n        public\n        adminOnly\n    {\n        require(keccak256(_source) == keccak256('DexRE') || keccak256(_source) == keccak256('LiquidRE'));\n        require(funds[_source] >= _amount);\n        funds[_source] -= _amount;\n    }\n\n}\n",
  "sourcePath": "/Users/chanopalis/Documents/ethereum-contracts/smart-law-contracts/DexRE-Contract/contracts/User.sol",
  "schemaVersion": "1.0.0",
  "updatedAt": "2018-02-28T18:05:46.291Z"
}