{
  "contractName": "UtilsLib",
  "abi": [
    {
      "constant": true,
      "inputs": [
        {
          "name": "_source",
          "type": "address[]"
        },
        {
          "name": "_address",
          "type": "address"
        }
      ],
      "name": "isAddressFound",
      "outputs": [
        {
          "name": "",
          "type": "bool"
        }
      ],
      "payable": false,
      "stateMutability": "pure",
      "type": "function"
    }
  ],
  "bytecode": "0x6060604052341561000f57600080fd5b61014b8061001e6000396000f300606060405263ffffffff7c01000000000000000000000000000000000000000000000000000000006000350416638782be35811461003c57600080fd5b61009860046024813581810190830135806020818102016040519081016040528093929190818152602001838360200280828437509496505050923573ffffffffffffffffffffffffffffffffffffffff1692506100ac915050565b604051901515815260200160405180910390f35b6000805b8351811015610113578273ffffffffffffffffffffffffffffffffffffffff168482815181106100dc57fe5b9060200190602002015173ffffffffffffffffffffffffffffffffffffffff16141561010b5760019150610118565b6001016100b0565b600091505b50929150505600a165627a7a72305820ad17ebd02637736cf57faed628c50395c8c5c131295d938b5fd1e64bd15e2dbb0029",
  "source": "pragma solidity ^0.4.4;\n\nlibrary UtilsLib {\n\n    function isAddressFound(address[] _source, address _address)\n        public\n        pure\n        returns (bool)\n    {\n        for (uint i = 0; i < _source.length; i++) {\n            if (_source[i] == _address) {\n                return true;\n            }\n        }\n        return false;\n    }\n}\n",
  "sourcePath": "/Users/chanopalis/Documents/ethereum-contracts/smart-law-contracts/DexRE-Contract/contracts/UtilsLib.sol",
  "schemaVersion": "1.0.0",
  "updatedAt": "2018-03-02T16:07:25.130Z"
}